:020000040000FA
:100000006801002001010000050100000701000057
:1000100009010000090100000901000000000000C2
:1000200000000000000000000000000009010000C6
:1000300009010000000000000901000009010000A2
:100040000901000009010000090100000901000088
:100050000901000009010000090100000901000078
:100060000901000009010000090100000901000068
:1000700009010000090100002F0300000901000030
:100080000901000009010000090100000901000048
:100090000901000009010000090100000901000038
:1000A0000901000009010000090100000901000028
:1000B0000901000009010000090100000901000018
:1000C0000901000009010000090100000901000008
:1000D00009010000090100000901000009010000F8
:1000E00009010000090100000901000009010000E8
:1000F00009010000090100000901000009010000D8
:1001000000F004B8FEE7FEE7FEE7000000F002F8AA
:1001100000F041F80AA090E8000C82448344AAF160
:100120000107DA4501D100F036F8AFF2090EBAE85E
:100130000F0013F0010F18BFFB1A43F0010318471B
:10014000700B0000900B0000103A24BF78C878C1F3
:10015000FAD8520724BF30C830C144BF04680C60CD
:10016000704700000023002400250026103A28BF15
:1001700078C1FBD8520728BF30C148BF0B60704719
:10018000642900F03581002070471FB5AFF300806F
:100190001FBD10B510BD00F04AFA1146FFF7F5FF7C
:1001A00000F0A8F800F068FAFFF7F3FF00F06EFA2D
:1001B0000138FDD17047000002480349014A034B52
:1001C00070470000680000206801002068000020DF
:1001D00010B5044604E014F8011B5D4800F0E0FC93
:1001E00020780028F7D110BD70B58AB00446594870
:1001F000E12101FB1405AA0A57A1684600F0E4F8C2
:100200006846FFF7E5FFC5F309006621B0FBF1F68C
:10021000324653A1684600F0D7F86846FFF7D8FF8A
:1002200050A0FFF7D5FF0AB070BD08B500214F48B8
:1002300000F04DFA00BF4E4800780028FBD00020A7
:100240004B4908706A460021484800F05EFA009861
:1002500008BD10B51B2000F08DFC464800F0FAFBED
:1002600000F058FB44490860444800F089FC4448C9
:1002700000F086FC03214FF0402000F0F0FA00F07F
:1002800049FB044660234FF416520146304800F003
:100290008DFC2F4800F0B4FC10BD10B5394800F0BB
:1002A0006FFC002000F022FB0021304800F03FFAF4
:1002B00000231A4619462D4800F00EFAE0230022CA
:1002C00011462A4800F042FA0021284800F0EEF9D1
:1002D0001E2000F0D2FA00F004FB0021234800F0B9
:1002E0002EFA10BD10B51B2000F044FC264800F08B
:1002F000B1FB10BD70B5FFF7F5FFFFF7CEFFFFF7BD
:10030000A8FF13E021A0FFF763FF26A0FFF760FF1F
:10031000194800680321B0FBF1F42046FFF748FFBD
:10032000FFF783FF05462846FFF75EFFEAE710B5B3
:10033000012200210D4800F0C1F9044600210B48BC
:1003400000F0AFF914B101200949087010BD000098
:1003500000C00040004E0200256C642E000000002A
:10036000256C6400A1E60D0A000000000080034037
:1003700000000020C002C004040000200100002092
:100380000100001001001000C002C0076874747002
:100390003A2F2F7777772E636478792E6564752EE0
:1003A000636E0A0055544154302061637469766568
:1003B0000A000000EFF3108072B67047EFF3108070
:1003C00062B6704730BF70470FB408491CB506AB22
:1003D0006A4679440090059800F009F900206946C2
:1003E00000F018F91CBC5DF814FB00003F0200008F
:1003F0002DE9F0418046002610687529414614A574
:1004000011D0AFF30080002802DA404211A508E0C5
:10041000D8F800108A0701D50FA502E0490704D5D6
:100420000EA5012601E0AFF30080002408F12407A7
:1004300004E000F0F4F830313955641C0028F8D19C
:1004400033462A4621464046BDE8F04100F073B8E5
:10045000000000002D0000002B0000002000000024
:100460002DE9F0474FF0000A05460F464FF080098E
:10047000C0F820A02846E9688847002855D02528DC
:1004800002D0D5E901214BE0E968284600268847DB
:100490006C28044601D0682C17D1A0462846E9688C
:1004A0008847404504460AD14E46B8F16C0F01D04A
:1004B0004FF480662846E9688847044615E04026E0
:1004C000B8F16C0F11D0B6000FE04C2C05D06A2C9F
:1004D00003D0742C01D07A2C07D156464C2CE9D08D
:1004E0004E466A2CE6D00026E4E7F4B1A4F14100C0
:1004F000192802D8203446F400663A462146284698
:100500002E60FFF73DFE40B1012801D13F1DB1E74C
:10051000FF1D27F007070837ACE7D5E90121204682
:100520009047286A401C2862A4E7286ABDE8F08743
:100530007047704770472DE9F0470D4604469246D4
:10054000994600F124080168880604D5E06921F085
:100550001001216000E001200027A84200DD471BB8
:10056000A1697A1902EB0900081AA0612068C00687
:1005700002D42046AFF30080002608E0D4E9012130
:100580001AF806009047206A401C761C20624E45EF
:10059000F4DB2068C0060AD52046AFF3008006E0F1
:1005A000D4E9012130209047206A401C2062381E87
:1005B000A7F10107F4DC07E0D4E9012118F80500F0
:1005C0009047206A401C2062281EA5F10105F3DC3B
:1005D0002046AFF3008021680220090600D40120E4
:1005E000BDE8F08701694A1C02610878704710B5C0
:1005F0000C46194690B0CDE9024200220692044A08
:100600007A44CDE9042001A8FFF72AFF10B010BDFD
:10061000E1FFFFFF0A6802F8010B0A6070474FF024
:100620000A01B0FBF1F202FB11011046704775465A
:1006300000F028F8AE4605006946534620F0070052
:10064000854618B020B5FFF7B7FDBDE820404FF054
:1006500000064FF000074FF000084FF0000B21F0AC
:100660000701AC46ACE8C009ACE8C009ACE8C00979
:10067000ACE8C0098D4670470446AFF300802046C1
:10068000FFF792FD004870470800002003494FF033
:100690001800ABBE704700000900000026000200F1
:1006A0007047012202FA01F1C1607047012202FA8B
:1006B00001F1C1608268114381607047012303FA30
:1006C00001F1002A0CBF4068C06808407047012251
:1006D00002FA01F18162704710B4446989004FF059
:1006E0000F0C0CFA01FC02F00F0224EA0C048A4001
:1006F00022434261026A03F0030322EA0C0203FA76
:1007000001F11143016210BC704700EB411000F190
:100710004001002003E08B6842F8043B401CCB689A
:1007200013F4807F18BF70470828F4D3704702681D
:10073000012303FA01F122EA010101607047026816
:10074000012303FA01F111430160704710B400EB7B
:100750004110D0F840C091000F228A4003F00F04EE
:100760002CEA020C8C404CEA040CC0F840C0D0F8D3
:1007700044C0C3F303132CEA020203FA01F111434C
:10078000416410BC7047D0F8003412F0010F0CBF68
:100790008B430B43C0F8003412F0020FD0F8202432
:1007A0000CBF22EA01011143C0F820147047D0F8B1
:1007B00000C512F0010F0CBF2CEA010C4CEA010C31
:1007C000C0F800C5D0F804C512F0020F0CBF2CEA27
:1007D000010C4CEA010CC0F804C5D0F808C512F0B1
:1007E000040F0CBF2CEA010C4CEA010CC0F808C540
:1007F00012F0080FD0F818250CBF8A430A43C0F83E
:100800001825D0F80C2513F0010F0CBF8A430A43BA
:10081000C0F80C25D0F8102513F0020F0CBF8A4346
:100820000A43C0F81025D0F8142513F0040F0CBFAC
:100830008A430A43C0F81425D0F81C2513F0080F8A
:100840000CBF8A430A43C0F81C25D0F82825002B8A
:1008500014BF22EA01011143C0F82815704730B5D2
:1008600004460D460222FFF78EFF29462046BDE8CA
:10087000304008230122FFF79ABF4FF0E0220428FE
:1008800004BFD2F8240D40F4803005D0052806D1ED
:10089000D2F8240D40F40030C2F8240D7047062829
:1008A00001BFD2F8240D40F48020C2F8240D704717
:1008B0000F2801BF106940F0020010617047A0F1DD
:1008C000100101231F299EBF03FA01F0C2F80001A5
:1008D0007047302822BF303803FA00F0C2F8040114
:1008E000704710B5FFF76AFDC0B210BD08490A682D
:1008F00022F4706202430A600A6922F470620243C1
:100900000A610A6A22F470621043086270470000AC
:1009100000E10F4030B4DFF820C1DCF86030DCF8D3
:10092000701011F0004F0CBF03F0300001F07000A8
:10093000424C202825D010DCE0B1102817D1DCF87B
:10094000000010F0E04F1FBFDCF800002040B0F1C5
:10095000805F3B4822D13B4820E0302808BF47F267
:1009600030501BD0702808BF4FF4004016D030BC68
:1009700000207047344A03F4F86002EB101000685E
:100980000CE0DCF8000010F0E04F1FBFDCF80000C6
:100990002040B0F1805F2D4800D12D4811F0004F6C
:1009A00002D011F4006F05D001F0004203F400659D
:1009B0002A432AD1DCF86420DCF8005015F0E04F1F
:1009C0001EBFDCF800C00CEA040CBCF1805FC2F36F
:1009D000481C08D10CF1020C00FB0CF002F01F0CBB
:1009E0000CF1020C07E000FB0CF002F01F0C0CF104
:1009F000010C4FEA4C0CB0FBFCF012F4804F18BF16
:100A0000400812F4004F18BF800813F4800F04BF91
:100A100030BC704711F0004F1FBFC1F3C551491CD6
:100A2000B0FBF1F030BC18BF7047C3F3C351491C91
:100A3000B0FBF1F030BC704700E00F400000FF70E9
:100A4000001BB700C0E1E400540C0000C0C62D003C
:100A5000703839002DE9F041404F04463868DFF81E
:100A6000008110F0E04F1EBF386800EA0800B0F1C6
:100A7000805F04D114F0004F18BFBDE8F081396EDB
:100A8000386F21F4800141F4006540F400663D6652
:100A90003E6715F0020F02D014F0020F04D025EAD1
:100AA000040010F0010F14D064F0030005403D660F
:100AB00016F0004F09D006F0700030281ABF7020E1
:100AC00030EA06004FF4805001D04FF40020FFF7C9
:100AD0006FFB3868234A00EA080143F2F07025F4FE
:100AE000FE61204021F4405140EA01051E481F49A3
:100AF00030402140084304F0080140EAC10640208C
:100B0000B86516F0004F18BF3E673D6608BF3E67E8
:100B10001020FFF74DFB164925F0030020F0F86088
:100B20002140014326F0FC5004F0FC52024314F42F
:100B3000006F0BD14FF400403B6D13F0400F01D11B
:100B4000401EF9D121F4006122F4006239663A674F
:100B5000BDE8F0411020FFF72BBB000000E00F4084
:100B60000000FF70000003108FDFFF7F3020008047
:100B70000300C007014948637047000000E00F40D0
:100B8000064A010F52F821100A6883B2C0F30440EC
:100B900003FA00F01043086070470000300C0000BA
:100BA000826912F0200FFBD101607047D0F818C0A5
:100BB0001CF0080FFAD1D0F82CC02CF0100CC0F8A3
:100BC0002CC0D0F830C02CF0010C2CF4407CC0F8C4
:100BD00030C0C900B1FBF2F1491C49088A094262E0
:100BE00001F03F018162C36200218161C16A41F06D
:100BF0001001C162016B40F2013211430163704781
:100C0000C16A41F01001C162016B40F2013211432F
:100C10000163704710E00F4014E00F401CE00F40EC
:100C200010E00F4040E00F4044E00F4048E00F402C
:100C300000E10F4004E10F4008E10F4010E10F40D8
:100C400014E10F4018E10F4020E10F4024E10F4074
:100C500028E10F4040420F0000201C0080841E004D
:100C600000802500999E36000040380000093D00B4
:100C700000803E0000004B00404B4C0000204E0026
:100C8000808D5B0000C05D000080700000127A0063
:100C900000007D0080969800001BB7000080BB001C
:100CA000C0E8CE00647ADA000024F4000000FA0004
:100CB000D00C0000000000200800000048010000E7
:100CC000D80C000008000020600100006401000052
:080CD00000000000000000001C
:040000050000010DE9
:00000001FF
