:020000042000DA
:1000000000810020F1000020A1030020A3030020B4
:10001000A5030020A5030020A50300200000000088
:10002000000000000000000000000000A503002008
:10003000A503002000000000A5030020A503002068
:10004000A5030020A5030020A5030020A503002090
:10005000A503002055010020A5030020A5030020D2
:10006000A5030020A5030020A5030020A503002070
:10007000A5030020A5030020A5030020A503002060
:10008000A5030020A5030020A5030020A503002050
:10009000A5030020A5030020A5030020A503002040
:1000A000A5030020A5030020A5030020A503002030
:1000B000A5030020A5030020A5030020A503002020
:1000C000A5030020A5030020A5030020A503002010
:1000D000A5030020A5030020A5030020A503002000
:1000E000A5030020A5030020A5030020A5030020F0
:1000F000124885461248134908600D4A0D4B0E49B7
:100100008B4204D252F8040F43F8040BF8E70E4870
:100110000E494FF000028842B8BF40F8042BFFF6AA
:10012000FAAF4FF000004FF00001094A9047FEE798
:10013000B815002000800020008000200000012071
:100140000000002008ED00E0008000200581002074
:10015000A1010020012108B5094801F078F8014605
:10016000074801F079F8064801F054F838B104481E
:1001700001F056F8C1B2024801F059F8F3E708BDA2
:1001800000C0004038B504464518AC4205D014F80C
:10019000011B024801F04BF8F7E738BD00C00040F2
:1001A00030B56F4891B000F065FE6E4800F038FE43
:1001B0006D4800F035FE6D4800F032FEA0216C481D
:1001C00000F046FD6B4800F02BFE40F6010000F009
:1001D0005BFD40F6014000F057FD41F2010000F0E8
:1001E00053FD41F2014000F04FFD3C214FF0402013
:1001F00000F048FD00F0E6FE5F4A08238DE80C00A1
:1002000000231A4601465D4800F096FD5B4800F069
:10021000B7FD00F05BFD03214FF0402000F030FD02
:1002200000F0D0FE60234FF4E1320146544800F064
:10023000CCFF152000F050FD5021514801F003F88B
:10024000002000F0D9F80C214E48FFF79BFF0C214D
:100250004C48FFF797FF05A9484800F0A1FD044668
:100260000028F8D100F052FC00F048FC012000F01A
:10027000C7F900F0EBF90A21204600F0DDF9012270
:100280002146414800F082FB00F09EFA00F0DEF9C2
:100290004A2000F04FFA00F051FA01463B4800F0C6
:1002A000D3F803AD05223A49102000F0DAF905220F
:1002B0002946102000F0F0F92A5D21463548013426
:1002C00000F0C2F8052CF7D1334800F0BDF8002447
:1002D00008AD64550134202CFBD12F4800F0B4F850
:1002E00000F020FA072000F037FC40F01001C9B2FE
:1002F000072000F023FC16A1D1E9000100F08EFADE
:1003000015A3D3E90023012000F09CFA052000F09A
:1003100023FC0146214800F097F84FF47A7000F072
:100320006FF90321022000F087F92146122000F026
:1003300083F900F08BF90A21002000F07DF900F02C
:1003400047FB284600F0C3F9FBE700BFAFF300808E
:100350007C68524D5400000071CDCDABAB00000065
:10036000803B8007010000100100002004000020F5
:10037000006000401000001000093D0000800040B7
:1003800000C0004064120020721200207A12002087
:10039000A01200208A120020531300209112002086
:1003A000FEE7FEE7FEE70000104B2DE9F04153F8B1
:1003B0002050064628468846174600F0FBFC90B1C0
:1003C0000B4B0C4C53F826302846236000F028FDD8
:1003D000206842463946602300F0F7FE2068BDE8F9
:1003E000F04100F0D9BEBDE8F08100BFB01200209E
:1003F000D81200200081002010B5044600F0E2FD74
:100400004FF4E13102462046BDE81040FFF7CCBF73
:100410002DE9F0410D4604460A4E4718BC420ED065
:100420002378A0460A2B03D10D21306800F006FF87
:1004300098F800103068013400F000FFEEE728461D
:10044000BDE8F081008100200FB42DE9F04387B0B2
:100450000EAB53F8045B674E01932B78002B00F032
:10046000C3802B46591B1C4613F8012B252A07D1A4
:100470002846FFF7CDFF2378252B04D02546ECE74F
:10048000002AEFD1F4E7601C4FF0200E00240A226E
:10049000054615F8013B642B2BD014D8392B05D811
:1004A000302B1CD2252B00F0988098E0582B49D097
:1004B000632B40F09480019B06A81A1D1B680192D3
:1004C00040F8183D89E0732B1ED003D8692B10D05B
:1004D000702B02E0752B2ED0782B33D07FE002D129
:1004E000002C08BF9E4602FB04332846A3F13004CB
:1004F000CEE7019B1A1D1B680192002B1FDA5B429D
:10050000009301210A2224E0019B18681A1D03466A
:1005100001921F1A13F8012B002AFAD13946FFF76E
:1005200077FFBC4299D9E41B01213348FFF770FFE4
:10053000013CF9D191E7019B1A1D1B6801920093C0
:100540000021DFE7019B00211A1D1B680192009327
:100550001022DDF80080012702FB07F3434502D992
:1005600041B90B4613E0B3FBF2F08742F8D1013CEE
:100570001F46F1E7BEF1300F04BF2D238DF8083080
:1005800004F1FF3407BF0021012301210023A01E35
:100590000D2802A80BD803F1FF3C04F1FF39844475
:1005A000B9F101090CF801EFFAD12344013B29B15B
:1005B00006A919442D2401F8104C01330344191ADB
:1005C0007FB1B8FBF7F4B4FBF2F102FB1141895D96
:1005D000B7FBF2F703F8011BF1E7012101E007483F
:1005E0000521FFF715FF38E707B0BDE8F04304B079
:1005F000704700BFC01200208F120020D1120020CF
:1006000010B5044600F0DEFC41F27073B0FBF3F06D
:100610006043BDE8104000F029BC000010B504465E
:1006200000F0D0FC034BB0FBF3F06043BDE810409A
:1006300000F01CBC808D5B0000F01F0040F020002B
:1006400000F07CBA00F01F0000F086BA08B5002068
:1006500000F082FABDE8084000F0FE010020FFF73C
:10066000EBBFF8B504460E46174600F04FFA04F00B
:100670001F0040F0200000F051FA34460546A31B4D
:100680009F4205DD14F8010B00F048FA0546F6E735
:1006900000F034FA2846F8BDF8B506460C46154673
:1006A00000F034FA06F01F0000F038FA0646013D6B
:1006B000671E2C44A74206D0FF2000F02FFA064602
:1006C00007F8010FF6E700F019FA3046F8BD38B523
:1006D000054600F00BFA00F019FAA02000F01EFA0F
:1006E00000242819C0B2013400F018FA202CF8D1E7
:1006F00000F004FA00F0F2F9072000F02DFA0446A9
:1007000001460720FFF798FF630705D5FF21E12089
:10071000FFF792FF042038BD14F0050F14BF052029
:10072000FF2038BD08B500F0F1F9BDE80840E12030
:1007300000F0F4B901460520FFF77EBF052000F068
:100740000BBA10B50446062000F006FA032C9CBF35
:100750006400013400F0F80194BF04F0FF040724A2
:1007600021430620BDE81040FFF766BF38B50546B7
:10077000062000F0F1F9022D00F0D70402D144F078
:10078000200403E0012D08BF44F0080421460620A0
:10079000FFF752FF062000F0DFF9231A58425841B4
:1007A00038BD10B50446002000F0D6F900F0F30182
:1007B0002CB1022C0CBF41F0080141F00C010020CB
:1007C000BDE81040FFF738BF08B50220FFF7CEFFA5
:1007D00010B1114B01221A7000F088F900F08EF967
:1007E0004A20FFF7A7FF0320FFF7ABFF0120FFF729
:1007F000BDFF3F210120FFF71FFF2F210420FFF73E
:100800001BFF0220FFF7CDFF00F068F9BDE80840AC
:10081000C820FFF703BF00BF0481002013B502AC5E
:1008200064E90201052221460A20FFF71AFF05228A
:1008300021461020FFF715FF20211120FFF7FCFEB5
:1008400002B010BD13B506280446CDE900231AD81E
:100850000E4B012894BF052201226946185CFFF760
:1008600000FF0B4B0521185DFFF7E6FE022000F0AC
:1008700073F9084B195D012303FA01F10143C9B271
:100880000220FFF7D9FE02B010BD00BF5C140020AB
:10089000E41200205014002010B5002000F05CF994
:1008A0000446012000F058F9230700D420B114F0C9
:1008B000040F14BF0320022010BD08B5062000F06D
:1008C0004BF9C0F3410008BD08B5062000F044F91B
:1008D00000F02800202804D0A0F108035842584115
:1008E00008BD022008BD08B500F010F9BDE80840B9
:1008F000FF2000F013B900001FB500F001030293C0
:10090000C0F342030193C0F3001301460093C0F308
:100910008012C0F340130348FFF796FD05B05DF861
:1009200004FB00BF5613002073B50D461446014664
:100930001248FFF789FD2C44E4B2A54219D00023E8
:1009400005226946284600938DF80430FFF7A4FE7F
:100950000B48FFF779FD6E1CF6B2052515F1FF3542
:1009600005D31DF805100748FFF76EFDF6E735467D
:10097000E3E70548FFF768FD02B070BD33130020C0
:10098000441300209F1300205313002070B50D4620
:10099000144601460B48FFF757FD2C44E4B2A5422C
:1009A0000AD02846FFF74EFE6E1C0146F6B20648F6
:1009B000FFF74AFD3546F2E70448BDE87040FFF70F
:1009C00043BD00BF331300209C13002053130020AD
:1009D00008B5FFF788FFFFF78FFF012203212B489F
:1009E000FFF7D4FF02220A212948FFF79DFF0422C6
:1009F0000C212848FFF7CAFF012210212648FFF7E3
:100A000093FF062211212548FFF7C0FF012211465E
:100A10002348FFF7BBFF012202212248FFF7B6FF60
:100A2000012205212048FFF7B1FF012206211F48BE
:100A3000FFF7ACFF012200211D48FFF7A7FF0222AC
:100A40001C211C48FFF7A2FFFFF73EFF1A4B53F88B
:100A500020101A48FFF7F8FC194B1A481A781A4B5D
:100A600053F82210FFF7F0FCFFF716FF174B53F86F
:100A700020101748FFF7E8FCFFF71FFF154B53F84E
:100A800020101548BDE80840FFF7DEBCA413002085
:100A9000AE130020BB130020C8130020D113002088
:100AA000DC130020E3130020ED130020F4130020DA
:100AB00072120020FD130020881400200B14002067
:100AC000048100201D140020A01400206C140020BC
:100AD0002C1400200C1300203F140020024A13683D
:100AE00043F0800313607047FC630040024A1368C0
:100AF00023F0800313607047FC630040024A1368D0
:100B000043F0200313607047FC630040024A1368FF
:100B100023F0200313607047FC63004013B5064CBC
:100B20000146204600F031F9204601A900F032F9D3
:100B30009DF8040002B010BD0080004038B50D469D
:100B4000FFF7E4FFFFF7EAFF04462846FFF7E6FF5A
:100B5000FFF7D4FF204638BD08B5FFF7D7FFFFF7F2
:100B6000DDFFFF20FFF7DAFFFFF7C8FF08BDD0F871
:100B7000003412F0010F14BF0B438B4310B500F586
:100B80008064236012F0020FD0F8202400F5846303
:100B900014BF114322EA0101196010BD30B5D0F82D
:100BA000004512F0010F00F5A06514BF0C438C4303
:100BB0002C60D0F8044512F0020F00F2045514BF67
:100BC0000C438C432C60D0F8084512F0040F00F55C
:100BD000A16514BF0C438C432C6012F0080FD0F8B1
:100BE000182500F5A36414BF0A438A432260D0F895
:100BF0000C25DD0700F20C544CBF0A438A432260E7
:100C0000D0F810259D0700F5A2644CBF0A438A4323
:100C10002260D0F814255D0700F214544CBF0A433B
:100C20008A432260D0F81C251D074CBF0A438A4323
:100C300000F21C54226000F5A5621BB9D0F82835DB
:100C4000194303E0D0F8283523EA0101116030BDD3
:100C500038B50D4608230122FFF7A0FF2946BDE85D
:100C600038400122FFF783BF70B50D460222FFF71F
:100C70007EFF2946BDE8704008230122FFF78EBFA2
:100C8000FFF7F2BFFFF7F0BF0E4AC0F3074311684A
:100C900001229A400A424FEA43030B4A18BF01332C
:100CA00052F8233010B5D3F82C15C0F307240F22C7
:100CB000A24000F00F0021EA0202A0401043C3F856
:100CC0002C0510BD6CE00F40A814002008B500F002
:100CD000C5FAC0B208BD0000042804D1134A136845
:100CE00043F4803305E0052805D1104A136843F426
:100CF000003313607047062804D10C4A136843F48C
:100D00008023F6E70F2804D1094A136843F0020351
:100D1000EFE70AD91038074B420953F8222000F0B8
:100D20001F00012303FA00F01060704724ED00E07B
:100D300010E000E020150020022B10B502D023B1F6
:100D4000002300E00823042400E01C462343436002
:100D5000029BB1FBF3F100230233B1FBF3F4013C3E
:100D6000FF2CF9D80361039B02F03001013B1943CA
:100D70009301DBB241EA030242EA0422026010BDA1
:100D8000436843F0020343607047C3689B07FCD588
:100D900081607047C3685B07FCD583680B60704750
:100DA000C36813F004031DBF836801200B6018465D
:100DB0007047000000F07043B3F1704F0ED1144B38
:100DC000C0F30722C0B213448000C3F3130340F002
:100DD000844040EA43100068C0B270470D4B98420F
:100DE00006D10D4B186810F0030018BF01207047A2
:100DF0000A4B020F53F822301A6883B2C0F3044042
:100E000003FA00F0104214BF01200020704700BF19
:100E100000E30F400100102024E00F4034150020B3
:100E200000F07043B3F1704F0ED10E4BC0F30722A8
:100E3000C0B213448000C3F3130340F0844040EA7F
:100E40004310012303607047074B020F53F8221031
:100E500082B20B68C0F3044002FA00F01843086045
:100E6000704700BF00E60F40B015002001387FF446
:100E7000FDAF7047F8B54A4B01461A6812F0E04FD3
:100E800005D01A68474B1340B3F1805F02D10029A7
:100E9000C0F28480444C454D26682B6826F48002BD
:100EA00042F4006243F40060B7072260286001D575
:100EB0008F0703D5F70714D5CE0712D461F00306C8
:100EC000002802EA0602B4BF03F0300002F030004E
:100ED000302822600CBF4FF480504FF40020FFF701
:100EE000C5FF01F4FE6022F4FE62024323F00043DA
:100EF0002F4823F07003084043F40063034301F0DC
:100F0000080043EAC003226010202B60FFF7AEFF09
:100F100022F4405201F440501043234F23F4005276
:100F2000224E01F40053DFF898E013434FF0400CD9
:100F3000CEF800C020F0F86252BF386033603860ED
:100F40001C4822F0030200EA010058BF336002434C
:100F500023F0FC5301F0FC500343480041BF164806
:100F600023F48003084042F480024CBF034323F083
:100F700080430F050BD411484FF4004106687606F4
:100F800001D40139FAD122F4006223F40063226013
:100F900010202B60BDE8F840FFF768BFF8BD00BF28
:100FA00000E00F400000FF7060E00F4070E00F4075
:100FB000300000800300C0070000404050E00F40B8
:100FC00058E00F40674BF0B5196810331B68002BD1
:100FD00013DA03F07002202A45D003D8E2B1102AB8
:100FE00020D0B8E0602A00F0B880702A6DD0302A96
:100FF00040F0B18047F2305069E001F03002102A31
:1010000010D001D842B1A6E0202A2CD0302A40F0DE
:10101000A28047F230505DE0534AC1F3841052F889
:1010200020004FE0514A106810F0E04F3FD01468A4
:101030004F482040B0F1805F39D014684C482040C0
:101040004C4CA04203D1126892B2022A31D04748D8
:10105000474A04682240484CA2422CD10068474CC1
:1010600082B247481FE0414A106810F0E04F24D098
:1010700014683F482040B0F1805F1ED014683C489F
:1010800020403C4CA04203D1126892B2022A16D0F2
:101090003648374A04682240374CA24211D10068D2
:1010A000384C82B23848002A18BF20460AE0374838
:1010B00008E0334806E0314804E0354802E03248B1
:1010C00000E03048002B05DA01E04FF4004013F453
:1010D000006F01E011F4006F25D12E4A234E1568F0
:1010E000326805F01F0412F0E04F43F6E07202EAA6
:1010F00005024FEA521205D037681D4E3E40B6F148
:10110000805F03D102325043023402E05043013485
:101110006400B0FBF4F06E0448BF40082D0448BFE3
:10112000800841F480014C021AD5002B0DDA5900D9
:1011300005D51A0503D44000C3F3865301E0C3F379
:10114000C5530133B0FBF3F0F0BDC1F3C35101311E
:10115000B0FBF1F0F0BD0020F0BD4FF48000B6E729
:10116000F0BD00BF60E00F404415002000E00F40DC
:101170000000FF7000000110000003100024F400C4
:10118000001BB70000093D00C0C62D00C0E1E4000F
:101190007038390064E00F40C36A43F01003C36243
:1011A000036B43F4407343F00103036370478369A7
:1011B0001B07FCD4C36A23F01003C362036B23F440
:1011C000407323F001030363704738B504461D469E
:1011D000FFF7EDFFB1EB021F38BF52084FEAC10124
:1011E000B1FBF2F2006B02F101024FEAD21335BFFC
:1011F00040F0200020F0200020632063C2F345026D
:1012000063620023A2622046E562A361BDE8384024
:10121000FFF7C2BF806980F01000C0F30010704774
:101220008369DB0654BF00684FF0FF307047836965
:101230009B065ABF016001200020704783699B060E
:10124000FCD401607047836B19438163704709B117
:10125000006C7047C06B704741647047EFF31080BB
:1012600062B67047456E74657220746578743A0A88
:101270000D00434F4E464947090067657463686136
:101280006E6E656C3A25640D0A0025643A2564206B
:1012900000746573743A25640D0A000000000000B4
:1012A00071CDCDABAB0000007C68524D5400000006
:1012B00001000010020000100400001008200800C7
:1012C00030313233343536373839616263646566BC
:1012D000004552524F52000000C0004000D0004074
:1012E00000E0004011121314151650415F4D494E95
:1012F000006E524632344C30312B0050415F4C4F1F
:10130000570038206269747300000000EA12002060
:10131000FB1200201C1300202413002050415F48C2
:101320004947480050415F4D4158003235304B42EB
:10133000505300257309203D0074657374313A25BC
:10134000640D0A00203078000D0A656E642E2E2E82
:101350002E2E2E0D0A005354415455530909203D99
:10136000203078253032782052585F44523D25781D
:101370002054585F44533D2578204D41585F5254C6
:101380003D25782052585F505F4E4F3D25782054C0
:10139000585F46554C4C3D25780D0A002030782585
:1013A0003032780053455455505F41570900525828
:1013B0005F414444525F50302D310052585F4144E8
:1013C00044525F50322D350054585F414444520915
:1013D0000052585F50575F50302D3600454E5F41E8
:1013E000410900454E5F5258414444520052465F05
:1013F0004348090052465F53455455500044594EE6
:1014000050442F4645415455524500446174612073
:101410005261746509203D2025730D0A004D6F64EB
:10142000656C0909203D2025730D0A0043524320B5
:101430004C656E67746809203D2025730D0A0050C5
:101440004120506F77657209203D2025730D0A00F9
:10145000000102030405324D425053000A0B0C0DEB
:101460000E0F44697361626C6564000062140020B1
:101470000213002078140020313620626974730052
:10148000314D4250530000008014002056140020BB
:101490002B1300206E524632344C303100000000D5
:1014A00094140020F112002000400040008005400C
:1014B00000500040009005400060004000A0054042
:1014C0000070004000B005400040024000C00540F0
:1014D0000050024000D005400060024000E005409E
:1014E0000070024000F0054000D0034000000640BC
:1014F0000010064000100640002006400020064074
:1015000000300640003006400040064000400640E3
:101510000050064000500640006006400060064053
:1015200000E100E004E100E008E100E00CE100E09F
:1015300010E100E010E00F4014E00F401CE00F400D
:1015400010E00F4040420F0000201C0080841E006D
:1015500000802500999E36000040380000093D00BB
:1015600000803E0000004B00404B4C0000204E002D
:10157000808D5B0000C05D000080700000127A006A
:1015800000007D0080969800001BB7000080BB0023
:10159000C0E8CE00647ADA000024F4000000FA000B
:1015A00080A81201002D310100366E0140787D01C6
:0C15B00000E10F4004E10F4008E10F4093
:04000005200000F1E6
:00000001FF
