:020000042000DA
:10000000008001201D010020C1060020C306002041
:10001000C5060020C5060020C5060020000000001F
:10002000000000000000000000000000C5060020E5
:10003000C506002000000000C5060020C5060020FF
:10004000C5060020C5060020C5060020C506002004
:10005000C5060020C5060020C5060020C5060020F4
:10006000C5060020C5060020C5060020C5060020E4
:10007000C5060020C5060020C5060020C5060020D4
:10008000C5060020C5060020C5060020C5060020C4
:10009000C5060020C5060020C5060020C5060020B4
:1000A000C5060020C5060020C5060020C5060020A4
:1000B000C5060020C5060020C5060020C506002094
:1000C000C5060020C5060020C5060020C506002084
:1000D000C5060020C5060020C5060020C506002074
:1000E000C5060020C5060020C5060020C506002064
:1000F000CD280020C5060020C5060020C50600202A
:10010000C5060020C5060020C5060020C506002043
:1001100091130020C5060020C50600201248854620
:100120001248134908600D4A0D4B03E052F8041BB6
:1001300043F8041B0B498B42F8D30E480E494FF08D
:1001400000028842B8BF40F8042BFADB4FF00000F1
:100150004FF00001094A9047FEE700BF54540020C9
:100160000000012089000120008001200000002003
:1001700008ED00E0000401204419012029050020B9
:1001800011F0010F24D0134AD2F8003FC033C2F857
:10019000003F9B1AB3F5706F08BFC2F8002FD2F86A
:1001A000000FD2F8042F0B4B90420DD1D3F80C2F37
:1001B000C3F8003F22F00102C3F80C2F0022C3F85D
:1001C000043FC3F8082F7047034AC02101F05ABA10
:1001D000704700BF0004012081010020064A116819
:1001E0008B049B0CC01801F0C02140EA010141EAD8
:1001F00000401060704700BF70E10F4010B5294CFF
:10020000D4F8042FC032131BB3F5F06FC4F8042FD9
:1002100035D1D4F8003F93420FD904F55862934288
:100220001BD9D4F8083F002B17DB4FF0FF30FFF746
:10023000D5FFD4F8083F013B0DE004F5C0729342AE
:100240000BD9D4F8083F002B07DC0120FFF7C6FFCD
:10025000D4F8083F0133C4F8083FD4F80C2F114BF1
:1002600012F0010F0BD1D3F80C2FD3F8000F42F08E
:100270000102C3F80C2FC0210B4A01F003FAD4F895
:10028000042F084B121BB2F5706F08BFC3F8043F70
:10029000064BD4F8041F1868054BC022BDE8104077
:1002A00001F010BE00040120810100201013012084
:1002B000FD0100204CF20103994205D8B1F5404FF1
:1002C0000AD2012930D12AE04CF20403994217D016
:1002D0000133994228D104E0144B1A6842F0080215
:1002E00021E0012A114B03D11A6842F006021AE0FC
:1002F0001A6822F006021A601A6842F0020212E03E
:100300000A4BB2F5004F196841F001011960084B22
:1003100001D1002201E002F50E521A8004E0034BE5
:100320001A6822F008021A60002070473413012076
:10033000141301201FB52E4C63681A895B89A2F142
:100340002801153B9BB2ADF80A301033ADF80E30E2
:10035000284B043A1B68ADF8081013F0040FADF8F1
:100360000C2022D0002001F0E5F962684FF47F01F3
:10037000136A5068984702A92061204603F0ACFB3D
:1003800062686FF07F41136A506898476268206125
:10039000138952892046113A00920022019216498F
:1003A000013A243B03F026FC21E0144B6422B3F90C
:1003B00000304FF43E505343A3F59413A3F560630C
:1003C00093FBF0F3981800B201F0B4F962688B2146
:1003D000136A5068984702A92061204603F07CFB0D
:1003E00062686FF07F41136A5068984720611FBDB3
:1003F0001813012034130120BC42002014130120E3
:10040000164B6422B3F9003010B55343A3F594138F
:10041000A3F560634FF43E5493FBF4F4A41886B044
:1004200024B20F49224603A801F088FB0D4803A916
:1004300043684FF0FF325B89113B00930123019326
:10044000773303F0D7FB084B1B6813F0040F02D17E
:10045000204601F06FF906B010BD00BF1413012053
:10046000C2420020181301203413012030B5294C5A
:1004700085B06268002553891189193B9BB2013907
:10048000ADF80A3018335068ADF80C10ADF80E30E6
:100490008B21136AADF80850984702A920612046C5
:1004A00003F01AFB62686FF07F41136A5068984747
:1004B00002A92061204603F0DCFA6268164B8B210A
:1004C000A3615068136A9847144B60611B6813F06E
:1004D000080310D0636820465B891149113B4FF037
:1004E000FF3200930423019503F084FBFFF722FF02
:1004F000FFF786FF0BE0BDF90A2001930832009256
:10050000204608494FF0FF32042303F073FB05B087
:1005100030BD00BF18130120945000203413012077
:10052000CF420020D94200207FB5584C584823685C
:10053000584DDB6D984700F0CDFC23684FF020202C
:100540009B6998470A2002F061FE236952481B6AA2
:100550009847236900245B68984700F095FA28467D
:100560004E4903F076FA6A688B2113895068013B83
:10057000ADF80C301723ADF80E30ADF80840136A13
:10058000ADF80A40984702A92861284603F0A4FA6A
:100590006A686FF07F41136A5068984702A9286122
:1005A000284603F066FA6A686FF07F41136A506864
:1005B00098473B4B2861AB616B68284639494FF03F
:1005C000FF321E8903F0E4FAAA697608D27800EBBC
:1005D000D07352082846C2F10A02334DA6EB6303DA
:1005E000009230494FF0FF32019403F003FB2F4992
:1005F0002C60204601F048FC2D4E3060204600F073
:100600005BFE4BF680301021022200F041FF294BA7
:1006100044201B681B689847FFF728FF2B6813F0DE
:10062000080FFBD0244CFFF721FF0023C4F80C3F38
:10063000C4F8044FC4F8004F30682146C0221F4B55
:1006400001F040FCD8B9D4F80C3F43F00203C4F8E1
:100650000C3F14E01A6812F0010F05D01A6822F05E
:1006600001021A60FFF7CCFE2B680F4C13F0020F4B
:1006700005D0FFF75FFE236823F0020323602A689A
:10068000094B12F0080FE5D1C6E700BF4400000196
:100690004005C0011813012000140120E843002088
:1006A0006C460020E6420020341301200C43002059
:1006B000101301204800000100040120FD0100206A
:1006C000FEE7FEE7FEE7000010B5074C030A2360D3
:1006D000064B002240211A601A60196020601A60DF
:1006E0001A60196010BD00BFFC7300400071024029
:1006F000024B020A1A701870704700BF0300006CAA
:10070000024B00221A701870704700BF0200006C84
:1007100030B5084B084D0949002240242A600A6080
:100720001A601A601C6028601A601A601C608023BE
:100730000B6030BD00710240FC730040007202404B
:100740002DE9F0410C4F0D4E0C4698464E203B686B
:10075000154698473368A0B298473B684F209847A2
:100760003368A8B2984722203B68984732681FFA3E
:1007700088F09047BDE8F0810400012000000120CE
:100780002DE9F74F9846514BDFF844B1112015463B
:100790001A6801930C46DDF834A00C9E0E9FDDF81C
:1007A0003C909047DBF8002046F630009047019BD4
:1007B0004E201A689047A0B2DBF800209047019BBA
:1007C0004F201A689047DBF80020A8B29047019BA1
:1007D00022201B689847BAF1040F5C4626D003DC40
:1007E000BAF1010F70D11EE0BAF1080F63D0BAF16F
:1007F000100F69D166E017F801ABC8F107050BE0EF
:100800002AFA05F202F00102236839F8220098471B
:1008100008F10108013E013DB8F1070F01DC002E8F
:10082000EED14FF00008002EE5D14DE018F0010F99
:100830002BD014E03B781B0903EB430359F803303A
:1008400003F4780203F47C41120A42EA511203F0E5
:10085000F80042EAD00023689847013E34D017F8E8
:10086000013B013E03F00F0303EB430359F8033050
:1008700003F4780203F47C41120A42EA511203F0B5
:10088000F80042EAD00023689847002ED2D11BE03E
:1008900017F8013B03EB430359F8033003F47802E4
:1008A00003F47C41120A03F0F80042EA5112236873
:1008B00042EAD0009847013EEAD205E0236837F8C3
:1008C000020B9847013EF9D2BDE8FE8F04000120DB
:1008D000000001202DE9F843134F144E98461120D3
:1008E0003B680C461546DDF820909847336846F67D
:1008F000300098473B684E2098473368A0B298472D
:100900003B684F2098471FFA88F0326890473B6851
:100910002220984704E033681FFA89F09847013491
:10092000AC42F8DDBDE8F88304000120000001209E
:100930002DE9F843134F144E112099463B680C469D
:100940001546DDF820809847336846F6380098470A
:100950003B684E2098473368A0B298473B684F20C9
:1009600098473268A8B290473A682220904704E03E
:1009700033681FFA88F0984701354D45F8DDBDE82A
:10098000F88300BF0400012000000120F8B52D4DC0
:100990002D4E2B6811200C4617469847336846F6B3
:1009A000300098472B68452098472088336898473F
:1009B0002B6846209847A088336898472B684420C6
:1009C00098476388B4F9060043EA002080B2336890
:1009D00098472B684E2098472088336898472B68A3
:1009E0004F2098476088336898472B6822209847A3
:1009F000B4F90630B4F90220B4F9041001339B1A9B
:100A0000B4F9002001318C1A5C4303E03368B8B2BA
:100A10009847013C002CF9DA2B6845209847336849
:100A2000002098472B6846209847336840F23F10D3
:100A300098472B684420984733684FF46F40984795
:100A4000F8BD00BF040001200000012001F478037C
:100A500001F47C421B0A43EA521301F0F80143EA15
:100A6000D100704770470000024B1880012002F04F
:100A7000CDBB00BF140000A0024B1880012002F083
:100A8000C5BB00BF160000A02DE9F04702F0C2FB75
:100A90004F4B40F6B8371B88B0FBF7F7012B4D4D95
:100AA0004D4C7AD0022B00F0AD80DFF84C91DFF88E
:100AB0004C81DFF84CA18026C9F800803146012224
:100AC000CAF80060454802F0B1F908233146042213
:100AD000424802F0C2F9C9F800804FF00008FF2137
:100AE0000122CAF800803E4802F0A0F90823FF2145
:100AF00004223B4802F0B1F931460122394802F0A4
:100B000095F9082331460422364802F0A6F920213F
:100B10000122324802F08AF90823202104222F48BA
:100B200002F09BF9402101222E4802F07FF940217A
:100B3000042208232B4802F090F93146274801226D
:100B400002F074F9082331460422244802F085F9A2
:100B5000FF214246224802F0E7F931464246214849
:100B600002F0E2F920210A461C4802F0DDF940219A
:100B70000A461C4802F0D8F931464246174802F0AE
:100B8000D3F9384602F042FB14483146324602F0AF
:100B9000CBF9384602F03AFB49E0134B04262B60B0
:100BA000124B38462360124B1E7002F02FFB4FF0A1
:100BB000D8431E70384602F029FB31460D4802F03A
:100BC000C4F90C483146324602F0AEF92FE000BFBE
:100BD00038180120000001200400012000500040CE
:100BE0000070004000700240F10600200107002064
:100BF0000100006C00400240205500404B434F4C28
:100C000024550040714B04222B60714B714E2360C0
:100C1000714B38461A8002F0F9FA042333803846C3
:100C200002F0F4FA33889BB243F008033380236860
:100C30001020984701202B68984723681E2098476A
:100C4000B2202B68984723682820984706202B68F5
:100C5000984723680020984701202B68984723680D
:100C6000012098472B6843F2EF0098472368022041
:100C700098472B684FF4C060984723681020984726
:100C80002B68002098471E20784302F0BFFA2368A3
:100C9000112098472B6846F63000984723681220A9
:100CA00098472B6840F69910984723682620984764
:100CB0002B684FF4605098472368072098473320EB
:100CC0002B68984723680C20984705202B68984785
:100CD00023683020984700202B68984723683120EC
:100CE00098472B6840F20330984723683220984792
:100CF0002B6840F2074098472368332098472B68B9
:100D000040F2013098472368342098472B6840F21E
:100D1000013098472368352098472B6840F20340FC
:100D200098472368362098472B6840F20770984709
:100D30002368372098472B684FF4806098472368D2
:100D40003A2098472B684FF42060984723683B204F
:100D500098472B684FF48050984723680D20984798
:100D60000A202B68984723680E2098472B684FF479
:100D7000385098472368442098472B684FF46F40B9
:100D8000984723684520984700202B689847236898
:100D9000462098472B6840F23F10984723684E2022
:100DA000984700202B68984723684F2098472B6866
:100DB000002098472368222098474FF4963400205B
:100DC0002B689847013CFAD1BDE8F087790A0020EA
:100DD000690A0020100000A0120000A003888B42C6
:100DE00002D80180002070474A1ED318B3FBF1F3EC
:100DF00023F00103013B5A084900013251430180AD
:100E000098B2704738B50446314802F0F2F83048DD
:100E10005021002202F0F1F82D48002102F0FFF8E5
:100E20002B48032102F0EDF82948002102F0D6F802
:100E30000028F9D0264802F0E6F80546E8B1244833
:100E400002F0D7F815F0100F11D04FF0102002F07B
:100E5000ADF90A2002F0DAF902F0DCF900220146CD
:100E60001B4802F0A1F81A48042102F0CAF81848F9
:100E7000042102F0C6F8002038BD154802F0B9F888
:100E800013485021012202F0B8F811480B2102F05A
:100E9000B8F825250E48002102F0A0F80028F9D066
:100EA0000B4802F0BEF8013D04F8010B084802F0BF
:100EB000A0F83DB10648012D0CBF0521092102F023
:100EC000A0F8E7E7024802F094F8012038BD00BF1F
:100ED00000000240F0B5AC4895B002F087F9AB488D
:100EE00002F084F9AA4802F081F9AA4802F07EF9DA
:100EF000A94802F07BF9A94802F078F9A84802F065
:100F000075F9A84802F072F9A74802F06FF94FF09E
:100F1000102002F06BF9012002F078F9A34802F0EA
:100F20003EF8012002F072F94FF0102002F03EF975
:100F30000C219F4802F017F802F06CF900220146DC
:100F40009A4802F031F86846FFF75CFF18B9684626
:100F5000FFF758FF50B19DF80030492B06D19DF89E
:100F60000130442B02D1BDF8043018E06FF07F62ED
:100F7000029211228DF80720043A8DF818201422CD
:100F80000023ADF80C20ADF80E204FF48055402220
:100F9000ADF8043008938DF81E20ADF81C50854F35
:100FA0003B80854B029C0A93844B0B9343F2333373
:100FB0000C934FF088130D934FF419030E934FF4D5
:100FC0008C530F9300231093119312931A4601210F
:100FD000914021420FD07A4814AEC15CC0184578C8
:100FE000807806EB8101800015FA00F051F8285C4A
:100FF000284341F8280C01320333202AE7D10A9A0A
:10100000704B71481A600B9A704B1A600C9A704BB7
:101010001A600D9A6F4B1A600E9A6F4B1A600F9AF6
:101020006E4B1A60109A6E4B1A60119A6D4B1A60D3
:10103000129A6D4B1A6002F0D9F8002200230AA917
:101040008B540132092AF9D1029D1A46012010FA67
:1010500002F129420BD05A4C14AEE15CE418A4789A
:101060007118A04011F8284C204301F8280C0132D7
:101070000333202AEAD100240AAB1D5D6DB15B4B1E
:10108000294653F8246004223046082301F0E5FE87
:1010900030462946022201F0C9FE0134092CEBD169
:1010A00002F0B8F89DF807300446002B00F0D88015
:1010B0004F4DBDF80E30B5FBF0F5BDF80C202946BC
:1010C00013A8ADF84E30ADF84C20FFF787FE294647
:1010D00006460DF14E00FFF781FEBDF84E20BDF82B
:1010E0004C5046EA00414348ADF80E20ADF80C5094
:1010F00001F068FE3F489DF8071001F061FE9DF881
:101100000730112B05D0122B23D0102B40F0A380D9
:1011100099E0394B08999C420CD9384B9C4202D833
:1011200041F0804106E0364B9C4294BF41F00041C3
:1011300041F04041BDF81C204FF47A73B4FBF2F447
:101140009DF81E202B486243B2FBF3F201F03CFEF7
:1011500081E0BDF80C30BDF812009A009042089969
:1011600052D901385C00801A0019B0FBF4F0012854
:1011700003D049D3022845D102E041F0400143E0C9
:1011800041F0800140E000BF01000020020000208B
:101190000400002008000020100000202000002093
:1011A00040000020800000200001002000000240DC
:1011B0000050004038180120111111880011004919
:1011C000344400202C450040004010102C550040B5
:1011D0002C6500402C7500402C4502402C550240E7
:1011E0002C6502402C7502402CD503401044002091
:1011F00000CA9A3B00000D40BFE1E4007FC3C90173
:101200007FF0FA0241F0C001BDF81000904214D9FD
:101210005A0001389B00C31A9B18B3FBF2F3012B51
:1012200003D00AD3022B06D102E041F0100104E002
:1012300041F0200101E041F030011C489DF81920E7
:1012400001F0CAFD07E0194808999DF81F209DF894
:10125000193001F0D8FD15489DF8181001F0E4FD93
:101260003B88022B1FD11248402101F06EFE11482D
:10127000402101F05CFE402100220D4801F054FEA7
:101280000A2001F0C3FF40210A46094801F04CFE44
:1012900001F0C0FF0523B0FBF3F001F0B7FF00251C
:1012A0004FF020431D8015B0F0BD00BF00000D4081
:1012B0000070024000D00340294A002310B513609B
:1012C000284A04461360284801F090FF264801F0A0
:1012D0006DFF264801F08AFF4021254801F051FEAC
:1012E000244801F083FF0221234801F04AFE2348ED
:1012F00001F07CFF1021224801F043FE1F4801F05D
:1013000075FF20211E4801F03CFE00F095FA1D48B3
:10131000042101F09EFE1B48032101F0D4FE1D2094
:101320000F2102F00BF994B1174801F05FFF102173
:10133000164801F026FE0421124801F0A7FE1148CC
:1013400001F0A7FE1C200F2102F0F8F802E00D4882
:1013500001F069FE4420BDE8104001F0B7BE00BFB7
:101360005818012060180120001010100200002001
:1013700000500040200000200050024010000020DB
:10138000004002400040054008000020007000407E
:1013900038B501213A4801F08FFE3A4D01463848F0
:1013A00001F091FE05F0704225F07F4342F000729B
:1013B00023F4700342EA43131B682BB31C2002F092
:1013C00035F9314C024620B9A368206863B1226028
:1013D00008E03C2002F02AF9024628B96369E06877
:1013E00013B1E2600221984723686BB9264BDA6893
:1013F00052B905F0704125F07F4341F0007123F4AC
:10140000700341EA43131A6005F0704343F0007320
:1014100025F07F4243F0040322F4700243EA4213B2
:101420001B685BB31D2002F001F9184C38B9A368A2
:10143000226823B11AB120600121104698473D204F
:1014400002F0F4F840B96369E2682BB122B10F49A8
:10145000C86010460121984723687BB90B4BDA68B6
:1014600062B905F0704343F0007325F07F4543F007
:10147000040325F4700543EA45152A6038BD00BF12
:101480000040054064180120401801206818012020
:101490002DE9F0475E4E5F4F3280398005460C469D
:1014A0005D48002101F000FE5C4A5D4B1168B146C9
:1014B00001EA03035B493E468B420BD113681FFAD6
:1014C00083F840F20113C3EB0803D3F1000848EBA3
:1014D000030801E04FF00008B9F80030012B19D1E2
:1014E0003388082B08D1B8F1000F34D045F64F737C
:1014F0009D424D4F4D4B18E0102B08D1B8F1000F15
:101500002BD042F6A7739D42494F4A4B0DE04A4A01
:101510004A4F1CE03388082B0CD1B8F1000F1ED0C5
:1015200042F6A7739D42464F464B88BF1F4698BF61
:10153000202417E0102B08D1B8F1000F11D042F68B
:10154000A7739D42404F414BEFE7414A414F182B53
:1015500008BF174606E0354F04E0364F02E0394F2A
:1015600000E03A4F2C48394601F066FDB8F1000F13
:1015700001D027F070572848394601F06CFD002152
:10158000254801F091FDE9006143002001F038FF9A
:10159000E400314BB0FBF4F41C601D20052101F088
:1015A000A7FFB9F800303488012B0BBF2B4B2C4B15
:1015B0002B4A2C4A1D20082C14BF14461C462146D9
:1015C00001F0E2FF3D20214601F0DEFFB9F80030D6
:1015D000012B254B08D13288082A03D1234A244CF9
:1015E0001A600AE0234A03E03288082A224A02D11C
:1015F0001A60224C01E0224C1A601C20214601F0A6
:10160000C3FF3C202146BDE8F04701F0BDBF00BF4D
:101610005C1801203A1801200040054000E00F400E
:101620000000FF7000000410F01D4016701C4016F2
:10163000F03D4016F03C4016705D4016F07D4016BF
:10164000F01D4017701C4017F03D4015F03C401550
:10165000705D4014F07D40143C180120004000C033
:10166000004000D5004000EA8018012003480540F2
:101670000040000C02480540004805400040005D65
:10168000004000AEF7B5254C054644200E461746EF
:1016900001F054FD20680C214143214A00280CBF71
:1016A0001D203D20531855501E495E6009889F60DB
:1016B00001291D4903D10988102907D102E00988B1
:1016C000082901D1760800E0B6085E6023680C2185
:1016D0004B43D11849680091D2580321134B01F0B4
:1016E00063FF1D2001F0FCFE114A104802F0704318
:1016F00043F0007322F07F4222F4700243F00403AF
:1017000043EA421301221A6023685340236001F028
:101710008AFC442001F0DAFC0020FEBD58180120AC
:10172000681801205C1801203A180120004005408B
:1017300064180120014B187000F05CB8080001200B
:1017400038B5002205460C4623481A2101F055FC05
:10175000210A01F00101204845EA010101F05FFC86
:101760001D48032101F04DFC1B48002101F036FC0F
:101770000028F9D0184801F046FC38B1164801F0AD
:1017800038FC002038BD144801F033FC1248002119
:1017900001F024FC0028F6D10F48E1B201F03FFC33
:1017A0000D48052101F02DFC0B48002101F016FC2D
:1017B0000028F9D0084801F026FC18B10AE00648D4
:1017C00001F017FC0448002101F008FC0028F6D1C4
:1017D000013038BD002038BD0000024010B504467D
:1017E00021460020FFF7ACFF02202146BDE8104053
:1017F000FFF7A6BFC2B20D4B632A10B51A7001D90C
:1018000064221A700A4B1B78012B0ED1094BC008B9
:101810001C5C042044F080042146FFF791FF062061
:101820002146BDE81040FFF78BBF10BD0900012025
:10183000841801209444002010B5294801F0D6FCFA
:101840000821284801F073FB082101220C232548B8
:1018500001F003FB4FF0102001F0C8FC01F0DAFCAE
:1018600040F2DC53B0FBF3F001F0D0FC08211D483E
:1018700001F057FB10F0080031D00C21194801F09D
:1018800072FB01F0C7FC00220146174801F08CFBF7
:10189000164B01241C701E200021FFF751FFF0B1F0
:1018A00060210C20FFF74CFF00211020FFF748FFBC
:1018B00005210A20FFF744FF12210820FFF740FF0F
:1018C00022210E20FFF73CFF6420FFF793FF172033
:1018D000FFF784FF12202146FFF732FF204610BD9C
:1018E0000200002000500040000002408418012047
:1018F0002DE9F84F0446154698460E4601B14E1E96
:1019000000270CE109F101099A4613F8012B252A59
:1019100001D0002AF6D1B14507D9204632462946E2
:10192000A41902F093FC002607E0204629464A4607
:1019300002F08CFC4C44C9EB06069AF800304F4488
:10194000252B40F0EB80324651464FF0200C4FF0F3
:10195000000911F8013F4D1C642B2ED00DD8392BF6
:1019600005D8302B14D2252B40F0C580BCE0582B75
:1019700068D0632B40F0BF8014E0732B26D001D8D1
:10198000702B02E0752B58D0782B40F0B48059E0D2
:1019900003D1B9F1000F08BF9C46303B0A2000FB81
:1019A0000939D6E708F10403D8F8001016B104F895
:1019B000011B721E013798469BE0D8F8000008F121
:1019C000040B002845DA4042012243E008F1040AF2
:1019D000D8F800104FF0000801E008F1010811F8F4
:1019E0000830002BF9D1C14584BF4F44C8EB07072D
:1019F000B04506D920463246A41902F027FC00263D
:101A000018E02046424602F021FCC1454444C8EBA0
:101A100006060FD9C8EB0909B14528BFB146C9F17F
:101A200000064B46224602E0202102F8011B013B42
:101A3000FAD24C444744D04671E008F1040BD8F880
:101A4000000006E008F1040BD8F800000022102383
:101A500001E000220A23012102E009F1FF39414699
:101A600003FB01F8804503D8B8FBF3FA8A45F4D0AC
:101A70006AB109F1FF394EB1BCF1300F06D12D2208
:101A800004F8012B013E01372D3A00E00122A9F1B3
:101A9000020A4FF6FD78C2450AD809F1FF3916B19E
:101AA00004F801CB013EB9F10109F8D101375744DF
:101AB000B2B1AEB12D2204F8012B013E01370FE087
:101AC0005EB1B0FBF1F2B2FBF3FC03FB1C2C194A34
:101AD000013E1CF8022004F8012B0137B1FBF3F1A1
:101AE0000029EDD1D8461AE016B104F8013B721E68
:101AF0000137164613E0042E07D90F4B053E1A682E
:101B00001B7922602371053406E0204632460A49DB
:101B100002F09CFBA4190026053700E055462B78FF
:101B20001BB12B464FF00009EEE623703846BDE8A6
:101B3000F88F00BFA1440020B24400200EB403B5CA
:101B400003AB53F8042B4FF6FF710193FFF7D0FE60
:101B5000BDE80C4003B0704738B5846B238DEBB102
:101B600094F82620012A19D1A28C012A14D1B3F5A8
:101B7000007F06D1456A4CF204010020B4F92A2006
:101B800008E0B3F5807F07D194F82C20456A4CF229
:101B9000050100200346A8470023238538BD10B562
:101BA000446A0020012102460346A04710BD10B53B
:101BB000446A1CB100210A460B46A04710BD000034
:101BC0000F2910B5846B0FD0112929D00E292AD1E5
:101BD00013781BB9537884F8363010BD012B22D10D
:101BE000537884F8373010BD92F90030002B1ADB9F
:101BF00053780D491B0184F83430507800F07F0091
:101C000001384000C0B284F8350001F0BDFC07483F
:101C100094F8341094F83520BDE8104001F006BF68
:101C200094F83630937010BD000001AE00000540FE
:101C300070B5846B6369002B20D094F8350001F0F7
:101C4000F5FC0546D0B96069236AA1694CF202022D
:101C50006561984794F83410094801F053FD94F8F1
:101C6000341006462A46064801F0A8FE044894F8B7
:101C700034103246BDE8704001F04DBD70BD00BF6C
:101C80000000054070B505466C6A10462AB9A4B13B
:101C90004FF440411346A04770BD2CB100204CF2D8
:101CA000010102460346A047AB6B044893F8341089
:101CB0000022BDE8704001F04BBE70BD0000054041
:101CC00070B50D460021846B0A46514801F076FE3E
:101CD0002A7802F01F02A2846B78022A84F8263048
:101CE0002BD12B79697994F8342043EA0123B3EBA3
:101CF000121F40F08C806B78012B03D0812B40F0B9
:101D000081800EE0AB78ED7843EA0525B5F5807F5C
:101D10007DD1002004F13001032200F05DFA258519
:101D200070BDAB78EA7843EA0223B3F5807F6ED1C9
:101D3000002004F1300103222AE0012A67D12B7927
:101D400094F836006979834243EA01215FD1AB7888
:101D5000EE7843EA062601F47F43B3F5407F56D17F
:101D60006B7806F47F46812B24D004D8012B2FD02A
:101D7000042B47D13EE0832B03D00DD3842B41D1DC
:101D800011E0B6F5007F3DD1002004F10C010222E4
:101D9000BDE8704000F02ABAB6F5007F32D10020CD
:101DA00004F10E01F3E7B6F5007F2BD1002004F11A
:101DB0001001ECE7B6F5007F03D1002004F12A0101
:101DC000E5E7B6F5807F1DD1002004F12C01DFE7A7
:101DD000B6F5007F03D1002004F12A0110E0B6F52A
:101DE000807F0FD1002004F12C011A4600F0F4F995
:101DF000268570BDB6F5007F04D1002004F11001E6
:101E00000222F3E70020BDE8704000F0F7B970BD92
:101E1000000005408B6B194A30B5012583F8375017
:101E20001A600F35002283F8362083F8345083F887
:101E300035200D8E124C9D814D8E5C605A61DD8186
:101E400010488D8E1A85226B0C7898601D82147252
:101E50004C7854728C789472CC78D47291F8222099
:101E6000C271088C9A68400810725B688A6A0846DA
:101E70009A63CA6A5964DA6330BD00BF0000054046
:101E8000400001201C00012038B50C460546FFF734
:101E9000C1FFA36B2846596800F038F9A36B0749C6
:101EA00093F8350001F070FBA36B054893F83410EC
:101EB00093F8352001F0BAFD204638BD000001AE90
:101EC00000000540F7B5846B00256161A2612362C3
:101ED00094F83410E5610A48164694F8357001F01C
:101EE000A1FDB6080096024601213846636901F05B
:101EF0005BFB94F8350001F0F3FA2846FEBD00BF05
:101F00000000054038B5012204460D460648002170
:101F100001F054FDAB78EA7843EA022343F0004332
:101F2000E3600423237238BD0000054070B5174CF0
:101F300001232372656A636A402D28BF4025226A07
:101F40005B1B636253192362002111482B4601F089
:101F500044FD402D07D10E4800214FF48172BDE8A9
:101F6000704001F053BD0423094800214FF48572ED
:101F7000237201F04BFD23685B692BB1A16A19B193
:101F8000606898470023A36270BD00BF88180120D5
:101F90000000054013B5002104460A46094801F037
:101FA0000DFDE368002B01DA002300E023698DF8C2
:101FB0000730012363620DF107032362FFF7B6FFC9
:101FC0001CBD00BF000005402DE9FF474D4C02231A
:101FD0002372236894F84D205B6B656A53F8227076
:101FE00094F84C30402D34BF2E46402633BB94F835
:101FF0004B80B8F1000F21D10922216A01A801F01C
:10200000BDFF384600F0B2FC092D28BF0925ADF808
:1020100006002B463C48414601AA01F0DEFC7B68E5
:102020001B681B78AB4205D1012384F84C8084F8EF
:102030004B3001E084F84C50751B2EE035462CE007
:1020400094F84B207B68002153F8228094F84C30A0
:1020500098F80090D8F80420C3EB09094D4538BF23
:10206000A946D21828484B4601F0B7FC94F84C30EA
:10207000C9EB050599445FFA89F984F84C9098F802
:102080000030DFF880A04B4507D19AF84B30013380
:102090008AF84B3000238AF84C30002DD0D1636A87
:1020A00094F84B209B1B63623B7893429CBF154B7B
:1020B0005D62616A134B39B1796851F8221093F867
:1020C0004C2049688A181A62402E06D100214FF42C
:1020D00081720D4801F09AFC11E00B4800214FF489
:1020E000857201F093FC2368064D5B692BB1A96AE8
:1020F00019B1686898470023AB6204232372BDE8D6
:10210000FF8700BF881801200000054070B52E4DE4
:102110002E4C012322782B616B614B6C0E466B6059
:102120000023032A08BF23702B72237829603BB950
:10213000274801F03BF8264801F058F801F058F91B
:1021400000F0D0FB237873B9224801F0ABFA2148A4
:1021500001F0D2FA1F482F2101F08EFA1D484FF0EE
:10216000FF3101F0BDFA6A69736B013A53F822300E
:102170005B681B685A68002385F82C3085F84F305F
:1021800085F84E30D37903F0C003C02B03D10E4B3A
:10219000012283F82C202378A3B90E4801F027FBF5
:1021A00001F038F81E23B0FBF3F001F02FF80948D6
:1021B00001F04BFC074801F015FB3C20BDE87040E6
:1021C00000F084BF70BD00BF881801208800012086
:1021D0000100102000000540034B03201872196213
:1021E0009A625A62704700BF88180120024B196238
:1021F0005A629A62FFF79ABE88180120002108B53A
:102200000A46034801F0B6FA024B05221A7208BDCD
:10221000000005408818012013B5134C02AB402282
:1022200043F8042D11480021224601F0A3FB019B35
:10223000CBB1237813F0600F07D00D4A13685B68A9
:102240000BB1506809E018460BE063780C2B07D8F7
:10225000084A52F823301BB105482146984702E04E
:102260000020FFF7CBFF1CBDDC180120000005405B
:1022700088180120C445002010B50548002101221E
:1022800001F09CFB0020BDE81040FFF7B7BF00BF86
:10229000000005402DE9F743D0F8008005460122F3
:1022A00022480C46002101F089FB2A69D8F8343015
:1022B000013A53F822700421384600F066FB0026EC
:1022C00081462BE001AB384631464FF0FF3200F03B
:1022D0009EFB034608B382782179607941EA0021A8
:1022E0008A421AD1A07894F803C0D97840EA0C2029
:1022F000814212D1A818067E8E4214D00176DB7876
:102300000020394600F0DEFC68B1D8F8083053B13F
:1023100068682179A278984705E001364E45D1D307
:102320000020FFF76BFFBDE8FE8300BF0000054003
:1023300037B50D46002104460A460F4801F03EFB22
:10234000E368002B01DA002307E02B796A7943EA7E
:102350000223072B0BD8E3181B7E8DF807300123CF
:1023600063620DF107032362FFF7E0FD02E0002046
:10237000FFF744FF3EBD00BF0000054070B50122DD
:102380000E460446056800211D4801F017FBF2784F
:10239000B37843EA02232268126B527C9A4204D239
:1023A0000020BDE87040FFF729BF236113B36A6BBB
:1023B000013B52F8233094F84E205B681B685B6841
:1023C00062B9DB7903F0C003C02B94F82C300CBF4A
:1023D00043F0010323F0010384F82C30B378F27842
:1023E000002043EA02226B6B013A53F822102A6C58
:1023F00000F0A2FBEB6813B160682169984770BDDB
:1024000000000540002110B504480A4601F0D6FA44
:102410000020BDE81040FFF7F1BE00BF00000540FE
:102420002DE9F0470D460021066804460A46494852
:1024300001F0C4FAAB7895F8038043EA08284FEA24
:102440001823022B06D0032B24D0012B62D1336B2F
:1024500023625CE0336B5FFA88F85B7C00274345BE
:1024600006D83846FFF7CAFE3E46276267625BE041
:10247000736B012653F8280084F84B7084F84C7075
:1024800043681B685B68236200F070FA84F84D8033
:10249000606249E02B7995F805C043EA0C2C2E4B7D
:1024A000186840B3836B33B35FFA88F242B31F6896
:1024B000C06B397800F1FF38023901EBD171491056
:1024C000B8FBF1F801FB08F30133834213D1002379
:1024D0000FE007EB430090F80290C07849EA002033
:1024E000604505D108FB0323B3F1FF3F09D102E0AA
:1024F00001338B42EDD30020FFF780FE002613E06E
:102500001346B26B52F82310216252F823301B7825
:102510006362F3E7366826B160682946B047BDE8D4
:10252000F0873046FFF76AFE236A83B1AB79E97919
:10253000626A43EA01239A4288BF63621EB9BDE81A
:10254000F047FFF7F3BCBDE8F047FFF73DBDBDE83E
:10255000F08700BF000005408818012070B50122F7
:102560000C46054600211B4801F028FA237813F099
:102570001F0302D0022B28D10AE0A07810F001003E
:1025800024D095F82C3043F0020385F82C3070BD30
:102590002379627943EA022202F07F03591E89B24D
:1025A0000E2912D8A178E07851EA00200DD102F06E
:1025B0008002D2F1010238BF002205EB0215AA1AEF
:1025C000D318012283F82C2070BD0020BDE8704094
:1025D000FFF714BE0000054070B501220C46054609
:1025E0000021204801F0EAF9237813F01F0302D0FC
:1025F000022B31D10AE0A07810F001002DD095F81F
:102600002C3023F0020385F82C3070BD62792379D9
:1026100043EA022303F07F014A1E92B20F2A1BD81D
:10262000A278E07852EA002216D103F08003D3F1B9
:10263000010338BF002305EB0315ED1A6D1885F86B
:102640002C2009011BB907484FF4005200E005484F
:10265000BDE8704001F0A6B80020BDE87040FFF76B
:10266000CDBD00BF0000054037B50D460021044632
:102670000A461A4801F0A2F92B7803F01F03012B38
:1026800005D0022B05D023BB94F82C3017E0002393
:1026900015E02B796A7943EA022202F07F03591E82
:1026A00089B20E2915D802F08002D2F1010238BF9A
:1026B000002204EB02118A1AD31893F82C30ADF8DB
:1026C0000630022363620DF106032362FFF72EFC3E
:1026D00002E00020FFF792FD3EBD00BF0000054074
:1026E00010B50F4C94F84F30C3B194F8503001330B
:1026F000DBB20A2B84F8503003D10A48002100F0E5
:10270000B1FF94F85030064A142B07D1143B82F8DD
:102710004F3013681B6A0BB15068984710BD00BF5B
:10272000881801200000054037B5044600212F48D5
:1027300000F0E8FF237A0546052B55D8DFE803F0C3
:102740001016191C034A00232372E368002B07DAD2
:10275000E368264823F00043E360E16801F04CF8A9
:1027600015F0010F40D0FFF757FD3DE0FFF7DEFB0E
:102770003AE0FFF729FC37E0636A402B01D9402398
:1027800000E0636A0193002101AB1848226A01F05E
:10279000F1F8636A3F2B10D814480021012201F0A0
:1027A0000DF90423237223681B695BB1A16A49B147
:1027B000606898470023A36204E000210B480A46A2
:1027C00001F0FCF8019B226AD2182262626AD31AD5
:1027D000636209E010F0040F06D0044800210422CF
:1027E00000F099FF002323723EBD00BF00000540AA
:1027F00010B590F82C30044623F0020380F82C30FA
:10280000002380F84F3003689B690BB140689847FC
:1028100063692361002323766376A376E3762377C7
:102820006377A377E37710BD244870B504680D463D
:1028300024B92348BDE8704000F0D9BF11F0040F5F
:10284000466801D0FFF7D4FF15F0010F03D0E3690C
:102850000BB13046984715F0020F03D0236A0BB135
:102860003046984715F0200F03D0636A0BB130460D
:10287000984715F0080F11D0124B134D1A6800201D
:1028800001321A602B6801332B60FFF729FF28689B
:10289000052803D100232B6000F038F8084800F029
:1028A0002BFF10F0010F054602D00448FFF73CFF54
:1028B000A36A13B130462946984770BD8818012095
:1028C00000000540341901201C19012010B50448EE
:1028D00000F0E8FE01460020BDE81040FFF7A4BF6D
:1028E00000000540064803784BB90649064A0B60CC
:1028F00013604B6053608B609360013303707047CB
:1029000024190120281901203819012038B5084B55
:1029100005461A68002482181A60064B1B591BB121
:10292000054A29461059984704340C2CF5D138BD76
:1029300020190120281901203819012070B50346FB
:1029400010785C6810180A6854F822502E786D6868
:10295000AD19A84209D301320A601B789A4203D20A
:1029600054F82230586870BD002070BD10B50023A7
:1029700001781A4605E0446854F822400132247870
:102980001B198A42F7D3184610BDF8B50024064635
:102990000F46254609E073683A4653F8253001355D
:1029A0005868197800F0E4F9241833789D42F2D37E
:1029B0002046F8BD2DE9F0474FF0000804460E46CA
:1029C0001546994647461CE06368324653F827305F
:1029D0004FEA870A5868197800F0CAF94044A842BB
:1029E0000DD96368C9F8007053F80A303246586848
:1029F0001978C8EB0503BDE8F04700F0CCB9013702
:102A0000804623789F42DFD30020BDE8F087B2F1F3
:102A1000FF3F2DE9F34104460D4616461F4604D1FB
:102A200004212A46FFF7C6FF1DE04368CDB21B68AC
:102A30005A6800230193984612E05378042B0AD178
:102A400093781046AB4206D1B04502D1019B3B6062
:102A500009E008F10108204601A9FFF76FFF0246CF
:102A6000002AEAD11046BDE8FC8173B51C4601ABD3
:102A70000546FFF7CCFF024698B103799C420FD27E
:102A800000260AE05378052B02D1A64209D0013670
:102A9000284601A9FFF752FF0246002AF2D100E0C2
:102AA000002210467CBD30B50B784343002008253A
:102AB00020F0100415FA04F400F01005002D0CBFEE
:102AC000012502256C439C4208D34B7823B1640056
:102AD000146040F0100030BD146030BD01300A2891
:102AE000E5D10A38106030BD10B5847804F00F04C9
:102AF0000C600179447941EA04214905490D1160CE
:102B000090F90220002AB4BF4FF4005200221A604C
:102B1000C17801F00301022906D0032908D0012958
:102B200009D042F4407201E042F480721A6010BD94
:102B300042F400721A6010BD2DE9F04FC5B003AC2D
:102B400091460D463FAA234600261E609E605E60A9
:102B5000DE6010339342F7D105212846FFF715FFB9
:102B6000042107462846FFF710FF834621E0052190
:102B700032463FAB2846FFF71DFF827802F00F0375
:102B800003F1FF3CBCF10E0F439300F294800379F4
:102B9000417982F080024FEA8C0C43EA01210CEB70
:102BA000D21203AB53F82200814288BF43F82210AF
:102BB0000136BE42DBD34FF0000846E028464146CE
:102BC0004FF0FF323FABFFF722FF064600283AD016
:102BD000C778002F37D190F804A032E02846B178AA
:102BE000F2783B46FFF741FF50B343A942AA41ABFD
:102BF000FFF77AFF439800285ED0419A431E12F4F3
:102C0000005F0BD009EB8301498841EA020244A925
:102C100001EB0313419243F8FC2C0AE009EB80001E
:102C2000418F41EA020244A901EB0313419243F8A8
:102C3000F82C439922480901429A419B00F0DEFD9D
:102C400001375745CAD308F10108D845B6D3002645
:102C5000402500E03E462068771C90B109EB8601D4
:102C600040AAFFF720FF03464290409820B34FF45C
:102C70000052009212482A46390100F043FE409B60
:102C8000ED18606890B109EB86013C3140AAFFF76E
:102C90000AFF03464290409870B100220092084813
:102CA0002A46390100F02EFE409BED1810340F2FFC
:102CB000D0D1012000E0002045B0BDE8F08F00BF7A
:102CC000000005402DE9F043084687B00E46042178
:102CD00017469846FFF759FE002581463DE03046ED
:102CE00029464FF0FF3201ABFFF791FE0446002862
:102CF00032D08378BB422FD1C37843452CD107799A
:102D0000002525E03046A178E2782B46FFF7ADFE9E
:102D1000E8B1694605AA03ABFFF7E6FE009901B3E7
:102D2000039B12480293090104AA02AB00F0A0FD24
:102D3000039B029A009922F40C5203F40C5342EACA
:102D400003030A480901059A039300F057FD013572
:102D5000BD42D7D3012005E001354D45BFD300204A
:102D600000E0084607B0BDE8F08300BF0000054062
:102D7000002370B51C460AE0B2F1FF3F03D046784D
:102D8000D5B2AE4200D101330578641940198C42A6
:102D9000F2D3184670BDF0B5002425460CE0B2F120
:102DA000FF3F03D04778D6B2B74202D19C4206D04B
:102DB00001340678AD1980198D42F0D30020F0BDA2
:102DC000016070474160704721F0FE6121F470217D
:102DD00041EA02420261704730B511F4807518BFB4
:102DE0004FF0004501F4C06311F4006418BF4FF0C8
:102DF000806445EAC33321F47F41234341EA022141
:102E00004361016130BD10B511F4807421F070711F
:102E100041EA825121F47F4118BF4FF0004441EA5A
:102E200003214461016110BDC1617047D0F80034D5
:102E300012F0010F14BF0B438B4310B500F58064F3
:102E4000236012F0020FD0F8202400F5846314BF31
:102E5000114322EA0101196010BD30B5D0F80045D8
:102E600012F0010F14BF0C438C4300F5A0652C60D9
:102E7000D0F8045512F0020F00F5A06414BF0D4302
:102E80008D4304342560D0F8084512F0040F14BFB8
:102E90000C438C4300F5A1652C6012F0080FD0F8AC
:102EA000182500F5A36414BF0A438A432260D0F8B2
:102EB0000C4513F0010F00F5A06214BF0C438C43C6
:102EC0000C321460D0F8102513F0020F14BF0A431F
:102ED0008A4300F5A2642260D0F8144513F0040F71
:102EE00000F5A26214BF0C438C4304321460D0F886
:102EF0001C4513F0080F00F5A26202F10C0214BF8A
:102F00000C438C43146000F5A56223B9D0F8283532
:102F100043EA010103E0D0F8283523EA01011160FA
:102F200030BD50F82100704740F82120704770B53F
:102F3000002205460C46FFF779FF2846214601226C
:102F40000823BDE87040FFF788BF70B50122082351
:102F500005460C46FFF781FF284621460122BDE8C1
:102F60007040FFF763BF70B5022205460C46FFF7BD
:102F70005DFF2846214601220B23BDE87040FFF784
:102F80006CBF70B5022205460C46FFF74FFF28467E
:102F9000214601220823BDE87040FFF75EBF036AA7
:102FA00043F010030362704770B5164604460D46A1
:102FB000FFF7F5FF074B084A013D012E14BF1646E7
:102FC0001E4614235E43AD19B5FBF6F6013EE660DE
:102FD00070BD00BF801A0600A086010021B1806983
:102FE000003818BF012070474069003818BF012021
:102FF00070470123C3618361704742EA4102026066
:10300000704741607047436813F0010F05D113F01A
:10301000120003D003F01C0070470020704781604D
:1030200070478068704701230361D0F8003C43F08B
:103030000103C0F8003C704701F04073B3F1407FDA
:1030400003D121F00071022300E00023436081607E
:103050007047C16070470023C0F8043801F0407326
:10306000B3F1007F04D1D0F8043843F0040306E044
:10307000B3F1407F05D1D0F8043843F00203C0F823
:10308000043821F00071C0F808187047C0F80C1817
:10309000704701230361C0F81038D0F8003C43F0BA
:1030A0000303C0F8003C7047D0F8003C23F0300325
:1030B0000B43C0F8003C704711B1D0F8180C7047B2
:1030C000D0F8140C7047C0F81C1C7047042804D1B9
:1030D000164B1A6842F4803205E0052805D1134BDF
:1030E0001A6842F400321A607047062804D10F4B68
:1030F0001A6842F48022F6E70F2804D10C4B1A68B4
:1031000042F00202EFE7A0F110031F2B05D80122C5
:1031100012FA03F3074A136070472F2805D90123D9
:10312000303813FA00F0044B1860704724ED00E0CB
:1031300010E000E000E100E004E100E0042804D138
:10314000164B1A6822F4803205E0052805D1134B8E
:103150001A6822F400321A607047062804D10F4B17
:103160001A6822F48022F6E70F2804D10C4B1A6863
:1031700022F00202EFE7A0F110031F2B05D8012275
:1031800012FA03F3074A136070472F2805D9012369
:10319000303813FA00F0044B1860704724ED00E05B
:1031A00010E000E080E100E084E100E0020F81B285
:1031B00000F4F810000C11FA00F00B4B82B053F839
:1031C00022301A6840EA02021A60002201E0019AE5
:1031D00001320192019A0F2AF9D91A6822EA0000F5
:1031E000186002B0704700BF60460020020F81B235
:1031F00000F4F810000C11FA00F0034B53F82230E1
:103200001A68104318607047544600200138FDD1F9
:1032100070470000694B70B51A6810331B68002BAB
:10322000B4BF03F0700102F0300120293AD004D875
:1032300069B1102940F0C08010E060295DD070298C
:1032400058D0302940F0B88047F2305063E002F4A3
:10325000F8605B49800951F820005CE05949086832
:1032600010F0E04F4CD00C68574804EA0000B0F171
:10327000805F45D00C68544804EA0000534CA042DB
:1032800003D1096889B202293CD04E484E490468EE
:1032900004EA01014E4CA14236D100684D4980B28A
:1032A0004D4C22E04749086810F0E04F2ED00C68E2
:1032B000454804EA0000B0F1805F27D00C6842481E
:1032C00004EA0000414CA04203D1096889B20229F6
:1032D0001ED03C483C49046804EA01013C4CA14230
:1032E00018D100683D493E4C80B200280CBF2046F2
:1032F000084610E04FF400400DE04FF480000AE073
:10330000384808E0344806E0324804E0364802E035
:10331000334800E03148002B02DA13F4006F01E07B
:1033200012F4006F2AD13149264D09682C6814F037
:10333000E04F43F6E07401EA040406D02E68224D03
:1033400006EA0505B5F1805F06D16409023401F093
:103350001F056043023505E06409604301F01F0565
:1033600001356D00B0FBF5F011F4804F18BF400837
:1033700011F4004F18BF800842F4800212F4800F4D
:103380001BD0002B11DA13F0804F07D013F4006F1D
:1033900004D103F0FE5340009B0D02E003F0FC5308
:1033A000DB0D0133B0FBF3F070BD02F0F062D20D23
:1033B0000132B0FBF2F070BD002070BD60E00F4044
:1033C000F845002000E00F400000FF7000000110F1
:1033D000000003100024F400001BB70000093D00AA
:1033E000C0C62D00C0E1E4007038390064E00F4031
:1033F000024B1A6822F480421A60704770E00F4056
:1034000070B5034611B9304B19605AE0E0B92F4B43
:103410002F481A6853F8044C43F6E07304F4F86438
:10342000A40950F8240002EA03035B09434302F0B5
:103430001F000130B3FBF0F312F4804F18BF5B089C
:1034400012F4004F18BF9B08224D23482E684C09E8
:1034500006EA0000214E621ED318B042B3FBF1F21F
:1034600008D12D6840F20110ADB2854202D1FF2A89
:103470000AD803E040F2FF30824208D801FB123044
:103480000001B0FBF1F104E00F21FF2201E00F2168
:10349000024641F0802545EA025545EA0145120100
:1034A0000948C4F101041543E31852180560B3FB41
:1034B000F2F00001010902FB11331901B1FBF2F135
:1034C0000918084670BD00BF70E10F4064E00F406E
:1034D000F845002000E00F400000FF7000000410DD
:1034E00001238340014A1360704700BF28F00F405A
:1034F00011F0010F03D0012282400C4B1A6011F031
:10350000020F03D001228240094B1A6011F0040F10
:1035100003D001228240074B1A6011F0080F04D03B
:10352000012313FA00F0044B1860704718F00F40A5
:1035300030F00F4038F00F4020F00F4011F0010F35
:1035400003D0012282400C4B1A6011F0020F03D00D
:1035500001228240094B1A6011F0040F03D00122AE
:103560008240074B1A6011F0080F04D0012313FAB0
:1035700000F0044B186070471CF00F4034F00F400F
:103580003CF00F4024F00F40054B064A1B6803EB4C
:103590000013986800EA020241EA02029A6070474A
:1035A00008F00F40F73FFC002DE9F0411E4C4FEAB8
:1035B000001C276810F0200F07EB0C04A568069E7E
:1035C00025F47E5525F0770505D0042901D006297C
:1035D00001D141F0010106F1FF3845EA08150D431C
:1035E00005F04068B8F1406F05D04FEA986806FAD8
:1035F00008F8013A424447F80C2005F04042B2F185
:10360000404F0DD0042901D0062905D140F02003F8
:1036100007EB03130C3303E0920F9640013B9B1919
:103620006360A560BDE8F08108F00F40074B1B68A0
:1036300003EB0013986800F0070300F0060004286D
:1036400003D0062814BF18460620704708F00F4024
:1036500010B5847B8173029901290CBF1354135256
:10366000847310BD19B1437843F0040302E043783A
:1036700003F0FB034370704711F0FF0F02D0C37AD1
:103680000B43C37211F4807F02D00123C0F80834C9
:1036900011F4007F02D0024B01221A60704700BF74
:1036A000480405400346807AD3F80C2412F0010F39
:1036B00007D093F80C2440F4807042F0010283F8A4
:1036C0000C24064B1A6812F0010F05D01A6840F45A
:1036D000007042F001021A60704700BF4C040540C0
:1036E000C38841EA0303C3800389490C9BB24904A0
:1036F00043EA114101817047438880889BB243EAC5
:10370000004070470918B1F80231B1F806019BB2C8
:1037100043EA00407047D9B912F0010F05D090F884
:10372000023143F0400380F8023112F0100F05D04F
:1037300090F8023143F0800380F8023112F0040F58
:1037400017D090F8023103F0FB0380F80231704784
:10375000081890F8023102F0240123EA010380F8EE
:10376000023190F8063102F4980223EA124280F8FE
:103770000621704731B990F8023143F0600380F8B8
:1037800002317047B2F5005F05D100F58170435CEE
:1037900043F0100304E000F58370435C43F0200322
:1037A0004354704731B990F8023103F0FB0380F8BD
:1037B00002317047B2F5005F09D100F58170435CBA
:1037C00003F0CF034354435C43F0400308E000F5AB
:1037D0008370435C03F09F034354435C43F08003D6
:1037E00043547047437843F0400343707047437835
:1037F00003F0BF03437070470170704713F4005F1C
:10380000014403F0100019D081F8002113F00102E7
:1038100018BF802210B142F0140204E013F0080F28
:1038200018BF42F0100213F4407F08BF42F040027C
:10383000402381F8032181F80231704781F8042187
:1038400013F0040218BF802210B142F0280204E0F5
:1038500013F0080F18BF42F0200213F4407F08BF96
:1038600042F04002802381F8072181F80631704739
:1038700010B51C68091814F4005422D04FF40050FD
:10388000186091F80001106091F8032112F0800F88
:1038900003D0196841F00101196012F0100F08D02F
:1038A000196812F0040F14BF41F0100141F0080133
:1038B000196012F0400F24D11A6842F480721A6025
:1038C00010BD1C6091F80401106091F8072112F0FE
:1038D000800F03D0196841F00401196012F0200F25
:1038E00008D0196812F0080F14BF41F0100141F020
:1038F0000801196012F0400F03D11A6842F4807277
:103900001A6010BD73B51546069A064612F4005F9C
:103910004FEA11144FF001020AD0009221466132A1
:10392000FFF796FE0223069330462146642209E003
:10393000009221466322FFF78BFE02230693304656
:1039400021466622EB0802B0BDE87040FFF780BE5A
:1039500012F4005F06D000F580700330435C43F042
:10396000100305E000F582700330435C43F0200350
:103970004354704730B511B101F5837401E04FF441
:103980008174245A14F0010403D11C604FF0FF30FD
:1039900030BD00F58474645A1D68A4B2AC4228BFDF
:1039A0002C4620301C6000EB910103E00B78013CB9
:1039B00002F8013B002CF9D1204630BD31B9002A74
:1039C0000CBF4022482280F80221704700F5837026
:1039D000435C03F0FE034354704730B500F5817437
:1039E000645C002914BF0125022525420BD120303B
:1039F00000EB910103E012F8010B013B0870002B72
:103A0000F9D1184630BD4FF0FF3030BD01B1120A78
:103A100000F58173585C10F002000CBF5A544FF04F
:103A2000FF307047203000EB9100704792000F2369
:103A30009340090911FA02F210B5D0F8504424EA73
:103A400003031343C0F8503410BD032380F81C3423
:103A500070470A891C23013A82814A890360013A2E
:103A60001C3B416003814381C281036143618361E7
:103A7000704770B50C46B4F90420B4F90230B1F9BE
:103A80000010054600F034FAB4F90220B4F906300B
:103A90009A4220D00132B4F90410284600F04BFAC3
:103AA000B4F90020B4F904108A4214D00139B4F9F1
:103AB0000630284600F01CFAB4F90230B4F90620AA
:103AC0000133934207D0B4F900102846013ABDE80B
:103AD000704000F030BA70BD2DE9F3478B88024684
:103AE00008881CB205B2A542CBBFADF80030ADF8D6
:103AF0000000ADF80400ADF804304888CB8804B26B
:103B000019B28C42CCBFADF80600ADF80200908926
:103B1000BDF90080CCBFADF80230ADF8063003B27D
:103B2000984533DCBDF80460178933B20FFA87FC7F
:103B300063452BDBBDF80250D3892CB219B28C42FD
:103B400024DCBDF8064051890FFA84FA0FFA81F996
:103B5000CA451BDBE045B8BFADF8007036B207B20E
:103B6000BE42C8BFADF804002DB208B28542B8BF4E
:103B7000ADF8021024B219B28C425168C8BFADF83A
:103B800006304868CB69126969469847BDE8FC87EA
:103B9000F0B5806990F90030002B0ADA0379C66825
:103BA0002E2B856847790BD82D2F94BF18462E20D1
:103BB00007E0D0F8C460051D7E272E20202300E0FA
:103BC0001846C01A05EB400C00200DE09C4205D3BE
:103BD000BC4203D8E41A35F8144001E0BCF80040B8
:103BE00034196478013A001911F8014B0CB1002A1C
:103BF000ECD1F0BD2DE9F04F93B00BAC05468246F9
:103C00000E4607929C460FCD0FC4DAF8183095E89F
:103C1000070084E8070093F90020002A19DA1A79CE
:103C2000D86899685B792E2A0490059101920693D1
:103C300005D8069813462D2888BF2E2300E0019B47
:103C40000199059A5B1A02EB430309930896E34630
:103C500042E1D3F8C4007E2104332022059304906E
:103C60002E2306910192EBE7BDF93820934500F32E
:103C70003C810198834209D306998B4206D8059A64
:103C80001B1A32F813C0049B9C4404E00998049961
:103C9000B0F800C08C440CF1010202929CF8013093
:103CA000BDF934205B449342C0F212810026CDF866
:103CB0000CB0009634460225E346FFE0009A1C98BB
:103CC0001118BDF93A20914200F3FD80119A92F843
:103CD000008038F080082ED100E000261BF8051087
:103CE00006F1180211FA02F2B2FA82F2082AC8BFEB
:103CF000C6F10802B618082E904403D101359D4242
:103D0000EBDB083E4FF0000912E01BF8051006F14E
:103D1000180211FA02F2D243B2FA82F2082AC8BF9C
:103D2000C6F10802B618082E91446BD10135083E41
:103D30009D42EADB66E01BF805302BB14FEA131811
:103D400003F00F0901355DE00BEB050292F80180ED
:103D5000023518F0800F05D008F07F084FEAC80937
:103D600098464FE04FEAC80899464BE000991C98E6
:103D7000BDF93A200B18934200F39580B8F1010F7A
:103D80001EDD029A1578621CAA4219DA08EB0402B9
:103D9000AA42BDF93620CCBFC4EB05054546934287
:103DA0000ADB1D9840B172690BA80F92039AA11803
:103DB0004A1E521900F09CF8C5EB0808641918E077
:103DC0000398BDF93420211891420FDBBDF938204A
:103DD00091420BDCBDF93620934207DB1D9A2AB1D4
:103DE0007268D56850681A467369A84708F1FF38A9
:103DF0000134029803789C4207D1009900240131D4
:103E0000009102E037465646AA46B8F1000FADD100
:103E10005546B246A846564646E01C9A0AEB0203AF
:103E2000BDF93A20934244DCB9F1010F1CDD029840
:103E3000621C0578AA4217DA09EB0402AA42BDF90E
:103E40003620CCBFC4EB05054D46934208DB3269F2
:103E50000BA80F92039AA1184A1E521900F048F8B5
:103E6000C5EB0909641916E00398BDF9342021183F
:103E700091420DDBBDF93820914209DCBDF93620B5
:103E8000934205DB7268D56850681A463369A847C3
:103E900009F1FF39013402990B789C4206D10AF1ED
:103EA000010A002402E0D046DDF800A0B9F1000FBD
:103EB000B3D1CDF800A04546B2463E469BF800304F
:103EC0009D42FFF6FBAE029ADDF80CB013785B441E
:103ED00007989B4601380790089911F8013B089113
:103EE0001BB1079A002A7FF4BFAE13B0BDE8F08F74
:103EF000F7B5B0F90A40A3421CDBB0F90E40A3426B
:103F000018DC914202DD0C4611462246B0F90C50F5
:103F1000A9420FDCB0F90860B2420BDB47680069C8
:103F2000B142B8BF314600907C697868AA42A8BF08
:103F30002A46A047FEBDF7B5B0F90840A1421CDBF8
:103F4000B0F90C40A14218DC9A4202DD14461A4630
:103F50002346B0F90E50AA420FDCB0F90A60B34212
:103F60000BDB47680069B242B8BF32460090BC69BB
:103F70007868AB42A8BF2B46A047FEBD2DE9114093
:103F800087B0042AC0F04F81C1F1000313F003038E
:103F900011D05FEAC37CA2EB030244BF11F8013BDE
:103FA00000F8013B21BF11F8014B11F801CB00F8DB
:103FB000014B00F801CB80EA010C1CF0030F4ED13D
:103FC0008DE8E00FC0F1000313F01C0316D09342FC
:103FD00088BF02F01C035FEA037C24BFF0C9F0C075
:103FE00044BFB1E80003A0E8000313F0040F1CBFB6
:103FF00051F804AB40F804ABA2EB0302203A0BD318
:1040000021F01F0C0CF1400CB1E8F00F203AA0E8B1
:10401000F00FF9D202F1200212F01F0F1AD05FEA5E
:10402000027C24BFF0C9F0C044BFB1E80003A0E89F
:1040300000035FEA827C24BF51F8043B40F8043B54
:1040400044BF31F8024B20F8024B12F0010F1CBFA5
:104050000B780370BDE8E00FBDE811407047042AFB
:10406000C0F0E1808DE8E00FC0F1000505F0030528
:104070004FEAC50CCCF1200E51F8043BA2F104022A
:10408000ED0744BF00F8013B1B0A21BF00F8013BCC
:104090001B0A00F8013B1B0A042AC0F0B68010F08E
:1040A0001C0F0FD051F8045BA2F1040205FA0EF4C4
:1040B00043EA040425FA0CF340F8044B042AEED238
:1040C000C0F0A380203AC0F08C80BCF1180F5CD007
:1040D000BCF1080F2CD051F804CB6446B1E8E00FD6
:1040E000203A28BF51F804CB43EA04434FEA144472
:1040F00044EA05444FEA154545EA06454FEA1646A7
:1041000046EA07464FEA174747EA08474FEA184882
:1041100048EA09484FEA194949EA0A494FEA1A4A5E
:104120004AEA0B4AA0E8F8074FEA1B43D5D258E009
:1041300051F804CB6446B1E8E00F203A28BF51F8AB
:1041400004CB43EA04634FEA142444EA05644FEACB
:10415000152545EA06654FEA162646EA07664FEA40
:10416000172747EA08674FEA182848EA09684FEA1C
:10417000192949EA0A694FEA1A2A4AEA0B6AA0E8A9
:10418000F8074FEA1B23D5D22BE051F804CB644645
:10419000B1E8E00F203A28BF51F804CB43EA0423EA
:1041A0004FEA146444EA05244FEA156545EA0625FA
:1041B0004FEA166646EA07264FEA176747EA0827D6
:1041C0004FEA186848EA09284FEA196949EA0A29B2
:1041D0004FEA1A6A4AEA0B2AA0E8F8074FEA1B637B
:1041E000D5D2CEF1200C02F12002042A0DD351F8D1
:1041F000045BA2F1040205FA0EF443EA040425FA72
:104200000CF340F8044B042AF1D25FEA0E7544BF68
:1042100000F8013B1B0A22BF00F8013B1B0A00F813
:10422000013B9DE8E00FD20744BF11F8012B00F8D5
:10423000012B21BF11F8013B91F800C000F8013BB0
:1042400080F800C007B0BDE81140704741EA0003A4
:1042500013F0030F70B40D4604462DD1032A2BD959
:10426000294655F8043BA3F1013626EA030616F069
:10427000803F05D1043A032A44F8043B2946EFD88D
:104280002646BAB10D783346541E03F8015B55B18A
:10429000B21C7CB111F8015F134602F8015C013CCD
:1042A0000132002DF5D12CB11C19002203F8012B8D
:1042B000A342FBD170BC70470646E2E74D757465BA
:1042C0006400566F6C756D653A253364252500438F
:1042D0006F6E6E656374656400446973636F6E6EC0
:1042E0006563746564007573622D6465762D617510
:1042F00064696F00C4430020484300207E430020CF
:104300006C430020C84300209A430020BE1C0600D6
:104310005449202020202020417564696F20446585
:104320007669636520202020312E3030F401C000F2
:10433000B5020020F442002006000000000C80DCE2
:10434000800100000018012024035400650078005B
:1043500061007300200049006E0073007400720059
:1043600075006D0065006E0074007300120331006B
:1043700032003300340035003600370038001C03AB
:1043800041007500640069006F002000450078005E
:1043900061006D0070006C0065002A03410075002B
:1043A000640069006F002000200043006F006E0071
:1043B00066006900670075007200610074006900A2
:1043C0006F006E00040309042003410075006400BF
:1043D00069006F00200049006E00740065007200E3
:1043E0006600610063006500280000000000000016
:1043F0004001F0004107002081070020D50800207F
:10440000310900208D0900204D0A0020650A002096
:10441000004000400050004000600040007000403C
:104420000040024000500240006002400070024024
:1044300000D0034007080307080202080402080529
:10444000020806020807070800070801040800041C
:1044500008010708040708050508040608000608FF
:1044600001050805080800080801080802080803F3
:1044700003080203080301080501080404080204F4
:1044800008030708060708070808040808050808BD
:104490000606090700303840485058606468707458
:1044A0007930313233343536373839616263646597
:1044B00066004552524F5200090000001C000120C6
:1044C000040000000C000120340000009045002092
:1044D000C0440020340000005445002001000020AA
:1044E0000100002001000020010000200100002048
:1044F0000100002001000020010000200100002038
:104500000100002001000020010000200100002027
:104510000100002001000020010014000100000043
:104520000100000001000000010000000100000087
:104530000100000001000000010000000100000077
:104540000100000001000000010000000100000067
:10455000010000000904010000010200000904013B
:10456000010101020000072401010101000B2402E6
:10457000010202100180BB0009050109C000010011
:10458000000725010100000008000000370001209D
:1045900009040000000101000009240100013400A9
:1045A00001010C24020101010002030000000D249E
:1045B00006030102010002000200000924030201B7
:1045C0000301030069260020D92500200000000017
:1045D0005D25002000000000051F00202124002090
:1045E00005240020951F00207D230020312300207A
:1045F000952200207922002040420F0000201C005C
:1046000080841E0000802500999E360000403800FE
:1046100000093D0000803E0000004B00404B4C0074
:1046200000204E00808D5B0000C05D0000807000A7
:1046300000127A0000007D0080969800001BB700F1
:104640000080BB00C0E8CE00647ADA000024F400E9
:104650000000FA0000E10F4004E10F4008E10F40C4
:1046600040E00F4044E00F4048E00F4001121611B7
:1046700000000500170027004D007600AD00D800AF
:10468000E300FA0010012401390144014C015401F6
:104690006C018C01A001B901D301EF0109022802CC
:1046A0003D025C027A0284029202A402AF02C502B9
:1046B000DD0211033403540374039503B403CF03E1
:1046C000EE030F04230439045D047604AE04D90418
:1046D000FA0414053D055F057C059705B905D90564
:1046E0000D062D06490663067B068B06A306AC065F
:1046F000B306BE06D706F3060607240738074F079A
:10470000680785079607AC07CA07DC07FE07170886
:104710002E084A08640876088C08A208BB08D2084C
:10472000F3080A0925093809400949095509000013
:10473000344700200509001860120331212121218E
:10474000212121212121218121F0201009F0D131C5
:10475000332241314131313181000F2610000731C0
:10476000A141A131A141A141A1316E6141A141A16C
:10477000317E5141A141A131B131A141A141A1F00D
:10478000E02909C174411111312121212121212167
:104790002121216374611251212121212121212113
:1047A00021212121114471F0F0B0371022715121E3
:1047B0005241323251456141316141217141217192
:1047C0004111912121A22132913121812141613177
:1047D00041613141514141424141416121D2000891
:1047E000402B0FF033C121A131A131A131A121B161
:1047F00011C3445161635151214151412161511112
:104800006161412241112235330009600B05F0112D
:10481000334141310009101706E1514151514151D5
:1048200051515151515151615151615161201606FF
:10483000C1616151516151515151515151514151D8
:10484000514141B01409C1815121213111115355F8
:104850003121215181000E10150F000821E1E1E105
:10486000E1E1E18D81E1E1E1E1E10008400B0400DB
:1048700007413231312131700807000A4500081024
:104880000803F0F0F121F0201809F18171818171A4
:104890008181718181817181817181817181818049
:1048A0002009F0E351313141315121512151215140
:1048B00021512151215121513131413153000610F3
:1048C0001407F081436161616161616161616161EE
:1048D00045F0F0701909F0E3423131512151215175
:1048E000817181717171717151270005701A09F020
:1048F000E342313151215171814491918121512102
:10490000512141440006101C0AF0F05191827111AE
:1049100061216121513151314141414148719175CC
:104920000006401A09F0D1845181811252219181EF
:10493000812241224121513131530006101F09F0DB
:10494000F3513131412181134231315121512151F2
:10495000215121512151313153000610150AF061C6
:1049600091972151918181919181919191919100A2
:10497000071F09F0E35131315121513141322153A7
:10498000512231422151215121513132430006102F
:104990001E09F0E351313141315121512151215151
:1049A00031234311817131413131530006200A0313
:1049B000F09121F02121F0200E04F0F02222F0727B
:1049C0002231312131701203F03121512121212175
:1049D00021212121212121500B0F00107D00057D77
:1049E000000F20160800062262F171717161716179
:1049F0006171412141223134B01808A34131214174
:104A00002141214171617161717171F07262F0F047
:104A1000E0340FF044A1427171512431411221312F
:104A200031214221211161212111612121116121B5
:104A300021116121212151213112322131242251B0
:104A4000F16276000A230FF0F062C111C111C112A8
:104A5000A122A131A13281428151887152617161DB
:104A60007161723454000950200DF0F09961525177
:104A7000624162416151516761615171417141719E
:104A80004171416139000850200E000564314242F5
:104A9000113272318221A121A121D1D1D1A1319133
:104AA0003271525185000930210EF0F0C971526106
:104AB00071517151814181418141814181418141E6
:104AC0007151715152490009301F0EF0F0CB5171F4
:104AD000517151D141814186814181418181418121
:104AE000418141713B0009101B0DF0F09B41714168
:104AF0007141C1417141767141714171C1C1C1A51D
:104B00000009101F0E00056482411142624181318B
:104B10009131D1D1D174219141815171525275009D
:104B20000930210EF0F0C52541616161616161616B
:104B3000616168616161616161616161616161457A
:104B40002500091407F0654161616161616161617E
:104B500061616145F0F0701609F0F4718181818125
:104B600081818181813231322244000610240FF08C
:104B7000F0F54441716161715181329121B111119E
:104B8000A2229142815181527162617145440009B2
:104B900050190CF0F06591B1B1B1B1B1B1B1B161E1
:104BA0004161416141522900077038110006348388
:104BB0004272611151116111511161115111612143
:104BC0003121612131216121312161311131613185
:104BD0001131613111316141416141414431340050
:104BE0000A702B0FF0F0F4544351611151611241DE
:104BF00061214161223161313161412161421161A3
:104C000051116153616261624461000970210E00BB
:104C1000056482425262418131A121A121A121A1D9
:104C200021A121A1318142625242840009401A0C23
:104C3000F0F068615151614161416141515661B18A
:104C4000B1B1B1B195000830290E000565815161FF
:104C500071418131A121A121A121A121A131913154
:104C6000422151211121632285D121B111B3B2F02A
:104C700020220FF0F0F891518161716171617151E1
:104C80008691428151815181518152715221254336
:104C90000009601D0AF0F023613231513151319227
:104CA00094939221612161216123313114000660C6
:104CB0001B0EF0F0DB31414121514121514181D1A5
:104CC000D1D1D1D1D1D1D1B5000930220FF0F0F539
:104CD00035417161716171617161716171617161A0
:104CE00071617161717151823294000A20200FF05C
:104CF000F0F463328151716261715181518241914D
:104D000031A221B111C111C3D1E1000A3034150023
:104D100007744443326171516251615111516241D2
:104D20001151714112318131313182213131912161
:104D30003211A1115111A35111B252C171C17100AF
:104D40000E200FF0F0F453516181518231A211C253
:104D5000E1E2B211B13191427162617143640009C3
:104D6000501C0FF0F0F4634181526171518231A205
:104D700021B111C3D1E1E1E1E1C5000A101A0CF043
:104D8000F06A22613162A1A1A2A1A1A1B1A1613108
:104D90007131622A000760180553214141414141A8
:104DA0004141414141414141414141414143201043
:104DB00009F0D13131314131422331310010101825
:104DC00005534141414141414141414141414141FD
:104DD000414141414123200905F0113111000A7080
:104DE000070391210006500B05F0113141433100BA
:104DF0000910190B000B147131613174613151418B
:104E000051412121322133220007201C0AF0F29166
:104E1000919191911352314151315131513151316F
:104E200051323163000660130800082341312141EB
:104E300021717172713143F0F0D01E0AF0F052917D
:104E4000919191531141323151315131513151319F
:104E500051413253120006401409000923513131E7
:104E60005127218181513131530006101708B35168
:104E7000114121417171715551717171717171647B
:104E8000F0F0D0190B000B364131613161316131E5
:104E90006471A1B542512171225245F01D0AF0F210
:104EA000919191919113523141414141414141418F
:104EB0004141414133230006401105F01141F032D8
:104EC0004141414141414133F0C01607F09252F057
:104ED000A36161616161616161612131212142B040
:104EE0001E0BF0F032A1A1A1A1A1334131612171CA
:104EF00011821171316131614143240007101205A3
:104F0000F241414141414141414141414133F0C0C0
:104F1000220F000F021323523231414141414141DE
:104F200041414141414141414141414133232300FC
:104F30000950190A000A02135231414141414141CD
:104F400041414141414133230006401709000923F3
:104F500051313151215121512151215131315300D0
:104F600006101C0A000A02135231415131513151CD
:104F7000315131423231411351919183F0201A0A5B
:104F8000000A236132315131513151315131514196
:104F900032531191919183C012070007021232110E
:104FA00031616161616153F0F090160900091411DB
:104FB00021422151229431512151223221140006E3
:104FC0001609F0F0818181726741818181813141CF
:104FD000314131530006190A000A02324141414170
:104FE0004141414141414141413253120006401784
:104FF0000B000B033331515131613171118111813A
:105000001191A1000750210F000F041323323141E9
:10501000513131612111216211112172211182322C
:1050200091329131000A10170C000C043341417188
:105030002192A291127131714143340007601B0B20
:10504000000B03333151513161316121811182A152
:10505000A1917121711183F04013090009072141C9
:10506000718171717141215127000570080B000D8C
:1050700069000F300915001A2F04001D100C08F0EC
:10508000A131213131310010300908F0A251230043
:10509000112000000006080700000800100018009A
:1050A0002000280030003800400048005000580020
:1050B0006000680070007800800088009000980010
:1050C000A000A800B000B800C000C800D000D80000
:1050D000E000E800F000F8000001080110011801EC
:1050E00020012801300138014001480150015801D8
:1050F00060016801700178018001880190019801C8
:10510000A001A801B001B801C001C801D001D801B7
:10511000E001E801F001F8010002080210021802A3
:10512000200228023002380240024802500258028F
:10513000600268027002780280028802900298027F
:10514000A002A802B002B802C002C802D002D8026F
:10515000E002E802F00200005C51002008060000B6
:1051600000000000080620820800020008065145E1
:10517000000000000806514F94F94500080621EA96
:105180001C2BC2000806C321084261800806624A3F
:1051900010AA4680080660840000000008061084FB
:1051A0001040810008064081041084000806008A2F
:1051B0009CA88000080600823E20800008060000AF
:1051C00000608400080600003E00000008060000A1
:1051D0000001860008060021084200000806722926
:1051E000AACA270008062182082087000806722024
:1051F00084210F800806F842040A2700080610C51B
:1052000024F841000806FA0F020A270008063108B0
:105210003C8A27000806F821084104000806722885
:105220009C8A2700080672289E0846000806018608
:105230000061800008060186006084000806108472
:10524000204081000806000F80F800000806408119
:1052500002108400080672208420020008067220D2
:105260009AAAA70008067228A2FA28800806F2283F
:10527000BC8A2F0008067228208227000806E24810
:10528000A28A4E000806FA083C820F800806FA0837
:105290003C820800080672282E8A278008068A2881
:1052A000BE8A2880080670820820870008063841D8
:1052B0000412460008068A4A30A24880080682087E
:1052C00020820F8008068B6AAA8A288008068A2C0A
:1052D000AA9A288008067228A28A27000806F228BF
:1052E000BC82080008067228A2AA46800806F22896
:1052F000BCA2488008067A081C082F000806F8821D
:105300000820820008068A28A28A270008068A2820
:10531000A289420008068A28AAAAA50008068A25AA
:105320000852288008068A28942082000806F8215E
:1053300008420F80080671041041070008060204A5
:105340000810200008067041041047000806214894
:10535000800000000806000000000F800806408161
:105360000000000008060007027A27800806820B6A
:10537000328A2F0008060007208227000806082628
:10538000A68A27800806000722FA070008063124AB
:1053900038410400080601E8A27827000806820BBD
:1053A000328A288008062006082087000806100395
:1053B000041246000806820928C289000806608295
:1053C000082087000806000D2AAA28800806000B7E
:1053D000328A288008060007228A27000806000F64
:1053E00022F2080008060006A67820800806000BB6
:1053F000328208000806000720702F000806410EC0
:105400001041230008060008A28A668008060008EA
:10541000A289420008060008A2AAA5000806000802
:105420009421488008060008A27827000806000F8B
:1054300084210F8008061082102081000806208237
:10544000082082000806408204208400080642A149
:045450000000000058
:10545400C90600201107002064640000B84400203D
:1054640088450020C8440020D444002009022000BC
:1054740002010080FA120110010000004000000047
:1054840000000101020301080B00020100000000FA
:1054940000000000C11C0020851C0020AF1B002060
:1054A400591B002000000000000000000000000064
:1054B400000000009F1B0020311C0020C11B0020A5
:1054C40025000120D044002000000000000000005E
:0954D400DC44002000000000038C
:040000052000011DB9
:00000001FF
