:020000040800F2
:10000000680200209101000895010008970100088E
:10001000990100089B0100089D01000800000000F4
:100020000000000000000000000000009F01000828
:10003000A101000800000000A3010008A5010008BC
:10004000A7010008A7010008A7010008A7010008F0
:10005000A7010008A7010008A7010008A7010008E0
:10006000A7010008A7010008A7010008A7010008D0
:10007000A7010008A7010008A7010008A7010008C0
:10008000A7010008A7010008A7010008A7010008B0
:10009000A7010008A7010008A7010008A7010008A0
:1000A000A7010008A7010008A7010008A701000890
:1000B000A7010008A7010008A7010008A701000880
:1000C000A7010008A7010008A7010008A701000870
:1000D000A7010008A7010008A7010008A701000860
:1000E000A7010008A7010008A701000800F002F816
:1000F00000F041F80AA090E8000C82448344AAF181
:100100000107DA4501D100F036F8AFF2090EBAE87E
:100110000F0013F0010F18BFFB1A43F0010318473B
:10012000E817000008180000103A24BF78C878C10A
:10013000FAD8520724BF30C830C144BF04680C60ED
:10014000704700000023002400250026103A28BF35
:1001500078C1FBD8520728BF30C148BF0B60704739
:10016000642900F04986002070471FB5AFF3008076
:100170001FBD10B510BD00F0F6FE1146FFF7F5FFEC
:1001800000F0D4FC00F014FFFFF7F3FF00F01AFFBB
:1001900008480047FEE7FEE7FEE7FEE7FEE7FEE76A
:1001A000FEE7FEE7FEE7FEE703480449024A044B88
:1001B00070470000ED000008680000206802002081
:1001C000680000201220A84908607047A748A84985
:1001D0004860A848086000BF00BFA548006810F448
:1001E000003FFAD000BFA248006810F0007FFAD0AC
:1001F00000BF9F48406800F00C000828F9D1704704
:1002000000BF704745F255509B4908600220486086
:1002100040F69F7088604AF6AA2008604CF6CC40F1
:100220000860704795484FF0E0214861062008615A
:10023000002088610846006940F0010008617047AD
:100240008B48C06940F080508949C8618C4800687B
:1002500040F480708A4908608548006A40F00100D7
:100260008349086200BF8248006A10F0020FFAD08A
:1002700000BF7F48006A40F401407D490862814820
:10028000008840F010008049A1F8040800207D4952
:10029000091D088047F6FF70091D08800020794974
:1002A00014310880091D0880091D08803C20091DA3
:1002B000088001207449A1F800084FF0E020D0F830
:1002C000000140F008004FF0E021C1F800016E4845
:1002D000B0F8040820F010006A49088000BF69489F
:1002E000008810F0200FFAD06548006820F4807074
:1002F00063490860704700BF5D48C06940F0010075
:100300005B49C86100208904088541F61F40888543
:1003100000200880888008854820888500208886FD
:100320000887052088870020584908800906088327
:1003300060208883881508840020088104200880B4
:100340000020888000BF0846008840F00100088037
:1003500000BF00BF70474648806940F00400444930
:1003600088614B484B49086000204B49C1F804089C
:100370003F48806940F008003D4988614748484946
:10038000086048484449C1F8040C3948806940F085
:100390001000374988610020434908604FF480000D
:1003A000486000BF00BF704700BF00BF00BF70477C
:1003B00000BF00BF00BF00BF00BF00BF00BF00BF45
:1003C00000BF00BF00BF00BF00BF00BF00BF00BF35
:1003D000704700BF00BF00BF00BF00BF00BF00BF2D
:1003E00000BF00BF00BF00BF70472148C06940F098
:1003F00000601F49C8610846C06940F08050C8616C
:100400001F48006840F480701D490860002027499B
:1004100008802749A1F8340C0846B0F8340C40F0A5
:100420000300A1F8340C1648006820F480701449C9
:1004300008601E48001D008810F0040F07D01D48FA
:10044000006840F004004FF0E021C1F8000170475F
:1004500000B5FFF7B7FEFFF7B9FEFFF74CFFFFF758
:100460007AFF00BD1448704700200240028411004A
:10047000001002408200010100300040FFB9DB00A3
:100480000070004004280040002000404000004070
:10049000740BB3BB0008014000000140040040039E
:1004A000000C01400040443400100140306C00401A
:1004B0000060004000E100E00051250200BF0100A3
:1004C000A0F10100FBD1704706E0002100E0491CCB
:1004D00042F26C029142FADB0200A0F10100F4D179
:1004E0007047F748806940F01000F5498861F54889
:1004F00000684FF03330F3490860084640686FF3F6
:100500001300F1490843EF4948600846C06840F4C9
:100510008050C8600846C06840F40070C860084653
:10052000C06840F48070C8600846C06840F48060CD
:10053000C8600846C06840F40060C860704710B5E5
:100540000446E048C06840F48070DE49C860084650
:10055000C06820F48050C8600846C06840F48060DD
:10056000C8600846C06820F0FF002043C860084605
:10057000C06820F40070C8600A20FFF79FFFD148D0
:10058000C06840F40070CF49C8600846C06840F4B5
:100590008050C86010BD10B50446CA48C06840F419
:1005A0008070C849C8600846C06820F48050C860A0
:1005B0000846C06820F48060C8600846C06820F023
:1005C000FF002043C8600846C06820F40070C8607F
:1005D0000A20FFF773FFBB48C06840F40070B949B8
:1005E000C8600846C06840F48050C86010BD70B54F
:1005F00004460D462046FFF7CEFF2846FFF79FFF33
:1006000070BD10B5AF4800684FF04430AD49086088
:100610000846C06820F48070C86008468068C4B28C
:100620000A20FFF74BFFA748C06840F48070A54937
:10063000C860200A10BD10B5FFF753FF6420FFF714
:1006400043FFA048C06820F400609E49C860642051
:10065000FFF73AFF9B48C06840F400609949C860C2
:100660006420FFF731FF00216020FFF7C0FF062163
:100670006120FFF7BCFF00216220FFF7B8FFD921FE
:100680006320FFF7B4FF70217320FFF7B0FF202134
:100690004020FFF7ACFF41210846FFF7A8FF4121AA
:1006A0004220FFF7A4FF01214320FFF7A0FF3421E0
:1006B0004420FFF79CFF02214520FFF798FF082107
:1006C0004620FFF794FFD1214720FFF790FF052137
:1006D0004820FFF78CFF67215020FFF788FF00219B
:1006E0005120FFF784FF27215220FFF780FF0B21C5
:1006F0005320FFF77CFF83215420FFF778FF0E2162
:100700005520FFF774FF01215620FFF770FF3721B6
:100710005720FFF76CFF45216620FFF768FF0C218B
:100720008020FFF764FF03211F20FFF760FF0221F5
:100730002020FFF75CFF1C212420FFF758FF342105
:100740002520FFF754FF3F212320FFF750FF4421CE
:100750001820FFF74CFF44211B20FFF748FF012121
:100760002120FFF744FF00210120FFF740FF032174
:100770001C20FFF73CFF06211920FFF738FF05205A
:10078000FFF7A2FE05211720FFF731FF8421262065
:10079000FFF72DFF2820FFF797FEB8212620FFF74F
:1007A00026FF2820FFF790FEBC212620FFF71FFF21
:1007B00002213520FFF71BFF00210220FFF717FF62
:1007C00000210320FFF713FF00210420FFF70FFF94
:1007D000AF210520FFF70BFF00210620FFF707FFE1
:1007E00000210720FFF703FF00210820FFF7FFFE8D
:1007F000DB210920FFF7FBFE2220FFF7CCFE28209B
:10080000FFF762FE10BD2DE9F04104460D46164685
:100810001F4600210220FFF7EAFE29460320FFF7CA
:10082000E6FE00210420FFF7E2FE39460520FFF72F
:10083000DEFE00210620FFF7DAFE21460720FFF743
:10084000D6FE00210820FFF7D2FE31460920FFF72F
:10085000CEFE2220FFF79FFEBDE8F0812DE9F04794
:1008600004460D4616461F46DDF82080FBB2F2B264
:10087000E9B2E0B2FFF7C7FF4FF0000911E04FF017
:10088000000A09E0C8F30720FFF759FE08F0FF004F
:10089000FFF755FE0AF1010A781B5045F2DA09F11B
:1008A0000109301B4845EADABDE8F08738B504464F
:1008B000AF23DB22002108460094FFF7CFFF38BDAD
:1008C00000100240001001403333030070B50446AD
:1008D0000D461646EBB2E2B2E9B2E0B2FFF793FF83
:1008E000C6F30720FFF72BFEF0B2FFF728FE70BD1E
:1008F0002DE9F05F04460D4616461F46DDF82880B8
:1009000005F10F00C3B204F10F00C2B2E9B2E0B2C8
:10091000FFF779FF4FF0000926E009EB0610814947
:1009200011F800B04FF0000A19E00BF080008028A9
:1009300007D1C7F30720FFF702FEF8B2FFF7FFFD6C
:1009400007E0C8F30720FFF7FAFD08F0FF00FFF704
:10095000F6FD4FEA4B604FEA106B0AF1010ABAF15B
:10096000080FE2D309F10109B9F1100FD5D3BDE8A1
:10097000F09F2DE9FF5F044615461E460E9F019825
:100980000F30C3B204F10F00C2B20198C1B2E0B29D
:10099000FFF739FF4FF0000A46E0CAEBCA0000EB50
:1009A00080006149084490F820002978884239D1B4
:1009B000CAEBCA0000EB80005B49084490F82100B4
:1009C000697888422ED14FF0000828E0CAEBCA00AF
:1009D00000EB80005449084410F808B04FF00009BB
:1009E00018E00BF08000802807D1C6F30720FFF73E
:1009F000A6FDF0B2FFF7A3FD06E0C7F30720FFF75F
:100A00009EFDF8B2FFF79BFD4FEA4B404FEA104BBB
:100A100009F10109B9F1080FE3D308F10108B8F1B0
:100A2000200FD3D30AF1010ABAF1080FB5D3BDE8FC
:100A3000FF9F2DE9F84304460D4616461F46DDF894
:100A400020803B46324629462046CDF80080FFF7FD
:100A50004FFFBDE8F8832DE9F84304460D461646DE
:100A60001F46DDF820804FF0000921E03078802813
:100A70000FDACDF80080327804EBC90188B23B462A
:100A80002946FFF7D6FF761C09F1010000F0FF09A7
:100A90000EE004EBC90188B23B4632462946CDF848
:100AA0000080FFF766FFB61C09F1020000F0FF09A5
:100AB00030780028DAD1BDE8F8832DE9F05F0446EC
:100AC0000D4616461F463B46324629462046FFF74E
:100AD0009AFE4FF0000820E04FF0000916E0781B66
:100AE000801C00FB08F001460A98463000EB410AE2
:100AF0003AF819B04FEA2B20FFF721FD0BF0FF0069
:100B0000FFF71DFD09F101000FFA80F9781B484538
:100B1000E5DA08F101000FFA80F8301B4045DBDA16
:100B2000BDE8F09FF00F0008F017000808B5FFF7C8
:100B30008FFCFFF780FD1F20FFF7B8FE4FF6E07334
:100B400000934FF4784317A21E213220FFF783FF52
:100B500000BF00F0DDF817490860084600681E284D
:100B600007DD1548006840F040001449C1F80C0C3E
:100B700006E01148006820F040001049C1F80C0C54
:100B80000C480FA10268104800F0EAF84FF6E07335
:100B900000934FF478430C4A46210846FFF75BFF69
:100BA000D7E7000044533138423230B2E2CEC2CAF5
:100BB000B5D1E900000000200C0C0140000001400C
:100BC000CEC2B6C83A2564000400002006E0002129
:100BD00000E0491C42F26C029142FADB0200A0F1F3
:100BE0000100F4D1704700EBC0014FF0E0225161E9
:100BF0001146096941F00101116100BF4FF0E02188
:100C0000096911F4803FF9D000214FF0E022116111
:100C10009161704710B50221504800F0E7F91E209D
:100C2000FFF7E1FF02214D4800F0DEF94FF41670A6
:100C3000FFF7D9FF0221494800F0D8F91E20FFF73D
:100C4000D2FF00BF0221454800F0C7F90028F9D1C2
:100C50004FF4FA70FFF7C7FF0221404800F0C6F9D1
:100C600010BD70B5044608251FE002213B4800F086
:100C7000BBF90520FFF7B7FF14F0010F04D00221E4
:100C8000364800F0B3F903E00221344800F0ACF933
:100C90004120FFF7A8FF0221304800F0A7F9022009
:100CA000FFF7A1FF6410681EC5B2002DDDDC70BD2A
:100CB00070B50221294800F099F90520FFF793FF4C
:100CC000002421E06D100221244800F08DF9052058
:100CD000FFF789FF0221214800F088F90520FFF77E
:100CE00082FF02211D4800F078F910B145F080051F
:100CF00001E005F07F054120FFF775FF022117484D
:100D000000F074F9601CC4B2082CDBDB284670BD0F
:100D100070B5FFF77FFFCC20FFF7A3FF4420FFF75C
:100D2000A0FF40F22620FFF751FFFFF773FFCC2012
:100D3000FFF797FFBE20FFF794FFFFF7B9FF0446C8
:100D4000FFF7B6FF05462807050E04F0F00004463D
:100D500005EB2010C5B2284670BD00000008014018
:100D60000FB408491CB506AB6A4679440090059853
:100D700000F0D9F80020694600F0E8F81CBC5DF8E6
:100D800014FB0000DF0100002DE9F04104460E468F
:100D900000202BE0E1682046884748B3252802D090
:100DA000D4E901211FE0E1682046002788470500BB
:100DB0001ED0A5F14100192802D820354FF4006754
:100DC0003246294620462760FFF7CAF940B101287C
:100DD00001D1361DDEE7F61D26F007060836D9E7F5
:100DE000D4E9012128469047206A401C2062D1E7BF
:100DF000206ABDE8F08100002DE9F0418046002620
:100E000010687529414614A511D0AFF30080002861
:100E100002DA404211A508E0D8F800108A0701D58F
:100E20000FA502E0490704D50EA5012601E0AFF3A6
:100E30000080002408F1240704E000F08CF8303131
:100E40003955641C0028F8D133462A4621464046CD
:100E5000BDE8F04100F00BB8000000002D000000DC
:100E60002B000000200000007047704770472DE9FC
:100E7000F0470D4604469246994600F12408016861
:100E8000880604D5E06921F01001216000E001200E
:100E90000027A84200DD471BA1697A1902EB09006F
:100EA000081AA0612068C00602D42046AFF3008073
:100EB000002608E0D4E901211AF806009047206ACC
:100EC000401C761C20624E45F4DB2068C0060AD523
:100ED0002046AFF3008006E0D4E90121302090479E
:100EE000206A401C2062381EA7F10107F4DC07E0ED
:100EF000D4E9012118F805009047206A401C2062BF
:100F0000281EA5F10105F3DC2046AFF3008021681F
:100F10000220090600D40120BDE8F08701694A1CBF
:100F200002610878704710B50C46194690B0CDE9BB
:100F3000024200220692044A7A44CDE9042001A824
:100F4000FFF722FF10B010BDE1FFFFFF0A6802F8B3
:100F5000010B0A6070474FF00A01B0FBF1F202FB8F
:100F6000110110467047754600F028F8AE4605009E
:100F70006946534620F00700854618B020B5FFF7B4
:100F800013F9BDE820404FF000064FF000074FF086
:100F900000084FF0000B21F00701AC46ACE8C00997
:100FA000ACE8C009ACE8C009ACE8C0098D467047A0
:100FB0000446AFF300802046FFF7E6F8004870478C
:100FC0000800002003494FF01800ABBE7047000036
:100FD00009000000260002007047024692680020C7
:100FE0000A4200D00120704741617047016170479B
:100FF00000000000000000000000000000000000F1
:1010000000000000000000000000000000000000E0
:1010100000000000000000000000000000000000D0
:1010200000000000000000000000000000000000C0
:101200000000000000001F98000000000000000027
:10121000000000001C00000000001C000000000096
:10122000000004401FF0044004401FF00440000090
:101230000600092009201FF00920092000C0000035
:1012400000200C400C8001000260046008000000D7
:1012500000C001200610091008A0044000A00000F2
:101260000000000004001800000000000000000062
:10127000000000000FE01010200800000000000037
:1012800000000000200810100FE000000000000027
:101290000000048003000FC0030004800000000071
:1012A00000000100010007C0010001000000000073
:1012B00000000000000800300000000000000000F6
:1012C0000000010001000100010001000000000019
:1012D00000000000000000100000000000000000FE
:1012E0000000002000400080010002000400000017
:1012F00000000FE01090111012100FE0000000002D
:101300000000000008101FF00010000000000000A6
:10131000000008301050109011100E100000000056
:101320000000101011101310151018E0000000003C
:1013300000000380048008801FF00080000000008F
:1013400000001F1011101110111010E0000000001B
:1013500000000FE011101110111010E0000000004B
:101360000000100010F0110012001C00000000002E
:1013700000000EE01110111011100EE0000000002E
:1013800000000E001110111011100FE000000000FD
:1013900000000000000000900000000000000000BD
:1013A00000000000000800B0000000000000000085
:1013B0000000000000800140022004100000000036
:1013C00000000140014001400140014000000000D8
:1013D0000000000004100220014000800000000016
:1013E00000001800200021B022001C0000000000B6
:1013F000000003E0041005D0055003D000000000F9
:1014000000000FF011002100210011000FF000007A
:1014100000003FF021102110211021101EE00000DB
:1014200000001FE0201020102010201010200000CD
:1014300000003FF020102010201020101FE00000BE
:1014400000003FF022102210221020102010000077
:1014500000003FF0220022002200200020000000B7
:1014600000001FE0201022102210221013E00000C4
:1014700000003FF002000200020002003FF0000006
:101480000000000020103FF02010000000000000CD
:1014900000000020001020103FE0200000000000AD
:1014A00000003FF0030004800840102020100000DE
:1014B00000003FF0001000100010001000100000AD
:1014C0007FE0180006000180060018007FE00000A1
:1014D00000003FF018000600018000603FF00000AF
:1014E00000001FE020102010201020101FE000003E
:1014F00000001FF021002100210021001E0000003B
:1015000000001FE020102010203820181FE80000E5
:1015100000003FF021002180214021201E1000000A
:1015200000001C20221022102210221011E00000C6
:101530000000200020003FF02000200000000000FC
:1015400000003FE000100010001000103FE000001D
:1015500000003E000380007003803C00000000009B
:101560003C00038000700380007003803C0000009A
:10157000000030600880070007000880306000002D
:1015800000003C00030000F003003C0000000000ED
:10159000000020702090211022102410381000002C
:1015A000000000003FF020102010000000000000AC
:1015B000000008000400020001000080004000005C
:1015C000000000000000201020103FF0000000008C
:1015D00000000200040008000400020000000000F7
:1015E00000080008000800080008000800080008BB
:1015F00000000000000018000400000000000000CF
:10160000000004E005100510051003E000100000C4
:1016100000003FF0012002100210021001E0000063
:10162000000003E004100410041004100220000065
:10163000000003E004100410041002203FF000003A
:10164000000003E0049004900490049003A00000C4
:101650000000000002001FF0220022002000000015
:10166000000003C0042404240424042403F800001C
:1016700000003FF0010002000200020001F0000043
:10168000000000000000000017F000000000000053
:101690000000000800040004000417F80000000027
:1016A00000003FF0004000800140022004100000D4
:1016B0000000000000003FF00000000000000000FB
:1016C00007F00400040003F00400040003F000002D
:1016D000000007F0040004000400040003F0000010
:1016E000000003E0041004100410041003E00000E4
:1016F000000007FC021004100410041003E00000B6
:10170000000003E0041004100410022007FC000095
:10171000000007F0020004000400040002000000C2
:101720000000000003200490049004900260000078
:10173000000004001FE0041004100010002000004E
:10174000000007E0001000100010001007F000007B
:10175000000007C0002000100010002007C000009B
:1017600007E00010002000400020001007E000000B
:10177000000006300140008000800140063000007B
:10178000000007C0002400240024002407F8000003
:10179000000004300450049004900510061000006E
:1017A0000000010002801C70200800000000000002
:1017B0000000000000007FF80000000000000000B2
:1017C0000000000020081C700280010000000000E2
:1017D0000080010002000100008001000200000002
:1017E00000000000000000000000000000000000F9
:1017F00008200620407E318000017FE2400C4FF03F
:1018000040087FE400001FE20001FFFE000000002E
:10181000B2E20008200620407E31800002007E7F78
:10182000424942497E4942497E49427F42007E0008
:10183000020000CEC200082030212021212228E20F
:101840002624A02860302FE02030202820242022C9
:10185000282130200000CAB50040105F1841124115
:10186000217F2201FC020204220A1A3282C2723251
:10187000060A1A04E202020000D1E90010401080BA
:10188000910057FF188011610002200420183FE0EA
:101890002002200120023FFC00000000B3F50008F8
:1018A0000208440FA8F81008680F8400000200071F
:1018B0007F1A42E24202420A42067F03000000CA47
:1018C000BC000080010006001FFFE0000020004077
:1018D0000080FFFC02020402080210022002001E27
:1018E0000000BBAF000002000C3FF12401242124C2
:1018F000323FAAA4A464A424A43FAA24322401242D
:101900000120010000B6C8002819000800000020CE
:101910000800000028010008301900080800002015
:101920006002000044010008000000000000000008
:04000005080000ED02
:00000001FF
