:020000042000DA
:1000000000800120F1000020990500209B050020C0
:100010009D0500209D0500209D050020000000009A
:100020000000000000000000000000009D0500200E
:100030009D050020000000009D050020810100209A
:100040009D0500209D0500209D0500209D050020A8
:100050009D050020050200209D0500209D05002033
:100060009D0500209D0500209D0500209D05002088
:100070009D0500209D0500209D0500209D05002078
:100080009D0500209D0500209D0500209D05002068
:100090009D0500209D0500209D0500209D05002058
:1000A0009D0500209D0500209D0500209D05002048
:1000B0009D0500209D0500209D0500209D05002038
:1000C0009D0500209D0500209D0500209D05002028
:1000D0009D0500209D0500209D0500209D05002018
:1000E0009D0500209D050020B90100209D050020F0
:1000F000124885461248134908600D4A0D4B03E02B
:1001000052F8041B43F8041B0B498B42F8D30E48EA
:100110000E494FF000028842B8BF40F8042BFADBCA
:100120004FF000004FF00001094A9047FEE700BF82
:10013000143400200000012006000120008001206E
:100140000000002008ED00E008000120BC080120AC
:10015000690200207FB58178027843780091C178E8
:1001600002A80191044900F041FB044802A900F0F3
:1001700091FB07B000BD00BF802E00208C2E002018
:10018000084B1A6801321A60074B03F0704223F0E3
:100190007F4342F0007223F4700342EA43130122CA
:1001A0001A607047080001200C000120014B1868FC
:1001B000704700BF0800012010B500210F4802F071
:1001C00048F8044621460D4802F049F814F0010FA2
:1001D00013D00B4A094802F0704343F0007322F039
:1001E0007F4222F4700243F0040343EA42130121E8
:1001F0001960BDE8104002F027B810BD008004402F
:100200000C000120012108B50A4802F0C5FB014697
:10021000084802F0C6FB06E0064802F0A2FBC1B2A5
:10022000044802F0A6FB034802F093FB0028F3D138
:1002300008BD00BF00C00040828C084B1A80C28CF1
:100240005A80028D064B1A80428D5A80028E054BD1
:100250001A80428E24305A80FFF77CBFBC070120F1
:1002600060000120680001202DE9F04FAE4885B004
:1002700002F07EF9AD4802F067F9AD4802F064F98A
:100280000321AC4802F09DF802F01EFA4FF4E1326F
:1002900060230146A84802F035FB152002F0DAF889
:1002A0005021A54802F074FB002000F0D7FAA348C3
:1002B00000F0F0FA02F008FA0146A14800F0EAFA6C
:1002C000A04800F0E7FAA04802F03EF99E4802F08C
:1002D0001BF99E4802F038F90C219D4802F07FF886
:1002E0009C4802F08BF802F0EFF96423B0FBF3F0C6
:1002F00002F0E8FA02F0D6FA02F0DCFA7F21964822
:1003000001F0A2FF0021944801F0A3FF01469248AA
:1003100001F0A5FF02F0D8F901468F4801F032FF45
:100320008D48162101F038FF8C4800F0B3FA012106
:10033000894801F096FF10F0040FF8D0884800F0CB
:10034000A9FA854801F05DFF3A2002F083F8012107
:10035000814801F075FF02F077F800F0D7FB814B80
:1003600000221A805A8003A8ADF80C20ADF80E20A8
:10037000FFF7F0FE0023ADF80C30ADF80E307A4BED
:1003800000221A805A8001A902A8784C01F07CFF53
:100390004FF01133029301931123214623706370B0
:1003A000A370E370237163716B4801F00FFF704B12
:1003B000227870481A7062785A70A2789A70E2783F
:1003C000DA7022791A7162795A7100F063FA204664
:1003D000062101F053FD01F04BFE674800F05AFA88
:1003E00001F0E9FB654B002403F0704223F07F46E7
:1003F00042F0007726F4700642F00072760142F077
:1004000004023743254642EA06069A46DAF80030E7
:10041000002BFBD03B68012B03D1013B3B600A352D
:100420000A344D48564940F2426201F0FBFE002872
:1004300034DD3168DFF84C910129A9F8000004D1BE
:1004400000233360444801F0FBFEDFF834B1BBF811
:100450000C30082B13D1012000F01EFCB9F800303D
:10046000DFF82081D3B101F0EFFA3B485946B8F8E4
:10047000002001F0DFFE0023A8F800300EE0B3F505
:10048000C16F0BD101F07CFAB9F8002032B13248CB
:10049000594601F0CFFE3B4B00221A80B5F5FA7F9A
:1004A00039DD0025384B6A01D218384BDFF8D4907B
:1004B0001A60022000F0F0FBB9F80030C84653B1D2
:1004C00001F0C2FA24482E49B9F8002001F0B2FE2A
:1004D0000023A9F800300135022DE3D1023D2C4B59
:1004E000AA01D2182B4B05201A6000F0D5FBB8F8F2
:1004F0000030DFF8909053B101F0A6FAB9F800206F
:1005000015481F4901F096FE0022A9F80020013588
:10051000042DE4D1043D42F210739C427FF776AF84
:1005200001F006FA002471E74005C0010100001047
:10053000010000200040004000C00040902E00203C
:100540009D2E0020B52E00200050102020000020FD
:1005500000500240010C050000800440C92E00201C
:10056000E52E0020BC0701206000012010000120C2
:10057000FC070120F82E00200E2F00200C00012087
:100580007201012064000120200001201C000120D4
:100590007000012004080120FEE7FEE7FEE70000EE
:1005A0002DE9F84F0446154698460E4601B14E1EF9
:1005B00000270DE109F101099A4613F8012B252ABC
:1005C00001D0002AF6D1B14507D920463246294646
:1005D000A41902F017FC002607E0204629464A46E7
:1005E00002F010FC4C44C9EB06069AF800304F4468
:1005F000252B40F0EC80324651464FF0200C4FF056
:10060000000911F8013F4D1C642B2ED00DD8392B59
:1006100005D8302B14D2252B40F0C680BDE0582BD6
:1006200069D0632B40F0C08014E0732B26D001D832
:10063000702B02E0752B59D0782B40F0B5805AE032
:1006400003D1B9F1000F08BF9C46303B0A2000FBE4
:100650000939D6E708F10403D8F8001016B104F8F8
:10066000011B721E013798469CE0D8F8000008F183
:10067000040B002846DA4042012244E008F1040A53
:10068000D8F800104FF0000801E008F1010811F857
:100690000830002BF9D1C14584BF4F44C8EB070790
:1006A000B04506D920463246A41902F0ABFB00261D
:1006B00019E02046424602F0A5FBC1454444C8EB80
:1006C000060610D9C8EB0909B14528BFB146C9F1E2
:1006D00000064B46224603E0202102F8011B013BA5
:1006E000002BF9D14C444744D04671E008F1040B8B
:1006F000D8F8000006E008F1040BD8F8000000224A
:10070000102301E000220A23012102E009F1FF3950
:10071000414603FB01F8804503D8B8FBF3FA8A454C
:10072000F4D06AB109F1FF394EB1BCF1300F06D1F6
:100730002D2204F8012B013E01372D3A00E0012261
:10074000A9F1020A4FF6FD78C2450AD809F1FF392E
:1007500016B104F801CB013EB9F10109F8D1013716
:100760005744B2B1AEB12D2204F8012B013E01373E
:100770000FE05EB1B0FBF1F2B2FBF3FC03FB1C2C0B
:10078000184A013E1CF8022004F8012B0137B1FB86
:10079000F3F10029EDD1D8461AE016B104F8013B77
:1007A000721E0137164613E0042E07D920460E4963
:1007B000052202F0FDF80534053E06E020463246EB
:1007C000094902F01FFBA4190026053700E0554631
:1007D0002B781BB12B464FF00009EDE6237038460D
:1007E000BDE8F88F272F0020382F00200EB403B566
:1007F00003AB53F8042B4FF6FF710193FFF7D0FEC4
:10080000BDE80C4003B07047114B2DE9F04153F89F
:100810002070054638460E4601F054FEA8B10D4B37
:100820000D4C53F825303846236001F08DFE2568C5
:1008300001F04AFF324601466023284602F062F882
:100840002068BDE8F04102F043B8BDE8F08100BF88
:10085000402F0020582F0020180001204FF4E131D4
:10086000FFF7D2BFF8B506460D4600240CE0335D15
:10087000074F0A2B03D138680D2102F083F8315D50
:10088000386802F07FF80134AC42F0D32846F8BD56
:10089000180001200FB4F0B587B00CAB53F8045B1F
:1008A0000493C2E001311C4613F8012B252A01D024
:1008B000002AF7D12846FFF7D5FF2378252B40F0F3
:1008C000B380621C20260024154615F8013B104613
:1008D000642B2A462AD00DD8392B05D8302B14D2B8
:1008E000252B40F09C8098E0582B49D0632B40F09A
:1008F000968013E0732B24D001D8702B02E0752B67
:1009000038D0782B40F08B803AE002D1002C08BF21
:100910001E46303B0A2101FB0434D5E7049B06A8A0
:100920001A1D1B68049240F8043D76E0049B1A1DD2
:100930001B680492002B05932ADA5B42059301227F
:1009400027E0049B00261A1D0492186800E0013677
:10095000835D002BFBD13146FFF784FFB44264D99D
:10096000A41B04E036480121FFF77CFF013C002C6A
:10097000F8D15AE0049B1A1D1B680492059307E006
:10098000049B1A1D1B68049205930022102301E0AA
:1009900000220A23059F012001E0013C084603FBD9
:1009A00000F1B94203D8B1FBF3FE8645F5D042B160
:1009B000013C302E07D12D228DF8002001212D3A47
:1009C00003E0114601E001220021A71E0D2F0AD8E5
:1009D00004F1FF3E0F460DF807600137BEF1010E2E
:1009E000F9D1091901392AB106AC62182D2402F88F
:1009F000184C0131059C0CE0B4FBF0F2B2FBF3F6AD
:100A000003FB16220F4EB0FBF3F0925D0DF80120B0
:100A100001310028F0D1684603E0012101E00A48D5
:100A20000521FFF71FFF00E025462B7813B12B4669
:100A3000002138E707B0BDE8F04004B0704700BFC0
:100A4000532F0020272F0020382F0020013A10B507
:100A50008A180BE00B784C781B021B199BB2C0184C
:100A600080B2984201D2013080B202319142F1D37A
:100A700007D10B781B02181880B2984201D20130BE
:100A800080B210BD30B5C278144B8A18DA70857800
:100A90000A0A5519EDB29D70447895425C70007851
:100AA0001A46187005D2631CDBB253700BB90130C3
:100AB0001070D27801F0FF018A42084B0CDA9A7864
:100AC0000132D2B29A703AB95A780132D2B25A701F
:100AD00012B91A7801321A7030BD00BFC107012067
:100AE00010B5084C014620680830FFF7CBFF064AD6
:100AF0002368117819725178597291789972D27865
:100B0000DA7210BD1C000120C1070120002305E09E
:100B1000124A002122F813100133DBB2032BF7D95C
:100B2000002306E00E4A59018A1801330021517052
:100B3000DBB2012BF6D90B4B4FF480621A800023F5
:100B400006E009499A018A18013300219180DBB23D
:100B5000032BF6D9054A1370704700BF0A0801201D
:100B600038000120C607012070000120080801207C
:100B700010B50023074A09E0074931F813401CB9B2
:100B8000137021F8130010BD0133DBB2032BF3D92E
:100B9000137010BD080801200A080120030A43EA67
:100BA000002080B2704700002DE9F041204F04463C
:100BB0003D8888460135ADB2B5F5FA4F28BF4FF4F0
:100BC000805500260AE02846FFF7E8FF194AB301DE
:100BD000D3189B888342EDD00136F6B2042EF2D1B1
:100BE0003D800023144A10E01249980108188588B6
:100BF0004DB913703A88A0F80680150A45EA02221A
:100C0000828054B907E00133DBB2032BECD91370B7
:100C10000020BDE8F081046003E02288028064883F
:100C200044809B01C91840230B72BDE8F08100BFCE
:100C3000C6070120700001200808012010B500201F
:100C400005491422FFF702FF18B1BDE81040FFF775
:100C5000A5BF4FF6FF7010BD8001012070B50D4C8F
:100C60000822E578A378143D1B02ED18ADB2A81D4B
:100C700004F10C0180B2FFF7E9FE04F114012A46E9
:100C8000FFF7E4FE18B1BDE87040FFF787BF4FF6ED
:100C9000FF7070BD800101202DE9F04F954D0428B3
:100CA00087B02C68DFF8788200F08B81924B9349F3
:100CB000934A03F1360603280E6016608B461E46E3
:100CC0000ED1637E03F00F03032B40F09C85238A33
:100CD000002B40F098858B4B08221A7000F07EBCE8
:100CE000022874D1884BDA780132D2B2DA7062B954
:100CF0009A780132D2B29A703AB95A780132D2B2A5
:100D00005A7012B91A7801321A70804B002018807C
:100D1000637EA8F80000072B01D0052B0AD1A37E23
:100D20000133DBB2782BA37640F06D85783B637698
:100D300000F069BD002B00F06685228A7149002A07
:100D40003CD0A27E501EA076002A40F05C85E27E58
:100D5000082A05D0581EC0B2012809D8052A07D193
:100D60000023637680330B7000F02AFF00F041BC53
:100D7000042A03D803209040C0B200E030200132A2
:100D8000E276634AA076D08C03F00F030130013B7A
:100D9000D084072B00F23785DFE813F083020800C8
:100DA0000A00E2033505E2033505E203002379E298
:100DB00004230B7000F004FF00F03ABC03F00F03B3
:100DC000032B40F0208505330B7000F007BC05288D
:100DD00012D1504800688088002800F014852A331A
:100DE00013600B60494B00201880464B0822286096
:100DF000A8F800001A70E2E0454A03F10E05518898
:100E00009B7B0131452B518017462B4607D0138819
:100E100001331380D3880133D38000F0F4BCAA7867
:100E2000E97812025218B8F800108A4200F3EB84F5
:100E3000A97992B211F03F0FA8F8002001D1E97909
:100E400039B13B8801333B80BB890133BB8100F062
:100E5000DABC31490C888A460CB9498869B1F18BF2
:100E6000A14205D12449088CBAF80210884204D066
:100E70003B8801333B8000F0C6BC04920393FFF72C
:100E8000DDFE4FF6FF7188428146049A039B07D02E
:100E90003B8801333B80FB890133FB8100F0B3BC0D
:100EA000697A062900F0BE8011294DD0012907D0AA
:100EB0003B8801333B803B8A01333B8200F0A3BC7B
:100EC000BA8A1B7D0132082BBA821149134A07D016
:100ED0004B8A01334B820B8B01330B8300F093BCA5
:100EE00000231375D38A4FF6F6718B421AD9093352
:100EF00019E000BF1C00012072010120B40701208D
:100F000014080120C0070120B80701206C0001204F
:100F1000C807012004080120BC070120800101202E
:100F2000640001200833D382738BB6F81CC0F383AE
:100F3000A6F820C07483BAF802A0A6F81CA0FB8A09
:100F40000133FB8200F056BC1C3AA8F800209449FB
:100F5000944A9088F8B1DC8A84421CD1D08830B1A0
:100F6000914CA48A844202D0B0F58A4F13D11088E4
:100F700010B954883CB914E04FF6FF74A04202D176
:100F8000548884420DD0748B844204D18748848B6A
:100F90005088844205D0864840328242D9D300F03E
:100FA00031BC0A60834A02211170834A8349844814
:100FB000CBF800200A60834A00230360138000F00E
:100FC00079FF804B1B88002B00F01D84774903F1CB
:100FD0001C0080B24874A8F80000040A70480C7421
:100FE00000680833047A9BB28C751124CC751C0AF6
:100FF00044EA0323CB8400230B85C388B0F804C0E4
:101000008B84714BA1F822C0B3F800C0A1F81AC0BC
:101010005B888B8302886D4BCA8340880884363195
:101020001960CDE3BB8B6A4C0133BB830492FFF79D
:1010300015FE4845049A06D0638B01336383238CE5
:1010400001332384DFE3634C00232146607E059057
:10105000C0B1C818B5F81690B0F804C0E14511D178
:10106000B5F814C0C08884450CD15A48B6F81AC0E7
:10107000C05A844506D14D48B0F81CC060888445EC
:1010800000F02D8120332034402BDFD195F8213022
:1010900003F03F03022B15D14F48EA8A023B02803E
:1010A0008346DFF83C9106E04C4830F8130090424C
:1010B0004DD00133DBB2032BF6D989F800307B8D9C
:1010C00001337B8595F8213013F0040F40F09B83AA
:1010D000BB8CE87E0133BB84142385F821303C337C
:1010E00085F82030EB7F2821EB76AB7FA8F8001045
:1010F000A97EAB766B7F6A7E394C6B762B7E013096
:1011000023702C7FC0B2A9776A772C762B77E8778B
:1011100048B90131C9B2A97729B90132D2B26A7787
:101120000AB901332B77AB8A2B4A1380EA8AEB8208
:10113000AA82738BB6F81CC0F383A6F820C0BAF855
:1011400000007083BAF802A0A6F81CA026E30023D2
:1011500089F800301C4619E05801081800F1180AF7
:101160009AF801C0BCF1000F03D189F800300446A1
:1011700010E0BCF1070F07D124B19AF802C0A07E9D
:10118000844501D95C010C190133DBB2012BE3D991
:1011900089F8003034BB3B8D01333B8533E300BF1E
:1011A000040801207000012080010120720101204B
:1011B00070010120C00701209C01012014080120BA
:1011C0001C0001206C000120BC070120B407012095
:1011D000C807012020000120700101200A08012019
:1011E000080801200323A376237600270423E37550
:1011F000A775E776A88A9D49E080A2800C60718B74
:1012000001202180B28B9A4B607662801A7820820E
:1012100022735A7862739A78A273DB78E373EB7E59
:10122000E372AB7EA3726B7E63722B7E2372FFF739
:1012300057FC95F8203003F0F002502A31DD1809F0
:101240008C4A05388000137826E0F11991F8363081
:1012500023B3012B01D101371DE0022B16D191F8E8
:101260003750042D12D1137091F8382091F839308D
:1012700089F8007043EA022340F20A62ABF80030BA
:10128000934228BF13466382A3820AE0F11991F8C2
:10129000371019B1CF19FFB28742D6DB89F8007039
:1012A0001370102386F82F30734B4FF02C0C93F8EB
:1012B0002120A8F800C042F0020283F82120022277
:1012C00083F82820921883F82920023283F82A20F4
:1012D000043283F82B20563283F820202BE2634817
:1012E000664B04600020187095F82110994611F0A3
:1012F000040F02D060762022BFE195F82000604BF9
:1013000000098000143A121A1870059892B200F081
:101310000F0CBCF1020FA8F8002003D101F03F0030
:1013200012280DD012B911F0030F09D0288B228991
:10133000904240F0F781688B6289904240F0F281E0
:1013400011F0100F44D0218A002941D004F10C0083
:101350000393FFF797FB4B4A297F92F800C0039B4A
:101360008C45CDF804C033D195F81DC05178614546
:101370002ED1A87F92F802C0844529D1E87FD27887
:10138000824225D10198E273E27E2073617384F872
:101390000EC0B2B9207EA17EA27D411AA1EBD2017E
:1013A000C9B2E07D8A1849B2A0EB90000029B8BF0D
:1013B00049424018D2B2C0B2E07500EBD200A2752B
:1013C0002076012289F80020227E0021A276218247
:1013D000627E02F00F010139072900F21482DFE872
:1013E00011F0080020009800500171018C01A1014A
:1013F000420199F80020214B12F0010F00F0038206
:101400000322627600202082B8F800003D321A7074
:1014100018B102321A70FFF763FB1B4B00211980D1
:10142000DCE099F8002012F0010F68D095F8212037
:1014300002F03F02122A62D195F8202002F0F0015A
:10144000502946DD4FEA121E0A48AEF1050E4FEA5A
:101450008E0E0178002238E0B71897F83610002970
:1014600035D0012912D101322EE000BF1C0001202D
:10147000B80701201808012080010120C0070120C1
:1014800008080120C10701206C000120022916D1A3
:1014900097F837C0BCF1040F11D11A7097F83820B3
:1014A00097F83930017043EA0223994A138040F2D9
:1014B0000A62934228BF13466382A38209E0B718E9
:1014C00097F837701FB1BA18D2B27245C4DB1A70E0
:1014D0000170032363762B7E012023726B7E63727F
:1014E000AB7EA372EB7EE372FFF7FAFA422300228F
:1014F00089F800302282A8F80020864B6DE0202376
:1015000089F8003000F05CFB8348002203685A76BB
:10151000D8E595F8213013F0010F25D012F0100F07
:1015200022D1238A002B40F06E81B8F800000130F0
:1015300080B2FFF7D5FA99F80030B8F8002043F0F0
:10154000100389F800301AB1744A43F00203137093
:1015500000F036FB082301216376083B2182E37605
:10156000112386F82F30E0E013F0200F0FD095F80C
:10157000261095F8273043EA0123DBF80010C9183C
:10158000CBF80010B8F80010CB1AA8F80030B8F863
:10159000000050B112F0100F07D199F8003043F05D
:1015A000020389F80030FFF79BFA95F8223095F88E
:1015B00023201B029B18A18A9BB2554A8B421380A1
:1015C00000D803B9118099F80030128813F0030F86
:1015D000628200F018814F4B00221A8000F0F0FA6E
:1015E0004E4B1A784B4B12F0200104D000221A8087
:1015F00062761423B5E712F0100007D0198001239A
:10160000238204236376E1760D33AAE7198869B152
:1016100012F0010F18BF2082228A32B9628A9142E9
:1016200088BF1A801B88238200E01A800023E3769B
:101630003B480368CBF80030364B1B8833B1238A14
:1016400023B12833A8F80030182309E0334B1B7866
:1016500013F0020F00F0D7802821A8F80010102303
:1016600086F82F3064E099F8003013F0010F00F095
:10167000CA8000236376294B10221A7000F0A0FA6A
:10168000C1E0B8F8000008B1FFF72AFA95F8213058
:1016900013F001030DD099F8003013F0010F05D0BD
:1016A00007236376073BA376238219E0062363763C
:1016B00016E099F8002012F0010F1AD00522627688
:1016C0002382A0E0B8F8000008B1FFF709FA95F806
:1016D000213013F0010F0CD007236376073BA3766C
:1016E0000120FFF7FDF9102389F8003000F068FAB7
:1016F00018E0B8F80030ABB985E099F8003013F085
:10170000010F00F0808007236376073BA3767AE021
:10171000700101206C0001201C000120C007012085
:1017200014080120102385F821302822A8F8002071
:10173000502386F82E30227A374B38491A77627A4E
:101740005A77A27A9A77E27ADA77227B1A76627BE4
:101750005A76A27B9A76E27BDA7606225A72B4F83F
:1017600004C0E088A3F814C0B1F800C0D882A6F87D
:101770001AC04988B1832088F08361883184617EF2
:1017800011F0100F05D0063A83F8232083F82220A9
:1017900004E083F822200A2283F823201E4C4023F1
:1017A0002372B8F800301A0AE3700023A27084F89C
:1017B000273084F82630A384FFF750FAC043A08472
:1017C000174B452203F10E049A73164900236370E8
:1017D000E371A3710A886381013292B20A80110A0F
:1017E00062712171FFF72AFA0F4BC043DA8B6081D7
:1017F0000132DA830C4B9A8801329A800B4B00221B
:101800001A7005E00A60094A0023A8F80030137036
:1018100007B0BDE8F08F00BF80010120BC070120A8
:101820007201012066000120C8070120C0070120C5
:101830000A1E034609DD054992B20A800449086878
:10184000834202D0194601F0B3B870476C00012002
:1018500014080120F8B5314F002203460E463A70B5
:101860001DE00C2151432E4C605A651890B16988D7
:1018700081B1B3F800E086450CD15888884209D17F
:101880003A70281D3146062201F092F8254B1B784C
:10189000AB72F8BD0C2101FB02440132D2B2072A1F
:1018A000DFD9002209E00C2151431D484418415A58
:1018B00009B9618819B10132D2B2072AF3D9082ACD
:1018C0003A70184D1DD1083A95F800E010461146BF
:1018D0000CE04FF00C0C0CFB0144A47AC4EB0E049A
:1018E0009442C4BFE2B208460131C9B207290C4C88
:1018F000EFD90D4938700A700C4A10700C2202FBA7
:10190000004419460422204601F052F8201D3146B9
:10191000062201F04DF82B78A372F8BD19080120BA
:101920001C0801207D0801201A0801207C080120E4
:1019300070B5104A00211378013313700E4B13E079
:101940000C2048430D4C21184E88255A46EA0505BF
:10195000ADB23DB116788D7A751B772D02DD00256D
:1019600025524D8019780131197019780729E7D966
:1019700070BD00BF7D080120190801201C0801204E
:1019800070B52D4D2B88292B01D8002340E02B4C1E
:1019900000232B80A38AB3F5807F03D0B3F5007FAB
:1019A00049D137E0264EE28C33889A4243D1228DCA
:1019B00073889A423FD104F11C0004F11601FFF72D
:1019C00049FF4FF4007304F11601062204F12000D0
:1019D000A38200F0EDFF1B49062204F1160000F07F
:1019E000E7FF18490622A01D00F0E2FF204604F19F
:1019F0002001062200F0DCFFA38BE384E38B238528
:101A000033887688A3834FF4C163A381E6832A23B6
:101A10002B8070BD0A4BE18C1A8891420BD1228D2C
:101A20005B889A4207D104F11C0004F11601BDE85D
:101A30007040FFF70FBF70BD6400012072010120EC
:101A4000BC070120FC0701202DE9F843414F4FF668
:101A5000FF72FB8B3C46934205D13A8C9A4202D1ED
:101A600038463D4966E03D4A3D481688058883EA88
:101A700006062E4291463B4E07D13A8CB9F80250E9
:101A8000408882EA0505054205D0374B1A885B88F5
:101A90003280738001E033807280B6F800C0B6F8FF
:101AA00002E00025314B0BE00C226A4330488118DC
:101AB000825A624502D14A88724503D00135EDB29F
:101AC000072DF1D9082D1D7032D14FF00608FF21E6
:101AD0000622204801F000F900214246254801F085
:101AE000FBF825494246254800F062FF424624485B
:101AF000214900F05DFF3388FB8476884FF48073C2
:101B00003E85B9F80020BA83B9F802904FF4C1625B
:101B1000A7F81E90A382E3810423E374A281194BEA
:101B2000194A25821A6084F81280184B2A220EE086
:101B300008480431062200F03BFF06220F480E49F8
:101B400000F036FF0823A381104B1A880E321A804A
:101B5000BDE8F88372010120642F0020BC0701203A
:101B6000600001207E080120680001201908012082
:101B70001C08012092010120FC07012078010120AE
:101B800088010120B4070120A80101206400012080
:101B900010B541600446FEF709FB206010BD10B58A
:101BA0000446FEF703FB23686268C01A904234BF04
:101BB0000020012010BD4FF4A040FEF7D9BF000067
:101BC000474B10B51B689A88B2F5A04F454A40F0C4
:101BD0008480454C03F11C012160117811F0400F05
:101BE00003D000221A77DA8310BD11F0080F05D058
:101BF000D98B481C0929D88371D913E011F0020F41
:101C000025D0187F002822D1384B1B681978472926
:101C100008D15978452905D19978542902D1D97824
:101C2000202901D0202356E01A792F2A06D15B798A
:101C3000202B03D12E4840F2922118E02D484FF47A
:101C40008A71FFF7F5FD236803225A8010BD11F059
:101C5000010F44D0D98B013189B20129D98302D136
:101C60002548043103E0022905D124482831BDE884
:101C70001040FFF7DDBD03292CD11F4B197901312D
:101C8000C9B23A29197104D10A391971D9780131C7
:101C9000D970D87818493A2804D10A38C870887899
:101CA00001308870987814493A2804D10A3888702D
:101CB00048780130487058780F493A2804D10A38DA
:101CC00048700878013008701B783A2B02D10A4B13
:101CD000302119701023137010BD2023137010BD14
:101CE0001C000120C007012084080120B407012046
:101CF0007F3000206A2F00200000012012330020D6
:101D00000346352203F8012B343A42705970981C6F
:101D10007047FF2300F8013B704700002DE9F843AE
:101D2000214E012303704370B36900250427044644
:101D30008370C5703A464FF08008C0191B4900F007
:101D400037FE3A462581A4F80A8004F10C001849B0
:101D500000F02EFE04F11C0900236382E3826383FA
:101D60007169B2692582A5822583484600F020FE6C
:101D7000B269294609EB0200C2F1100200F0ACFF83
:101D80002946402204F12C0000F0A6FF29464246D5
:101D900004F16C0000F0A0FF04F1EC0005493A46A4
:101DA00000F006FEBDE8F883880801203D330020DE
:101DB000BC07012041330020F8B5274B1C6823786D
:101DC000022B45D1201D2549042200F059FF05466C
:101DD00000283DD1224E04F11C007169B26900F067
:101DE0004FFF0746002834D106F1240004F110010A
:101DF000042200F0DDFD1B4BF0341E883D46A61981
:101E000023E02378332B18D006D8032B0DD0062BD4
:101E10000DD0012B16D106E0362B0CD0FF2B18D09D
:101E2000352B0FD105E0104808E0104806E01048B7
:101E300004E0A57806E00F4800E00F48A11C04224A
:101E400000F0B6FD63780233E418B442D9D300E061
:101E500000252846F8BD00BFB40701203D3300200F
:101E60008808012064000120B0080120B808012082
:101E7000B4080120A4080120A808012013B50C4CC7
:101E800000236061A161A37001A84FF0FF334FF4FC
:101E90008641ADF80430ADF80630FEF785FE60608F
:101EA00010B14FF488438380002323801CBD00BF02
:101EB000880801202DE9F041674C2388B3F5827F23
:101EC00042D006D89BB140F20312934240F0BF804B
:101ED00037E0B3F58B7F00F08F80B3F59F7F00F084
:101EE000B18040F21512934240F0B18081E00123AD
:101EF0006422A3702282594D2E683046FFF70EFFF0
:101F0000012106F1F000FFF7FBFE3722034603F83C
:101F1000012B032141705A1C012058709970101830
:101F2000062343700230FFF7F4FE2B68C11A1846EF
:101F3000FFF77EFC4A48218AFFF72AFE40F203138E
:101F400082E04FF482722280464D2B7813F0020F0C
:101F500004D14348FFF723FE00287AD02B7813F0F2
:101F6000020F05D0FFF728FF022801D1A0700AE078
:101F7000238A41F26F72934202D8374A5B00138280
:101F8000A378022BB7D164232382DFF8D080042703
:101F9000D8F800502846FFF7C1FE05F1F0000321F4
:101FA000FFF7AEFE3623054605F8013B06462E49EF
:101FB0003A467770681C00F0FBFC32233A466B719E
:101FC0002A49AF7106F1080000F0F2FC06F10C009E
:101FD000FFF79FFED8F80030C11A1846FFF728FC1B
:101FE0001F48218AFFF7D4FD40F215122280BDE878
:101FF000F0814FF48B7323801A4D2B7813F0020F6E
:1020000003D11748FFF7CBFD18B32B7813F0020F5D
:1020100006D0FFF7D1FE052802D10323A3700EE0FE
:10202000228A0D4BB2F57A7F05D864321A829B78EA
:10203000032BAAD103E000221A80BDE8F0810648F4
:10204000FEF7FAF84FF49F732380BDE8F081002279
:102050002280BDE8F08100BF88080120B40701207C
:1020600090080120C0070120A4080120AC0801202D
:10207000034B9B7813B9034A13805380704700BF0A
:1020800088080120BC070120F0B5034600F11006C6
:102090000069040C87B2000E4870B81F0C709042A3
:1020A000B4BF05461546022404E0D6F800C041F846
:1020B00004C00434A5F1030CA445F6DCAC421EDADE
:1020C00064451B69A5F1020C08D10B551C0A01F8E7
:1020D0000C401B0C6C1E0B556C1C10E0644505F18C
:1020E000FF3C05D10B551B0A01F80C30AC1C06E077
:1020F000644504D10B55EC1C01E033680434BB1E6D
:102100009C42FADB9042C8BF4042F0BD034640F219
:10211000FE70824230B501DD524230E00C78A2F10F
:102120000E0040EA04404C7803F1100540EA0460D8
:102130001861022402E0085904342860D01EA0422D
:10214000F9DC944219D08442A2F1020008D10C5D5E
:102150000D5C0918497844EA052444EA01410BE082
:10216000844205D1085D0919497840EA012103E05C
:10217000501E844201D1095D196101219963104605
:1021800030BD0000034BB1FBF3F303F0FF034362E8
:10219000704700BF404B4C00C36801F0FF0223F0C2
:1021A00016031343C36082680B0A22F00E0203F089
:1021B000FF0342EA03038360C36B090C23F00103AE
:1021C00001F0FF0143EA0101C16370470B7882B05F
:1021D0008DF804304B788DF805308B788DF806300B
:1021E000CB788DF80730019B4361002301930B7975
:1021F0008DF804304B798DF80530019B836102B076
:102200007047836843F010038360836843F00103E1
:102210008360C36843F00103C360836843F0100325
:1022200083607047436B13F03F0301D0FFF72CBF6F
:1022300018467047836B13F0010FFBD1FFF766BFA1
:1022400043680B4343607047436823EA01034360DC
:102250007047036809B1426813401846704701602F
:102260007047026A00F1200312F0010FF9D1C90092
:1022700001F0FF0141F0010119601A6812F0010F2D
:10228000FBD1006B80B270470C4B1A6812F0E04F24
:102290000ED01A680A4B02EA0303B3F1805F0AD03A
:1022A000084B1B680360084B00201B680B607047DD
:1022B0004FF0FF3070474FF0FF30704700E00F40A5
:1022C0000000FF70E0E10F40E4E10F40D0F800347F
:1022D00012F0010F14BF0B438B4310B500F580645F
:1022E000236012F0020FD0F8202400F5846314BF9D
:1022F000114322EA0101196010BD30B5D0F8004544
:1023000012F0010F14BF0C438C4300F5A0652C6044
:10231000D0F8045512F0020F00F5A06414BF0D436D
:102320008D4304342560D0F8084512F0040F14BF23
:102330000C438C4300F5A1652C6012F0080FD0F817
:10234000182500F5A36414BF0A438A432260D0F81D
:102350000C4513F0010F00F5A06214BF0C438C4331
:102360000C321460D0F8102513F0020F14BF0A438A
:102370008A4300F5A2642260D0F8144513F0040FDC
:1023800000F5A26214BF0C438C4304321460D0F8F1
:102390001C4513F0080F00F5A26202F10C0214BFF5
:1023A0000C438C43146000F5A56223B9D0F828359E
:1023B00043EA010103E0D0F8283523EA0101116066
:1023C00030BD70B5022205460C46FFF77FFF284658
:1023D000214601220823BDE87040FFF78EBF70B58B
:1023E000022205460C46FFF771FF284621460422CB
:1023F0000823BDE87040FFF780BF0000020C02F028
:10240000FF02012191400E4B52001B6810B519428A
:102410000C4B18BF013253F82230020A02F0FF02BF
:102420000F21914000F00F0010FA02F2D3F82C4572
:1024300024EA010141EA0202C3F82C2510BD00BFC5
:102440006CE00F404833002008B500F0ACFAC0B291
:1024500008BD0000042804D1164B1A6842F48032EB
:1024600013E0052804D1134B1A6842F400320CE043
:10247000062804D10F4B1A6842F4802205E00F2889
:1024800005D10D4B1A6842F002021A607047A0F1A4
:1024900010031F2B05D8012212FA03F3074A136019
:1024A00070472F2805D90123303813FA00F0044B68
:1024B0001860704724ED00E010E000E000E100E06B
:1024C00004E100E00D4B984207D10D4B186800F075
:1024D0000300003818BF012070470A4B020F53F861
:1024E000223082B200F4F810000C12FA00F01B68DF
:1024F00018420CBF00200120704700BF01001020CF
:1025000024E00F4090330020020F81B200F4F81055
:10251000000C11FA00F00B4B82B053F822301A680D
:1025200040EA02021A60002201E0019A013201929F
:10253000019A0F2AF9D91A6822EA0000186002B03D
:10254000704700BF08340020020F81B200F4F81079
:10255000000C11FA00F0034B53F822301A681043B4
:1025600018607047FC3300200138FDD1704700002F
:102570004B4B70B51A68044612F0E04F06D01A684B
:10258000484B02EA0303B3F1805F02D1002CC0F292
:1025900086804549454A0B68166843F4006323F476
:1025A000800546F4006613F0020F0D60166002D03D
:1025B00014F0020F05D015F0010F1AD014F0010F1E
:1025C00017D164F003031D40374B002E1D6005DA60
:1025D00006F07003302B05D0702B02E005F03003BD
:1025E000302B02D14FF4805001E04FF40020FFF770
:1025F000BBFF25F45E5543F2F07304EA030325F0B4
:1026000070051D432A4B2B4A06EA03032A4E40213C
:1026100004EA06061E4304F0080356EAC306234BE9
:10262000116002F108024BBF1E60156015601E604C
:102630001020FFF799FF214B25F0F86504EA03030A
:1026400025F003051D4326F0FC5604F0FC5314F05E
:10265000804F46EA030608D0194B26F4800604EAA8
:10266000030345F480051E4301E026F0804614F480
:10267000006F0CD14FF40043124A126812F0400F61
:1026800001D1013BF8D125F4006526F40066064B24
:1026900010201D601E61BDE87040FFF765BF70BD72
:1026A00000E00F400000FF7060E00F4070E00F405E
:1026B0008FDFFF7F58E00F40302000800300C0070D
:1026C0000000404050E00F40694B70B51A6810336D
:1026D0001B68002BB4BF03F0700102F03001202909
:1026E0003AD004D869B1102940F0C08010E06029C8
:1026F0005DD0702958D0302940F0B88047F2305072
:1027000063E002F4F8605B49800951F820005CE066
:102710005949086810F0E04F4CD00C68574804EA5B
:102720000000B0F1805F45D00C68544804EA000016
:10273000534CA04203D1096889B202293CD04E48CB
:102740004E49046804EA01014E4CA14236D10068AA
:102750004D4980B24D4C22E04749086810F0E04FE7
:102760002ED00C68454804EA0000B0F1805F27D005
:102770000C68424804EA0000414CA04203D10968B9
:1027800089B202291ED03C483C49046804EA010190
:102790003C4CA14218D100683D493E4C80B2002813
:1027A0000CBF2046084610E04FF400400DE04FF407
:1027B00080000AE0384808E0344806E0324804E087
:1027C000364802E0334800E03148002B02DA13F4C7
:1027D000006F01E012F4006F2AD13149264D0968DB
:1027E0002C6814F0E04F43F6E07401EA040406D0CC
:1027F0002E68224D06EA0505B5F1805F06D1640911
:10280000023401F01F056043023505E064096043AE
:1028100001F01F0501356D00B0FBF5F011F4804F9C
:1028200018BF400811F4004F18BF800842F480021E
:1028300012F4800F1BD0002B11DA13F0804F07D059
:1028400013F4006F04D103F0FE5340009B0D02E02F
:1028500003F0FC53DB0D0133B0FBF3F070BD02F06D
:10286000F062D20D0132B0FBF2F070BD002070BDFD
:1028700060E00F40A033002000E00F400000FF7038
:1028800000000110000003100024F400001BB7003A
:1028900000093D00C0C62D00C0E1E40070383900D9
:1028A00064E00F40024B1A6842F005021A6070475C
:1028B00010E000E0024B1A6842F002021A60704712
:1028C00010E000E0014B01381860704714E000E0B0
:1028D000C36A43F01003C362036B43F4407343F0D5
:1028E000010303637047836913F0080FFBD1C36AC8
:1028F00023F01003C362036B23F4407323F001033E
:10290000036370472DE9F0410D46164604461F4605
:10291000FFF7E9FFB5EB061F05D2236B760843F0FE
:102920002003236303E0236B23F020032363ED00E4
:10293000B5FBF6F60136730803F03F03F60966624D
:102940002046A3620023E762A361BDE8F041FFF7E0
:10295000BFBF806900F01000D0F1010038BF002037
:102960007047836913F0100F0CBF00684FF0FF3001
:102970007047836913F0200F02D101600120704776
:1029800000207047836913F0200FFBD1016070476E
:10299000836B0B438363704709B1006C7047C06B56
:1029A000704741647047EFF3108062B670470000D3
:1029B0002DE9114087B0042AC0F04F81C1F1000316
:1029C00013F0030311D05FEAC37CA2EB030244BF00
:1029D00011F8013B00F8013B21BF11F8014B11F840
:1029E00001CB00F8014B00F801CB80EA010C1CF090
:1029F000030F4ED18DE8E00FC0F1000313F01C036C
:102A000016D0934288BF02F01C035FEA037C24BF08
:102A1000F0C9F0C044BFB1E80003A0E8000313F020
:102A2000040F1CBF51F804AB40F804ABA2EB030247
:102A3000203A0BD321F01F0C0CF1400CB1E8F00F41
:102A4000203AA0E8F00FF9D202F1200212F01F0F95
:102A50001AD05FEA027C24BFF0C9F0C044BFB1E8DD
:102A60000003A0E800035FEA827C24BF51F8043B26
:102A700040F8043B44BF31F8024B20F8024B12F0FF
:102A8000010F1CBF0B780370BDE8E00FBDE81140DB
:102A90007047042AC0F0E1808DE8E00FC0F1000526
:102AA00005F003054FEAC50CCCF1200E51F8043BAC
:102AB000A2F10402ED0744BF00F8013B1B0A21BF4D
:102AC00000F8013B1B0A00F8013B1B0A042AC0F076
:102AD000B68010F01C0F0FD051F8045BA2F1040275
:102AE00005FA0EF443EA040425FA0CF340F8044B0B
:102AF000042AEED2C0F0A380203AC0F08C80BCF152
:102B0000180F5CD0BCF1080F2CD051F804CB6446F0
:102B1000B1E8E00F203A28BF51F804CB43EA044360
:102B20004FEA144444EA05444FEA154545EA064590
:102B30004FEA164646EA07464FEA174747EA08476C
:102B40004FEA184848EA09484FEA194949EA0A4948
:102B50004FEA1A4A4AEA0B4AA0E8F8074FEA1B4331
:102B6000D5D258E051F804CB6446B1E8E00F203AE2
:102B700028BF51F804CB43EA04634FEA142444EA23
:102B800005644FEA152545EA06654FEA162646EA2A
:102B900007664FEA172747EA08674FEA182848EA06
:102BA00009684FEA192949EA0A694FEA1A2A4AEAE2
:102BB0000B6AA0E8F8074FEA1B23D5D22BE051F8A7
:102BC00004CB6446B1E8E00F203A28BF51F804CBAB
:102BD00043EA04234FEA146444EA05244FEA1565E6
:102BE00045EA06254FEA166646EA07264FEA1767C2
:102BF00047EA08274FEA186848EA09284FEA19699E
:102C000049EA0A294FEA1A6A4AEA0B2AA0E8F807B1
:102C10004FEA1B63D5D2CEF1200C02F12002042A28
:102C20000DD351F8045BA2F1040205FA0EF443EA55
:102C3000040425FA0CF340F8044B042AF1D25FEAAD
:102C40000E7544BF00F8013B1B0A22BF00F8013B90
:102C50001B0A00F8013B9DE8E00FD20744BF11F8C2
:102C6000012B00F8012B21BF11F8013B91F800C0A6
:102C700000F8013B80F800C007B0BDE81140704784
:102C8000032A70B404460D4612D941EA000313F03A
:102C9000030F0FD10B46044651F8045B50F8046B48
:102CA000AE4204D1043A032A04460B46F2D81D462C
:102CB000104672B121782B78994209D1501E2A46CC
:102CC00038B114F8011F12F8013F01389942F7D0CA
:102CD000C81A70BC704700BF032AF0B4C9B208D844
:102CE0002AB10346121803F8011B9342FBD1F0BC32
:102CF00070478218044601E004F8011B14F0030F2A
:102D0000FAD1151B4FF00136072D06FB01F603DD46
:102D10000AE044F8046B151B032DFADC01E004F80B
:102D2000011BA242FBD8E2E714F0070F02D044F8DF
:102D3000046BF9E74FF0013303FB01F3171B254642
:102D400080347F2F40DD44F8803C44F87C3C44F8DC
:102D5000783C44F8743C44F8703C44F86C3C44F8CB
:102D6000683C44F8643C44F8603C44F85C3C44F8FB
:102D7000583C44F8543C44F8503C44F84C3C44F82B
:102D8000483C44F8443C44F8403C44F83C3C44F85B
:102D9000383C44F8343C44F8303C44F82C3C44F88B
:102DA000283C44F8243C44F8203C44F81C3C44F8BB
:102DB000183C44F8143C44F8103C44F80C3C44F8EB
:102DC000083C44F8043CB9E7571B2C4620351F2F1C
:102DD00010DD45F8203C45F81C3C45F8183C45F80A
:102DE000143C45F8103C45F80C3C45F8083C45F8C7
:102DF000043CE9E7151B072D8EDD23606360083472
:102E0000F8E700BF41EA000313F0030F70B414BFEA
:102E100000250125032A94BF002505F001050C4675
:102E200003460646CDB9B2B10D783446531E04F8B8
:102E3000015B55B1B21C73B111F8015F144602F881
:102E4000015C013B0132002DF5D123B10022013B91
:102E500004F8012BFBD170BC7047214654F8045B89
:102E6000A5F1013626EA050616F0803F05D1043AA1
:102E7000032A43F8045B2146EFD81E46D3E700BF80
:102E800025642E25642E25642E25640025730A00F2
:102E900048656C6C6F2C776F726C640A00435055F8
:102EA000204672657175656E6379206973202564AB
:102EB00020487A0A0045746865726E6574207769E7
:102EC0007468207549503A0A0057616974696E67E1
:102ED00020666F72204C696E6B2E2E2E2E2E2E2E9B
:102EE0002E2E2E0A004C696E6B2045737461626C45
:102EF00069736865642E0A005573696E67204448DB
:102F000043502E2E2E2E2E2E2E2E2E2E0A004448CC
:102F100043502046696E69736865642E2E2E2E2EEE
:102F20002E2E2E2E2E0A00303132333435363738DD
:102F300039616263646566004552524F5200000079
:102F4000010000100200001004000010082008001A
:102F50000D0A00200000000000C0004000D000402A
:102F600000E00040FFFFFFFFFFFF485454502F31A7
:102F70002E3020343034204F4B0D0A536572766565
:102F8000723A205549502F312E30202868747470C1
:102F90003A2F2F7777772E736963732E73652F7EA1
:102FA0006164616D2F7569702F290D0A436F6E740E
:102FB000656E742D747970653A20746578742F6825
:102FC000746D6C0D0A0D0A3C21444F435459504511
:102FD0002048544D4C205055424C494320222D2F1F
:102FE0002F5733432F2F4454442048544D4C203402
:102FF0002E3031205472616E736974696F6E616C2A
:103000002F2F454E687474703A2F2F7777772E776D
:10301000332E6F72672F54522F68746D6C342F6C7F
:103020006F6F73652E647464223E3C68746D6C3EF1
:103030003C686561643E3C7469746C653E506167D0
:1030400065204E6F7420466F756E64213C2F746945
:10305000746C653E3C2F686561643E3C626F6479C8
:103060003E50616765204E6F7420466F756E642117
:103070003C2F626F64793E3C2F68746D6C3E004853
:103080005454502F312E3020323030204F4B0D0A07
:103090005365727665723A205549502F312E302093
:1030A00028687474703A2F2F7777772E736963735B
:1030B0002E73652F7E6164616D2F7569702F290DE8
:1030C0000A436F6E74656E742D747970653A20745E
:1030D0006578742F68746D6C0D0A0D0A3C21444F9D
:1030E00043545950452048544D4C205055424C496A
:1030F0004320222D2F2F5733432F2F445444204851
:10310000544D4C20342E3031205472616E736974EA
:10311000696F6E616C2F2F454E687474703A2F2F53
:103120007777772E77332E6F72672F54522F68740C
:103130006D6C342F6C6F6F73652E647464223E3C2B
:1031400068746D6C3E3C686561643E3C7469746C87
:10315000653E57656C636F6D6520746F207468659C
:1031600020754950207765622073657276657221FB
:103170003C2F7469746C653E3C2F686561643E3C0D
:10318000626F64793E3C63656E7465723E3C683183
:103190003E266D6963726F3B49502057656220532C
:1031A00065727665723C2F68313E3C703E546869AA
:1031B000732077656220706167652069732073658D
:1031C00072766564206279206120736D616C6C2079
:1031D000776562207365727665722072756E6E69AE
:1031E0006E67206F6E20746F70206F662074686544
:1031F000203C6120687265663D22687474703A2FC5
:103200002F7777772E736963732E73652F7E6164D2
:10321000616D2F7569702F223E266D6963726F3B59
:10322000495020656D626564646564205443502F85
:10323000495020737461636B3C2F613E2E3C687271
:103240002077696474683D22373525223E3C703E04
:1032500054686520266D6963726F3B495020737412
:1032600061636B2069732072756E6E696E67206F83
:103270006E2061203C6120687265663D226874742E
:10328000703A2F2F7777772E74692E636F6D223EF9
:10329000546578617320496E737472756D656E74D0
:1032A000733C2F613E205374656C6C617269733C92
:1032B000736D616C6C3E3C7375703E267265673B46
:1032C0003C2F7375703E3C2F736D616C6C3E2045D6
:1032D000746865726E6574204576616C7561746999
:1032E0006F6E204B69743C68722077696474683D26
:1032F00022373525223E3C703E5468697320706148
:10330000676520686173206265656E2073656E7401
:1033100020002074696D65732073696E6365207287
:1033200065736574213C2F63656E7465723E3C2F36
:10333000626F64793E3C2F68746D6C3E00ADDE12A6
:10334000236382536300000000400040008005407A
:1033500000500040009005400060004000A0054083
:103360000070004000B005400040024000C0054031
:103370000050024000D005400060024000E00540DF
:103380000070024000F0054000D0034000000640FD
:1033900010E00F4014E00F401CE00F4010E00F4021
:1033A00040420F0000201C0080841E000080250089
:1033B000999E36000040380000093D0000803E0024
:1033C00000004B00404B4C0000204E00808D5B0005
:1033D00000C05D000080700000127A0000007D00D7
:1033E00080969800001BB7000080BB00C0E8CE00AC
:1033F000647ADA000024F4000000FA0000E10F40D3
:1034000004E10F4008E10F4040E00F4044E00F406E
:0434100048E00F4041
:06341400303030303100C1
:04000005200000F1E6
:00000001FF
