:1000000000000120F1000000610500006305000010
:1000100065050000650500006505000000000000A2
:100020000000000000000000000000006505000066
:100030006505000000000000650500003D030000AC
:100040006505000065050000650500006505000008
:1000500065050000650500006505000065050000F8
:1000600065050000650500006505000065050000E8
:1000700065050000650500006505000065050000D8
:1000800065050000650500006505000065050000C8
:1000900065050000650500006505000065050000B8
:1000A00065050000650500006505000065050000A8
:1000B0006505000065050000650500006505000098
:1000C0006505000065050000650500006505000088
:1000D0006505000065050000650500006505000078
:1000E00065050000650500007D6C000065050000E9
:1000F000124885461248134908600D4A0D4B03E02B
:1001000052F8041B43F8041B0B498B42F8D30E48EA
:100110000E494FF000028842B8BF40F8042BFADBCA
:100120004FF000004FF00001094A9047FEE700BF82
:10013000CCA60000000000200401002000000120E7
:100140000000000008ED00E004010020C450002081
:100150006504000030B50D4687B0114611482A46A7
:100160001C4600F0C5FBB0F1FF3F18D069461822CD
:1001700054F8200000F01AFC0B4800F001FB0B487B
:10018000002140220C2300F095FA6846002140220D
:100190000C2300F08FFA00F025FB054800E005482D
:1001A00007B030BD3C87000040420F00458700008B
:1001B00030870000248700002DE9FF470C461546D4
:1001C000984604AE002311462048224606F8013D19
:1001D00000F08EFB2246294681461D4800F088FB30
:1001E00023462946424682461A48009600F047FCBC
:1001F00023460746294618484246009600F03FFC31
:100200009DF80F300446EBB9002F1BDB642F19DC7F
:10021000C72817DD44F62063984213DCB9F1FF309C
:1002200018BF012001F046F9384601F077F9204661
:1002300001F052F9BAF1FF3018BF012001F044F982
:10024000064800E0064804B0BDE8F0874D8700008E
:100250005387000059870000668700003087000040
:10026000248700002DE9F0410C4686B0154604288D
:1002700033D8DFE800F003080D10190008461146D6
:1002800001F070F92EE00846114601F091F929E0DD
:1002900001F0A6F901E001F0A9F90346294620463C
:1002A000134A06F0BDFE1DE001F092F9804601F010
:1002B00073F9074601F094F9064601F097F90D4BE2
:1002C00003900493204629460B4A0C4BCDF800803E
:1002D0000197029606F0A4FE04E008461146084A7B
:1002E00006F09EFE204606B0BDE8F04107F0CEBE07
:1002F000EB870000CF870000738700009487000021
:10030000DF87000070B588B0030A060C039014461E
:10031000C2B2000E0D460190F6B204A80649DBB247
:10032000009606F06FFE04A8294622460F2300F02F
:10033000C1F908B070BD00BFE2870000074B0A207A
:1003400003F0704223F07F4342F0007223F4700305
:1003500042EA431301221A6006F082BC0801002021
:1003600070B506F005FD044650BB334D334800F030
:1003700007FA29680B290EDC3148722118220F2355
:1003800000F098F92F48214618220F2300F092F927
:100390002D48296801E02D4806390723182200F06E
:1003A00089F92B680433722B2B6040DD224B062227
:1003B0001A602348722112320F2300F07BF936E0D5
:1003C000234B1A68824236D018601C4800F0D8F9D6
:1003D0002048002110220F2300F06CF91D48002155
:1003E00018220F2300F066F91B48002110220F236A
:1003F00000F060F91948002118220F2300F05AF983
:100400000F2317480021202200F054F92421102244
:100410002046FFF777FF06F0B1FC24211822FFF7F2
:1004200071FF06F0B1FC24212022FFF76BFFBDE82D
:10043000704000F0D7B970BD1400002040420F009A
:10044000EE870000F1870000F5870000F4870000C8
:1004500004010020F78700000088000007880000E2
:100460000E8800007FB5314807F0A0F8304800F052
:10047000EDF900210A460F232E4800F01BF9352222
:100480000F2300212C4800F015F92C4807F07AF8CA
:100490002A4807F057F82A4807F074F80C21294831
:1004A00006F04FFF07F02EF96423B0FBF3F007F0DE
:1004B00031FA07F01FFA07F025FA06F07AFF04A9CF
:1004C00005A806F09BFE23221F4B8DF8092022323F
:1004D00005938DF80A201D4B22328DF80B20223215
:1004E000002104938DF80C200123223202A88DF8FC
:1004F00008308DF80D2000930A460B4606F054FB99
:1005000001F0C6F902A801F0EFF9114801F0FCF979
:1005100000F050FF05220F480F4900F061FF0F481F
:10052000022100F06BFF00F073FFFEE78003C001C3
:1005300040420F00158800002B880000005010205A
:100540002000002000500240012345006789AB00D5
:100550003C88000065020000000000209488000034
:10056000FEE7FEE7FEE70000F8B51D4E0D4626F05B
:100570007F4206F0704322F4700243F00071520192
:1005800011430968074649B343F0007343F004037D
:1005900043EA02021368FBB1124806F0CEFF04469C
:1005A0000028F9D14FF040204021224606F0C6FE37
:1005B00006F0704343F0007326F07F4643F00403D7
:1005C00026F4700643EA4616346005E0054817F83D
:1005D000011B06F0A2FF013D002DF7D1F8BD00BFC1
:1005E000140100200080004070B51D4D0C4625F020
:1005F0007F4205F0704322F4700243F00071520113
:1006000011430968064649B343F0007343F00403FD
:1006100043EA02021368FBB9124806F08EFF002875
:10062000FAD140214FF040200A4606F087FE05F03F
:10063000704343F0007325F07F4543F0040325F435
:10064000700543EA451501232B6005E0054816F8BF
:10065000011B06F062FF013C002CF7D170BD00BF0A
:10066000140100200080004038B50E4B00221A60B3
:100670005A600D480321FFF777FF0C480321FFF76D
:1006800073FF0B480221FFF76FFF602407E008218A
:100690000448FFF7A9FF013DF9D1013C01D008252D
:1006A000F5E738BD0C0100208B8A0000A48800000B
:1006B000878A00002DE9F8432E4F984615233B709A
:1006C0004B0816467B703F23BB70F6B205460C46BE
:1006D00038460321FFF748FF75237E7007363B70CD
:1006E00038460321BE70FFF73FFF23480221FFF782
:1006F0003BFF4FEA081937E003F07F031F2B02D9B5
:10070000203BDFB200E000271C4B07EB8707DF1917
:10071000002625E0002003F8010B52FA01F010F04A
:10072000010F18BF03F8019C032E0CD878780841FC
:1007300010F0010F07D013F8010C08F00F0E4EEA6D
:10074000000003F8010C01310829E3D10948023403
:10075000FFF74AFF802C0BD002360237062E03D05B
:100760003A78044B0021D5E715F8013B002BC3D1A3
:10077000BDE8F8830C010020898A0000A7880000EA
:1007800013B50446154806F0C3FE06F0BBFF03226E
:1007900001460023009411480824019406F08EFEBF
:1007A0004FF04020214606F0F6FD04220A234FF0C8
:1007B0004020214606F05BFD084806F0A4FE084BE9
:1007C00003F0704223F07F4342F0007223F4700381
:1007D00042EA431301221A601CBD00BF00800040A2
:1007E00014010020174B07B503F0704223F07F433C
:1007F00042F0007223F4700342EA431300221A60AD
:10080000114806F09AFE0028FAD10F4801A906F017
:100810008AFE0028F9D10C4806F07AFE08214FF034
:10082000402006F09CFD082104224FF040200A23BE
:1008300006F01DFD08214FF040200A4606F07EFD1F
:100840000EBD00BF140100200080004038B50446F2
:10085000234806F097FE234806F094FE214806F050
:1008600091FE4FF040202C2106F095FD04220A2332
:100870004FF040202C2106F0FAFC4FF04020C02120
:1008800006F06DFD08234FF04020C021042206F041
:10089000EEFCC0210A464FF0402006F04FFD124A00
:1008A000204602F0704343F0007322F07F4222F4AE
:1008B000700243F0040343EA421301221A60FFF777
:1008C0005FFFFFF7D1FE0024084B601C1D5D181868
:1008D000691E01356419FFF747FE4E2CF4D938BD67
:1008E0001000001001000020140100208E8A00007A
:1008F000F8B5044617460E46002506E0204656F891
:10090000041B07F0CBFA20B10135BD42F6DB4FF0F6
:10091000FF352846F8BDA0F13003DBB2092B0BD917
:10092000A0F16103DBB2052B08D94138C0B205281C
:100930008CBF0020012070470120704701207047C4
:1009400003463038C0B2092811D9A3F16102D2B2EE
:10095000052A02D8A3F1570006E0A3F14102D2B262
:10096000052A03D8A3F13700C0B27047FF207047B3
:1009700070B503780446252B0E4615D145782846D8
:10098000FFF7C9FF88B1A4782046FFF7C4FF60B124
:100990002846FFF7D5FF05462046FFF7D1FF00EBBD
:1009A00005103070012070BD002070BD2DE9F041B0
:1009B000002605460C469046374616E0252B07D004
:1009C0002B2B06F1010207F101070CD10B3B0AE0CA
:1009D00043788BB183787BB1A119FFF7C9FF00B1D0
:1009E0000136033701E0A3551646EB5DE8191BB14C
:1009F00008F1FF329642E1D30023A3553046BDE80B
:100A0000F0810023F0B51A461F461D461E462CE015
:100A100076B9202C28D0092C26D02B2C01D02D2CB7
:100A200005D1A4F12D04674247EB040701320126EA
:100A3000845C9DB9A4F1300C5FFA8CFCBCF1090F09
:100A400006D84FF00A0C0CFB03F3303B1B190BE0EC
:100A5000202C08D0092C06D02846F0BD202C03D02D
:100A6000092C01D009E001250132845C002CCFD192
:100A700007B15B420B600120F0BD0020F0BD13B553
:100A800014461A46FFF734FFB0F1FF3F07D054F881
:100A9000200001A9FFF7B5FF08B1019803E0049B0E
:100AA00001221A7000201CBD38B54FF4C0700D46ED
:100AB00001F0C6F80146D8B100240323A0F87E3126
:100AC000046044608460C461846180F820402846EA
:100AD00001F0E5FA2846084901F0E3FA28460749FB
:100AE00001F0E5FA28460649042201F0E5FA00E0A3
:100AF000FF2460B238BD00BF81100000050B00006C
:100B0000F50F000010B5044670B1006818B100F090
:100B10005BFE00232360A06808B101F0BFFF204600
:100B2000BDE8104001F0BABF10BD70B505460C46D7
:100B3000002101F0B4FA2846002101F0B5FA284658
:100B4000002101F0AEFA64B1206818B100F03CFE5B
:100B500000232360A06808B101F0A0FF204601F047
:100B60009DFF2846BDE8704004F006BB2DE9F74F15
:100B700006460C46002900F03A82B1F87E31022B7D
:100B80004CD8B0F86E704FF000093D46C84638E0CA
:100B90005C3354F8230007F079FAB4F87C511FFA5B
:100BA00080FAC5EB0A05BD42A8BF3D46ADB2B4F818
:100BB0007E21B4F87C315C3254F822103046C918DA
:100BC0002A46002304F0B8FAB0F1FF3F804602D174
:100BD0006D08ECD103E0002808BF4FF00109B4F81C
:100BE0007C317F1BEB189BB25345A4F87C31BFB21C
:100BF00007D1B4F87E3100210133A4F87E31A4F886
:100C00007C11B4F87E311FB1022B01D8002DBFD169
:100C1000022B40F2E68163681BB9E2E14FF0000964
:100C2000C846A369002B29D1A3680BB1E5690CE084
:100C3000358F6D00A8B201F003F8A06008B1E5613E
:100C400003E06D10642DF5DCD1E1206850B1A1689E
:100C50002A4600F0BBFD00280BDA206800F0B4FD46
:100C6000002323603046214603B0BDE8F04FFFF774
:100C70005CBFA368A06163606061E36094F82130A9
:100C8000B6F86E50D3B9A3699D4228BF9DB2338F89
:100C90005B009D42C8BF9DB261683046B1F1005F04
:100CA00034BF002301232A4604F046FAB0F1FF3F87
:100CB00040F08C816D08012DEED88FE1E268636809
:100CC0009A4240F24E81D31A9D42A8BF9DB2338F03
:100CD0005B009D42C8BF9DB20023304661682A4632
:100CE00004F02AFAB0F1FF3F804603D16D08012DD0
:100CF000F2D808E038B963684FF001095B19636006
:100D0000A3695B1BA361B6F86E30002B40F029810C
:100D100064E1042BFDD8DFE813F005000F00260086
:100D20006B00DB00E36819783C296ED13B3984F80D
:100D3000EF1084F8221068E094F82230052B04D1DB
:100D4000053B84F82230023309E1E16898480F78C6
:100D5000C05C874203D1013384F8223010E00023C5
:100D600084F8EF300CE094F8223073B9E168087829
:100D70000938C7B2172F08D88E4F40B2874004D524
:100D8000013A01316261E160EBE0E1680A780D2A25
:100D900009D004D8A2F10900012816D803E0202ABE
:100DA00001D02D2A11D1D3B1032284F8EF2084F889
:100DB0002430033AE31883F825200B782D2B01D13A
:100DC0002C3B08E084F822200BE0072B06D8E11822
:100DD00081F82520013384F8223002E0002384F8D2
:100DE000EF306369013B6361E3680133E360B8E0BE
:100DF00094F8221061B9E36818780938C7B2172F40
:100E000006D86C4F40B2874002D5013A6261ECE7E8
:100E1000E368694813F8017B405C013A874253D18B
:100E200002296261E3604BD1644B1B68EBB1644AF9
:100E30001268D2B16349D1F800B0BBF1000F14D0F1
:100E4000924600270FE05AF8041B04F12500019395
:100E500007F024F8019B28B9384604F12E01C0227E
:100E600098470EE001375F45EDDB04F12E07384669
:100E7000C121554A04F1250306F0D2F8384607F09F
:100E800005F9002384F82230043384F8EF306268D7
:100E9000E36884F823009342236162D99B1A9D4240
:100EA000C8BF9DB20023304661682A4604F044F969
:100EB000B0F1FF3F804621D16D08012DF2D850E0FE
:100EC000013184F822104CE0E3606261002346E0C7
:100ED000226963689A421AD9D31A9D42C8BF9DB24B
:100EE0000023304661682A4604F026F9B0F1FF3F3E
:100EF000804603D16D08012DF2D832E0002830D1B0
:100F000063685B196360A3695B1BA36121E094F8CC
:100F1000223094F8232093421ED2D31A9D42C8BF98
:100F20009DB294F8223004F12E01C91830460123F5
:100F30002A4604F001F9B0F1FF3F804603D16D0865
:100F4000012DEED80DE060B994F82230EB1884F84A
:100F500022304FF0010904E0002384F8223084F8A5
:100F6000EF30626994F8EF301AB1B8F1000F3FF436
:100F7000D0AE042B32D0E26863689A422ED9B6F81C
:100F80006E50D31A9D42A8BF9DB2338F5B009D4225
:100F9000C8BF9DB20023304661682A4604F0CCF8F1
:100FA000B0F1FF3F12D16D08012DF3D816E000BF5C
:100FB000F98A0000000100C8FF8A00001801002023
:100FC0001C01002028010020DD8A000030B9636880
:100FD0005B196360A3695D1BA56102E0B9F1000FB5
:100FE00005D0304603B0BDE8F04F02F063BE03B059
:100FF000BDE8F08F08B5034610B90A7C042A07D073
:1010000093F820200132D2B2042A83F8202005D19F
:101010000846012102F0B4FFFB2006E0186820B169
:1010200008461946FFF7A2FD002040B208BD0000A7
:1010300038B50C46054668B1002180F820102046DE
:1010400001F032F820462946FFF790FD204602497C
:1010500001F02AF8002038BD3110000010B5044618
:101060000548206000F0C8FA28B90448206000F064
:10107000C3FA00B9206010BD038B00000D8B000087
:101080002DE9F04F85B0044600911546002B40F045
:101090008381002A00F08481002800F07D810846C9
:1010A000118903F0F3FA2368002B40F0728168681D
:1010B0009449061D0422039607F01AF8002840F010
:1010C000648169890423053914E0324616F8010B5E
:1010D00020280ED1307848280BD17078542808D1B8
:1010E000B078542805D1F078502802D10021117031
:1010F00002E001338B42E8DB6A89053A934200F053
:1011000044810023039884F8213003782F2B1CD1CD
:101110004778D7B9DFF804824FEAC70958F8376033
:10112000304600F069FA039620B108EB0903064641
:101130001B7994E00137052FECD103A8FFF78EFF50
:101140000023064684F821308FE03F2106F020FE80
:10115000064610B1002306F8013B6B4B1F68002FB9
:1011600068D06A4BD3F800A0BAF1000F62D04FF0FC
:101170000009CDF80490C8464FE003985AF80910CA
:1011800006F08CFE09F10803002843D1CDF8048055
:10119000002E2FD03378002B2ED0A346B2468046A7
:1011A00000E0BA46CBF8F0A05046262106F0F0FD4C
:1011B000074618B1002307F8013B07E050462021FD
:1011C00006F0E6FD08B1077000E0074650463D21F5
:1011D00006F0DEFD10B1002300F8013B08F1010824
:1011E000B8F1100FCBF8300107D00BF1040B002F32
:1011F000D7D102E0B04600E09846444A019813680F
:1012000041464B445F6804F1F00204F59873B84717
:10121000039006E008F101089946B845ADDBCDF82A
:101220000480394A1368019A9A4203D116B13F23C8
:1012300006F8013C039800F0DFF9064620B903A840
:10124000FFF70CFF064610E0002784F82170304BB2
:101250000398D95907F018F9043718B1012384F815
:10126000213003E0102FF2D100E096B1002384F882
:1012700022303268716884F8EF30E2606161226187
:1012800026606260A16184F82030284601F099FC54
:1012900004E026606660A66184F820601D4B039D13
:1012A0001A6C1F46C4F8742155B9DA6B5B6CC4F82C
:1012B0007021C4F87831A4F87E51A4F87C515BE029
:1012C0002846154907F0E0F808B1FB6B00E0BB6B5E
:1012D000C4F8703128463F2106F05AFD804608B117
:1012E0000023037028462E2106F052FD002604E05C
:1012F000461C30462E2106F04BFD0028F8D105464D
:1013000023E000BF168B00002001002024010020F4
:1013100018000020280000201B8B0000448E0000D5
:10132000DFF88C90314659F835004FEAC50A06F0CF
:10133000B5FD38B909EB0A035B6857F82330C4F8E8
:10134000783104E00135112D01D0002EE8D1B8F13B
:10135000000F02D03F2388F800301EB90322A4F802
:101360007E2109E0112D04BF7B6BC4F87831002386
:10137000A4F87E31A4F87C3100980C4900F094FE6A
:1013800000982146FFF7F2FB06E0284601F019FC21
:1013900006E0284601F015FC002005B0BDE8F08FFE
:1013A00000982146FFF7C1FBF6E700BF31100000AF
:1013B0007000002010B502F0BDFE50220446064920
:1013C00000F0EEFDFF21204601F0ACFA0349BDE834
:1013D000104000F06FBE00BFF8A50000A90A000091
:1013E000034B1860034B1960034B1A60704700BF32
:1013F000180100201C01002028010020024B186069
:10140000024B1960704700BF24010020200100201A
:1014100070B5214806F0B6F80121204805F09FFF7D
:10142000002201211D4805F089FF1D4806F0AAF899
:1014300002211C4805F0A1FF4FF0101006F0A2F8A1
:1014400040210022184805F0F7FF4FF4901006F0F5
:1014500047FA06F057F9154C8508154E4FF4DC7223
:10146000322322604021B5FBF2F20F48336005F0D1
:10147000FDFF326864235543B5FBF3F22368412135
:101480000948B2FBF3F206F000F807484021BDE836
:10149000704005F0F5BF00BF200000200050024062
:1014A0004000002000600240008002403001002027
:1014B0002C010020021E034818BF0122012105F063
:1014C0003DBF00BF0050024002460248022105F025
:1014D000EDBF00BF0080024070B5064606F012F96D
:1014E0000B4C8508B5FBF6F240210A48266005F052
:1014F000BDFF094B07481A6864235543B5FBF3F257
:1015000023684121B2FBF3F2BDE8704005F0BDBF96
:1015100030010020008002402C01002070B50446FC
:1015200006F0F0F80C4E850834600C4C402122681F
:101530000B48B5FBF2F205F099FF3268642355437E
:10154000B5FBF3F2236806484121B2FBF3F2BDE894
:10155000704005F09ABF00BF2C0100203001002030
:101560000080024070B505460C460848012105F090
:10157000E2FE18B128462146054A02E0054A2846FF
:101580002146BDE8704005F04BBD00BF0050024051
:101590006C8E00006F8E0000012108B5034805F035
:1015A000CAFE003818BF012008BD00BF005002402D
:1015B000044B1B6813F0020F14BF034A034A05F0E3
:1015C0002FBD00BF088002406C8E00006F8E0000AF
:1015D000024B1868C0F34000704700BF088002400B
:1015E000014B1868704700BF30010020014B18689C
:1015F000704700BF2C010020F8B50546102000F010
:101600001FFB0446002800F0B78028465E491322DD
:1016100006F06EFD064640B9FFF7BEFFD0F10100AF
:1016200038BF0020FFF746FF0EE028465749122238
:1016300006F05EFD064658B9FFF7CAFFD0F101007B
:1016400038BF0020FFF740FF26606660A6607FE09D
:1016500028464F49102206F04BFDC8B94D4B2A18B9
:10166000127C262A02D02B2A02D012B9002200E0D6
:1016700020225A7013F8012F12B101301028EED138
:1016800000210A22444805F0D7FCFFF725FF1EE0A1
:1016900028464249152206F02BFDF0B93D4B2A1889
:1016A000527D262A02D02B2A02D012B9002200E055
:1016B00020225A7013F8012F12B101301028EED1F8
:1016C00000210A22344805F0B7FCFFF727FF00236A
:1016D00023606360A360E3604EE0284630490C223B
:1016E00006F006FD064628B92E4D04212846FFF7D0
:1016F00039FF27E028462C490C2206F0F9FC064663
:1017000028B92A4D04212846FFF752FF1AE028463F
:1017100027490E2206F0ECFC064620B9FFF760FFD1
:10172000244D02460AE028462349132206F0E0FC35
:10173000064678B9FFF75AFF204D02462846204951
:1017400005F060FC2560284606F0A0FC6060A06003
:10175000E66011E01B4EF768284671683A4606F0CD
:10176000C7FC28B9B36867602360A760E06003E046
:101770003668002EEFD101E02046F8BD204601F08A
:101780008DF93446F8E700BF738E0000878E0000A5
:101790009A8E00003301002034010020AB8E00003F
:1017A000C18E000044010020CE8E000048010020C0
:1017B000DB8E00004C010020EA8E00005C0100205E
:1017C000EB870000D8A5000001F068B938B50446E1
:1017D000E3680846012B02D1013BE36010E0616839
:1017E000A36899420CD0CD1A2168AA42B8BF154609
:1017F00049192A4606F09CF8A3685B19A36001E02A
:101800004FF0FF35284638BD2DE9F04110461F4600
:10181000536852890D46042ABDF8186030D11A78F1
:10182000FF2A2DD15A78042A2AD19A78022A27D160
:10183000DB78FB2B24D101F0C4F9002054210246AF
:1018400001F01CFC044600281ED0104A002382F838
:101850005330D15C92F853000133411A532B82F874
:101860005310F6D16168533BD05CC8540133542BFC
:10187000FAD1284621463A46334602F0C5F82046BA
:10188000BDE8F04101F09DB9BDE8F0816C01002098
:1018900070B50022114B00259D540132542AF9D114
:1018A0005A70FE21523A19709A705D729D72DD7203
:1018B0001D735D739D7301F015F82A4604460849AF
:1018C00000F05EFC17222046064900F007FC05499F
:1018D00020461722BDE8704000F02EBC6C010020AD
:1018E00009180000F8A500000278064B5A724278E9
:1018F0009A728278DA72C2781A7302795A734279CC
:101900009A7370476C010020094A002304E00133F8
:10191000402B02F8011F08D0C15C0029F7D104E078
:10192000044A0021D218D17401333F2BF8D97047F3
:101930007E0100206C010020837C8B4202D00023BA
:101940008174C3747047838B10B58469E41884F87C
:10195000F010816901339BB2C918013381F8F0207E
:10196000838310BD838B8269D218013382F8F01013
:1019700083837047838B826910B5D2180C0A82F872
:10198000F040826901339BB2D218013382F8F01023
:10199000838310BD838B826910B5D2180C0E82F838
:1019A000F040826901339BB2D2180C0C82F8F040EF
:1019B000826901339BB2D2180C0A82F8F040826926
:1019C00001339BB2D218013382F8F010838310BD2B
:1019D00088B1838B8269FF21D21802E082690021DD
:1019E000D218013382F8F0108383838B432BF5D90F
:1019F00013F0030FF2D17047F0B5C4680346002C12
:101A00003BD0068A002E3AD0002215460EE0342F35
:101A100004D1023292B2A55C013206E08F4233D08B
:101A2000013292B2A05C0132121892B2B24203D2D9
:101A3000A75CA018FF2FEAD1002D22D0012D9A68B3
:101A400002D16C32802406E0022D02D12C324024D7
:101A500001E02C32C024002309E08D4214D0013370
:101A60009BB2D05C01331B189BB2A3420BD2D55C56
:101A7000D018FF2DF1D10020F0BD2046F0BD30463A
:101A8000F0BD2846F0BD0020F0BD0346407813F8B5
:101A9000012B000440EA02605A789B7840EA022059
:101AA000184370476FF0040070470000154B70B585
:101AB0001D68154B1C68154B1968154B18881A467C
:101AC000013080B203B230EA230028BF4FF48050C7
:101AD0002B4603E01E8B8642F2D0DB68002BF9D147
:101AE000234603E01E8B8642EAD0DB68002BF9D147
:101AF0000B4603E01E8B8642E2D0DB68002BF9D157
:101B0000108070BD24320020BC340020E40100208D
:101B1000FC000020436A01221A71013A5A7190F8C0
:101B20002E1090F83020090441EA026190F82F202D
:101B3000114390F82D2041EA0221426A02B1527A03
:101B400052180A21B2FBF1F001FB1022DA805A7A16
:101B50008A4284BF4FF41672DA8070476C2238B51F
:101B600080F83220013280F833201E4A1E4B426139
:101B70001E4A002500F12B018261C36119605D6579
:101B80009D65DD650623044680F82A30184805F077
:101B9000ECFA40F2DC532385322384F831307F2184
:101BA000134805F00BFB2946114805F00CFB0146D4
:101BB0000F4805F00EFB05F0A5FD01460C4805F0A9
:101BC00095FA40F216210A4805F09AFA084805F0FD
:101BD000E0FA3A2005F0F8FB0548052105F0EAFA9D
:101BE000284638BD293600004C340020BD6A00006C
:101BF000008004400C4B0D4A23F0030300211360C6
:101C00000B484FF440525980197199180160012016
:101C10004A801A8008710A800649087006490B60DC
:101C2000064BA3F89020704710020020E801002026
:101C30003C32002038320020B834002044320020EA
:101C40002DE9F043002878D003304FF6FC7300EA0A
:101C500003030B2B03D9B3F5405F6DD800E00C23D1
:101C6000374A384E116834688DB2641BA4B294466A
:101C700055E0081990F80490B9F1000F4ED10F5BB0
:101C8000A7F10802121B9A4248D303F114084245F7
:101C90002D4A20D303F108056519ADB201EB050803
:101CA0004F53A8F802400580012488F8049004717D
:101CB0004C5BB4F5405F1CBF09194D80B2F892101F
:101CC00008315B189BB2A2F89230B2F894209A4285
:101CD00011D21D4A0DE001230371B2F89230B2F81F
:101CE0009410EB18FB181B1A9BB29942A2F8923081
:101CF00001D2A2F89430336898420CD1134BDCF82F
:101D000000201968034601E01B88D3181C790CB128
:101D10008B42F9D133600830BDE8F0830488C3F505
:101D200040529442A5DB084B0020B3F896200132C4
:101D3000A3F89620BDE8F0830020BDE8F08300BF43
:101D4000E8010020B8340020443200203C3200205A
:101D500070B5164B002216490020A3F89C00A3F88A
:101D60009E00A3F8A000885A0232A3F89A000A3312
:101D7000102A0C46EFD10F4B0F4A23F0030100232A
:101D8000002042F8040BE55A09E052F8046C0130D7
:101D90000E600A4E42F8041CF65A80B28919A84215
:101DA000F3D10233102BEBD170BD00BF44320020C1
:101DB00002A60000C73400209850002012A60000A0
:101DC00010B5FFF717FFBDE81040FFF7C1BF01B125
:101DD0000968C160704701B10968816070470000FF
:101DE000014B1860704700BF0002002090F83130AE
:101DF00013F0010F1CBF23F0010380F8313070474E
:101E000090F8310000F00100704710B500292AD089
:101E100000282DD0002905DA4A42438992B2934224
:101E200001D222E08AB2047B43680CB1032C07D1B3
:101E30005A1A00F11004A24242600CD2436014E02E
:101E4000013CA4B2012C10D800290EDA4489944236
:101E50000DD35B1A43604389CB1843810389C918AA
:101E60000181002010BD084610BD012010BD0120D9
:101E700010BD0346002002E001301B68C0B2002BF9
:101E8000FAD1704710B568B121B90BE004891B196C
:101E90000381104602680B89002AF7D1028901608C
:101EA0009B18038110BD2DE9F0410C460546002822
:101EB00039D0002937D002890B899A4233D30026C2
:101EC00037466B89B4F80A80DB1BC6EB080843452C
:101ED00068686168B4BF1FFA83F81FFA88F8C019F0
:101EE0008919424605F024FD47446B89BFB2BB42C5
:101EF00046446389B6B204BF2D680027B3429CBF35
:101F0000246800262CB1628923899A4201D1236872
:101F10005BB92DB16A892B899A4201D12B6823B90B
:101F2000002CCED102E0F62400E0F72460B2BDE838
:101F3000F0812DE9F8430D46144600282AD00029E7
:101F40002AD000260746B14620E02BB17A89934279
:101F500002D39B1A9BB218E0B7F80A807968C3EBEA
:101F600008081FFA88F8A04528BFA04605EB09001D
:101F7000C91842464644C144C8EB040405F0D8FCE5
:101F8000B6B21FFA89F9A4B200233F682CB1002F22
:101F9000DBD102E0064600E00E463046BDE8F8839D
:101FA000037C70B504460D46002B50D112B9FFF7E3
:101FB0007DFD0246284B1B680DE0198B914209D12B
:101FC0001868002845D0002D43D02968002940D04A
:101FD00088423ED0DB68002BEFD1204B1B680DE020
:101FE000198B914209D11868002832D0002D30D0C9
:101FF000296800292DD088422BD0DB68002BEFD137
:1020000017490B680AE0188B904206D11E6806B388
:10201000FDB12868E8B186421BD0DB68002BF2D105
:10202000104B1B6807E0188B904203D128681E688C
:1020300086420ED0DB68002BF5D115B12B6803B1B9
:1020400023600B682283E3600C60002002E0F32031
:1020500000E0F52040B270BDE401002024320020F1
:1020600008020020BC34002030B5426A048DC36AE7
:10207000058FA118B5F5806F94BF5D1903F58065D4
:10208000A94202DB4485C81A30BD9A4203DD002311
:102090004385002030BD9B1A4385002030BD41613F
:1020A0007047C0F888107047C0F884107047C0F8B7
:1020B00094107047C1617047C0F8901080F83520C7
:1020C00070470000034B044A10681A6880181860B3
:1020D000704700BFF80000204032002070B5154E58
:1020E000002435682B4603E0984208BF0124DB68D2
:1020F000002BF9D101B10968016092B92B464FF468
:10210000805207E0598A914203D1013292B22B46A4
:1021100000E0DB682BB147F6FF718A42F2D1F5246B
:1021200005E0428214B9C560306000E0002460B26E
:1021300070BD00BF4034002070B51646428A044688
:102140000D461AB90146FFF7C9FFA0B905B12D68C0
:10215000237C0A4A43F00403237413686560A68253
:10216000184602E0844205D0C0680028FAD1E36036
:10217000146000E0002040B270BD00BF4034002079
:102180008161C2617047436A10B500241C71FFF77A
:102190002DFE204610BD030A43EA002080B270479E
:1021A000F8B50D464E68044606210139C9B25F5C98
:1021B00070188770575C07720029F6D14FF40060E1
:1021C000FFF7E9FFF081A369204629469847F8BD4B
:1021D00070B502460C46002308E012F8026C12F8B3
:1021E000015C023C45EA06255B19A4B20232012CCF
:1021F000F3D84A0811F0010F03D010F81220120290
:102200009B189AB202EB13431A0C1CBF9BB29B188B
:1022100098B2BDE87040FFF7BEBFFFF7BCBF00003B
:1022200038B51B4B05461B68988903F11404FFF76A
:10223000F4FF010B89B2052929D90539890089B232
:10224000002322E0E25C012A05D020D3022A04EB1D
:10225000030216D101E0013316E05078042816D1AC
:10226000D81C884213DA9078D278043342EA0022EC
:10227000501E80B2B0F5007F28BF4FF400722A8054
:1022800002E052781AB1D3189BB28B42DAD338BD30
:10229000343300202DE9F047D0F804900646B9F811
:1022A0000800FFF7BAFF164B5FFA80FA1C6800259A
:1022B000984620E0237C534513D167699FB1A069FC
:1022C0002146324609F10C03B84780B16DB1E3688D
:1022D0000120EB60D8F800300026E360C8F8004029
:1022E00005E0002003E0384601E001202E46E368C7
:1022F00020B925461C46002CDCD12046BDE8F087DD
:10230000DC01002000BA70472DE9F8430446008B39
:102310000D461646FFF73FFF2880208CFFF73BFF56
:102320006E606880676A3846FFF7ECFFA8604FF67A
:10233000C070FFF730FF06461020FFF72CFFB5F8FE
:102340000C90B4F82A8006EA090640EA06064046E0
:10235000FFF721FF1FFA86F90026E881AE74EE74BC
:102360004846FFF75AFF00F03F0040F4A040FFF757
:1023700012FF4744A8812E746E742846E762BDE8B8
:10238000F883FFF7BFBF000070B50546446AFFF74A
:1023900037FD10B12846FFF729FD00266E60AE60BC
:1023A000EE605CB90A20FFF74BFC0446002835D0EC
:1023B00031460A2205F056FC6C6205E02671E68083
:1023C000667126806680267295F8302095F82F3049
:1023D000144843EA02231818FFF794FFFFF7D1FFD0
:1023E0006B6A5B7AC01880B240F029400E4B40F413
:1023F0007E00984202D800F57E4004E00B4B9842E4
:1024000088BFA0F57E40FFF77DFF637A206001332F
:1024100028466372FFF77EFB002000E0FF2040B2F9
:1024200070BD00BF0001FEA9FF00FEA9FFFEFEA9CE
:102430002DE9F041866F0446E6B1336800F1740778
:102440008367456F01E02F462D6855B12B695868A9
:10245000FFF797FF336980465868FFF792FF804582
:10246000F1DB35603E6094F84A30013384F84A303D
:102470000023E363BDE8F081836F10B504463BB3EE
:1024800090F8223013F0040F22D1FFF7D1FFB4F8F7
:102490005230B4F85C20934203D95208A4F8542077
:1024A00002E05B08A4F85430228FB4F854105300B3
:1024B0009942B8BFA4F85430B4F854109B185B1874
:1024C000A4F8523094F8223043F0040384F8223008
:1024D00010BD2DE9F84F4FF000080C4615469B46FD
:1024E000BDF828A00746464617E0B7F80A90786876
:1024F0004946FFF76DFE801986B219F0010F06EB11
:10250000104609D0330606F47F46C8F10108360AA2
:102510005FFA88F846EA13463F68002FE5D1B8F124
:10252000000F05D0330606F47F46360A46EA134606
:1025300022682B6891B201EB124299B2521802EB59
:10254000134358469E19FFF726FE36185046FFF7EC
:1025500022FE3618B3B203EB1646B0B200EB1646B5
:10256000F04380B2BDE8F88F08B5FFF731FEC043F5
:1025700080B208BDF8B500260546344615E06F89DF
:1025800068683946FFF724FE001984B217F0010F7E
:1025900004EB104408D0230604F47F44C6F101067E
:1025A000240AF6B244EA13442D68002DE7D12EB177
:1025B000230604F47F44240A44EA1344E04380B22F
:1025C000F8BD000038B5104B05461C680AE02046EF
:1025D000FFF716FC28B163682A685A40A3681A42BC
:1025E0000FD02468002CF2D1084B1D681DB128467D
:1025F000FFF706FC20B9064BDA8F0132DA8700E0DC
:102600002C46204638BD00BF2832002000020020A2
:102610004432002010B504460846FFF7D3FF30B11E
:10262000038D23B1283B9BB29C4228BF1C46204609
:1026300010BD00002DE9F74F98469DF83030044654
:102640000D460E9E01939DF834709246DFF8D4B08B
:10265000002A54D01421FFF7D8FB034630B1BBF851
:102660004430FE200133ABF8443055E0D4F80490F8
:10267000B9F808000093FFF7D0FD68F31F20FFF7BB
:102680008AFDFFF7CAFD00F47F403843FFF783FD62
:10269000A9F80800DAF80020214FC9F81020019AA3
:1026A00042F48A40FFF777FDA9F800002089FFF780
:1026B00072FDA9F80200009B89F8063089F80730FE
:1026C000B7F800804046FFF766FD08F10108A9F859
:1026D0000400A7F800800DB12B6813B9331D18BF93
:1026E0007368C9F80C30002389F80A3089F80B3078
:1026F00048461421FFF738FFA9F80A0002E04368B2
:1027000003F1100ABBF8303030460133ABF83030FB
:10271000214673695246984740B2BDE8FE8F00BF1C
:10272000B0340020443200202DE9F043044685B047
:1027300010460F4615461E469DF830909DF8348091
:10274000FFF740FF28B90A4BFC30DA8F0132DA87F5
:102750000AE00290394620462A463346CDF80090DA
:10276000CDF80480FFF766FF40B205B0BDE8F08306
:102770004432002003685A1E12F1030F13D891F857
:10278000310010F0020013D0486883420DD08A68EF
:10279000584010420BD1D24302EA0300831A584238
:1027A00040EB030070470120704700207047002075
:1027B000704704F003BE10F0010F01D104F0F9BD21
:1027C000704738B50446FFF7F4FF636D226D9A42F7
:1027D00009D0142254F823500133B3FBF2F102FB69
:1027E0001133636500E00025FFF7E5FF284638BD9B
:1027F00010B5044640B1FFF7DCFFE3890133E38104
:10280000BDE81040FFF7D7BF10BD10B50C46FFF76D
:1028100039FB2046BDE81040FFF7EABF70B504461B
:102820000D46A1B1FFF7C5FF094B0A2202FB043395
:10283000B3F89C20013AA3F89C20064B53F82420BF
:102840002A6043F82450BDE87040FFF7B4BF70BD64
:102850004432002098500020094A01461368834200
:1028600009D1C368136008E0DA681AB18A4204BF6C
:10287000CA68DA60DB68002BF6D10120FFF7CEBF13
:1028800040340020072870B5044624D8FFF791FF94
:102890001249134B51F824500A228DB12E6841F889
:1028A000246002FB0434B4F89C30B4F89E20013359
:1028B0009BB29A42A4F89C3009D2A4F89E3006E05C
:1028C00002FB0434B4F8A0300133A4F8A030FFF7C1
:1028D00072FF284670BD002070BD00BF98500020D8
:1028E0004432002010B50120FFF7CCFF044628B188
:1028F0000021202205F0B6F9FF23E372204610BD27
:1029000070B505460420FFF7BDFF044638B12646E2
:102910000FCD0FC62A6832606068FFF769FF204656
:1029200070BD000038B5037C0546002B37D103206D
:10293000FFF7A8FF0446002833D06B69194A4361AA
:102940002B8B0383012303742B8943F00203038140
:10295000EB7AC372AB7A83722B6803601368AB4265
:1029600001D1EB680CE0104A136007E0D968A94276
:1029700003D11360EA68DA6003E00B46002BF5D15F
:1029800013600023EB6002202946FFF747FF074B47
:102990002046E361064B1A681C60E26038BD0020E7
:1029A00038BD38BD08020020EC010020A51A000047
:1029B000E401002003314FF6FC7201EA02020B2A07
:1029C000F8B5044603D9B2F5405F5CD800E00C22AC
:1029D0002E4B1B689C4203D32D4909688C420AD3B5
:1029E000FFF7E7FE2B4BB3F898200132A3F89820AD
:1029F000FFF7E1FE48E0A4F1080634F8085CF11A9C
:102A000089B2A5F10800401A80B282423BD83BD07F
:102A1000204FB7F892C0C0EB0C0C9444A7F892C0BA
:102A20005F1997F804C0BCF1000F11D133F805C04D
:102A3000194D01F108001218286892B2B84203EB50
:102A4000020008BF28600025057123F802C011E0CC
:102A500002F11407874217D80F4F01F1080012182E
:102A6000D7F800C092B29818604538BF3860002788
:102A700007719D5241803280995AB1F5405F03D071
:102A80005B185A8000E000242046F8BDE8010020D1
:102A90003C32002044320020B83400202DE9F041BF
:102AA000002854D02B4B2C4C1A689C46904203D3E0
:102AB0002A4B1F68B8420AD3FFF77BFEB4F8983060
:102AC0000133A4F89830BDE8F041FFF774BEA0F1DF
:102AD00008030021224D19712968B4F892808B42B5
:102AE00030F8081CC2EB0306B6B2C1EB0808B044CC
:102AF000A4F8928002EB010438BF2B60A34211D0EE
:102B000094F80480B8F1000F0CD1BC420AD02F68B1
:102B1000A74204BF124C2360545A20F8084C515A63
:102B200052185680DCF800205C88111999420ED0AA
:102B30000E7966B92D689D4204BF094B196030F8C3
:102B4000083C135330F8083CD3188A1A5A80BDE861
:102B5000F08100BFE8010020443200203C32002018
:102B6000B834002038B590F83130046A23F00803F7
:102B7000054680F831309CB194F85030012B04D1D7
:102B8000FFF701FB002384F85030606818B1FFF7AD
:102B900063FE002363602046FFF780FF00232B6263
:102BA00038BD10B50446806818B1FFF777FF0023E1
:102BB000A360E06820B1FFF771FF0023E360238288
:102BC00010BD70B5064610B3002400E02E46FFF796
:102BD000F0FDF589013DADB2F581FFF7ECFDBDB922
:102BE000337B3568032B01D1072004E0013B9BB206
:102BF000012B04D806203146FFF710FE02E03046D4
:102C0000FFF74CFF0134E4B2002DDFD100E00446B1
:102C1000204670BDF7B502894368103A1A80002239
:102C200001AD019204462FE061686689002305E04A
:102C3000CF5C0133AF54013202F00302B34202DA37
:102C4000002AF5D100E03AB92BB1174A019E16606F
:102C50000022019200E01A46CF18668906E057F874
:102C600004CBDFF844E00433CEF800C003F1030ED8
:102C7000B645F4DB05E0CF5C0133AF54013202F01E
:102C80000302B342F7DB2468002CCDD1019A064B36
:102C90001A6001229A62FFF794FF044B20461A88BB
:102CA00001321A80FEBD00BF108004404432002073
:102CB00038B5054608E068682C68FFF782FF2946AA
:102CC0000520FFF7ABFD2546002DF4D138BD0000EF
:102CD0002DE9F04F044685B0464D38B1464B187883
:102CE000142303FB00539A7B022A0BD00A220027ED
:102CF000404BBA46BB46384616469146904601922E
:102D00008C4608E022685B689A42EFD13B4BDA8D33
:102D10000132DA8569E00A2E03D1997B09B9C6B27E
:102D200028E0997B012913D11CB121685A6891428E
:102D300017D01A68D97B2AB1B9421BD3C2B201920B
:102D40000F4617E0594515D35FFA80F88B4611E01E
:102D500002290FD144B121680391039A59688A422C
:102D600002D1254B187040E0D97B514524BF5FFA52
:102D700080F98A460130C0B214330A28CBD10A2E1A
:102D8000019A614602D11CF0010F2DD011F0020A08
:102D90002AD173B2092B01DCF6B215E0B9F10A0FA2
:102DA00002D05FFA89F60FE0B8F10A0F02D05FFA9D
:102DB00088F609E00A2A17D0D6B214277743E859D3
:102DC000FFF776FF45F807A0142202FB0653002008
:102DD00098730CB12168596002FB06550023EB7310
:102DE000054B30461E7000E0FF2040B205B0BDE844
:102DF000F08F00BF783300203032002044320020B2
:102E000038B50E4C04F1C805E37BA27B0133DBB27D
:102E1000022AE37301D1EF2B02E0012A09D1012B31
:102E200007D9206818B1FFF743FF00232360002370
:102E3000A3731434AC42E7D138BD00BF783300200F
:102E40002DE9F843054690461F460C46002948D018
:102E50000E68002E45D008462946FFF78BFC002857
:102E60003FD14FF07040FFF78CFA81464FF0604041
:102E7000FFF787FA09EA0606864232D0204639462D
:102E8000FFF726FF0028044601462BDB174E1423CC
:102E900003FB006302229A731D610623142202FBC6
:102EA0000462013BDBB218F80300D1180872002B52
:102EB000F4D1D3730FE00A684F68F2500520FFF792
:102EC000ADFC2846394605F12B024346FFF768F969
:102ED0003846FFF776FE14236343F1580029EAD100
:102EE00000E0F62148B2BDE8F88300BF7833002047
:102EF00010B570B14A684368D16981EA03038168FB
:102F00000B4006D102F11C010832BDE81040FFF76A
:102F100097BF10BD38B5054648B1406808B1FFF706
:102F200050FE044629460420FFF778FC00E00446E2
:102F3000204638BD38B5002405E00568FFF7EAFFF4
:102F40000419E4B228460028F7D1204638BD000015
:102F500038B5037C04460A2B04D890F910300E4A89
:102F60009A4017D4D4F8800020B1FFF72AFE00233E
:102F7000C4F880304FF0FF33E3860025E06FFFF7A1
:102F8000D9FFE567606FFFF7D5FFA06FFFF7D2FFAE
:102F90006567A56738BD00BF000020C038B503894C
:102FA000994220D2CA1A0C46054605E0E41A2B893C
:102FB000A4B2D3182B812D686B899C42F6D82A7B4A
:102FC0004AB99C4207D0696828466118491B89B2F2
:102FD000FFF7F0FC054628686C812C8108B1FFF7EB
:102FE000F0FD00232B6038BD2DE9F0410369054653
:102FF00098890C46FFF711F910F0010F23D02046F5
:10300000FFF798FF002430E08089FFF706F910F001
:10301000010F13D04FF6C070FFF7BDF82E69804640
:10302000B7893846FFF7F9F800F03E0040F001009C
:10303000FFF7B1F808EA07073843B0812046266851
:10304000FFF768FF344684B10B4B20691968AA89E1
:103050004368A6895218F618B242D5DA08E0591A20
:1030600089B2A9816868FFF799FF2C60BDE8F081FB
:103070009A42FADDF3E700BF2C320020F8B50C4687
:10308000174603287AD8DFE800F00402070B002671
:1030900000E01426143600E000261036B6B200E038
:1030A0000026032F6AD8DFE807F03E5959020720AF
:1030B000FFF7E8FB0546002861D003230373033BB9
:1030C00003608319133323F003034360F31C23F0DD
:1030D0000303C3F58073A342A8BF23469BB20481B8
:1030E000438119E00720FFF7CDFB064620B92846AB
:1030F000FFF767FD354642E003230373033B03609C
:103100004373A3B2038100F11002FF2B88BF4FF479
:103110008073386043814260E41A0122002CC2812E
:103120000746DFDC25E006F11302E31C22F0030270
:1031300023F00303D3184FF6FC7003EA0000FEF7F8
:103140007FFD0546D8B186191336002326F0030605
:10315000466004814481036003730AE00620FFF7A0
:1031600091FB054658B1002343600481448103600C
:1031700007730123EB8100236B7300E000252846D1
:10318000F8BD0000F8B51D4B186810F03F0033D0B3
:1031900053F8244C0320A5B229460246FFF76EFFE0
:1031A00008B904231FE0456841892B4643F8044BC6
:1031B00043600B1F438103465E685C89002203E085
:1031C0000F4F3F68B7500432A242F9DB1B68002B57
:1031D000F2D10C4B45605A88418101325A80F8BDCA
:1031E000074A04331268AB42FADB064B9A89013274
:1031F0009A81DA880132DA80F8BD00BF3480044059
:103200001080044044320020F8B50546002875D0EF
:10321000046A002C74D000204FF49A710246FFF724
:103220002DFF606100286DD0E27C384B12B91A681E
:1032300001321A601B68426823600123A261137087
:10324000A26900275370A36906229A70A369DF70F0
:103250002068FFF757F8A669706037727772B77207
:10326000F77237737773B773F773A37C0A2B07D89A
:1032700094F912304FF042629A4044BF6B68F36099
:10328000002333747374B374F37433757375B37547
:10329000F37533767376B376F37695F82A009AB29F
:1032A0009042A16984BFEA1892F82B20194498BF74
:1032B00000220133102B0A77EFD10022A1690023ED
:1032C00089180132402A81F82C30F7D1A2690025F3
:1032D000D2180133802B82F86C50F7D10C48FFF7DD
:1032E00011F8A369C3F8EC00A583A3695B1983F8FF
:1032F000F0500135442DF8D1002004E0F62002E022
:10330000F72000E0FF2040B2F8BD00BF0001002020
:10331000635382632DE9F74F04460D46164603209A
:103320002C2100221F46DDF83480BDF83C90FFF7C9
:10333000A5FE824628B92A4BFF249A8C01329A8432
:103340004AE04168484601F1100B0191FEF723FF66
:10335000ABF80600636A13B11B7903B1214E062353
:10336000013BDBB2F95C0BEB0302117218F803109E
:1033700091740199CA18F15C9170E95C1172002B8B
:10338000EED10C9B01201B68CBF80E300E9B1B6806
:10339000CBF81830FEF7FFFE019B18824FF4006057
:1033A000FEF7F9FEABF8020040F20460FEF7F3FE10
:1033B000ABF8040040F60600FEF7EDFE0199C88167
:1033C000A369204651469847054B04461A8B504640
:1033D00001321A83FFF7F5FB60B2BDE8FE8F00BF34
:1033E0004432002036A600001FB5031D0093074B92
:1033F00000F12B0201930291012311460393044A29
:103400000B46FFF787FF05B000BD00BFFCA500001D
:1034100036A6000090F8313013F0010F09D143F0C7
:10342000010313F0200F80F8313002D0011DFFF7A7
:10343000DBBF70471FB5436A064A00F12B010093BA
:103440000293012301920393034A0B46FFF762FFA5
:1034500005B000BDFCA5000036A6000073B5456AA6
:103460000446002D43D02B79002B40D090F82B3010
:103470008DF8003090F82C308DF8013090F82D3018
:103480008DF8023090F82E308DF8033090F82F3000
:103490008DF8043090F830308DF805302B79D1F864
:1034A0000E20012B88692B6802D0AE88022E0AD12B
:1034B0009A4212D098421AD168460831062204F086
:1034C0009FFBA0B109E09A4211D16846083106225B
:1034D00004F096FB58B12B7A1BB12046FEF754FF3F
:1034E00005E02046FFF7A6FF636A64221A727CBDDE
:1034F0002DE9F04180460E46084641461546FFF745
:1035000039F900287AD14FF07040FEF73AFF0746AC
:103510004FF06040FEF735FF346807EA040383424A
:103520006CD0002C6AD001213046FFF7D1FB041E7D
:1035300006DA002D67D03A4B9A8C01329A8462E009
:10354000384F142202FB0473997B083309B9013107
:10355000997102FB0472937B012B00D03DB9314677
:103560004046FFF741FF0646002D49D000E0FF2608
:1035700014236343FA18927B022A0AD1294C083398
:103580004046294608F12B02E318BDE8F041FEF75A
:1035900007BE012A36D12B461A7B012A03D11B68AC
:1035A000002BF9D132E0032019890022FFF766FDD4
:1035B000804600282FD02946FEF775FC18B14046FA
:1035C000FFF7FFFA27E00520FFF75CF990B1002331
:1035D000036014335C433B59C0F804800BB905E029
:1035E00023461C68002CFBD118600CE00D4A1051DA
:1035F0001C4608E04046FFF7E4FA03E0F62402E048
:10360000044600E0344660B2BDE8F0812846FFF78A
:10361000EFF8A846D7E7024B9A8C01329A84F1E77B
:1036200044320020783300202DE9F74304460D464C
:10363000084610211646FEF7E8FB28B1264BFE206F
:103640005A8901325A8143E030462146FFF792F809
:103650008046002833D14FF07040FEF792FE81463D
:103660004FF06040FEF78DFE376809EA070383429A
:1036700016D101238DF8003038465D338DF80230C5
:103680008DF80180FEF77DFE030C03F07F038DF8BB
:103690000330030A8DF804308DF805006B460FE007
:1036A00063685F40A3681F4203D0E3687BB104F105
:1036B0000C06204631462A46FFF71AFF08E0074B62
:1036C0002046294604F12B02FEF76AFD00E0FC20AB
:1036D00040B2BDE8FE8300BF4432002036A60000A1
:1036E00038B5046A054608212046FEF725F9284624
:1036F00004F128010022FFF7FBFEE37C0133E374B1
:103700000123E38338BD00002DE9F04FDFF800927C
:10371000D0F80480B9F84A3089B00133A9F84A30AA
:103720000446B8F800000E46FEF777FD800900F069
:103730003C0ACAF10007204639B2FEF766FB4D4647
:10374000002840F0D080B4F808B0BBF1030F40F27D
:10375000CA8063681B78082B40F0B580424652F857
:1037600010CF4FF07040CDF810C00692FEF709FE62
:1037700003464FF060400593FEF703FE069A07905C
:1037800031461046FEF7F6FF059BDDF810C020B964
:10379000079A03EA0C03934205D1B5F85C30013374
:1037A000A5F85C3099E0BBF1070F40F29C80204601
:1037B000FEF7E0FE40B12046FFF703FAB9F85030BB
:1037C0000133A9F850309FE0204624211FFA8AFADD
:1037D000FEF71BFB08B320465146FEF716FB0246D8
:1037E000002840F0898002202189FFF747FC8146AC
:1037F000002800F081802146FEF755FB00287BD190
:10380000484639B2D9F80480FEF7FFFA002873D190
:103810002046FFF7D6F94C4606E020466FF023011C
:10382000FEF7F3FA002867D1D8F80C306768D8F8AB
:103830001020C8F810300023C8F80C204FF2FF7099
:103840003B70FEF7A8FCB7F80290814509D34FF40E
:103850000060FEF7A0FC09F101098144A7F802907D
:1038600005E04FF40060FEF796FC48447880B8F815
:103870000800FEF7D2FC60F0FF0080B2FEF78BFC80
:103880000023A8F8080088F80A3088F80B301421C3
:103890004046FEF769FEA8F80A00B5F84830204611
:1038A0000133A5F848305146FEF7AFFA0246A0B9F9
:1038B000012300900193204608F10C01FE3302968B
:1038C000FEF7B8FE09E0B9F858300133A9F85830CE
:1038D000B9F84E300133A9F84E30204609B0BDE8A2
:1038E000F04FFFF76EB92046FFF76BF9B5F852308D
:1038F0000133A5F8523007E02046FFF762F9B5F82A
:103900005C300133A5F85C3009B0BDE8F08F00BF32
:10391000443200202DE9F04F9246428A85B0054698
:103920000F469946DDF838802AB90146FEF7D6FBE6
:103930000646002861D138460821FEF766FA58B1DC
:10394000012008210022FFF799FB0446002851D0EE
:103950003946FEF75AFF00E03C46688AFEF71BFC3A
:10396000666830804846FEF716FC00237080B3710D
:10397000F3712B6813B908F104090AE0D8F80420A0
:10398000934205D0BC4237D02046FFF71AF933E006
:10399000A946B4F808B05846FEF7FDFBB0802B7C72
:1039A00013F0010F0DD1CDF800B020464946524624
:1039B0001123FEF78EFDF08018B94FF0FF33B3717D
:1039C000F371AA7AEB7A00921122019220464946BD
:1039D0005246CDF80880FEF72DFEBC42064602D0C6
:1039E0002046FFF7EEF8074BB3F860200132A3F84A
:1039F000602002E0FF2600E0F72670B205B0BDE8C7
:103A0000F08F00BF44320020F7B5044610460F4641
:103A100015461E46FEF7D6FD38B9084BFC30B3F804
:103A20006E200132A3F86E2006E000903946204651
:103A30002A463346FFF76EFF40B2FEBD44320020F7
:103A40002DE9F341876F054617B9476F002F56D010
:103A50003B699889FEF7E1FB10F0010806D0B7F842
:103A60000C80D8F1010838BF4FF000085FFA88F8E1
:103A70000120B8F1000F0CBF152114210022FFF71F
:103A8000FDFA044600283AD03B69284661685A6826
:103A9000FEF73AFC0646B8F1000F0CD04FF6C070A6
:103AA000FEF779FB07461120FEF775FBB3891F402F
:103AB0003843B08103E0BA68636812781A752389C5
:103AC0002F1D009329463A4606232046FEF701FDA6
:103AD0000C4B3082B3F8782020460132A3F87820CE
:103AE0000022009206320192EB7A29463A46FEF70E
:103AF0001BFE204602B0BDE8F041FFF762B802B0FD
:103B0000BDE8F08144320020F7B5054614210120BC
:103B10000022FFF7B3FA0446002829D0A86D2E1D15
:103B20000138FEF7EFFB616802462846FEF7ECFB22
:103B30002389074600932946324606232046FEF78E
:103B4000C8FC0C4B3882B3F8782020460132A3F829
:103B500078200022009206320192EB7A2946324602
:103B6000FEF7E2FD204603B0BDE8F040FFF729B8BC
:103B700003B0F0BD443200202DE9F74F82468B465A
:103B800017460120142100229846BDF83090BDF858
:103B90003460FFF773FA0546002852D0446848465F
:103BA000FEF7F9FA20803046FEF7F5FA60805046BD
:103BB000FEF7A8FB60605846FEF7A4FBA0604FF636
:103BC000C070FEF7E8FA06461420FEF7E4FAB4F8EF
:103BD0000C9006EA090640EA06064FF40060FEF77C
:103BE000DAFA1FFA86F90026E081A674E6744846E0
:103BF000FEF713FB00F03F0040F4A040FEF7CBFAC5
:103C00002674A08166742B893946009342460623A8
:103C10002846FEF75EFC0C4B2082B3F8782028463D
:103C20000132A3F878200623019339464246F9333E
:103C30000096FEF779FD284603B0BDE8F04FFEF789
:103C4000C0BF03B0BDE8F08F44320020F7B5044692
:103C5000142101200022FFF711FA054638B394F829
:103C60002230A06D23F0030384F82230FEF74AFBD4
:103C7000696802462046FEF747FB2B89261D07464A
:103C800000932146324606232846FEF722FC38825E
:103C9000A27AE37A00920622019221463246284611
:103CA000FEF742FD2846FEF78CFF002000E0FE20D4
:103CB00040B2FEBD894B2DE9F3471B6804468342A1
:103CC00000F00281B0F85230B0F85CA0456F9A4520
:103CD00028BF9A4690F8223013F0020F10D04DB151
:103CE0002B695868FEF74DFBAA89E36CD31A1B18A1
:103CF000534505D9204602B0BDE8F047FFF7A6BFFF
:103D0000A76F0FB9C2E01F463B68002BFBD1BDE097
:103D1000A26F7AB194F8221011F0440F0AD1626FA9
:103D2000002A00F0D580106820B99089228F904237
:103D3000C0F0CE802B686367237C022B0CD0102050
:103D4000FEF729FAB38940EA0303B38194F82230DD
:103D500023F0030384F82230D4F824802E694046EF
:103D6000FEF7D0FAB060B4F82A904846FEF713FA8E
:103D700009EB0803F081E362AB7B13F0010F03D082
:103D80005748FEF7BFFA7061236833B9201DFEF76C
:103D900019FC002841D043682360B4F93630B3F1F0
:103DA000FF3F01D10023E386E36B3BB94D4B1B681A
:103DB000E3632B695868FEF7E4FA20646E68D5F86F
:103DC000108073687289C3EB0803D21A728132893A
:103DD00004F10409D31A9BB200223381C6F804808F
:103DE000214688F8102088F81120304600934A4672
:103DF0000623FEF76EFB3C4BA8F81000B3F87820C2
:103E000030460132A3F87820A27AE37A00920622A3
:103E1000019221464A46FEF787FC2E697068FEF73C
:103E2000B0FA8046B089FEF7F8F9AB8900F00300DC
:103E300000280CBF1846581CA26D00EB08039A42DC
:103E4000B8BFA365F0B1A66F00232B600EB9A567BC
:103E500016E03B695868FEF794FA80450FDA04F1E2
:103E6000780902E0B14636682EB133695868FEF72A
:103E700088FA4045F6DB2E60C9F8005005E03D6049
:103E80002F4602E02846FFF745F8656FB5B12E6969
:103E90007068FEF776FAAA89E36CD31A1B185345AB
:103EA0007FF636AF94F8A02042B9B4F85C108B428C
:103EB00004D90123C4F89C2084F8A03094F822305F
:103EC00003F07F0384F82230002002B0BDE8F087C1
:103ED00011F0A00F7FF42EAFE4E700BFAC34002058
:103EE000000204024032002044320020826F10B5EC
:103EF0009AB1114600E019460B68002BFBD1446FC4
:103F00000C60426790F84A208367013280F84A20AB
:103F1000C363BDE81040FFF7CDBE10BD036810B508
:103F20008B420C4602D1CB6803600DE0134A13604C
:103F300007E0D968A14203D11360E268DA6003E0C8
:103F40000B46002BF5D113600023E3602046FEF7FB
:103F5000FFFF237C0A2B0DD0012B0BD094F82230CD
:103F600013F0010F06D043F0020384F822302046FC
:103F7000FFF7A0FE0023237410BD00BFEC0100205A
:103F80002DE9F04F037C85B00A2B04468A4608D100
:103F900021461F48FFF7C2FF02202146FEF73EFCE4
:103FA00033E00368876D02934368466AB0F818905F
:103FB000B0F82080D0F89450D0F814B021461548BD
:103FC0000393FFF7ABFFA06F08B1FEF7B3FF606F7D
:103FD00008B1FEF7AFFFE06F08B1FEF7ABFF0220BC
:103FE0002146FEF71BFC1DB158466FF00401A8479F
:103FF000BAF1000F09D03846314602AA03ABCDF81A
:104000000090CDF80480FFF7B7FD05B0BDE8F08F54
:10401000BC34002024320020F8B506460220FEF70A
:1040200031FC3E4D0446002844D13D4B2C681B68B2
:10403000024607E0196B611A914228BF1846DB68F7
:1040400028BF0A46002BF5D110B10121FFF798FFD8
:104050000220FEF717FC044630BB324BD5F800E0D7
:104060001B687F2402460DE0597CB14209D8A14269
:1040700007D81F6BC7EB0E07974202D30C463A4690
:104080001846DB68002BEFD110B10121FFF778FF54
:104090000220FEF7F7FB044600283DD0224BB3F880
:1040A000B420013AA3F8B4201F4BB3F8B420013A6E
:1040B000A3F8B4200021A422204603F0D3FD40231E
:1040C00063744FF44063A4F86E304FF400632385AB
:1040D0006385FF23E3724FF4007323870623A4F85C
:1040E0004830A4F846304FF0FF33E3860123A4F8AC
:1040F0005230FDF7E7FF2B68002623630B4B606609
:10410000C4F888300A4BA065E064A06684F8346087
:10411000C4F8983084F8A1602046F8BD40320020F1
:10412000BC34002024320020443200202152000000
:1041300000DD6D004020FFF76FBF000070B54368E1
:104140000A6804469A420D461AD00F4B186808E0D8
:1041500002686368C6689A4202D10121FFF710FF26
:1041600030460028F4D1094B1B6807E01A6822B1D9
:1041700061688A4204BF2A681A60DB68002BF5D1A7
:104180002B68636070BD00BF24320020E401002072
:1041900070B5434B86B01C687DE0636A002B79D014
:1041A0001A7A0AB1013A1A72656A2B79012B02D088
:1041B000022B6FD13BE0EA8812B1013AEA8069E054
:1041C0006979022906D902232B71636A5A71636ADD
:1041D00014222AE0334A04F12B010092324A03935D
:1041E00001920B46314A20460295FFF793F8636A25
:1041F0005A7901325A7194F82E1094F8303009042B
:1042000041EA036194F82F3094F82D201943636A32
:1042100041EA02210BB15A7A00E01A4651180A22EB
:10422000B1FBF2F002FB10120A32DA8032E0EB88C6
:1042300013B1013BEB802DE06E79BEB91C48FEF74F
:1042400061F805903046FEF75DF829460490204657
:10425000FFF774FF204605A9FDF7BDFD204604A920
:10426000FDF7B5FD2046FFF7D5F802E02046FFF741
:10427000E1F8636A1422DA805A7901325A71636A6A
:104280005A79012A06D903221A71626A00235371EE
:10429000626AD3802468002C7FF47FAF06B070BDC3
:1042A00028320020F8A50000FCA5000036A600007A
:1042B0000000FFFF70B5044615461E46FFF73EFF9F
:1042C00020462946FDF787FD20463146BDE870406F
:1042D000FDF77DBDF8B5002580F83150069E0446F7
:1042E000C6610D4E45603778856080F834700137BF
:1042F0003770089EC560056245620661FFF7DAFF08
:104300002046079B984720B9044B1A6822601C601E
:1043100000E02C462046F8BD0C0200202832002088
:1043200037B50546002865D0046A002C62D0A36C1E
:10433000B3F1FF3F0DD03C221E33B3FBF2F34FF637
:10434000FF72934228BF13469BB223840BB901230B
:104350002384E36CB3F1FF3F0DD03C221E33B3FB4B
:10436000F2F34FF6FF72934228BF13469BB2638469
:104370000BB901236384E06A019080B9FEF701F86C
:10438000000E10F0800F02D14FF07F4004E0BF28F4
:1043900094BF19486FF0FF00FDF7B4FF0190236B45
:1043A00000934BB90120FDF7ADFFA36A019A02EA21
:1043B000030340EA0303009394F85030012B05D126
:1043C0002846FDF7E0FE002384F85030284604F12B
:1043D0002801FFF7B3FE284601A9FDF7FCFC69465A
:1043E0002846FDF7F4FC2846FFF714F820460A217A
:1043F000FDF7A2FA3EBD00BF0000FFFF2DE9F0432C
:10440000994D9A4E2B6885B001332B6034684FF07C
:10441000000907E1217C94F84A20022901D1062AEB
:1044200050D00C2A4ED094F8A030BBB19049D4F8AB
:104430009C20C91811F8011C01328A42C4F89C2042
:104440004FF0000241D3062BC4F89C2002D8013360
:1044500084F8A0302046FFF7F3FA3AE0E38E13F435
:10446000004F01D10133E386A36F002B2FD0B4F9A5
:104470003600B4F9483098422BDB02290AD0B4F94F
:104480004410B4F9463003EBE1037A498A5C934067
:10449000A4F848300023E386B4F85220B4F85C3026
:1044A0009A4228BF1A46238F52089A42A4F85420F1
:1044B00002D25A00A4F85420A4F852302046FFF744
:1044C00015FD06E04FF0010805E0904603E0984630
:1044D00001E04FF00008237C062B08D12968226BED
:1044E0008A1A282A84BF08F101085FFA88F8278908
:1044F00017F0080728D0042B01D0072B23D1236BFA
:104500002A68D4F89800D21A5B4B4FF4FA71C3189A
:10451000B3FBF1F39A4205D908F101085FFA88F874
:10452000012711E094F8A130544F07FB0300B0FBC2
:10453000F1F18A4207D92046FFF7E6FA94F8A13054
:10454000013384F8A1300027E06F60B1236B2A6843
:104550000621D21AB4F948304B439A4203D3FEF7EE
:10456000E9FC0023E367237C032B09D12A68236B32
:10457000D31A282B0BD908F101085FFA88F806E056
:10458000092B04D12A68236BD31AF02B02D8B8F177
:10459000000F2DD02046FEF7DBFCE368B9F1000FD9
:1045A00002D0C9F80C3000E03360D4F894301BB16D
:1045B00060696FF0040198474FB1238B2246009346
:1045C000238C0193A06D616A231DFFF7D5FA0220A9
:1045D0002146E768FEF722F9D6F8009000E09946F8
:1045E000B9F1000F1DD0D9F80C30BB42F7D118E05B
:1045F00094F8343094F835200133DBB29A4284F8D1
:1046000034300BD8D4F8903084F834801BB1606912
:104610002146984710B92046FFF74CFBA146E468B5
:1046200000E03C46002C7FF4F5AE154E31680FE0FB
:104630002A680B6BD31AF02B0DD80C46C96807E01B
:10464000E36000E03360CF680220FEF7E7F8394608
:104650000029EDD116E008460391FEF779FC039995
:10466000CB68002CECD1EDE7403200202432002052
:104670002FA6000022A60000B84C0A00F824010072
:10468000BC34002005B0BDE8F08300BF038D10B539
:10469000CB189BB2B3F5006F038584BF4FF4006362
:1046A00003850446FDF7E0FCB0F5007F0ADB94F8D3
:1046B0002230204643F0020384F82230BDE8104047
:1046C000FFF7F8BA10BD00002DE9F74F6D4B044617
:1046D0001B786D4E13F0100F00F03B81236E326893
:1046E000B0F85C009342616E684D0BDB02D12B6821
:1046F000994207DB2B68994213D1654B1B68DB8914
:1047000083420ED9624B1B68DB8922662A68A4F8B3
:104710005C3062662BB194F8A03013B1002384F8AA
:10472000A0302B68E26C93422FDC0027A4F86C7059
:10473000584F3F882FBBB4F85CC0676E4118674480
:104740008F421ED1B4F9361000291ADB9A4218D1D3
:1047500094F850300133DBB2032B84F850300AD97F
:10476000B4F85220238FD3189BB2934240F2AD800D
:10477000A4F85230A9E040F0A8802046FDF77CFE66
:10478000A3E0002384F850309FE0511C8B4274DB7F
:10479000A16D8B4271DC94F8221011F0040F07D048
:1047A00021F0040184F82210B4F85410A4F8521037
:1047B000B4F94470B4F846009A1A00EBE700A4F884
:1047C0004800E364B4F86E00237C0021A4F86C2058
:1047D000032B024484F84A10A4F86E2084F8501089
:1047E0002BD9B4F85230B4F854209A4201D9228F10
:1047F00003E0228F524392FBF3F29A1892B29A424C
:104800001BD9A4F8522018E03B687868A367FDF72D
:1048100030FBB4F86C302BB118F0010F02D0013B23
:10482000A4F86C307868FDF724FBB4F870301B1ADC
:10483000A4F870303846FEF76DFBA76FB7B1D7F814
:104840001080D8F80400FDF79CFD8146B8F80C00F4
:10485000FDF7E3FCBB8900F00302002A18BF013317
:1048600099442B6880469945CEDD87E24FF0FF33AF
:10487000E386002384F8343027E00027A4F86C7026
:1048800023E000BFB85000202C3200204834002024
:1048900034330020763300203B6878686367FDF787
:1048A000E8FAB4F86C302BB119F0010F02D0013BDB
:1048B000A4F86C307868FDF7DCFAB4F870301B1A95
:1048C000A4F870303846FEF725FB676FCFB1D7F8F4
:1048D0001090D5F80080D9F80400FDF752FD82460B
:1048E000B9F80C00FDF799FCBB8900F00302002A1F
:1048F00018BF01339A44D045814602DBA36D984529
:10490000CADDE36B2BB3216C2A68914221DAA94AF4
:10491000B4F84410126808B2D21AA2EBE00292B2C4
:1049200093B2511813F4004FA4F8441001D053422D
:104930009BB2B4F8462009B210B2A2EBA002D31881
:104940009BB2A4F8463003EBE103A4F848300023FF
:10495000E363994B19889846636A002900F0F68151
:104960003268501C834225DB501E41188B4221DCEB
:10497000924F991A7D686B898B420ADA2A89521AFA
:1049800004E0C91A00232A816B812D686B898B4250
:10499000F7DB494209B22846FDF737FA6B68316800
:1049A000BA89BB60636A8A18D21ABA813A693360DD
:1049B00053600AE09A4208DA94F82230204643F025
:1049C000020384F82230FFF775F93368626A934274
:1049D000C0F2B681278D511EC9198B4200F3B081F8
:1049E0009A4240F03F81754DD5F81090B9F80CB05F
:1049F0005846FDF712FCAB8900F00302002A18BFED
:104A000001339BB2BB428246A8F800302FD910F088
:104A1000010F10D04FF6C070FDF7BDFB03460AF042
:104A20003E000193FDF7B7FB019B03EA0B0B40EA45
:104A30000B0BA9F80CB0AF81B9F80C00FDF7EDFB3A
:104A400010F0020F02D05D4B013F9F816868A98979
:104A5000FEF7A4FA2B699889FDF7DFFBAB8900F01C
:104A6000030000280CBF1846581CA8F80000E76F88
:104A7000002F7FD02B699889FDF7CFFB10F0010F35
:104A800004D143E00368E367FEF744FAE06F0028CF
:104A9000F8D16FE08089FDF7C0FB10F0010F2AD03C
:104AA000D5F81090B9F80CA05046FDF7B6FB10F001
:104AB000020F83461FD14FF6C070FDF76CFB034613
:104AC0000BF03E0040F001000193FDF764FB019BF9
:104AD00003EA0A0A40EA0A0080B2A9F80C00FDF7CE
:104AE0009CFB364B00F003009B8900280CBF184646
:104AF000581C314B1880D7F800903846FEF70AFA58
:104B0000B9F1000F01D14F4633E04F4638693168A3
:104B1000B8F800204368B7F80CE052189E4472457C
:104B2000B8DA27E1E36F1B69D3F804902B69C1EB76
:104B300009091FFA89F9A5F80C909889FDF76DFB12
:104B400010F0020F04D01D4B09F1FF39A3F80C90AF
:104B50006868A989FEF722FA2B699889FDF75DFB41
:104B6000AB8900F0030000280CBF1846581CA8F8B9
:104B70000000E767B8F80030326820469A18626291
:104B8000228DD31A2385FDF76FFA6B681A8922B13B
:104B90000B4A1360094B00225A602B699889FDF774
:104BA0003CFB10F0010F49D0064B1A7842F020026E
:104BB0001A7043E04032002076330020C801002004
:104BC000F00100207433002037609889FDF725FB41
:104BD00000F00300B5F80C80003818BF012000EB8E
:104BE0000803DF19238D6762C8EB0308C0EB0800D8
:104BF00020852046FDF738FA69680B8943B1624B7E
:104C0000186810B1FDF73EF900E0196000236B60F1
:104C10002B699889FDF701FB10F0010F09D05B4B60
:104C20001A7842F020021A70237C042B01D103333E
:104C300023742B682846E367FEF76CF9E56F25B10E
:104C40002B69626A5F689742BED094F8223013F0F5
:104C5000010F02D023F0010382E043F0010384F846
:104C600022308DE02046FEF7F1FFE56F25B9484878
:104C7000FDF746FEE06783E0464B00271B6801E036
:104C80002F46054629694A6893420BD14048AB89B3
:104C900082899A4274D9FDF733FE002870D04FB153
:104CA000386008E06FB9934229DA3948FDF728FEE9
:104CB000002865D0E067294603B0BDE8F04FFEF755
:104CC00093B9386940680130834218DB501E834233
:104CD00015DC2F48FDF714FE0446002850D03B6930
:104CE000BA895B683168D2188A4205DDC91A89B26F
:104CF000B9817868FEF752F93C602046DBE7286806
:104D00000028BDD193423BDD8889FDF786FA10F07B
:104D1000010F35D11E48FDF7F3FD286000282FD084
:104D20002B69AA895B683168D2188A4228DDC91AC2
:104D3000686889B2A98103B0BDE8F04FFEF72EB9CB
:104D4000204603B0BDE8F04FFEF780BF32689A42BC
:104D500004DB218D013B5B189A4211DD94F822306F
:104D600043F00203204684F8223003B0BDE8F04F40
:104D7000FEF7A0BF9A423FF7D5AEFAE6002377E5EB
:104D800003B0BDE8F08F00BFF001002074330020B5
:104D9000C80100202C3200202DE9F04F8BB0089183
:104DA00099469DF850109DF854300446069104939E
:104DB000924642B91BB919F0030F00F0AE81089971
:104DC000002940F0AA81B4F86E30534516D3049AF6
:104DD000B4F8707012F0010318BF042312F002023D
:104DE00018BF0C22D218A36E172F039207930CD969
:104DF0009B4BB3F884200132A3F8842094F822302E
:104E000063F07F0384F822308FE1039900268B083A
:104E100005331B030993DDF820B0CDF814A0B0468C
:104E200000E0A846238F04200193FDF72BFD019B92
:104E30000546002800F0608100220260426016B141
:104E4000C8F8000000E00646039A0699C2EB030882
:104E5000059B4345B8BF984611F001001FFA88F83A
:104E60001DD008EB0201002089B20246FEF706F9C8
:104E70006860002800F040810190FCF7FAFF089A72
:104E8000C719BFB2019B32B15868039B5946C0187D
:104E9000424602F04DFD6B685B68AB6024E003990D
:104EA0000246FEF7EBF86860002800F02581FCF769
:104EB000E0FF0599C719BFB2B1B1414603200122F5
:104EC000FEF7DCF8014630B968680291FDF779FE1B
:104ED0000299696010E1C0F804B00137C5F808B064
:104EE0006868BFB2FCF7CEFF182F00F20581A5F865
:104EF0000C8068681421FCF788FF0246002840F007
:104F00008E806B68208B5B68C3442B610292019397
:104F1000FDF741F9019B1880208C0193FDF73BF9C7
:104F2000019B588007980193FDF7ECF9019B5860AD
:104F3000029A4FF6C0709A74DA740193FDF72BF958
:104F4000024648460292FDF726F9019B029A99898A
:104F50000A4040EA02029A81049AAA73988901934E
:104F6000FDF75BF9099900F03F0041EA0000FDF709
:104F700012F9019B9881059AC8EB02039BB2059335
:104F8000079B05994344079300297FF44AAFD4F85F
:104F900074B0BBF1000F01D17CE09B46DBF8003020
:104FA000002BFAD1DBF81020BBF80C30908902926C
:104FB0000193FDF732F9019B00F0030110F00300AB
:104FC00018BF0120C018029A002865D0002963D1BB
:104FD00019F0030F02D0B9F1010F5DD1B089218F13
:104FE000C018884258DC9BF80E00B17B884253D130
:104FF00050680193FDF7C5F931690246486802928D
:10500000FDF7BFF9029A019BD318834244D1039A5A
:105010006FF013017068891AFCF7F7FE30B1104B7E
:10502000B3F88C200132A3F88C2065E070684389C6
:1050300033B90268013F72600360BFB2FDF7C1FD82
:1050400019F0010F0ED0DBF8103001200193FDF7AD
:10505000A2F8019B9A8940EA02029A8110E000BFFF
:1050600044320020DBF804007168FCF70BFFB289C2
:10507000BBF80C30D318ABF80C303368CBF80030E9
:10508000B54204BFBBF80C805D4631460420FDF7F5
:10509000C5FB03E0666701E0CBF8006019F0020F82
:1050A00009F0010300D11BB10AF1010A1FFA8AFAC3
:1050B0002BB194F8223043F0200384F82230A36E01
:1050C000A4F870705344A366B4F86E30CAEB030AB8
:1050D000A4F86EA055B3B8F1000F20D02C6904B32A
:1050E000069B13F002051ED10820FDF754F8A38992
:1050F00040EA0303A38119E094F8223063F07F03B0
:1051000084F822300B4BB3F884200132A3F88420BA
:105110005EB13046FDF70EFF07E0F62506E0454696
:1051200004E0254602E0002500E0FF2568B20BB050
:10513000BDE8F08F4432002073B5067C072E0CD8F2
:1051400090F910504FF06456AE4006D53AB1009336
:1051500000230193FFF720FE02E0F82000E0104654
:1051600040B27CBD07B50B460122002100920A46E1
:105170000191FFF711FE0EBD38B5037C0446072BE5
:105180002ED8DFE803F0041F252F2F2D2D36204ABF
:105190001368834201D1C3680CE01E4A136007E024
:1051A000D968A14203D11360E268DA6003E00B46DC
:1051B000002BF5D113600025E56002202146FDF7A4
:1051C0002DFB22E014482146FEF7A8FE032004E050
:1051D00012482146FEF7A2FE02202146FDF71EFBE3
:1051E000002512E00121FFF7BDFF054640B9052368
:1051F00005E00121FFF7B6FF054608B9092323742E
:105200001CB115B92046FEF755FD68B238BD00BF88
:1052100008020020EC010020E401002024320020DC
:1052200010B50846144632B11189FFF72FFA20460F
:10523000FDF7C7FC04E01BB9BDE81040FFF79CBFB9
:10524000002010BD38B5164B1C6825E0D4F880202E
:105250007AB1D4F8885025B1606921460023A84767
:1052600004E0284621462B46FFF7DAFF08B9C4F8C8
:10527000800094F8223013F0010F0CD043F00203A9
:1052800084F822302046FEF715FD94F8223023F0F2
:10529000030384F82230E468002CD7D138BD00BF66
:1052A0002432002010B5FFF7CDFF064A13780133F2
:1052B000DBB213F0010F137003D0BDE81040FFF70D
:1052C0009DB810BDB23400202DE9F04F9C4CD0F8B1
:1052D0000480B4F87A20DFF894B20132A4F87A207E
:1052E000CBF800808FB00546B8F800000491FCF7B9
:1052F00094FF000A00F00F094FEA8901DFF870A25D
:1053000008EB0107CAF8007028464942FCF77DFD0A
:105310002646049B20B9B5F808A0BAF1130F05D8AA
:10532000B6F882300133A6F882301AE008F1100096
:1053300019460790FDF71EFA70B94FF07040FDF75F
:1053400020F883464FF06040FDF71BF8D8F8103086
:105350000BEA030383420AD1B6F888300133A6F87A
:105360008830B6F87E300133A6F87E30EDE308F1E0
:105370000C01CDF800A02846079A06230891FDF7F6
:10538000A8F828B1B4F880300133A4F8803011E0D7
:10539000B889FCF742FF030BDBB26FF0030128462C
:1053A0005943FCF732FD844650B1B4F882300133E2
:1053B000A4F88230B4F87E300133A4F87E30C4E320
:1053C0003888CDF814C0FCF728FF28F829000346D8
:1053D00078880493FCF721FF788082467868FCF790
:1053E000D0FFDFF890917860C9F800008346B86874
:1053F000FCF7C7FF534CB86020600246F88906925C
:10540000FCF70BFFF881B889FCF707FF00F03F01BC
:105410000B904D48DFF82C9101702C8901F00300AE
:105420000C94002818BF0134A0B20990099C474889
:10543000069A0480464C40462468DDF814C00D945A
:10544000B846049B03921BE0278C9F4216D1278B02
:10545000574513D1C7686268BA420FD107692268FD
:10546000BA420BD14746BCF1000F11D0E36838486F
:10547000CCF80C300D9B0460E36009E0A446E468BE
:10548000002CE1D180463348039A006844464EE040
:1054900031490C9A314800238A816A6803708A6016
:1054A0000F61D4F880202E4F0B604D603B608B461F
:1054B000BA468046002A40F0E180F0E0078C9F4227
:1054C00034D1078B574531D1E768D0F804C0BC45CB
:1054D0002CD12769D0F800C0BC4527D111F0040FAA
:1054E00040F0338311F0020F0ED0416A8B4511DB7F
:1054F000048D61188B450DDC0193099BCDF800A04C
:10550000104603EB0B011CE311F0010F02D0154B09
:105510001B6803630D4C2388002B00F0168390F862
:10552000223043F0020380F822309EE0C068002859
:10553000C4D1A0460C4CD4F800904F469AE000BF6E
:105540004432002048340020B85000207633002038
:1055500024320020BC340020C80100207433002015
:10556000F001002040320020E4010020F80100207A
:10557000343300202C320020D7F800C0BCF1000FDB
:1055800003D0D8F81040A44572D13C8B54456FD15C
:1055900028B1FC68C4609748C7F80C90076011F008
:1055A000100F07D0501C099ACDF800A0019302EB10
:1055B0000B01C6E211F0020F00F0C782787CFEF703
:1055C0002BFD044628B9B6F884300133A6F88430A0
:1055D000BBE2894E89493368894E13F1100218BF26
:1055E0001A690260388B13F10C02208314BFDB6848
:1055F000134663600B6804F1380059781A7842EA60
:10560000012222840322227432680026511C616226
:10561000E162DB89013AA4F85C30A4F854307B697C
:1056200022666361FB69E3613B89764F23F0660381
:10563000DB05DB0D23813B683C60E360FCF7F0FD9C
:10564000211D208FFCF7E6FF0123208731460193BF
:105650002046324611330096FFF79EFB20B12046CC
:105660003146FEF78DFC70E22046FEF723FB6CE22C
:105670003846FF68002F7FF47FAF79E2D4F8887056
:105680001FB160692146B84704E0384621463B46D1
:10569000FFF7C6FD00287FF464AEC4F880005A48C6
:1056A0005A4D06782C6016F0040F15D0237C022B7F
:1056B00006D1D9F80020A36D9A4240F0BC814AE29D
:1056C0004F49626A0B689342C0F2B581218D8A18F6
:1056D000934240F34082AEE116F0020704D0237CEF
:1056E000023BDBB2012B68D8494B04F138001B6840
:1056F0002363002384F8A130FCF792FD237C023B56
:10570000072B00F29881DFE813F008008700D6002D
:10571000EA003201D6005701830106F01203122B72
:1057200055D1A36FD9F800701B695868FCF729FEA2
:10573000013087424BD1B4F86E30314E0133A4F8BA
:105740006E303368E7642D4F5A1C6262E2623A6839
:10575000013B917BD27B236641EA0222042323741E
:10576000E118A4F85C20208FFCF754FF0A23434380
:10577000A4F85430B4F852302087012B01D14000F6
:1057800080B2B4F87030A4F85200A06F013BA4F8C6
:1057900070300368A3671BB94FF0FF31E18603E067
:1057A0000023E38684F84A30FDF7B4FBD4F88C304C
:1057B0001BB1606921460022984794F822302046A8
:1057C00043F0020384F82230FEF774FA33E116F056
:1057D000100F00F03081094E074A3068084E1368F8
:1057E0000C4F326846883988009600880190D9F8B5
:1057F00000004BE0E4010020F801002034330020D9
:105800002C32002024320020B8500020AC3400207C
:10581000403200207633002016F0100F3DD0E36CAC
:10582000D9F800000133984224DBA36D984221DCB3
:1058300004232374E3694BB1606921460022984731
:1058400020B120460121FEF79BFB5EE12046B4F823
:105850005260FEF739FFB4F86C3013B1013BA4F885
:105860006C30012E02D1238F5B0000E0238FA4F85F
:10587000523023E0974F98493B680E68974A984FFB
:1058800011883A687788009736880196891803F15D
:1058900010020C33FEF770F9CDE0002F00F0CB8042
:1058A0008F48636A0268013B9A4240F0C4802046F8
:1058B000FCF7BEFDBFE02046FEF706FF98F800307B
:1058C00013F0200F00F0B78094F82230204643F008
:1058D000020384F82230FEF7EDF9072339E0204671
:1058E000FEF7F2FE98F8003013F0200F33D07D4918
:1058F0000B7813F0100F22D0D9F80020A36D9A4234
:105900001DD194F82230204643F0020384F822305F
:10591000FEF7D0F92046FDF71BFB734A1368A3423C
:1059200003D1E268704B1A606BE0704A136003E0C9
:10593000D968A1425DD00B46002BF9D160E094F804
:105940002230204643F0020384F82230FEF7B2F9F9
:10595000082323746FE0634E337813F0100F6AD07E
:10596000D9F80020A36D9A4265D10623F1E72046BD
:10597000FEF7AAFE98F8003013F0200F5BD094F8E1
:105980002230204643F0020384F82230564FFEF7BF
:1059900091F92046FDF7DCFA3B68A34202D1E268A8
:1059A0003A602EE0514A136003E0D968A14220D04A
:1059B0000B46002BF9D123E02046FEF785FE49482F
:1059C000037813F0100F36D0D9F80020A36D9A4257
:1059D00031D12046FDF7BCFA43490B68A34202D1FE
:1059E000E2680A600DE0414A136007E0D968A1420D
:1059F00003D11360E268DA6003E00B46002BF5D1B7
:105A000013600A2323743A4B1A681C60E26012E0A8
:105A10002046FEF759FE334A137813F0100F0AD0D0
:105A2000D9F80020A36D9A4205D198F8003043F0D0
:105A3000100388F8003098F8003013F0080F07D0F2
:105A4000D4F894303BB160696FF00501984702E0EB
:105A500013F0100F08D021462348FEF75FFA02200A
:105A60002146FCF7DBFE50E0B4F86C202AB1D4F8F4
:105A7000843013B1606921469847DAF80020D2B12A
:105A8000184E337813F0080F03D0537B43F0010313
:105A90005373D4F8886026B1606921460023B0476B
:105AA00004E0304621463346FFF7BAFB18B1DAF876
:105AB0000030C4F8803098F8003013F0200F1FD069
:105AC000D4F88860B6B10022606921461346B04719
:105AD00016E000BFF80100203433002076330020A8
