:100000000C942A000C9447000C9447000C94470071
:100010000C9447000C9447000C9447000C94470044
:100020000C9486060C9447000C9447000C94DB0A51
:100030000C94050B0C9447000C9447000C9447005B
:100040000C9447000C9447000C9447000C94470014
:100050000C94470011241FBECFE5D4E0DEBFCDBF16
:1000600011E0A0E6B0E0E4E1F7E102C005900D92F6
:10007000AC37B107D9F712E0ACE7B1E001C01D928F
:10008000A535B107E1F70E9438090C94880B0C9450
:100090000000FB01DC018D91019080190110D9F362
:1000A000990B0895DF92EF92FF920F931F937B01BC
:1000B0008C01FB010995D82EC8010196F70109951D
:1000C000982F8D2D1F910F91FF90EF90DF90089545
:1000D000FB019F01E8944230C4F04532B4F44A3049
:1000E00029F497FB1EF4909581959F4F642F7727F5
:1000F0000E942A0B805D8A330CF0895D8193CB01CD
:100100000097A1F716F45DE251931082C9010C9497
:10011000A002AEE0B0E0EFE8F0E00C945F0B0D89D8
:100120001E8986E08C831A8309838FEF9FE79E8365
:100130008D839E01275E3F4FCE0101966F89788D9A
:10014000A9010E94AD002F813885020F131FF8010D
:1001500010822E96E4E00C947B0BABE0B0E0E3EB76
:10016000F0E00C94510B3C012B015A01FC01178269
:100170001682838181FD03C06FEF7FEFC6C19AE0D5
:10018000892E1E010894211C311CF3012381F201E8
:1001900023FD859123FF81912F01882309F4B2C1AA
:1001A000853239F423FD859123FF81912F0185321A
:1001B00029F490E0B3010E94B002E7CF982FFF240A
:1001C000EE249924FFE1FF15D0F09B3269F09C32B8
:1001D00028F4903259F0933291F40EC09D3249F0D8
:1001E000903369F441E024C052E0F52A84E0F82A13
:1001F00028C098E0F92A25C0E0E1FE2A22C0F7FCD9
:1002000029C0892F80538A3070F4F6FE05C0989C6F
:10021000902C1124980E15C0E89CE02C1124E80EB7
:10022000F0E2FF2A0EC09E3229F4F6FC6BC140E4D6
:10023000F42A07C09C3619F450E8F52A02C0983613
:1002400049F4F20123FD959123FF91912F01992308
:1002500009F0B8CF892F8554833018F0805283304D
:1002600038F444E050E0A40EB51E5FE359830FC09C
:10027000933631F0933779F0933509F056C020C0AA
:10028000F5018081898342E050E0A40EB51E610132
:1002900001E010E012C0F501C080D180F6FC03C07F
:1002A0006FEF7FEF02C0692D70E042E050E0A40ED6
:1002B000B51EC6010E9495028C015FE7F52214C0AD
:1002C000F501C080D180F6FC03C06FEF7FEF02C064
:1002D000692D70E042E050E0A40EB51EC6010E94F8
:1002E0008A028C0150E8F52AF3FE07C01AC080E2AA
:1002F00090E0B3010E94B002EA948E2D90E00817BE
:100300001907A8F30EC0F601F7FC8591F7FE81915D
:100310006F0190E0B3010E94B002E110EA94015035
:1003200010400115110579F7EAC0943611F099369D
:1003300069F5F7FE08C0F5012081318142815381C2
:1003400084E090E00AC0F501808191819C014427FE
:1003500037FD4095542F82E090E0A80EB91E9FE62D
:10036000F92257FF09C050954095309521953F4F90
:100370004F4F5F4FE0E8FE2ACA01B901A1012AE010
:1003800030E00E94DC02D82ED21840C0953729F404
:100390001F2D1F7E2AE030E01DC01F2D197F9F36C4
:1003A00061F0903720F4983509F0ACC00FC0903759
:1003B00039F0983709F0A6C004C028E030E00AC040
:1003C000106114FD146020E130E004C014FD1660DB
:1003D00020E132E017FF08C0F50160817181828160
:1003E000938144E050E008C0F50180819181BC0117
:1003F00080E090E042E050E0A40EB51EA1010E9412
:10040000DC02D82ED2188FE7F82EF122F6FE0BC0B0
:100410005EEFF522D91438F4F4FE07C0F2FC05C0F3
:100420008FEEF82202C01D2D01C0192DF4FE0DC063
:10043000FE01ED0DF11D8081803319F499EEF92252
:1004400008C01F5FF2FE05C003C08F2D867809F03B
:100450001F5F0F2DF3FC14C0F0FE0FC01E1510F02F
:100460009D2C0BC09D2C9E0C911A1E2D06C080E267
:1004700090E0B3010E94B0021F5F1E15C0F304C0DC
:100480001E1510F4E11A01C0EE2404FF0FC080E332
:1004900090E0B3010E94B00202FF1DC001FD03C045
:1004A00088E790E00EC088E590E00BC0802F86784A
:1004B00091F001FF02C08BE201C080E2F7FC8DE207
:1004C00090E0B3010E94B00206C080E390E0B30167
:1004D0000E94B0029A94D914C0F3DA94F101ED0DA0
:1004E000F11D808190E0B3010E94B002DD20A9F7E8
:1004F00006C080E290E0B3010E94B002EA94EE20D0
:10050000C1F743CEF30166817781CB012B96E2E1FF
:100510000C946D0BFC010590615070400110D8F7F0
:10052000809590958E0F9F1F0895FC01615070403B
:1005300001900110D8F7809590958E0F9F1F089518
:10054000DC01FC01672F71917723E1F7329704C03A
:100550007C916D9370836291AE17BF07C8F30895C5
:100560000F931F93CF93DF938C01EB018B8181FF5E
:100570001BC082FF0DC02E813F818C819D81281779
:10058000390764F4E881F9810193F983E88306C0AF
:10059000E885F985802F0995892B31F48E819F811B
:1005A00001969F838E8302C00FEF1FEFC801DF917A
:1005B000CF911F910F910895FA01AA27283051F188
:1005C000203181F1E8946F936E7F6E5F7F4F8F4F84
:1005D0009F4FAF4FB1E03ED0B4E03CD0670F781FE3
:1005E000891F9A1FA11D680F791F8A1F911DA11DC8
:1005F0006A0F711D811D911DA11D20D009F4689401
:100600003F912AE0269F11243019305D3193DEF6A8
:10061000CF010895462F4770405D4193B3E00FD05E
:10062000C9F7F6CF462F4F70405D4A3318F0495D49
:1006300031FD4052419302D0A9F7EACFB4E0A6952C
:100640009795879577956795BA95C9F7009761054E
:10065000710508959B01AC010A2E069457954795A4
:1006600037952795BA95C9F7620F731F841F951F99
:10067000A01D0895DC0120E040E050E098E115C0A5
:10068000FD01E40FF51FE08138E08E2F8227F82F5F
:10069000F17080FD29272695F13009F4206831504A
:1006A00011F0E695F2CF4F5F5F4F4617570741F7BE
:1006B000822F0895DC01CB0181159105A105B105BB
:1006C00029F081509040A040B040D9F70895FF92A2
:1006D0000F931F93CF93DF93F82EFB01DA01E9010B
:1006E0008081482F50E0918180E0482B592B80E198
:1006F000F81671F4CA018E7F33E0880F991F3A957E
:10070000E1F726814CE050E0421B5109480F591F88
:1007100057FF06C081E08C93509541955F4F01C013
:100720001C9288E2F81691F48481682F70E0CB0166
:10073000807690708036910549F066FF02C04E7F4A
:1007400005C065FF02C04C7F01C0487FCA0124E09C
:10075000969587952A95E1F78883842F8F70F80105
:10076000808380E0CDB7DEB7E5E00C947A0BA8E09B
:10077000B0E0EDEBF3E00C945F0B082F162FDE01D9
:100780001196E4EFF0E088E001900D928150E1F7DE
:10079000242F30E081E792E0BC01269FC001279F13
:1007A000900D369F900D112468EE73E00E943E0B71
:1007B000CB012AE0129FB0011124680F791F00239A
:1007C00079F4FE0131969E01275F3F4F80814817E3
:1007D00019F46F5F7F4F04C03196E217F307B1F74A
:1007E000CB012896E4E00C947B0BA9E0B0E0EBEFA2
:1007F000F3E00C94550B6C015B014A0139010E9436
:10080000C1098EEBB6010E94BC0A8E010F5F1F4F1B
:100810005AE0E52EF12CEC0EFD1E0E94700AF80144
:1008200081938F01EE15FF05C1F77E010894E11C4D
:10083000F11CC70169E070E00E943A03882311F0BF
:1008400083E009C0F6018081B701A501940183010D
:100850000E94670380E02996EEE00C94710B1F93D1
:10086000CF93DF93182FEB010E94C1090E94A509C5
:10087000882311F482E009C084E4BE010E94BC0A0E
:10088000113011F00E94AE0980E0DF91CF911F91ED
:1008900008950F931F93CF93DF938C01EB01F80121
:1008A0008081BE010E94740AF801808381508D3FCF
:1008B00028F48881883211F0803189F7DF91CF9157
:1008C0001F910F910895892B11F0979A0895979889
:1008D0000895969820E030E087FF02C0959A01C005
:1008E0009598969A96982F5F3F4F2830310511F0D2
:1008F000880FF2CF0895BF92CF92DF92EF92FF92CE
:100900000F931F93D82EC62EB42E80E09DE701973B
:10091000F1F780E30E9469049598949A04E813E043
:10092000C8010197F1F7949880E197E20197F1F7F8
:1009300080E30E9469049598949AC8010197F1F7A1
:10094000949880EFE82EF12CC7010197F1F780E32E
:100950000E9469049598949AC8010197F1F79498B8
:10096000C7010197F1F78D2D0E9469049598949A1B
:10097000C8010197F1F7949888E00E94690495985E
:10098000949AC8010197F1F7949881E00E94690454
:100990009598949AC8010197F1F7949880EA9FE09E
:1009A0000197F1F78C2D0E9469049598949AC801DB
:1009B0000197F1F794988B2D0E9469049598949A69
:1009C000C8010197F1F794981F910F91FF90EF9054
:1009D000DF90CF90BF90089587FF06C08058E82F22
:1009E000F0E0E450FF4F80810E946904959A949A48
:1009F00084E893E00197F1F7949808950E946904C0
:100A0000959A949A84E893E00197F1F79498089561
:100A1000CF93DF93EC0103C00E94EC042196888100
:100A20008823D1F7DF91CF91089581E00E94690476
:100A30009598949A84E893E00197F1F79498089533
:100A400082E00E9469049598949A84E893E0019763
:100A5000F1F79498089580EC0E9469049598949A0F
:100A600084E893E00197F1F7949808959C01E19947
:100A7000FECF3FBB2EBBE09A8DB30895282F86B3DF
:100A800090E0022E02C0959587950A94E2F780FDCA
:100A90003CC080E395E70197F1F786B390E0022E22
:100AA00002C0959587950A94E2F780FD2EC080914B
:100AB0008E01882351F088EE93E028EC30E0F901B4
:100AC0003197F1F70197D9F71EC041E050E002C01D
:100AD000440F551F2A95E2F720E030E060E27EE403
:100AE00086B390E084239523892B11F081E008954B
:100AF000CB010197F1F72F5F3F4F2A3F310581F777
:100B000081E080938E0182E0089510928E0180E052
:100B100008950F931F93CF93DF9300918601109157
:100B20008701C8016AE070E00E942A0BEB0180E0B7
:100B300090E066E375E00E9452009C01C817D90757
:100B400018F0C535D105F4F08091840190918501AC
:100B50006AE070E00E942A0B6217730718F065358F
:100B6000710584F080918801909189016AE070E0BC
:100B70000E942A0B6217730708F4B7C06535710528
:100B80000CF0B3C081E090E090937D0180937C01F4
:100B900080E090E066E375E00E945200C817D90734
:100BA00048F1C535D10534F581E080938B018DB7CF
:100BB0009EB708978DBFEDB7FEB7319684ED91E0F3
:100BC000ADB7BEB712969C938E93119780E690E0D6
:100BD00093838283D583C483C8016AE070E00E9456
:100BE0002A0B978386830E9489008DB79EB708964B
:100BF0008DBF02C010928B0100918401109185017C
:100C0000C8016AE070E00E942A0BEB0180E090E0EE
:100C100066E375E00E945200C817D90738F1C53560
:100C2000D10524F581E080938A01ADB7BEB718974E
:100C3000ADBFEDB7FEB7319684ED91E012969C936F
:100C40008E93119782E790E093838283D583C48348
:100C5000C8016AE070E00E942A0B978386830E9495
:100C600089008DB79EB708968DBF02C010928A0189
:100C70000091880110918901C8016AE070E00E942A
:100C80002A0BEB0180E090E066E375E00E945200E1
:100C9000C817D90738F1C535D10524F581E080930F
:100CA0008C01ADB7BEB71897ADBFEDB7FEB73196A3
:100CB00084ED91E012969C938E93119784E890E0D6
:100CC00093838283D583C483C8016AE070E00E9465
:100CD0002A0B978386830E9489008DB79EB708965A
:100CE0008DBF0FC010928C010CC010927D0110922C
:100CF0007C01109281011092800110928301109268
:100D00008201DF91CF911F910F9108951F920F9251
:100D10000FB60F9211242F933F934F935F936F93CE
:100D20007F938F939F93AF93BF93EF93FF9380EE47
:100D30009FEF9DBD8CBD0E94890580917C019091A3
:100D40007D01019711F4AD9A01C0AD9880917E01AB
:100D500090917F0120917C0130917D01019721F4D8
:100D6000232B11F4AD9A07C080917C0190917D01F5
:100D7000892B09F4AD9880917C0190917D0120919F
:100D8000800130918101019721F4232B11F4AE9A57
:100D900001C0AE98FF91EF91BF91AF919F918F915C
:100DA0007F916F915F914F913F912F910F900FBE67
:100DB0000F901F90189580E390E062E370E041E3AC
:100DC00050E022E00E94050A789480EF81BB81E028
:100DD00090E00E94630488E366E04CE00E947B049C
:100DE0000895CF92DF92EF92FF920F931F930E948C
:100DF000150580E197E20197F1F70E94200586E949
:100E000090E00E94080520918401309185018DB702
:100E10009EB708978DBFEDB7FEB7319605EF11E08D
:100E2000ADB7BEB712961C930E93119791EAC92ED7
:100E300090E0D92ED382C282C9016AE070E00E949C
:100E40002A0B75836483C9016AE070E00E942A0B53
:100E5000978386830E9489008DB79EB708968DBFC1
:100E6000C8010E9408058FED0E94FE0487EAE82E63
:100E700080E0F82EC7010E9408050E942B0589EA30
:100E800090E00E9408052091860130918701ADB75E
:100E9000BEB71897ADBFEDB7FEB7319612961C934B
:100EA0000E931197D382C282C9016AE070E00E945A
:100EB0002A0B75836483C9016AE070E00E942A0BE3
:100EC000978386830E9489008DB79EB708968DBF51
:100ED000C8010E9408058FED0E94FE04C7010E9410
:100EE00008051F910F91FF90EF90DF90CF9008952C
:100EF000A1E1B0E0EEE7F7E00C945E0B082FF62ED0
:100F0000142F242F30E081E792E0AC01249FC00130
:100F1000259F900D349F900D1124BE016F5F7F4F70
:100F20004AE050E00E946800802F6F2D412F0E9400
:100F3000B7036196E5E00C947A0BA9E0B0E0E3EA30
:100F4000F7E00C94580B8FEF898300E010E042E04B
:100F5000E42EF12CEC0EFD1E5E010894A11CB11CC8
:100F60003AE0C32ED12CCC0EDD1E55C0C501B70111
:100F70000E94490489818F3FE1F40E94150580E1B8
:100F800097E20197F1F70E942B0584EB90E00E9415
:100F9000080581E090E090937F0180937E0188E9CD
:100FA0009AE328EC30E0F9013197F1F70197D9F78E
:100FB0003AC08E3FE1F40E94150580E197E2019767
:100FC000F1F70E942B0585EC90E00E94080581E076
:100FD00090E090937F0180937E0188E99AE328EC6A
:100FE00030E0F9013197F1F70197D9F71CC0D7012B
:100FF000F80123E0EE0FFF1F2A95E1F7EA5DFD4FB0
:101000008D918193AC15BD05D9F710927F01109297
:101010007E010F5F1F4F902E8981882321F00530BC
:10102000110509F0A3CF892D2996EBE00C94740BE0
:10103000AF92BF92CF92DF92EF92FF921F93DF9316
:10104000CF93CDB7DEB7C350CDBF0E949D0780932D
:101050008D0181E060E070E00E942F04882309F098
:101060004CC066E471E48FE090E00E945A0310E007
:1010700072E0A72EB12CAC0EBD1E63E0C62ED12CA3
:10108000CC0EDD1E7E010894E11CF11C32C0812FC4
:1010900090E053E0880F991F5A95E1F78A5D9D4FC4
:1010A000B701A50196010E94F503882309F51123D4
:1010B00051F489816A814B810E9478079093850160
:1010C0008093840115C0113051F489816A814B816C
:1010D0000E947807909387018093860109C08981D7
:1010E0006A814B810E9478079093890180938801DF
:1010F0001F5F80918D01181750F22396CDBFCF91BD
:10110000DF911F91FF90EF90DF90CF90BF90AF9055
:101110000895A4E0B0E0EFE8F8E00C94510B0E94D1
:101120009D0780938D0110E056E1852E52E0952EAB
:1011300096C000E0812F90E043E0880F991F4A9508
:10114000E1F78A5D9D4F9C838B8301969A83898307
:1011500032E0232E312CAB81BC812A0E3B1E23E0D2
:10116000422E512C4A0E5B1E94E0692E712C6A0EA1
:101170007B1E85E0A82EB12CAA0EBB1EF6E0CF2E5A
:10118000D12CCA0EDB1EE7E0EE2EF12CEA0EFB1E80
:10119000EDB7FEB77497EDBF3196ADB7BEB71296F7
:1011A0009C928E92119780ED90E093838283AB8125
:1011B000BC818C9184831582A981BA818C918683AC
:1011C0001782D1018C9180871186D2018C91828700
:1011D0001386D3018C9184871586D5018C918687DF
:1011E0001786D6018C91808B118AD7018C91828BC6
:1011F000138A0E9489000F5FEDB7FEB77496EDBFAA
:10120000083031F682E090E066E375E00E9452001B
:10121000BC01C4010E944900009719F01093F1002D
:101220001DC082E190E066E375E00E945200BC01BF
:10123000C4010E944900009719F01093F2000EC0FB
:1012400082E290E066E375E00E945200BC01C401B6
:101250000E944900009711F01093F3001F5F8091E6
:101260008D01181708F465CF2496E2E10C946D0BFC
:101270000F931F93CF93DF938FEF84BB8ABB88EFCD
:1012800087BB82BB0E94DB06F89484E089BF80EEB6
:101290009FEF9DBD8CBD1FBC8EB585608EBD7894C3
:1012A00008EC10E0C0E1D7E20E949D0780938D0119
:1012B0000E94890880918D018823B1F30E9418084B
:1012C00080E49FE1F8013197F1F70197D9F7809118
:1012D0007C0190917D01019761F40E941505CE017A
:1012E0000197F1F70E942B0584ED91E00E9408051B
:1012F00002C00E94F10680E090E00E943E0582302C
:1013000059F481E090E09093810180938001909363
:10131000830180938201C8CF81E090E00E943E0566
:10132000209182013091830190E040E050E0232B36
:1013300011F441E050E084239523892B09F4B4CFC4
:101340001092810110928001AFCFE0915102F09193
:10135000520280819091500289230895E0914E02BB
:10136000F0914F02808190915002892B8083E0910F
:101370005302F0915402808190915002892B808316
:101380000895E0914E02F0914F02908180915002B9
:10139000809589238083E0915302F09154028081EB
:1013A00090915002892B80838FEB93E081159105FA
:1013B00011F00197F1F72FB7F894E0915302F091F3
:1013C000540290818091500280958923808383E824
:1013D00090E08115910511F00197F1F7E09151022C
:1013E000F09152024081309150022FBF8BE393E085
:1013F0008115910511F00197F1F78081832311F494
:1014000081E00895842F83230895509354024093DC
:10141000530270934F0260934E0290935202809356
:10142000510281E090E002C0880F991F2A95E2F7EF
:10143000809350020E94C1090895382F4FB7F89445
:10144000E0915302F0915402808190915002892BD7
:10145000808381E090E08115910511F00197F1F70B
:10146000332351F0E0915302F09154029081809126
:10147000500280958923808389E190E08115910550
:1014800011F00197F1F7E0915102F0915202808141
:1014900020915002822309F430E089E590E0811523
:1014A000910511F00197F1F7E0915302F091540288
:1014B00080812095282320834FBF832F08950F9389
:1014C0001F93182F08E0812F81700E941D0A169526
:1014D000811110680150B9F7812F1F910F91089564
:1014E0008FEF0E945F0A0895A0E0B0E0EAE7FAE01B
:1014F0000C945C0BE82EEB010E94C1098823A1F536
:1015000080EF0E945F0A80E4FF24182F98EFD92E05
:10151000D80E81E00E941D0A082F81E00E941D0A5A
:10152000882329F0002371F08EEFF82E1FC00023CE
:1015300049F41E1528F0888180FF04C0E11611F0DF
:10154000F12E01E0802F0E941D0A888186958883F4
:10155000002311F08068888311501D15D1F61123E6
:1015600029F02196812FD1CFFF24FA948F2DCDB76A
:10157000DEB7E7E00C94780B0F931F93CF93DF93C4
:10158000082FEB010E94C109209751F085E50E94C8
:101590005F0A18E089910E945F0A1150D9F703C0D1
:1015A0008CEC0E945F0A802F0E945F0ADF91CF912E
:1015B0001F910F9108951F920F920FB60F92112451
:1015C0002F938F939F93EF93FF939BB12CB1E09157
:1015D000D101EF5FEF718091D201E81711F482E041
:1015E00008C0892F8871E093D101F0E0E155FE4FEA
:1015F00020838093D301FF91EF919F918F912F9141
:101600000F900FBE0F901F9018951F920F920FB65C
:101610000F9211248F939F93EF93FF939091CF019B
:101620008091D001981761F0E091D001EF5FEF71E8
:10163000E093D001F0E0E157FE4F80818CB901C00A
:101640005598FF91EF919F918F910F900FBE0F9042
:101650001F901895AA1BBB1B51E107C0AA1FBB1FF7
:10166000A617B70710F0A61BB70B881F991F5A952E
:10167000A9F780959095BC01CD01089597FB092E9F
:1016800007260AD077FD04D0E5DF06D000201AF443
:10169000709561957F4F0895F6F7909581959F4FCE
:1016A00008952F923F924F925F926F927F928F9206
:1016B0009F92AF92BF92CF92DF92EF92FF920F93E1
:1016C0001F93CF93DF93CDB7DEB7CA1BDB0B0FB6EB
:1016D000F894DEBF0FBECDBF09942A8839884888A8
:1016E0005F846E847D848C849B84AA84B984C8843E
:1016F000DF80EE80FD800C811B81AA81B981CE0F35
:10170000D11D0FB6F894DEBF0FBECDBFED01089519
:04171000F894FFCF7B
:10171400CAE0E12E343232202D2025642E256420A7
:101724004300CAE0E12E343138202D2025642E25D3
:1017340064204300CAE0E12E323235202D20256496
:101744002E2564204300CAE0E12E203431383A20AB
:101754000025642E2564004300CAE0E12E203432C3
:10176400323A200053656E732E206E6F7420666FBC
:10177400756E642100427573204572726F72210088
:1017840025303258253032582530325825303258D9
:1017940025303258253032582530325825303258C9
:1017A4000063636301030406090B0C0EC8C9CACBAA
:1017B400CCCDCECFD0D1D2D3D4D5D6D7D8D9DADBED
:1017C400DCDDDEDFE7E8E9EAEBECEDEEEFF0F1F289
:1017D400F3F4F5F6A2F7F8F9FAFBFCFDFEFFE7E8EF
:1017E400E9EAEBECB5EEEFF0F1F2FDFF41A042A126
:1017F400E045A3A4A5A64BA74D484FA8504354A920
:10180400AA58E1ABACE2ADAE62AFB0B161B2B3B471
:10181400E365B6B7B8B9BABBBCBD6FBE7063BF7978
:0C182400E478E5C0C1E6C2C3C4C5C6C775
:00000001FF
