:020000042000DA
:1000000004810020F1000020C1030020C303002070
:10001000C5030020C5030020C50300200000000028
:10002000000000000000000000000000C5030020E8
:10003000C503002000000000C5030020C503002008
:10004000C5030020C5030020C5030020C503002010
:10005000C503002055010020C5030020C503002072
:10006000C5030020C5030020C5030020C5030020F0
:10007000C5030020C5030020C5030020C5030020E0
:10008000C5030020C5030020C5030020A1010020F6
:10009000C5030020C5030020C5030020C5030020C0
:1000A000C5030020C5030020C5030020C5030020B0
:1000B000C5030020C5030020C5030020C5030020A0
:1000C000C5030020C5030020C5030020C503002090
:1000D000C5030020C5030020C5030020C503002080
:1000E000C5030020C5030020C5030020C503002070
:1000F000124885461248134908600D4A0D4B0E49B7
:100100008B4204D252F8040F43F8040BF8E70E4870
:100110000E494FF000028842B8BF40F8042BFFF6AA
:10012000FAAF4FF000004FF00001094A9047FEE798
:100130001016002000800020008000200000012018
:100140000000002008ED00E0008000200981002070
:1001500021020020012108B5094801F0B1F801464B
:10016000074801F0B2F8064801F08DF838B10448AC
:1001700001F08FF8C1B2024801F092F8F3E708BD30
:1001800000C0004038B504464518AC4205D014F80C
:10019000011B024801F084F8F7E738BD00C00040B9
:1001A00010B5064C0121064801F02DF821880548BC
:1001B00000F05AF90023238010BD00BF008000200A
:1001C00000000340D612002010B5114C114800F079
:1001D00025FE2046FF2100F0E5FF20460E4900F0F5
:1001E000EAFF2046C822FF2100F0F7FF0B4A204615
:1001F000FF2100F0FBFF0121204601F000F8232041
:1002000000F068FD2046BDE81040FF2100F0C2BFAD
:1002100000000340010010102200000400B4C404D8
:1002200030B55B488FB000F023FE5A4800F0F6FD71
:10023000594800F0F3FD594800F0F0FDA02158485E
:1002400000F004FD574800F0E9FD40F6010000F021
:1002500019FD40F6014000F015FD41F2010000F0EB
:1002600011FD41F2014000F00DFD3C214FF0402016
:1002700000F006FD00F0A4FE4B4B08248DE81800AA
:1002800000231A460146494800F054FD474800F053
:1002900075FD00F019FD03214FF0402000F0EEFC49
:1002A00000F08EFE60234FF4E1320146404800F03A
:1002B000C5FF152000F00EFD50213D4800F0FCFF69
:1002C000002000F0A9F80C213A48FFF75BFF0C2151
:1002D0003848FFF757FF03A9344800F05FFD044694
:1002E0000028F8D100F0B4F90A21204600F0A6F960
:1002F00001222146304800F047FB00F063FA00F08D
:10030000A7F91FA1D1E9000100F086FA1EA3D3E9E5
:100310000023012000F094FA2021122000F08EF931
:10032000204600F091F940F00101C9B2204600F0EA
:1003300085F91D2000F088F9800701D500F0EAF961
:1003400000F0F0F900F042FBFFF73EFF1B4C1720D6
:1003500000F000FC8107FAD5072000F0FBFB420605
:10036000054605D506A800F0B4F92388013323809B
:10037000AB07ECD5FF21E22000F060F9E7E700BF12
:1003800071CDCDABAB0000007C68524D5400000035
:10039000803B8007010000100100002004000020C5
:1003A000006000401000001000093D000080004087
:1003B00000C00040E1120020EF1200200080002069
:1003C000FEE7FEE7FEE70000104B2DE9F04153F891
:1003D0002050064628468846174600F0E9FC90B1B2
:1003E0000B4B0C4C53F826302846236000F016FDCA
:1003F000206842463946602300F020FF2068BDE8AF
:10040000F04100F002BFBDE8F08100BFF81200200B
:10041000241300200481002010B5044600F0D0FD14
:100420004FF4E13102462046BDE81040FFF7CCBF53
:100430002DE9F0410D4604460A4E4718BC420ED045
:100440002378A0460A2B03D10D21306800F02FFF3E
:1004500098F800103068013400F029FFEEE72846D4
:10046000BDE8F081048100200FB42DE9F04387B08E
:100470000EAB53F8045B674E01932B78002B00F012
:10048000C3802B46591B1C4613F8012B252A07D184
:100490002846FFF7CDFF2378252B04D02546ECE72F
:1004A000002AEFD1F4E7601C4FF0200E00240A224E
:1004B000054615F8013B642B2BD014D8392B05D8F1
:1004C000302B1CD2252B00F0988098E0582B49D077
:1004D000632B40F09480019B06A81A1D1B680192B3
:1004E00040F8183D89E0732B1ED003D8692B10D03B
:1004F000702B02E0752B2ED0782B33D07FE002D109
:10050000002C08BF9E4602FB04332846A3F13004AA
:10051000CEE7019B1A1D1B680192002B1FDA5B427C
:10052000009301210A2224E0019B18681A1D03464A
:1005300001921F1A13F8012B002AFAD13946FFF74E
:1005400077FFBC4299D9E41B01213348FFF770FFC4
:10055000013CF9D191E7019B1A1D1B6801920093A0
:100560000021DFE7019B00211A1D1B680192009307
:100570001022DDF80080012702FB07F3434502D972
:1005800041B90B4613E0B3FBF2F08742F8D1013CCE
:100590001F46F1E7BEF1300F04BF2D238DF8083060
:1005A00004F1FF3407BF0021012301210023A01E15
:1005B0000D2802A80BD803F1FF3C04F1FF39844455
:1005C000B9F101090CF801EFFAD12344013B29B13B
:1005D00006A919442D2401F8104C01330344191ABB
:1005E0007FB1B8FBF7F4B4FBF2F102FB1141895D76
:1005F000B7FBF2F703F8011BF1E7012101E007481F
:100600000521FFF715FF38E707B0BDE8F04304B058
:10061000704700BF0A130020081300201B1300209E
:1006200010B5044600F0CCFC034BB0FBF3F0604384
:10063000BDE8104000F018BC808D5B0000F01F008A
:1006400040F0200000F078BA00F01F0000F082BAFD
:1006500008B5002000F07EFABDE8084000F0FE0179
:100660000020FFF7EBBFF8B504460E46174600F032
:100670004BFA04F01F0040F0200000F04DFA344621
:100680000546A31B9F4205DD14F8010B00F044FA58
:100690000546F6E700F030FA2846F8BDF8B50646FC
:1006A0000C46154600F030FA06F01F0000F034FA50
:1006B0000646013D671E2C44A74206D0FF2000F0ED
:1006C0002BFA064607F8010FF6E700F015FA304658
:1006D000F8BD10B5072000F03DFA4306014616D5D7
:1006E0000720FFF7ABFF00F00FFA612000F014FACB
:1006F0002024FF20013C00F00FFA14F0FF04F8D191
:1007000000F0FAF9FF21E220FFF798FF00E0012452
:10071000204610BD08B500F0F7F9BDE80840E1201B
:1007200000F0FAB908B500F0EFF9BDE80840E220A2
:1007300000F0F2B901460520FFF780BF10B504466E
:10074000062000F007FA032C9CBF6400013400F07F
:10075000F80194BF04F0FF04072421430620BDE8FC
:100760001040FFF76BBF38B50546062000F0F2F9E0
:10077000022D00F0D70402D144F0200403E0012D43
:1007800008BF44F0080421460620FFF757FF062063
:1007900000F0E0F9231A5842584138BD10B504461C
:1007A000002000F0D7F900F0F3012CB1022C0CBFAF
:1007B00041F0080141F00C010020BDE81040FFF7B6
:1007C0003DBF000008B50220FFF7CDFF10B1114B6F
:1007D00001221A7000F088F900F08EF94A20FFF724
:1007E000A9FF0320FFF7AAFF0120FFF7BCFF3F216D
:1007F0000120FFF723FF2F210420FFF71FFF022016
:10080000FFF7CCFF00F068F9BDE80840C820FFF70B
:1008100007BF00BF0881002013B502AC64E90201E4
:10082000052221460A20FFF71EFF0522214610203F
:10083000FFF719FF20211120FFF700FF02B010BDC4
:1008400013B506280446CDE900231AD80E4B01281B
:1008500094BF052201226946185CFFF704FF0B4B89
:100860000521185DFFF7EAFE022000F073F9084B3E
:10087000195D012303FA01F10143C9B20220FFF718
:10088000DDFE02B010BD00BFB21400203013002006
:10089000A614002010B5002000F05CF904460120E9
:1008A00000F058F9230700D420B114F0040F14BF4E
:1008B0000320022010BD08B5062000F04BF9C0F35C
:1008C000410008BD08B5062000F044F900F02800FA
:1008D000202804D0A0F108035842584108BD022046
:1008E00008BD08B500F010F9BDE80840FF2000F091
:1008F00013B900001FB500F001030293C0F34203D7
:100900000193C0F3001301460093C0F38012C0F3BB
:1009100040130348FFF7A8FD05B05DF804FB00BFD6
:10092000AC13002073B50D46144601461248FFF77C
:100930009BFD2C44E4B2A54219D000230522694650
:10094000284600938DF80430FFF7A8FE0B48FFF708
:100950008BFD6E1CF6B2052515F1FF3505D31DF88C
:1009600005100748FFF780FDF6E73546E3E7054841
:10097000FFF77AFD02B070BD7F1300209A130020AC
:10098000F5130020A913002070B50D46144601464A
:100990000B48FFF769FD2C44E4B2A5420AD0284673
:1009A000FFF752FE6E1C0146F6B20648FFF75CFDEB
:1009B0003546F2E70448BDE87040FFF755BD00BF7B
:1009C0007F130020F2130020A913002008B5FFF7C1
:1009D00088FFFFF78FFF012203212B48FFF7D4FF89
:1009E00002220A212948FFF79DFF04220C212848F2
:1009F000FFF7CAFF012210212648FFF793FF0622C6
:100A000011212548FFF7C0FF012211462348FFF7B7
:100A1000BBFF012202212248FFF7B6FF0122052178
:100A20002048FFF7B1FF012206211F48FFF7ACFF66
:100A3000012200211D48FFF7A7FF02221C211C48AC
:100A4000FFF7A2FFFFF73EFF1A4B53F820101A489A
:100A5000FFF70AFD194B1A481A781A4B53F822105F
:100A6000FFF702FDFFF716FF174B53F8201017484A
:100A7000FFF7FAFCFFF71FFF154B53F8201015483E
:100A8000BDE80840FFF7F0BCFA1300200414002072
:100A9000111400201E1400202714002032140020FE
:100AA00039140020431400204A140020EF120020C3
:100AB00053140020E014002061140020088100205D
:100AC00073140020F8140020C414002082140020A5
:100AD0005813002095140020024A136843F0800345
:100AE00013607047FC630040024A136823F08003E0
:100AF00013607047FC630040024A136843F0200310
:100B000013607047FC630040024A136823F020031F
:100B100013607047FC63004013B5064C0146204645
:100B200000F031F9204601A900F032F99DF80400E7
:100B300002B010BD0080004038B50D46FFF7E4FF5D
:100B4000FFF7EAFF04462846FFF7E6FFFFF7D4FF6A
:100B5000204638BD08B5FFF7D7FFFFF7DDFFFF20C0
:100B6000FFF7DAFFFFF7C8FF08BDD0F8003412F036
:100B7000010F14BF0B438B4310B500F58064236055
:100B800012F0020FD0F8202400F5846314BF114343
:100B900022EA0101196010BD30B5D0F8004512F00D
:100BA000010F00F5A06514BF0C438C432C60D0F8F6
:100BB000044512F0020F00F2045514BF0C438C439D
:100BC0002C60D0F8084512F0040F00F5A16514BFA1
:100BD0000C438C432C6012F0080FD0F8182500F558
:100BE000A36414BF0A438A432260D0F80C25DD07B2
:100BF00000F20C544CBF0A438A432260D0F81025FF
:100C00009D0700F5A2644CBF0A438A432260D0F8D6
:100C100014255D0700F214544CBF0A438A43226036
:100C2000D0F81C251D074CBF0A438A4300F21C5410
:100C3000226000F5A5621BB9D0F82835194303E0FE
:100C4000D0F8283523EA0101116030BD38B50D46D2
:100C500008230122FFF7A0FF2946BDE83840012202
:100C6000FFF783BF70B50D460222FFF77EFF2946CE
:100C7000BDE8704008230122FFF78EBFFFF7F2BFE7
:100C8000FFF7F0BF0E4AC0F30743116801229A40F4
:100C90000A424FEA43030B4A18BF013352F823308C
:100CA00010B5D3F82C15C0F307240F22A24000F092
:100CB0000F0021EA0202A0401043C3F82C0510BD2A
:100CC0006CE00F400015002008B500F000FBC0B23A
:100CD00008BD0000042804D1134A136843F480338C
:100CE00005E0052805D1104A136843F4003313606A
:100CF0007047062804D10C4A136843F48023F6E7B2
:100D00000F2804D1094A136843F00203EFE70AD918
:100D10001038074B420953F8222000F01F0001232E
:100D200003FA00F01060704724ED00E010E000E0EE
:100D300078150020022B10B502D023B1002300E06B
:100D40000823042400E01C4623434360029BB1FBBC
:100D5000F3F100230233B1FBF3F4013CFF2CF9D88B
:100D60000361039B02F03001013B19439301DBB2A5
:100D700041EA030242EA0422026010BD436843F0E4
:100D8000020343607047C3689B07FCD581607047CE
:100D9000C3685B07FCD583680B607047C36813F0BA
:100DA00004031DBF836801200B60184670470000D4
:100DB00000F07043B3F1704F0ED1144BC0F3072213
:100DC000C0B213448000C3F3130340F0844040EAF0
:100DD00043100068C0B270470D4B984206D10D4BCE
:100DE000186810F0030018BF012070470A4B020F6B
:100DF00053F822301A6883B2C0F3044003FA00F0BB
:100E0000104214BF01200020704700BF00E30F40D4
:100E10000100102024E00F408C15002000F07043EA
:100E2000B3F1704F0ED10E4BC0F30722C0B2134482
:100E30008000C3F3130340F0844040EA43100123D1
:100E400003607047074B020F53F8221082B20B6801
:100E5000C0F3044002FA00F018430860704700BF76
:100E600000E60F400816002001387FF4FDAF704700
:100E7000F8B54A4B01461A6812F0E04F05D01A68DF
:100E8000474B1340B3F1805F02D10029C0F2848048
:100E9000444C454D26682B6826F4800242F40062DB
:100EA00043F40060B7072260286001D58F0703D59F
:100EB000F70714D5CE0712D461F00306002802EA22
:100EC0000602B4BF03F0300002F030003028226088
:100ED0000CBF4FF480504FF40020FFF7C5FF01F422
:100EE000FE6022F4FE62024323F000432F4823F009
:100EF0007003084043F40063034301F0080043EA31
:100F0000C003226010202B60FFF7AEFF22F4405296
:100F100001F440501043234F23F40052224E01F4B9
:100F20000053DFF898E013434FF0400CCEF800C0B8
:100F300020F0F86252BF3860336038601C4822F0FD
:100F4000030200EA010058BF3360024323F0FC5360
:100F500001F0FC500343480041BF164823F48003CE
:100F6000084042F480024CBF034323F080430F0546
:100F70000BD411484FF400410668760601D40139BC
:100F8000FAD122F4006223F40063226010202B6067
:100F9000BDE8F840FFF768BFF8BD00BF00E00F40B4
:100FA0000000FF7060E00F4070E00F4030000080F4
:100FB0000300C0070000404050E00F4058E00F40E1
:100FC000674BF0B5196810331B68002B13DA03F078
:100FD0007002202A45D003D8E2B1102A20D0B8E010
:100FE000602A00F0B880702A6DD0302A40F0B180BD
:100FF00047F2305069E001F03002102A10D001D8D9
:1010000042B1A6E0202A2CD0302A40F0A28047F23C
:1010100030505DE0534AC1F3841052F820004FE095
:10102000514A106810F0E04F3FD014684F482040FC
:10103000B0F1805F39D014684C4820404C4CA0423D
:1010400003D1126892B2022A31D04748474A046855
:101050002240484CA2422CD10068474C82B24748FB
:101060001FE0414A106810F0E04F24D014683F4858
:101070002040B0F1805F1ED014683C4820403C4CBA
:10108000A04203D1126892B2022A16D03648374ADB
:1010900004682240374CA24211D10068384C82B219
:1010A0003848002A18BF20460AE0374808E033488D
:1010B00006E0314804E0354802E0324800E03048BC
:1010C000002B05DA01E04FF4004013F4006F01E05B
:1010D00011F4006F25D12E4A234E1568326805F0B1
:1010E0001F0412F0E04F43F6E07202EA05024FEAF5
:1010F000521205D037681D4E3E40B6F1805F03D1D5
:1011000002325043023402E0504301346400B0FB29
:10111000F4F06E0448BF40082D0448BF800841F435
:1011200080014C021AD5002B0DDA590005D51A059D
:1011300003D44000C3F3865301E0C3F3C553013326
:10114000B0FBF3F0F0BDC1F3C3510131B0FBF1F0DE
:10115000F0BD0020F0BD4FF48000B6E7F0BD00BF49
:1011600060E00F409C15002000E00F400000FF7081
:1011700000000110000003100024F400001BB70061
:1011800000093D00C0C62D00C0E1E4007038390000
:1011900064E00F4021F0FE01C368C905C90D0B438F
:1011A000C360704721F0FE01C368C905C90D23EA79
:1011B0000103C3607047C36823F4807323F0010305
:1011C000C3600B0E0360CBB2C1F3072143F400737D
:1011D00041F4007143608160704711F0FF0F18BF48
:1011E000826311F47F4F18BFC263704711F0FF0F85
:1011F00018BF826211F47F4F18BFC26270478369C3
:1012000019438161704741627047C36A43F010031C
:10121000C362036B43F4407343F0010303637047FD
:1012200083691B07FCD4C36A23F01003C362036BFA
:1012300023F4407323F001030363704738B5044679
:101240001D46FFF7EDFFB1EB021F38BF52084FEA12
:10125000C101B1FBF2F2006B02F101024FEAD213BD
:1012600035BF40F0200020F0200020632063C2F34F
:10127000450263620023A2622046E562A361BDE8E5
:101280003840FFF7C2BF806980F01000C0F3001043
:1012900070478369DB0654BF00684FF0FF3070472A
:1012A00083699B065ABF0160012000207047836953
:1012B0009B06FCD401607047836B194381637047C0
:1012C00009B1006C7047C06B704741647047EFF321
:1012D000108062B67047636F756E743A25640D0AAC
:1012E00000456E74657220746578743A0A0D004387
:1012F0004F4E46494709000001000010020000104F
:10130000040000100820080020003031323334354A
:1013100036373839616263646566004552524F5210
:101320000000000000C0004000D0004000E000408D
:1013300011121314151650415F4D494E006E52465E
:1013400032344C30312B0050415F4C4F5700382025
:1013500062697473000000003613002047130020F8
:10136000681300207013002050415F48494748002F
:1013700050415F4D4158003235304B4250530025AB
:101380007309203D0074657374313A25640D0A00B9
:10139000746573743A25640D0A00203078000D0AD4
:1013A000656E642E2E2E2E2E2E0D0A00535441549F
:1013B00055530909203D2030782530327820525885
:1013C0005F44523D25782054585F44533D25782092
:1013D0004D41585F52543D25782052585F505F4E22
:1013E0004F3D25782054585F46554C4C3D25780D8F
:1013F0000A00203078253032780053455455505F2C
:101400004157090052585F414444525F50302D31DA
:101410000052585F414444525F50322D35005458B9
:101420005F41444452090052585F50575F50302D7D
:101430003600454E5F41410900454E5F52584144D8
:1014400044520052465F4348090052465F53455498
:1014500055500044594E50442F464541545552452D
:101460000044617461205261746509203D20257338
:101470000D0A004D6F64656C0909203D2025730D30
:101480000A00435243204C656E67746809203D2072
:1014900025730D0A00504120506F77657209203D79
:1014A0002025730D0A00000102030405324D42504D
:1014B00053000A0B0C0D0E0F44697361626C656476
:1014C00000000000B81400204E130020D0140020AB
:1014D0003136206269747300314D42505300000070
:1014E000D8140020AC140020771300206E5246322E
:1014F000344C303100000000EC1400203D1300207B
:101500000040004000800540005000400090054031
:101510000060004000A005400070004000B00540A1
:101520000040024000C005400050024000D005408D
:101530000060024000E005400070024000F00540FD
:1015400000D0034000000640001006400010064096
:1015500000200640002006400030064000300640D3
:101560000040064000400640005006400050064043
:10157000006006400060064000E100E004E100E099
:1015800008E100E00CE100E010E100E010E00F40B5
:1015900014E00F401CE00F4010E00F4040420F00ED
:1015A00000201C0080841E0000802500999E3600CB
:1015B0000040380000093D0000803E0000004B0064
:1015C000404B4C0000204E00808D5B0000C05D0051
:1015D0000080700000127A0000007D008096980064
:1015E000001BB7000080BB00C0E8CE00647ADA00C0
:1015F0000024F4000000FA0080A81201002D31013F
:1016000000366E0140787D0100E10F4004E10F409B
:0416100008E10F409E
:04000005200000F1E6
:00000001FF
