:020000042000DA
:1000000000800120F100002035030020370300208C
:1000100039030020390300203903002000000000CC
:100020000000000000000000000000003903002074
:1000300039030020000000003903002039030020AC
:100040003903002039030020390300203903002040
:1000500039030020B50100203903002039030020B6
:100060003903002039030020390300203903002020
:1000700039030020390300207D01002039030020CE
:1000800039030020390300203903002055010020E6
:1000900039030020390300203903002039030020F0
:1000A00039030020390300203903002039030020E0
:1000B00039030020390300203903002039030020D0
:1000C00039030020390300203903002039030020C0
:1000D00039030020390300203903002039030020B0
:1000E00039030020390300203903002039030020A0
:1000F000124885461248134908600D4A0D4B03E02B
:1001000052F8041B43F8041B0B498B42F8D30E48EA
:100110000E494FF000028842B8BF40F8042BFADBCA
:100120004FF000004FF00001094A9047FEE700BF82
:10013000DC0D0020000001200000012000800120D3
:100140000000002008ED00E0000001200800012070
:10015000A902002010B5064C0121064800F062FDFE
:10016000217821B9044800F07FFA0123237010BDE3
:1001700000000120000003400080034007B50A484A
:10018000002100F004FA01AA0021074800F05CFAFF
:1001900000F003FB0199054800F016F900F0F8FAA9
:1001A000034B00221A700EBD008003400E0D00208C
:1001B00000000120012108B50A4800F099FD014620
:1001C000084800F09AFD06E0064800F076FDC1B24E
:1001D000044800F07AFD034800F067FD0028F3D1E1
:1001E00008BD00BF00C0004038B505460C4605E01C
:1001F000044815F8011B00F068FD013C002CF7D104
:1002000038BD00BF00C0004010B5114800F024FB0D
:10021000FF21104800F0D7FC0E480F4900F0DCFC2D
:10022000FF2164220B4800F0E7FC40F6C412FF21D6
:10023000084800F0EAFC0121064800F0EFFC23200A
:1002400000F0B0FA0348FF21BDE8104000F0B2BC56
:1002500001001010000003400200000410B5104817
:1002600000F0FAFA00210F4800F09CF900210A463C
:100270000B460C4800F09DF900210A46612309480D
:1002800000F0ADF90021074800F07AF91E2000F0D7
:1002900089FA04480021BDE8104000F07CB900BF95
:1002A000010010000080034008B51A4800F0E8FA89
:1002B000194800F0D1FA194800F0CEFA00F068FAB7
:1002C0000321174800F056FA00F086FB4FF4E132A4
:1002D00060230146134800F0C1FC152000F062FACB
:1002E0001048502100F000FD0C210F48FFF77CFF63
:1002F000002000F04DF80D4800F066F800F06CFBAF
:1003000001460B4800F060F8FFF7A8FFFFF77CFFFD
:10031000FEE700BF4005C001010000100100002001
:100320000040004000C00040120D00201F0D0020C2
:100330000E0D0020FEE7FEE7FEE70000114B2DE961
:10034000F04153F82070054638460E4600F062FA38
:10035000A8B10D4B0D4C53F825303846236000F002
:100360007BFA256800F038FB3246014660232846B8
:1003700000F074FC2068BDE8F04100F055BCBDE819
:10038000F08100BF2C0D0020580D0020040001203A
:100390004FF4E131FFF7D2BFF8B506460D46002411
:1003A0000CE0335D074F0A2B03D138680D2100F0B4
:1003B00095FC315D386800F091FC0134AC42F0D31B
:1003C0002846F8BD040001200FB4F0B587B00CAB8F
:1003D00053F8045B0493C2E001311C4613F8012B6F
:1003E000252A01D0002AF7D12846FFF7D5FF237828
:1003F000252B40F0B380621C20260024154615F8FA
:10040000013B1046642B2A462AD00DD8392B05D83B
:10041000302B14D2252B40F09C8098E0582B49D0EB
:10042000632B40F0968013E0732B24D001D8702BFF
:1004300002E0752B38D0782B40F08B803AE002D167
:10044000002C08BF1E46303B0A2101FB0434D5E7CF
:10045000049B06A81A1D1B68049240F8043D76E030
:10046000049B1A1D1B680492002B05932ADA5B4239
:100470000593012227E0049B00261A1D04921868A8
:1004800000E00136835D002BFBD13146FFF784FF8E
:10049000B44264D9A41B04E036480121FFF77CFF75
:1004A000013C002CF8D15AE0049B1A1D1B680492F1
:1004B000059307E0049B1A1D1B6804920593002214
:1004C000102301E000220A23059F012001E0013CE6
:1004D000084603FB00F1B94203D8B1FBF3FE8645A1
:1004E000F5D042B1013C302E07D12D228DF80020ED
:1004F00001212D3A03E0114601E001220021A71E4F
:100500000D2F0AD804F1FF3E0F460DF807600137A2
:10051000BEF1010EF9D1091901392AB106AC6218F0
:100520002D2402F8184C0131059C0CE0B4FBF0F2CC
:10053000B2FBF3F603FB16220F4EB0FBF3F0925D15
:100540000DF8012001310028F0D1684603E00121B7
:1005500001E00A480521FFF71FFF00E025462B7840
:1005600013B12B46002138E707B0BDE8F04004B0D6
:10057000704700BF1D0D00203F0D0020500D0020D2
:1005800001238B40C360826813438360704701235B
:100590008B40C360704701228A40036842EA03032C
:1005A0000360704701228A40036823EA0203036064
:1005B000704730B589000F258D4002F00F028A4048
:1005C00003F0030313FA01F14469ED4305EA04045F
:1005D00014434461026A15400D43056230BDF0B515
:1005E00092000F26964003F00F0797400231490111
:1005F0000D58F64306EA05053D430C180D5003F06F
:10060000F00109099140606813F4702F00EA0600B8
:1006100040EA010161600FD003F4E0231B0C93401A
:10062000616901EA0606012111FA02F21E436661C0
:10063000236943EA020205E0012111FA02F223696B
:1006400023EA02022261F0BD0231490109180020AB
:1006500003E08B68013042F8043BCB6813F4807FE1
:1006600001D10828F5D1704701F00F03012212FAD9
:1006700003F3090C090443EA010181627047D0F8D1
:10068000003412F0010F14BF0B438B4310B500F57B
:100690008064236012F0020FD0F8202400F58463F8
:1006A00014BF114322EA0101196010BD30B5D0F822
:1006B000004512F0010F14BF0C438C4300F5A065F8
:1006C0002C60D0F8045512F0020F00F5A06414BF9E
:1006D0000D438D4304342560D0F8084512F0040F13
:1006E00014BF0C438C4300F5A1652C6012F0080F79
:1006F000D0F8182500F5A36414BF0A438A4322608A
:10070000D0F80C4513F0010F00F5A06214BF0C43A4
:100710008C430C321460D0F8102513F0020F14BF74
:100720000A438A4300F5A2642260D0F8144513F00E
:10073000040F00F5A26214BF0C438C430432146012
:10074000D0F81C4513F0080F00F5A26202F10C026C
:1007500014BF0C438C43146000F5A56223B9D0F894
:10076000283543EA010103E0D0F8283523EA0101E6
:10077000116030BD70B5022205460C46FFF77FFFC1
:100780002846214601220823BDE87040FFF78EBFAE
:1007900008B500F0B8FAC0B208BD08B500F0AFFA6D
:1007A000C0B208BD042804D1164B1A6842F4803246
:1007B00013E0052804D1134B1A6842F400320CE010
:1007C000062804D10F4B1A6842F4802205E00F2856
:1007D00005D10D4B1A6842F002021A607047A0F171
:1007E00010031F2B05D8012212FA03F3074A1360E6
:1007F00070472F2805D90123303813FA00F0044B35
:100800001860704724ED00E010E000E000E100E037
:1008100004E100E00D4B984207D10D4B186800F041
:100820000300003818BF012070470A4B020F53F82D
:10083000223082B200F4F810000C12FA00F01B68AB
:1008400018420CBF00200120704700BF010010209B
:1008500024E00F40640D0020020F81B200F4F81074
:10086000000C11FA00F0034B53F822301A681043C1
:1008700018607047D00D00200138FDD1704700008E
:100880004B4B70B51A68044612F0E04F06D01A6858
:10089000484B02EA0303B3F1805F02D1002CC0F29F
:1008A00086804549454A0B68166843F4006323F483
:1008B000800546F4006613F0020F0D60166002D04A
:1008C00014F0020F05D015F0010F1AD014F0010F2B
:1008D00017D164F003031D40374B002E1D6005DA6D
:1008E00006F07003302B05D0702B02E005F03003CA
:1008F000302B02D14FF4805001E04FF40020FFF77D
:10090000BBFF25F45E5543F2F07304EA030325F0C0
:1009100070051D432A4B2B4A06EA03032A4E402149
:1009200004EA06061E4304F0080356EAC306234BF6
:10093000116002F108024BBF1E60156015601E6059
:100940001020FFF799FF214B25F0F86504EA030317
:1009500025F003051D4326F0FC5604F0FC5314F06B
:10096000804F46EA030608D0194B26F4800604EAB5
:10097000030345F480051E4301E026F0804614F48D
:10098000006F0CD14FF40043124A126812F0400F6E
:1009900001D1013BF8D125F4006526F40066064B31
:1009A00010201D601E61BDE87040FFF765BF70BD7F
:1009B00000E00F400000FF7060E00F4070E00F406B
:1009C0008FDFFF7F58E00F40302000800300C0071A
:1009D0000000404050E00F40694B70B51A6810337A
:1009E0001B68002BB4BF03F0700102F03001202916
:1009F0003AD004D869B1102940F0C08010E06029D5
:100A00005DD0702958D0302940F0B88047F230507E
:100A100063E002F4F8605B49800951F820005CE073
:100A20005949086810F0E04F4CD00C68574804EA68
:100A30000000B0F1805F45D00C68544804EA000023
:100A4000534CA04203D1096889B202293CD04E48D8
:100A50004E49046804EA01014E4CA14236D10068B7
:100A60004D4980B24D4C22E04749086810F0E04FF4
:100A70002ED00C68454804EA0000B0F1805F27D012
:100A80000C68424804EA0000414CA04203D10968C6
:100A900089B202291ED03C483C49046804EA01019D
:100AA0003C4CA14218D100683D493E4C80B2002820
:100AB0000CBF2046084610E04FF400400DE04FF414
:100AC00080000AE0384808E0344806E0324804E094
:100AD000364802E0334800E03148002B02DA13F4D4
:100AE000006F01E012F4006F2AD13149264D0968E8
:100AF0002C6814F0E04F43F6E07401EA040406D0D9
:100B00002E68224D06EA0505B5F1805F06D164091D
:100B1000023401F01F056043023505E064096043BB
:100B200001F01F0501356D00B0FBF5F011F4804FA9
:100B300018BF400811F4004F18BF800842F480022B
:100B400012F4800F1BD0002B11DA13F0804F07D066
:100B500013F4006F04D103F0FE5340009B0D02E03C
:100B600003F0FC53DB0D0133B0FBF3F070BD02F07A
:100B7000F062D20D0132B0FBF2F070BD002070BD0A
:100B800060E00F40740D002000E00F400000FF7097
:100B900000000110000003100024F400001BB70047
:100BA00000093D00C0C62D00C0E1E40070383900E6
:100BB00064E00F40C26840F2011301EA030342EA15
:100BC0000303C3607047C26840F2011301EA0303E4
:100BD00022EA0303C3607047C36823F4807323F0E1
:100BE0000103C3600B0E036001F0FF03090A01F06B
:100BF000FF0143608160704711F0FF0F18BF8263EF
:100C000011F47F4F18BFC263704711F0FF0F18BF78
:100C1000826211F47F4F18BFC262704783690B4331
:100C20008361704741627047C36A43F01003C36237
:100C3000036B43F4407343F001030363704783691C
:100C400013F0080FFBD1C36A23F01003C362036BD8
:100C500023F4407323F00103036370472DE9F0414F
:100C60000D46164604461F46FFF7E9FFB5EB061F83
:100C700005D2236B760843F02003236303E0236B44
:100C800023F020032363ED00B5FBF6F6013673086D
:100C900003F03F03F60966622046A3620023E76281
:100CA000A361BDE8F041FFF7BFBF806900F010000D
:100CB000D0F1010038BF00207047836913F0100F96
:100CC0000CBF00684FF0FF307047836913F0200FAE
:100CD00002D101600120704700207047836913F042
:100CE000200FFBD101607047836B0B438363704718
:100CF00009B1006C7047C06B704741647047EFF3F7
:100D0000108072B67047EFF3108062B670472564AA
:100D10000A00456E74657220746578743A20004844
:100D2000656C6C6F2C776F726C640A0001000010A8
:100D30000200001004000010082008000D0A003016
:100D40003132333435363738396162636465660071
:100D50004552524F5200000000C0004000D00040F9
:100D600000E0004010E00F4014E00F401CE00F4096
:100D700010E00F4040420F0000201C0080841E0045
:100D800000802500999E36000040380000093D0093
:100D900000803E0000004B00404B4C0000204E0005
:100DA000808D5B0000C05D000080700000127A0042
:100DB00000007D0080969800001BB7000080BB00FB
:100DC000C0E8CE00647ADA000024F4000000FA00E3
:0C0DD00000E10F4004E10F4008E10F407B
:04000005200000F1E6
:00000001FF
