:1000030000000000000000000000000000000000ED
:1000130000000000000000000000000000000000DD
:1000230000000000000000000000000000000000CD
:1000330000000000000000000000000000000000BD
:1000430000000000000000000000000000000000AD
:10005300000000000000000000000000000000009D
:10006300000000000000000000000000000000008D
:100073000000000000000000000000001F001F003F
:100083001F001F001F001F001F001F001F001F0075
:100093001F001F00FFFFFFFF1FF81FF81FF81FF8C7
:1000A3001FF81FF81FF81FF81FF81FF81FF81FF895
:1000B30000000000000000001F001F001F001F00C1
:1000C3001F001F001F001F001F001F001F001F0035
:1000D300FFFFFFFF1FF81FF81FF81FF81FF81FF897
:1000E3001FF81FF81FF81FF81FF81FF80000000083
:1000F300000000001F001F001F001F001F001F0043
:100103001F001F001F001F001F001F00FFFFFFFF36
:100113001FF81FF81FF81FF81FF81FF81FF81FF824
:100123001FF81FF81FF81FF8000000000000000070
:100133001F001F001F001F001F001F001F001F00C4
:100143001F001F001F001F00FFFFFFFF1FF81FF806
:100153001FF81FF81FF81FF81FF81FF81FF81FF8E4
:100163001FF81FF800000000000000001F001F0020
:100173001F001F001F001F001F001F001F001F0084
:100183001F001F00FFFFFFFF1FF81FF81FF81FF8D6
:100193001FF81FF81FF81FF81FF81FF81FF81FF8A4
:1001A30000000000000000001F001F001F001F00D0
:1001B3001F001F001F001F001F001F001F001F0044
:1001C300FFFFFFFF1FF81FF81FF81FF81FF81FF8A6
:1001D3001FF81FF81FF81FF81FF81FF80000000092
:1001E300000000001F001F001F001F001F001F0052
:1001F3001F001F001F001F001F001F00FFFFFFFF46
:100203001FF81FF81FF81FF81FF81FF81FF81FF833
:100213001FF81FF81FF81FF800000000000000007F
:100223001F001F001F001F001F001F001F001F00D3
:100233001F001F001F001F00FFFFFFFF1FF81FF815
:100243001FF81FF81FF81FF81FF81FF81FF81FF8F3
:100253001FF81FF800000000000000001F001F002F
:100263001F001F001F001F001F001F001F001F0093
:100273001F001F00FFFFFFFF1FF81FF81FF81FF8E5
:100283001FF81FF81FF81FF81FF81FF81FF81FF8B3
:1002930000000000000000001F001F001F001F00DF
:1002A3001F001F001F001F001F001F001F001F0053
:1002B300FFFFFFFF1FF81FF81FF81FF81FF81FF8B5
:1002C3001FF81FF81FF81FF81FF81FF800000000A1
:1002D300000000001F001F001F001F001F001F0061
:1002E3001F001F001F001F001F001F00FFFFFFFF55
:1002F3001FF81FF81FF81FF81FF81FF81FF81FF843
:100303001FF81FF81FF81FF800000000000000008E
:100313001F001F001F001F001F001F001F001F00E2
:100323001F001F001F001F00FFFFFFFF1FF81FF824
:100333001FF81FF81FF81FF81FF81FF81FF81FF802
:100343001FF81FF80000000000000000FFFFFFFF80
:10035300FFFFFFFFFFFFFFFFFFFFFFFFFFFFFFFFAA
:10036300FFFFFFFFFFFFFFFFFFFFFFFFFFFFFFFF9A
:10037300FFFFFFFFFFFFFFFFFFFFFFFFFFFFFFFF8A
:100383000000000000000000FFFFFFFFFFFFFFFF72
:10039300FFFFFFFFFFFFFFFFFFFFFFFFFFFFFFFF6A
:1003A300FFFFFFFFFFFFFFFFFFFFFFFFFFFFFFFF5A
:1003B300FFFFFFFFFFFFFFFFFFFFFFFF0000000046
:1003C30000000000E007E007E007E007E007E007C0
:1003D300E007E007E007E007E007E007FFFFFFFFB4
:1003E300E0FFE0FFE0FFE0FFE0FFE0FFE0FFE0FF12
:1003F300E0FFE0FFE0FFE0FF00000000000000007E
:10040300E007E007E007E007E007E007E007E007B1
:10041300E007E007E007E007FFFFFFFFE0FFE0FF83
:10042300E0FFE0FFE0FFE0FFE0FFE0FFE0FFE0FFD1
:10043300E0FFE0FF0000000000000000E007E0072D
:10044300E007E007E007E007E007E007E007E00771
:10045300E007E007FFFFFFFFE0FFE0FFE0FFE0FF53
:10046300E0FFE0FFE0FFE0FFE0FFE0FFE0FFE0FF91
:100473000000000000000000E007E007E007E007DD
:10048300E007E007E007E007E007E007E007E00731
:10049300FFFFFFFFE0FFE0FFE0FFE0FFE0FFE0FF23
:1004A300E0FFE0FFE0FFE0FFE0FFE0FF000000000F
:1004B30000000000E007E007E007E007E007E007CF
:1004C300E007E007E007E007E007E007FFFFFFFFC3
:1004D300E0FFE0FFE0FFE0FFE0FFE0FFE0FFE0FF21
:1004E300E0FFE0FFE0FFE0FF00000000000000008D
:1004F300E007E007E007E007E007E007E007E007C1
:10050300E007E007E007E007FFFFFFFFE0FFE0FF92
:10051300E0FFE0FFE0FFE0FFE0FFE0FFE0FFE0FFE0
:10052300E0FFE0FF0000000000000000E007E0073C
:10053300E007E007E007E007E007E007E007E00780
:10054300E007E007FFFFFFFFE0FFE0FFE0FFE0FF62
:10055300E0FFE0FFE0FFE0FFE0FFE0FFE0FFE0FFA0
:100563000000000000000000E007E007E007E007EC
:10057300E007E007E007E007E007E007E007E00740
:10058300FFFFFFFFE0FFE0FFE0FFE0FFE0FFE0FF32
:10059300E0FFE0FFE0FFE0FFE0FFE0FF000000001E
:1005A30000000000E007E007E007E007E007E007DE
:1005B300E007E007E007E007E007E007FFFFFFFFD2
:1005C300E0FFE0FFE0FFE0FFE0FFE0FFE0FFE0FF30
:1005D300E0FFE0FFE0FFE0FF00000000000000009C
:1005E300E007E007E007E007E007E007E007E007D0
:1005F300E007E007E007E007FFFFFFFFE0FFE0FFA2
:10060300E0FFE0FFE0FFE0FFE0FFE0FFE0FFE0FFEF
:10061300E0FFE0FF0000000000000000E007E0074B
:10062300E007E007E007E007E007E007E007E0078F
:10063300E007E007FFFFFFFFE0FFE0FFE0FFE0FF71
:10064300E0FFE0FFE0FFE0FFE0FFE0FFE0FFE0FFAF
:100653000000000000000000E007E007E007E007FB
:10066300E007E007E007E007E007E007E007E0074F
:10067300FFFFFFFFE0FFE0FFE0FFE0FFE0FFE0FF41
:10068300E0FFE0FFE0FFE0FFE0FFE0FF000000002D
:100693000000000000000000000000000000000057
:1006A3000000000000000000000000000000000047
:1006B3000000000000000000000000000000000037
:1006C3000000000000000000000000000000000027
:1006D3000000000000000000000000000000000017
:1006E3000000000000000000000000000000000007
:1006F30000000000000000000000000000000000F7
:1007030000000000000000000000001824424242E4
:1007130042424242241800000000001070101010E2
:1007230010101010107C00000000003C42424204F4
:1007330004081020427E00000000003C42420418DE
:100743000402024244380000000000040C14242474
:1007530044447E04041E00000000007E40404058D4
:1007630064020242443800000000001C2440405848
:1007730064424242241800000000007E44440808FA
:1007830010101010101000000000003C42424224E0
:1007930018244242423C0000000000182442424216
:0807A300261A020224380000AE
:1013FC00E4FDFCC3ED9FEC9E5015E4FBFA0BBB0027
:0F140C00010ABA03F8BBE8F50DBD00010C80E43E
:01141B0022AE
:07149C00AE071FEE70FA22FB
:0F146B0020A0FD7F0A7E001213FC20A0F3D2A068
:01147A00224F
:0B148700C2B0D2B1D2B6D2B0C2B122C6
:10143B00C2B0E4FEEF25E0FF92B6C2B0000000D2CE
:08144B00B00000000EBE08EC29
:011453002276
:1013DA00E4FFFEFDEF25E0FFEE33FED2B000000091
:1013EA00C2B000000030B7050FBF00010E0DBD0CE2
:0113FA00E30F
:0113FB0022CF
:101321007F0A7E001213FC1214877F021213FC7FC6
:101331009012143B7F027E001213FCD2B000000019
:1013410000C2B0000000001213DA8E448F457FD036
:1013510012143BD2B000000000C2B0000000001225
:0913610013DA8E428F43D2B1224F
:0407AB00E4FBFAFC75
:0A07AF008F1A8C1B8D1C8A1D8B1EF7
:1007B900D3E51C9400E51B940140767F2A7E001244
:1007C90014581213B7E4251CFFE51B34FFFE12135E
:1007D900BB1213B7E51C241DFFE51B34FFFE1213E2
:1007E900BBD3E51E9400E51D94017F2B7E004021BB
:1007F9001214581213B7E4251EFFE51D34FFFE122B
:1008090013BB1213B7E51E241DFFE51D34FF0208B3
:10081900AD121458E4FFFE1213BBAF1EAE1D121326
:10082900BBE4FFFE1213BBE51E241DFFE4351D804A
:10083900737F2A7E00121458E4FFFE1213BBAF1C0B
:10084900AE1B1213BBE4FFFE1213BBE51C241DFFF4
:10085900E4351BFE1213BBD3E51E9400E51D94017C
:100869007F2B7E0040201214581213B7E4251EFF77
:10087900E51D34FFFE1213BB1213B7E51E241DFF3D
:10088900E51D34FF801E121458E4FFFE1213BBAF9E
:100899001EAE1D1213BBE4FFFE1213BBE51E241D81
:1008A900FFE4351DFE1213BB121454E51AC454F0AB
:1008B900F51A7522FF75230775240B2524F524E401
:1008C9003523F523E4F51FAB220524E524AA23707B
:1008D90002052314F91210BAF520E4F521E5205494
:1008E90080FFBF8003E4800274FFFFFE1213BBE5A3
:1008F9002025E0F5200521E521C3940840DF051FE7
:10090900E51FC3941040C07F2A7E00121458E4FFEB
:10091900FE1213BBE4FFFE1213BB1213B77F3F7E17
:10092900001213BB7F2B7E00121458E4FFFE121332
:10093900BBE4FFFE1213BB1213B77FE07E00121354
:08094900BB7F2C7E0002145854
:080E77008C388D39AB07AA0687
:100E7F007C037DE81210D38F3A7C037DE8AF03AE7D
:100E8F00021210D3AA04AB057C007D64AF03AE023F
:100E9F001210D38F3B7C007D64AF03AE021210D3D0
:100EAF00AA04AB057C007D0AAF03AE021210D38FEC
:100EBF003CAE02AF037C007D0A1210D38D3DE4FBE4
:100ECF00FAFDFCAF3A1207AF7D08AF3B1207AB7DBF
:100EDF0010AF3C1207ABE4FBFA7D18FCAF3D1207D5
:100EEF00AFAE38AF397C037DE81210D38F3AAE38EE
:100EFF00AF397C037DE81210D38C388D39AE38AF03
:100F0F00397C007D641210D38F3BAE38AF397C0033
:100F1F007D641210D38C388D39AE38AF397C007D9B
:100F2F000A1210D38F3CAE38AF397C007D0A1210F5
:100F3F00D38D3D7B107A00E4FDFCAF3A1207AF7BF7
:100F4F00107A007D087C00AF3B1207AF7B107A0050
:100F5F007D107C00AF3C1207AF7B107A007D187CB0
:060F6F0000AF3D0207AFD8
:041454007F2C7E006B
:10145800C2A7D2A6C2A3C2B58F908E80C2A2D2A2C2
:03146800D2B522D8
:1013A3001214587F011213BBE4252CFFE52B34FFE5
:0813B300FE1213BB7F017E0056
:1013BB00C2A7D2A6D2A3C2B58F908E800000000028
:0F13CB00C2A200000000D2A200000000D2B52292
:0A149200121458AF05AE040213BB9C
:10141C00D2A7C2A6D2A3C2B58F908E8000000000C6
:0F142C00C2A200000000D2A200000000D2B52230
:100C1C007F117E001214587F641213FC7F13121480
:100C2C00587FD01214587F071213BB7F401213BB8E
:100C3C007F1C1213BB7FD1121458E4FF1213BB7F1D
:100C4C00181213BB7F1D1213BB7FD21214587F01D5
:100C5C001213BB7F111213BB7FC0121458FF121357
:100C6C00BB7F3B1213BBFF1213BB7F021213BB7F64
:100C7C00111213BB7FC11214587F101213BB7F0BC0
:100C8C001213BB7F881213BB7FC51214587F01123D
:100C9C0013BB7FC8121458FF1213BB7F301213BB47
:100CAC007F361213BB7F451213BB7F041213BB7F1D
:100CBC00161213BB7F371213BB7F751213BB7F77D2
:100CCC001213BB7F541213BB7F0F1213BBFF1213F3
:100CDC00BB7FE41214587FA01213BB7FF012145880
:100CEC007F011213BB7FF31214587F401213BB7F8A
:100CFC000A1213BB7FF71214587F801213BB7F3676
:100D0C001214587F0A1213BB7F3A1214587F5512D3
:100D1C0013BB7F2A121458FF1213BB1213BB0F12F2
:100D2C0013BB7F3F1213BB7F2B121458FF1213BB44
:100D3C001213BB0F1213BB7FDF1213BB7F7812137E
:0B0D4C00FC7F291214587F2C02145861
:10102000121454C2A7D2A6D2A3C2B5E4F59075801B
:10103000F8C2A2D2A2FF7590FF7580FFC2A2D2A211
:101040000FBF00010EBE01EEBF3EEB75901FE4F531
:1010500080C2A2D2A2FDFCE4F5907580F8C2A2D2B3
:10106000A2FEFFE4F590F580C2A2D2A20FBF00015C
:101070000EBE01EFBF3EEC75901FE4F580C2A2D218
:10108000A20DBD00010CBC01CEBDDECBE4F5907518
:1010900080F8C2A2D2A2FEFF7590FF7580FFC2A2A7
:1010A000D2A20FBF00010EBE01EEBF3EEB75901F36
:0910B000E4F580C2A2D2A2D2B57F
:0110B9002214
:04136A008E468F47D5
:10136E00121454C2A7D2A6D2A3C2B5E4FDFCE4FB6C
:10137E00FA854790E546F580C2A2D2A20BBB0001CA
:10138E000ABA01EDBB40EA0DBD00010CBC01DFBD88
:04139E00E0DCD2B508
:0113A2002228
:0812B5008E3E8F3F8C408D41FD
:1012BD00121454C2A7D2A6D2A3C2B5E4FDFCE4FB1E
:1012CD00FA853F90E53EF580C2A2D2A2854190E518
:1012DD0040F580C2A2D2A20BBB00010AEB64A04A6A
:1012ED0070DFE4FAFB854190E540F580C2A2D2A201
:1012FD00853F90E53EF580C2A2D2A20BBB00010A4C
:10130D00EB64A04A70DF0DBD00010CED64F04C7074
:03131D00ADD2B599
:0113200022AA
:080951008E088F098C0A8D0B42
:10095900121454C2A7D2A6D2A3C2B5E4FDFCE4F591
:1009690018F519850990E508F580C2A2D2A20519E2
:10097900E51970020518B440EAE518B401E50DBDA2
:1009890000010CED643C4C70D5E4FCFDE4F518F570
:1009990019850B90E50AF580C2A2D2A20519E519BD
:1009A90070020518B440EAE518B401E50DBD00016F
:1009B9000CED643C4C70D5E4FCFDE4F518F5198B9D
:1009C900908A80C2A2D2A20519E51970020518B44D
:1009D90040EDE518B401E80DBD00010CED643C4C97
:1009E90070D8E4FCFDE4F518F519850F90E50EF5CE
:1009F90080C2A2D2A20519E51970020518B440EA0D
:100A0900E518B401E50DBD00010CED643C4C70D551
:100A1900E4FCFDE4F518F519851190E510F580C29F
:100A2900A2D2A20519E51970020518B440EAE51821
:100A3900B401E50DBD00010CED643C4C70D5E4FC3E
:100A4900FDE4F518F519851390E512F580C2A2D2D7
:100A5900A20519E51970020518B440EAE518B401B0
:100A6900E50DBD00010CED643C4C70D5E4FCFDE4E2
:100A7900F518F519851590E514F580C2A2D2A205DD
:100A890019E51970020518B440EAE518B401E50D35
:100A9900BD00010CED643C4C70D5E4FCFDE4F51897
:100AA900F519851790E516F580C2A2D2A20519E5B8
:100AB9001970020518B440EAE518B401E50DBD0046
:0A0AC900010CED643C4C70D5D2B571
:010AD3002200
:10123B00121454D2A7C2A6D2A3C2B5C2B3C2B6C2AD
:10124B00B7E4FDFC8D908C80C2A2D2A20DBD000133
:10125B000CBCFFF0BDFFED7590FF7580FFC2A2D2F5
:10126B00A2D2B3C2B6C2B7E4FCFD8D908C80C2A2F1
:10127B00D2A20DBD00010CBCFFF0BDFFED7590FFC0
:10128B007580FFC2A2D2A2C2B3D2B6C2B7E4FCFD34
:10129B008D908C80C2A2D2A20DBD00010CE4B505CD
:0912AB00EFECB458EBD2A6D2B569
:0112B4002217
:1011C000121454D2A7C2A6D2A3C2B5C2B3D2B6C219
:1011D000B77D007C588D908C80C2A2D2A20DBD003C
:1011E000010CBCFFF0BDFFED7590FF7580FFC2A242
:1011F000D2A2D2B3D2B6C2B7E4FCFD8D908C80C22D
:10120000A2D2A20DBD00010CBCFFF0BDFFEDC2B328
:10121000C2B6D2B7E4FCFD8D908C80C2A2D2A20DE2
:10122000BD00010CE4B505EFECB4B0EB7590FF75B3
:0A12300080FFC2A2D2A2D2A6D2B55E
:01123A002291
:100F7500121454D2A7C2A6D2A3C2B5C2B3C2B6D266
:100F8500B77D007CB08D908C80C2A2D2A20DBD0031
:100F9500010CBCFFF0BDFFED7590FF7580FFC2A28F
:100FA500D2A2D2B3C2B6D2B7E4FCFD8D908C80C27A
:100FB500A2D2A20DBD00010CBCFFF0BDFFED7590E6
:100FC500FF7580FFC2A2D2A2C2B3D2B6D2B7E4FCEB
:100FD500FD8D908C80C2A2D2A20DBD00010CBCFF7C
:100FE500F0BDFFED7590FF7580FFC2A2D2A2D2B30E
:100FF500D2B6D2B7E4FCFD8D908C80C2A2D2A20DF0
:10100500BD00010CE4B505EFECB408EB7590FF7578
:0A10150080FFC2A2D2A2D2A6D2B57B
:01101F0022AE
:080AD4008F288E278D268C254A
:100ADC00E4FF7E01FDFCAB28AA27A926A825D3128A
:100AEC00112840677F2A7E001214587F011213BB15
:100AFC00E42528FFE5271213B1E528241DFFE5277F
:100B0C0034FFFE1213BBE4FF7E01FDFCAB2CAA2BC1
:100B1C00A92AA829D31211287F2B7E00400F12136B
:100B2C00A3E52C241DFFE52B34FF020BBD1214583A
:100B3C00E4FF1213BBAE2BAF2C1213BBFFFE121330
:100B4C00BBE52C241DFFE4352B80667F2A7E00122A
:100B5C001458E4FF1213BBAE27AF281213BBFFFED1
:100B6C001213BBE528241DFFE43527FE1213BBE44A
:100B7C00FF7E01FDFCAB2CAA2BA92AA829D31211AC
:100B8C00287F2B7E00400E1213A3E52C241DFFE5BD
:100B9C002B34FF801C121458E4FF1213BBAE2BAF86
:100BAC002C1213BBFFFE1213BBE52C241DFFE435E6
:100BBC002BFE1213BB121454752DFF752E00752FBE
:100BCC0003C2A7D2A6D2A3C2B5E4FFE4FEAB2D05A7
:100BDC002FE52FAA2E7002052E14F91210BAF590DB
:100BEC00AB2D052FE52FAA2E7002052E14F912102D
:100BFC00BAF58000000000C2A200000000D2A200E2
:0F0C0C000000000EBE1EC60FBF1EC0D2A3D2B581
:010C1B0022B6
:080D57008F338E328D318C3098
:100D5F00E4FF7E01FDFCAB33AA32A931A830D312D8
:100D6F00112840757F2A7E001214587F011213BB81
:100D7F00E42533FFE5321213B1E533241DFFE532CD
:100D8F0034FFFE1213BBE4FF7E01FDFCAB37AA3626
:100D9F00A935A834D31211287F2B7E00401D1214C1
:100DAF00587F011213BBE42537FFE5361213B1E567
:100DBF0037241DFFE53634FF020E5C121458E4FF92
:100DCF001213BBAE36AF371213BBFFFE1213BBE5C8
:100DDF0037241DFFE4353680747F2A7E00121458A5
:100DEF00E4FF1213BBAE32AF331213BBFFFE12136D
:100DFF00BBE533241DFFE43532FE1213BBE4FF7E47
:100E0F0001FDFCAB37AA36A935A834D31211287FC0
:100E1F002B7E00401C1214587F011213BBE42537A0
:100E2F00FFE5361213B1E537241DFFE53634FF8099
:100E3F001C121458E4FF1213BBAE36AF371213BB9C
:100E4F00FFFE1213BBE537241DFFE43536FE1213E8
:100E5F00BB121454E4FDE4FC74FFFFFE1213BB0C31
:070E6F00BC1EF50DBD1EEFD6
:010E76002259
:10113E00D2B47F057E001213FCC2B47F0A1213FCD8
:10114E00D2B47F051213FC120C1C12102012146B59
:10115E0074FFFFFE12136A12146BE4FFFE12136A81
:10116E0012146B7F007EF812136A12146B7FE07EEE
:10117E000712136A12146B7F1F7E0012136A121469
:10118E006B12123B12146B1211C012146B120F75EC
:10119E0012146B7580FF7590FF75A0FF75B0FFE49C
:1011AE00F542F543F544F54574FFFFFE12136A024E
:0211BE00113EE0
:0300000002147B6C
:0C147B00787FE4F6D8FD75814702113E31
:1010BA00BB010689828A83E0225002E722BBFE0234
:0910CA00E32289828A83E4932267
:1010D300BC000BBE0029EF8DF084FFADF022E4CC01
:1010E300F875F008EF2FFFEE33FEEC33FCEE9DECCA
:1010F300984005FCEE9DFE0FD5F0E9E4CEFD22ED10
:10110300F8F5F0EE8420D21CFEADF075F008EF2F59
:10111300FFED33FD4007985006D5F0F222C398FD4A
:051123000FD5F0EA22E7
:10112800EB9FF5F0EA9E42F0E99D42F0EC6480C83E
:0611380064809845F022DE
:00000001FF
