:020000040800F2
:100000000404002065010008710D0008750D00084A
:10001000790D00087D0D0008810D0008000000002A
:10002000000000000000000000000000890D000832
:10003000850D0008000000008D0D0008910D0008DE
:10004000950D0008990D00089D0D0008A10D0008F0
:10005000A50D0008A90D0008AD0D0008B10D0008A0
:10006000B50D0008B90D0008BD0D0008C10D000850
:10007000C50D0008C90D0008CD0D0008D10D000800
:10008000D50D0008D90D0008DD0D0008E10D0008B0
:10009000E50D0008E90D0008ED0D0008F10D000860
:1000A000F50D0008F90D0008FD0D0008010E00080F
:1000B000050E0008090E00080D0E0008110E0008BC
:1000C000150E0008190E00081D0E0008210E00086C
:1000D000250E0008290E00082D0E0008310E00081C
:1000E000350E0008390E00083D0E0008410E0008CC
:1000F000450E0008490E00084D0E0008510E00087C
:10010000550E0008590E00085D0E0008610E00082B
:10011000650E0008690E00086D0E0008710E0008DB
:10012000750E0008790E00087D0E0008810E00088B
:100130000120704710B5094C02E000F0B5FF0C3407
:100140000748844208D26068A16822688142F4D1DD
:10015000002100F0B5FFF2E710BD00BFEC10000871
:1001600004110008024CA04730B1024CA04703E044
:100170003101000835010008034C4FF00000A04792
:10018000024C034DAE462047150A0008A510000892
:10019000D510000800B581B01020ADF80000032094
:1001A0008DF8020014208DF8030069464D4800F0D8
:1001B00067FD01B000BD000000B581B01020ADF8B2
:1001C000000003208DF8020004208DF8030069462A
:1001D000444800F055FD01B000BD000000B5FFF738
:1001E000D9FF10213F4800F0BFFD5FF4FA7000F026
:1001F000C3F810213B4800F0B5FD012000F0BCF829
:1002000000BD000000B5FFF7D7FF1021354800F012
:100210009FFD0028F9D11021324800F099FD0028F7
:10022000F9D05FF4967000F0A7F8FFF7B3FF00BDB8
:1002300030B50400FFF7AEFF002511E0102129487A
:1002400000F092FD6E2000F097F81021254800F094
:1002500089FD052000F090F82406240E64086D1C2A
:100260002D062D0E082D10D2E007E7D510211D48D0
:1002700000F07AFD082000F07FF81021194800F006
:1002800071FD502000F078F8E6E730BD30B500256C
:1002900000241CE0FFF77EFF2D062D0E6D081021B7
:1002A000104800F061FD022000F066F8FFF784FFBF
:1002B000012000F061F810210A4800F049FD0028F3
:1002C00001D055F08005462000F056F8641C240645
:1002D000240E082CDED3FFF75DFF28000006000E79
:1002E00030BD00000014014070B500240025002638
:1002F00000F024F8CC20FFF79BFF4420FFF798FF85
:100300005FF4437000F020F800F018F8CC20FFF7FD
:100310008FFFBE20FFF78CFFFFF7B8FF0400FFF749
:10032000B5FF0500FFF75AFF20000006000E000988
:1003300050EA05163606360E300070BD00B5FFF7E0
:100340004DFFFFF75FFF00BD16490A4A50430860A2
:1003500015481549096851F001010160124800680B
:10036000C003FBD510480021016010480021016046
:10037000704700BF282300000A4909225043086043
:1003800009480949096851F00101016006480068FF
:10039000C003FBD50448002101600448002101602E
:1003A0007047000014E000E010E000E018E000E01A
:1003B00000B55FF400614B4800F0D4FC0A2000F067
:1003C00011F85FF40061474800F0CEFC642000F0B3
:1003D00009F85FF40061434800F0C4FC642000F0B9
:1003E00001F800BD002100E0491CFA22424391427D
:1003F000FAD3704700B50121602000F00DFE1148CE
:100400005FF4786101800D48102101700C480321D0
:1004100001700C49334800F033FC0A48064901805A
:1004200006481021017006480321017005492C4837
:1004300000F026FC00BD0000FFFF000003000020CC
:10044000020000200000002000B50100222000F082
:1004500001F800BD30B504000D005FF48071214843
:1004600000F082FC80211F4800F07EFC5FF4806178
:100470001C4800F077FC21000904090C184800F022
:1004800075FC5FF40071174800F06EFC5FF40071BA
:10049000144800F067FC8021124800F063FC5FF410
:1004A0008071104800F05EFC80210E4800F05CFC7A
:1004B0005FF480610B4800F055FC2900084800F00B
:1004C00055FC5FF40071074800F04EFC5FF40071CA
:1004D000044800F047FC8021024800F043FC30BD96
:1004E000001801400014014010B50C00010020204C
:1004F000FFF7B0FF21002120FFF7ACFF10BD000087
:1005000070B504000025002600210020FFF7ECFF55
:100510000020050008E02000FFF796FF761C360457
:10052000360CF02EF7D36D1C5FF4A0702D042D0C4B
:10053000854201D20026F2E770BD000000B5FFF74A
:1005400059FFFFF735FF5FF480710120FFF782FF4D
:100550005FF4E0610220FFF77DFF64490320FFF7AD
:1005600079FF00210420FFF775FF61490820FFF79C
:1005700071FF00210920FFF76DFF00210A20FFF71E
:1005800069FF00210C20FFF765FF00210D20FFF718
:1005900061FF00210F20FFF75DFF00211020FFF712
:1005A00059FF00211120FFF755FF00211220FFF70E
:1005B00051FF00211320FFF74DFFC820FFF712FF66
:1005C00052491020FFF746FF51491120FFF742FF23
:1005D0003220FFF707FF1B211220FFF73BFF5FF4DC
:1005E000C8511320FFF736FF08212920FFF732FFFB
:1005F0000C212B20FFF72EFF3220FFF7F3FE002106
:100600002020FFF727FF00212120FFF723FF0021F3
:100610003020FFF71FFF37493120FFF71BFF042170
:100620003220FFF717FF34493520FFF713FF04216D
:100630003620FFF70FFF31493720FFF70BFF304916
:100640003820FFF707FF2F493920FFF703FF2E4916
:100650003C20FFF7FFFE04213D20FFF7FBFE0021B9
:100660005020FFF7F7FEEF215120FFF7F3FE0021A6
:100670005220FFF7EFFE28495320FFF7EBFE5FF40F
:1006800027416020FFF7E6FE01216120FFF7E2FE2F
:1006900000216A20FFF7DEFE00218020FFF7DAFE4E
:1006A00000218120FFF7D6FE00218220FFF7D2FE35
:1006B00000218320FFF7CEFE00218420FFF7CAFE31
:1006C00000218520FFF7C6FE10219020FFF7C2FE13
:1006D0005FF4C0619220FFF7BDFE0E490720FFF7CF
:1006E000B9FE5FF49670FFF77DFE00BD301000008C
:1006F00002020000060400000503000007020000DB
:10070000030100000707000003050000901200002D
:1007100027020000330100003F01000030B585B022
:1007200004000A000023002000210B000CE01B063F
:100730001B0E6D4620000A2100F0D2FC3030E85438
:100740005B1C0A20B4FBF0F4002CF0D1180000234D
:100750000CE01B061B0E0006000E1B061B0EC11A2A
:100760006C466118491E0978D1545B1C1B061B0E90
:100770000006000E8342ECD31B061B0E002B04D197
:100780001B061B0E3020D0545B1C1B061B0E0020CA
:10079000D05405B030BD000000B5FFF7B1FE00BD7C
:1007A0002DE9F04781B0884691469A46040002E060
:1007B000083409F201092404240CF02C02D100248D
:1007C00008F2100899F80000002802D101B0BDE835
:1007D000F08799F80050203D10204543002600E0A6
:1007E000761C3606360E102EE2D240463606360EFF
:1007F00081190904090C20000004000CFFF774FEA5
:100800003606360E0C484019805D8DF80000002732
:1008100004E0BDF82400FFF717FE7F1C3F063F0EE3
:10082000082FDDD29DF80000802139410842F0D028
:100830005046FFF709FEF0E7041100082DE9F04FDC
:100840008046894692469B46BDF82440002500E03C
:100850006D1C2D062D0E102D2AD248462D062D0E6C
:1008600041190904090C4046FFF73EFE2D062D0EE6
:10087000022005FB00A000782D062D0E022105FBAD
:1008800001A1497851EA0026002703E02000FFF784
:10089000DBFD7F1C3F063F0E102FD9D25FF40040D6
:1008A000384130400028F1D05846FFF7CDFDF0E741
:1008B000BDE8F08F2DE9F04F8046894692469B4671
:1008C000002400E0641C2406240E302C37D2484655
:1008D0002406240E01190904090C4046FFF704FE02
:1008E000002500E0AD1C2D062D0E062DEAD22D06AA
:1008F0002D0E2406240E062004FB00A0405D2D06CC
:100900002D0E2406240E062104FB01A14919497865
:1009100051EA0026002704E0BDF82400FFF794FD0B
:100920007F1C3F063F0E102FDCD25FF400403841A1
:1009300030400028F0D05846FFF786FDF0E7BDE8CC
:10094000F08F00002DE9F0439046994600240125E0
:10095000FFF7CAFD002616E02404240C0798005D6A
:100960002D042D0C0799495D51EA00200004000C6C
:10097000FFF76AFDA41CAD1C7F1C40463F043F0CE2
:100980008742E9D3761C48463604360C864201D2AB
:100990000027F2E7BDE8F08330BF704720BF704703
:1009A00040BF7047BFF36F8F7047BFF34F8F7047E3
:1009B000BFF35F8F704701DF7047EFF3148070471C
:1009C00080F31488BFF36F8F7047EFF3098070478F
:1009D00080F309887047EFF30880704780F3088838
:1009E000704762B6704772B67047EFF31080704779
:1009F00061B6704771B67047EFF31380704780F3AC
:100A000011887047EFF31280704740BA704700BA00
:100A10007047000000B581B000F0DEF800F00EF97C
:100A2000FFF78CFD5FF4FA70FFF7DCFC5848FFF726
:100A3000B3FE584801B45023F02200210020FFF7F4
:100A400081FF01B0524801B41F23534A502118209E
:100A5000FFF730FF01B04E4801B41F234F4A502129
:100A60004820FFF727FF01B0494801B41F234C4A33
:100A700050217820FFF71EFF01B0454801B41F2325
:100A8000484A5021A820FFF715FF01B0404801B4A3
:100A90001F23454A80213020FFF70CFF01B03C485E
:100AA00001B41F23414A80216020FFF703FF01B0FA
:100AB000374801B41F233E4A80219020FFF7FAFEF9
:100AC00001B0334801B41F233A4AB0211C20FFF77C
:100AD00067FE01B0384801B47023F022D021002015
:100AE000FFF730FF01B02A4801B45FF47843334A7E
:100AF000C0214020FFF7A2FE01B0254801B45FF4F9
:100B000078432F4AC0215020FFF798FE01B02048BB
:100B100001B45FF478432B4AC0216020FFF78EFEBA
:100B200001B01B4801B45FF47843274AC02170200C
:100B3000FFF784FE01B0164801B45FF47843234AFE
:100B4000C0218020FFF77AFE01B0114801B45FF4A4
:100B500078431F4AC021A020FFF770FE01B0FFF7C5
:100B6000C3FB6946FFF7DAFD094801B41F2319A248
:100B7000C0219020FFF714FE01B0054801B41F23E7
:100B800001AAC0219020FFF70BFE01B0E7E700BFEC
:100B9000E0FF00000C170008CC7F0108EC80010882
:100BA0000C8201082C8301084C8401086C85010823
:100BB0008C860108F41600080CAD00080C7F0108B3
:100BC0002C7F01084C7F01086C7F01088C7F010895
:100BD000AC7F01082020000000B500F05DF95FF453
:100BE000803000F083F900F0A7F9012824D110200B
:100BF00000F038F8022000F029F8002000F0E2F9B7
:100C0000002000F0F9F95FF4806000F0E7F95FF48C
:100C1000E0115FF4803000F0AFF9012000F0BAF984
:100C2000392000F009FA0028FAD0022000F0B8F9C3
:100C300000F0C2F90828FBD100BD000000B500217A
:100C40005FF0006000F01EF900BD00000B490B4A88
:100C5000126812F038020A600849084A1268104304
:100C6000086070470549054A126810239A430A60D4
:100C70000249024A1268104308607047002002408F
:100C8000F0B481B00022009200220023002400254D
:100C90000026CF783F073F0F0097CF78FF0603D598
:100CA000009A8B78134300930A88120621D00568B6
:100CB000002306E0CA78482A02D101229A40026144
:100CC0005B1C082B14D201249C400A882240A242BB
:100CD000F6D19C000F26A640B5432A00009DA540F2
:100CE0001543CA78282AE5D101229A404261E7E7F4
:100CF00005600A885FF480739A4226D34568002312
:100D000020E001241A00083294400A882240A242BE
:100D100017D19C000F26A640B5432A00009DA54090
:100D20001543CA78282A04D101221C000834A240A5
:100D30004261CA78482A04D101221C000834A2402A
:100D400002615B1C082BDCD3456001B0F0BC70472E
:100D500000B50200002092680A4201D0012000E0A4
:100D6000002000BD0161704741617047C16070475C
:100D700070470000FEE70000FEE70000FEE700000D
:100D8000FEE7000070470000704700007047000059
:100D90007047000070470000704700007047000077
:100DA0007047000070470000704700007047000067
:100DB0007047000070470000704700007047000057
:100DC0007047000070470000704700007047000047
:100DD0007047000070470000704700007047000037
:100DE0007047000070470000704700007047000027
:100DF0007047000070470000704700007047000017
:100E00007047000070470000704700007047000006
:100E100070470000704700007047000070470000F6
:100E200070470000704700007047000070470000E6
:100E300070470000704700007047000070470000D6
:100E400070470000704700007047000070470000C6
:100E500070470000704700007047000070470000B6
:100E600070470000704700007047000070470000A6
:100E70007047000070470000704700007047000096
:100E800070470000034A024B0B4003431360704756
:100E900080FFFF1F08ED00E036483649096851F031
:100EA000010101605B485B4909680D4A0A40026024
:100EB0003048304909680B4A0A4002602D482D49E4
:100EC00009687FF480220A4002605248514909684B
:100ED0007FF4FE020A40026003480021016070476F
:100EE0000000FFF8FFFFF6FE0810024000B52149A0
:100EF000204A12687FF4803313400B601D491D4A5D
:100F000012687FF4802313400B605FF480318842C5
:100F100004D05FF48021884207D00CE015481549C1
:100F2000096851F48031016005E0124811490968EF
:100F300051F4A021016000BD00B581B000200090F7
:100F400000200021312000F077F801000098401CBB
:100F50000090002903D10098B0F5A06FF2D13120A4
:100F600000F06AF8002801D0012000E0002001B064
:100F700000BD0000001002400022264B1B681A0032
:100F800013007FF47C121A40014311430A002148E8
:100F90000260704701490860704700BF600042422C
:100FA00000211C4A126811000322914308430100EA
:100FB00018480160704700001648006810F00C00E7
:100FC000704700000021134A12681100F02291437B
:100FD000084301000F4801607047000000210D4ADE
:100FE000126811000A007FF4E0611140084301001B
:100FF00008480160704700000021064A126811008D
:101000000A007FF46051114051EAC00101480160BB
:101010007047000004100240002905D00549054A28
:1010200012681043086004E00249024A12688243D1
:101030000A6070471810024010B4002200230021FB
:1010400004002406240E64092406240E2200012A2A
:1010500002D10B490B6806E0022A02D109490B684C
:1010600001E009490B68C206D20E012090401840E9
:10107000002801D0012100E00021080010BC7047C9
:10108000001002402010024024100240704700006F
:1010900010B581B00400009469460120FFF7F6FF07
:1010A000F9E7000000F016B810B50300002A04E0CC
:1010B00011F8014B521E03F8014BF9D110BD00008D
:1010C000C9B20300002A02E003F8011B521EFBD143
:1010D00070470000014CA646204700009110000810
:1010E0008C46B0FBF1F10CFB1100704700000000D2
:1010F000000000200411000804000000000000208F
:1011000000000020000000000000000000000000BF
:10111000000000000000001010101010101000005F
:1011200018180000000000000000142828500000DB
:101130000000000000000014147E1414287E2828EB
:101140002800000000001038545450301814545433
:101150003810100000000044A4A8A850142A2A4AFD
:1011600044000000000000205050507CA8A898883F
:101170007600000000000000000018180830000091
:101180000000000000000408101020202020201083
:1011900010080400000020100808040404040408D7
:1011A00008102000000000001010D63838D61010AB
:1011B000000000000000000000101010FE101010D1
:1011C00000000000000000000000181808300000B7
:1011D000000000000000000000000000FE00000011
:1011E00000000000000000000000001818000000CF
:1011F0000000000000000204040408081010102081
:101200002040400000000018244242424242422452
:1012100018000000000000107010101010101010C6
:101220007C0000000000003C424202040810204202
:101230007E0000000000003C4242041804024242CA
:101240003C0000000000000808182848487E0808F4
:101250001E0000000000007E40405C62020242422C
:101260003C0000000000001C2440405C62424242FE
:101270003C0000000000007E4444080810101010DC
:10128000100000000000003C4242423C2442424226
:101290003C00000000000038444242463A0202246A
:1012A00038000000000000000018180000001818A6
:1012B0000000000000000000080000000000080816
:1012C0001000000000000002040810204020100858
:1012D00004020000000000000000FE0000FE00000C
:1012E0000000000000000040201008040204081064
:1012F000204000000000003C424242020408080076
:101300001818000000000038449AAAAAAAAAB442F9
:101310003C0000000000001010282828287C4444CD
:10132000EE000000000000FC424244784442424289
:10133000FC0000000000003E4282808080808244E9
:1013400038000000000000F8444242424242424459
:10135000F8000000000000FC42484878484840423D
:10136000FC000000000000FC42484878484840402B
:10137000E00000000000003C44848080808E8444B3
:1013800038000000000000EE4444447C44444444DF
:10139000EE0000000000007C101010101010101063
:1013A0007C00000000003E0808080808080808083B
:1013B00088F00000000000EE444850705048484457
:1013C000EE000000000000E040404040404040424D
:1013D000FE000000000000EE6C6C6C545454545439
:1013E000D6000000000000EE64645454544C4C4C91
:1013F000E40000000000003844828282828282443D
:1014000038000000000000FC4242427C4040404066
:10141000E000000000000038448282828282B24CE8
:1014200038060000000000F844444478504848441E
:10143000E60000000000003E424240300C02424202
:101440007C000000000000FE921010101010101020
:1014500038000000000000EE444444444444444446
:1014600038000000000000EE4444442828282810DA
:1014700010000000000000D6545454546C28282852
:1014800028000000000000EE4428281010282844FE
:10149000EE000000000000EE444428281010101058
:1014A000380000000000003E44040808101020220C
:1014B0007E00000000003C20202020202020202052
:1014C00020203C000000404020201010100808049C
:1014D0000404020000003C040404040404040404A2
:1014E00004043C000000000000000018240000007C
:1014F000000000000000000000000000FE000000EE
:1015000000000000000000000000003008000000A3
:1015100000000000000000000038441C2444443E49
:1015200000000000000000C040405C6242424242B5
:101530007C00000000000000001C22404040221CF3
:10154000000000000000000C04047C848484848C6F
:101550007600000000000000003C427E4040423C1B
:10156000000000000000000E12107C10101010107F
:101570007C000000000000003E444438403C4242F1
:101580003C000000000000C040405C624242424219
:10159000E700000000000030300070101010101044
:1015A0007C00000000000C0C001C04040404040473
:1015B00044780000000000C040404E485068484455
:1015C000EE0000000000007010101010101010103D
:1015D0007C0000000000000000F85454545454D61D
:1015E000000000000000000000DC6242424242E7CE
:1015F00000000000000000000018244242422418AD
:101600000000000000000000DC62424242427C40D8
:10161000E0000000000000007C848484848C74045A
:101620000E0000000000000000EE3220202020F814
:101630000000000000000000003C444038044478F2
:10164000000000000000000010107C1010101010AE
:101650000C0000000000000000C642424242463B2F
:10166000000000000000000000E7422424281010C1
:10167000000000000000000000D654545428282820
:101680000000000000000000006E241818182476E6
:101690000000000000000000E74224242818101079
:1016A000E000000000000000007E44081010227ED0
:1016B0000000000000001810101010102010101072
:1016C0001010180000101010101010101010101032
:1016D0001010101000003010101010100810101012
:1016E000101030000000000000000062928C00002A
:1016F000000000005720572057202E205A204E204F
:101700004D20432055202E2043204E00FFFFF7BEE2
:10171000FFFFFFFFFFFFFFFFFFFFFFFEFFBEFFFF1B
:10172000FFBEFFBEFFBFFFFFFFFFFFFFFFFFFFBFCB
:10173000FFBFFFFFFFBFFFFFFFFFFFBEF7BEFFFFC3
:10174000FFFFFFBFFFFFFF7FFFBFFFBFFFBFFF7FA9
:10175000FFBFFFBFFF7FFF7FFFBFFF7FFF7FFF7FD9
:10176000FF7FFF3FFF7FFF7FFF3FFF7FFF7FFF3F49
:10177000FF7FFF3FFF3FFF7FFF7FFF7FFF7FFF7FF9
:10178000FF3FFF7FFF7FFF7FFF7FFF7FFF3FFF7FE9
:10179000FF3FFF7FFF7FFF3FFFBFFF7FFF7FFF7F99
:1017A000FF7FFF7FFF3FFF7FFF3FFF7FFF7FFF7FC9
:1017B000FF7FFF3FFF7FFF7FFF7FFF3FFF3FFF7FF9
:1017C000FF7FFF3FFF7FFF7FFF3FFF7FFF3FFF3F29
:1017D000FF7FFF7FFF3FFF3FFF7FFF3FFF7FFF7FD9
:1017E000FF3FFF7FFFBFFF7FFF7FFF7FFF7FFF3F49
:1017F000FF7FFFBFFF7FFFBFFFFFFFBEFFFEF7BE04
:10180000FFFEFFFEFFFFFFFFFFFFFFFFFFFFEFBE3B
:10181000FFFFF7FFFFFFF7FFF7FFFFFFFFFFFFFFF0
:10182000FFFFFFFFFFFFFFFFFFFFFFFFFFFFFFFFC8
:10183000FFFFFFFFF7BEFFFFFFFFFFFFF7BEFFFF4A
:10184000FFBEFFFFF7BEFFFFFFFFFFFFF7FFFFFF3A
:10185000F7FFFFFFFFFFFFFFFFFEF7BEFFFEFFFFEB
:10186000FFFEFFFFFFFFFFFEFFFEFFFEFFFFFFFF8C
:10187000FFFEFFFFF7BDFFFFFFFEFFFEFFBEFFFE07
:10188000FFFFFFFFF7BEFFFFFFFFFFFFFFFFFFFFB1
:10189000FFFFFFFFFFFEFFFFFFFEFFFEFFFEFFFE5D
:1018A000FFFFFFFFFFBEFFFFFFFFFFFFFFFFFFFF89
:1018B000FFFFFFFFFFFEFFFFF7BDFFFFF7FDFFFF8D
:1018C000FFFEFFBEFFBFFFBFFFBFFF7FFF3FFF7FEA
:1018D000FF3FFF7FFF7FFF3FFF7FFF7FFFBFFF7F58
:1018E000FF7FFFBFFF7FFF7FFFBFFF7FA5353186F3
:1018F000108218C32103104121034A074A085A499C
:1019000041C74A083987398739462905520A49C9E2
:10191000520A52094A09420841C7398629055249E3
:10192000420862CC5209524A520A520A5A4B3107B3
:1019300051CA39075A0B394851CA498A38C7390838
:1019400030C76A4D6A8D620C59CB620B620C620C17
:101950006A4D518A5A0C624D6A4D620C6A0D724E84
:10196000620C620C518A620C620C6A4D61CC59CBDC
:10197000620D620D624D498A620D6A4E6A4D59CC04
:1019800059CC6A4D620D6A4E518B59CC6A4E620D2C
:1019900059CC59CC6A4E59CC6A4D598B620C6A4D60
:1019A0006A4E61CC59CC620D620D724E61CC620CF4
:1019B0006A0D6A0D620C620C6A0D620D620D6A4E50
:1019C0006A4E624D620D5A0C620D6A4E6A0D6A4E85
:1019D0006A4D624C5A0A520A62CC5249734E528A7C
:1019E000630C7BCF8C718C71738F6B0D4A4A7BD0EB
:1019F0004A4A6B8E528B5ACC6B4E528B6B4D4209BE
:101A00007BCF5ACC5ACB528A5ACB630C528A7BCFAB
:101A10007BCF738E738E83CF7B8F84309CF383CF89
:101A2000A4F3734D738D630B5ACB5ACB5ACB634DD2
:101A30004A49630C4A48634C5ACA630B7BCE6B4CD1
:101A4000842F6B4C94B1738D9CF28C708C309CB253
:101A50008C309CF2AD34BDB6AD34AD34AD75A5342B
:101A6000A4F39CF3A4F4AD34B5B6AD34AD34A534D1
:101A7000AD75A534AD74C638B5B5CE78B5B5C63735
:101A8000C638CE78E6FBAD34DEBABDB6CE38BDF78B
:101A9000BDB6D679D679D6BAAD74A533A574C63796
:101AA000CE79C6389C72624B5A0B6A4C728D620CAE
:101AB0007ACF728E620C6A8E728E7B10624D624C8F
:101AC000624C83508350728E728E620B8C71210433
:101AD00008410000080018C3294420C2398639860D
:101AE0004187290528C428C43105394639474A09A0
:101AF00041885A8B418729452905290531453145BA
:101B000041C8314641C84187418849893908498AD5
:101B1000414849893908494941094149494A2846C2
:101B2000518B518A518B514A61CC598B598B598BAE
:101B3000598C61CC598B598C598C620D6A0D598C1A
:101B4000598B598B61CC598B598B598B618C61CDD9
:101B5000598C598B598C598C59CC598C598C59CCDE
:101B600059CC598C598C598C61CD598C59CC598C84
:101B700061CD61CD598C61CC598B61CD61CD598CD2
:101B8000598C61CC61CD618C598B61CC61CD618CFC
:101B9000598C598C61CC61CD61CC598B598C61CDFC
:101BA00059CD598C598C59CC61CD59CD61CD514B02
:101BB00059CC59CC498A49CA524B5A8C4A4A524A42
:101BC000630D843184317BD17BD05ACC5ACB528B7C
:101BD000634D39C84A4A5ACC630D5ACC630D5ACC6E
:101BE0005ACB738E4A4A4A49630C630C528A630C7F
:101BF00094B262CC738E734D738E9CF39CB28C3016
:101C00008C309471630B5ACB42484A4952CB630CD7
:101C1000528A42484A495ACB630B5ACA6B4C842FAA
:101C2000738D8C70738D94B194B18C309CB2A5334C
:101C3000B575A5339CF29CF3B5B6AD749CB29CB25D
:101C4000A4F3CE79B575C5F7AD34BDF6AD34AD7539
:101C5000BDB6A4F3C638AD74B5B6AD74BDF7CE78D5
:101C6000D6BAD6B9CE38CE78CE38CE38C638D679B0
:101C7000CE79D679DEFBCE78C6379CF2BDF6D67922
:101C8000DEFBCDF8A4B37B0E620C728E620C728EFA
:101C900061CC724E724E61CC82D06A4D83106A4D17
:101CA0006A8D728E6A8D728D728E82CF9CF318C38C
:101CB000000000000000000010411041100141C769
:101CC0002083208331054187290518833947314610
:101CD000418741C84A0941873146314520C43146D0
:101CE00020C439463946394739474148498A498AE3
:101CF0005A0C2046390830874109410938C8518CAF
:101D0000490A598C3887514B514B598B514B490AD1
:101D1000598C598C618D48CA514B61CD618C510BE6
:101D200048CA618D618C618D510A510B618D698D3D
:101D3000618D4889618D618D618D48CA510B594C07
:101D4000618D594C48CA618D594C618D510B594C6C
:101D5000614D594C618D48CA618D618D618D510B0A
:101D6000510B614D69CE614C510B510B618D614C32
:101D7000590B510B614D698D594C510B510B618DB4
:101D8000594C510B514C594C598D514C48CB598D94
:101D9000598D59CC498B51CB5A4D398862CD420966
:101DA0005ACC6B0E6B4E734F6B0E6B4F5ACC5B0C59
:101DB0004209528B4A4A528B630D630D5ACC39C883
:101DC0005ACB39C74A4A4A494A49528A4A495ACBA0
:101DD0007B8F8C71738E630C6B4D83CF9CB28C3078
:101DE0009471738D5ACB4A4952894A494A495ACB10
:101DF00039C752CA4207630B4A485289734C83CE93
:101E00008C2F7B8E738D630B8C709CF39CF29CF2F9
:101E1000A4F39CB2734D94B2AD34A5349CF394B248
:101E20009CF3B575C5F7A4F3BDF7AD75BDF7BDF768
:101E3000B5B5B5B6A534C638AD75C637AD74B5B64B
:101E4000CE79CE79C638DEFACE79D679CE79CE790A
:101E5000CE38D679CE38D679D679DEFACE38D6795C
:101E6000CE38DE7ABD366A4C598A6A0C6A0D720E1B
:101E7000720E69CD7A507A906A0E724F61CC7ACF29
:101E8000728E6A4D620C6A4D82D061CC9CF31083D5
:101E90000000108210820841080008412904104106
:101EA00029053145310529053106310539474A09EA
:101EB0003946524A41C841C73987314628C4188338
:101EC00039463106520A520A624C7B107AD08B5244
:101ED000518B6A4F59CD518C490A40CA514B514CD4
:101EE000594C618D510B598C69CE594C618D69CE1D
:101EF000614D618D594C69CE618D614D614D618D32
:101F000071CF614D698E614D698E694D698E71CF5A
:101F1000614D698E614D71D0614D698E698E614EE2
:101F2000614D698E7A10614D718F694E698F698E2E
:101F3000698E698E610D71CF614D718F698E698F68
:101F4000698E694E694D694E698E694E718E718ECA
:101F5000718F694E698E718F694D614E698E71CF37
:101F600069CF698E618E614E618E618E698F594D28
:101F7000598D598D59CD6A4E6A8E628D4A0A62CD4D
:101F8000630E62CD62CD62CE6B0E5ACD630D6B4E89
:101F90005ACC6B4E5ACD528C630D630E630D528B2F
:101FA000528B5ACB630C5ACB5ACB5ACB630C630B74
:101FB0008430A53494B194B28C30843083CF8C704B
:101FC0006B4C9CF2738E528A5ACA630B5ACB5ACA14
:101FD000528A6B4D738E630B52895ACA738D9470FB
:101FE00094B19CB294B194B19CB2B5B5B5B6AD7490
:101FF000B5B69CB28C319CF3A4F394B29CB2A4F31A
:10200000A4F3AD34A4F3CE78CE79CE79B5B6B57558
:10201000C638D679C638D6B9C637CE78CE79CE7816
:10202000DEFAEF7CDEFAEF7CD6B9EF3CD6BAEF7D74
:10203000EF7CDEFBEF7DDEBAF77DCE38EF3CE6FBD2
:10204000EEFCEEBCCD788B50724D931169CD829031
:1020500069CE720E7A507A4F829082D182D07A8F76
:1020600082D082D082D082D07A8F82D09CF41083AA
:10207000000008411042080008001882104129049D
:1020800018423145398749C8398731053987394779
:10209000520A4187398728C420C4290529053106F9
:1020A000394751CA6A8D51CA59CB59CB598C490A03
:1020B000304740C9598C514C510B594C618D598D49
:1020C000618E510B618D618E590C618E614E698EEE
:1020D000614E590D698E718F718F610D610D698E21
:1020E000718F718F694E694E694E694E714F694E9D
:1020F000694E694E694F698F694E698F718F614E64
:10210000610D694E694E718F610E694E718F718FCD
:10211000694F694E718F694E718F694E694F714F6A
:10212000714F694F610D690E718F718F718F718F52
:10213000718F694E718F718F610E718F694E718FC2
:10214000698F698F694F614E614E614E614E69CFF3
:10215000618E618D61CD6A4E6ACF418962CD528BAD
:10216000528B4A4A5A8C62CD524B630D4A4A630DD8
:10217000630D630D528B528B528C4A4B5ACC4209E1
:102180005ACC630D630C528A528A528A4A496B0CAC
:102190004A48734D738E8C308C71734D6B0C7B8EF3
:1021A00094717B8E842F8C708C718C309CF2A53353
:1021B00094B2A533A53394B17BCE7B8D83CE8C2F87
:1021C0009CB1734CA53394B1A4F3A533A534AD35BC
:1021D000BDF7BDF7A4F4B5B6A5349CF39CB2AD74BD
:1021E000BDF7A534BDB6AD34CE78B5B6BDB6B5B67F
:1021F000BDF6D679C5F7C638CE79CE78C638CE7852
:10220000CE79D6BAE73CD6BAF77DEF3CEF7CE73B18
:10221000DEFBEF7CE73CEF3CEF3CE73BE6FBF73DCA
:10222000EEFCEEBCCDB99BD28310720D82907A5039
:10223000825082507A5082518AD29313720E82D188
:1022400082D082D07A8F7A8F8AD17A8F8C721083E3
:1022500000010001080010421882108220C4188377
:1022600020C429053105394641C8520A398831460A
:10227000398741873947314631463946394639062B
:1022800030C6414851CA51CA4949494A40C8490A19
:1022900040C9510B598D618D618D594D594D698ED4
:1022A00069CF618E698E594D71CF590D614D698E1F
:1022B000614E79D0698E694E694E718F698E610D5C
:1022C000714F718F79D0694E694E694E718F7190DF
:1022D000714F718F690E79D1714F694F694E71904D
:1022E000718F694E718F694E79D1714F694F694F06
:1022F000714F7190610E7190610E79907190694F7C
:10230000690E79907190714F7190714F7990718FC2
:10231000718F714F79907990694E79D0694F718F33
:10232000694F694F718F718F718F694F698F594DE7
:10233000618D61CD61CD6A4E6A8E5A8C4A0A5A8B84
:102340005A8C5A8B5ACC5ACC62CD630D528B630D8A
:10235000630E5ACC5ACC5ACD630D5A8C630D4A4B3E
:102360006B4E5ACC630C5ACB5ACB630C5ACA6B0CCB
:102370005ACA5ACA83CF83CF8C7183CF842F94B229
:102380009CF3AD759CF2BDF7AD75AD74C5F7D6B9CC
:10239000BDF6C5F7BDB6C5F6A4F294B194B194707C
:1023A0009CF28C709CF294B1842F94B29CF3A5346F
:1023B000BDF7B5B6BDF7B5B6BDB6A534B5B5AD7507
:1023C000B5B6BDB6BDF6C5F7B575BDB6C5F8B5B6FB
:1023D000CE38CE78BDF7D6BACE78DEFACE78D6B97A
:1023E000DEFBE73BDEBAF7BDE6FBE73BE73CEF7C15
:1023F000EF7DEF7CEF7CE6FBF7BDE6FBF77DE6FCCF
:10240000EF3CF6FDD5F9A433831082D09B53825064
:102410008AD28AD28A9193138AD2931382D18B1251
:102420008B52831082D083108B1193529CF41082B4
:1024300000000000000008411041080010420800A0
:102440001041314628C42905418849C94188208462
:1024500039873106310628C429053947414749885B
:1024600028853907410838C738C738C740C8408869
:10247000594B40C9594C618D594D618D698E614EE2
:1024800069CF614E698E614E698E694E614E694EAB
:10249000614D718F694D58CC610D718F718F690ECF
:1024A000690E694E718F714F714F690E714F714F87
:1024B0007990694F690E714F714F694E690E714F76
:1024C0007190718F714F690E714F714F694F690E25
:1024D00071507990714F694F690E7190714F694FCA
:1024E000690E714F714F714F7990690E714F714F35
:1024F000798F714F714F694F690E81D1610E719063
:102500007190694F694F694F714F718F694E614D7D
:10251000614D618D598C5A0C6A8D5A4B5A8B420908
:10252000524A5ACC630C630D630C6B0D630D630D43
:10253000528B630D630E630E6B0E62CD630E6B4E9A
:10254000630D4A4A62CC630D630C6B4D734D83CFB0
:1025500062CB8C307BCE842F9471AD34B5B69CF2B7
:10256000BDF7AD74B5B6B5B6BDF7B5B5BDF7CE78A8
:10257000B575C5F7C5F6CE37B574B574B5749CB1ED
:102580009CF27B8D94B1A5338C707BCE8C71AD7534
:10259000A53494B2BDF79CF3AD75BDF7B5B6B5B62D
:1025A000BDB6B5B6BDF6B575AD34B5B5B5B6C5F7FE
:1025B000C637D679CE79D6BACE79CE79D679D6B98C
:1025C000D6B9D6BADEBADEFAEF3CE73BDEFADEFA7F
:1025D000E73BF77DE73BE6FBEF3CEF7CE6FBD6BA5B
:1025E000DEBBF73DDE7BAC748310620C8B128291F4
:1025F0008291825082918AD28291931282D1935297
:102600008B1182D083108B118B5182D09CF410835C
:10261000000008410801080108000000188310426A
:102620001883310539463987394739474188394751
:10263000394729053106310631064188520A51CA07
:102640003907410741083887388740C8384730067E
:10265000408848C9594C594C614D71CF8251698E9F
:102660008251614D7A11698F614D694E698E718F0A
:10267000614D698E610C694E690D714E718F694EA5
:10268000798F610D81D0694E81D1714F714F7990F1
:10269000718F718F610E714F714F8211718F694F00
:1026A0007190718F8212610E7990714F81D179D1C1
:1026B000714F7190714F7190694F7190719079D194
:1026C0007990714F7990690E7990690E7990718F38
:1026D00081D079D0714F718F694F79D0610E71902F
:1026E000718F79D079D0694F71D0694F8211698D1E
:1026F000698D618C598B624D72CE5A4B524A4A0990
:10270000630C738E738E6B4D738E6B4D83D06B0D1C
:102710006B4E6B4E73907B9073907BD18431843180
:10272000734E5ACC630D7B8F83D08C71A533A53348
:102730009CB29CF29CF29CF2AD34C638D6BACE78EC
:10274000D679BDF6C638CE78CE38C637BDF6DEFAB5
:10275000CE78CE38CE37D678C5F6C5F6C637BDF5B5
:102760009CB19CF2BDF6BDF68C707BCF94B2A534C3
:1027700094B29CF3BDF7A534B5B6B5B6B5B5B5B64C
:10278000BDB6BDB6B5B5BDB6BDF6BDF6BDB6BDB63A
:10279000C637DEBAE73BD6BAD679C638D6BAD6BA85
:1027A000DEFADEFADEFAE73BE6FBEF7CE73BE73BEF
:1027B000E73BEF3CEF7CF77DE73BF7BEEFBDD6BADA
:1027C000DEFBF77EEEFDBD37835072CE7A8F8290AE
:1027D0008AD28AD28AD28AD28AD29B5382D0935208
:1027E000939293928B518B10939293929CF31083BC
:1027F00000000801000000000000188220C418C377
:102800002083310531063106310631063147310664
:1028100029062084310639473946394741484989D4
:102820004108410849494909514A514A38873847BE
:102830004088510A510A618C510B614D618D698E3E
:10284000698E698E7A10698F698F614D694D698EC5
:10285000698E79CF694D718E694E718F694E718F16
:10286000718F718F798F714F81D081D17190714F3C
:10287000694F718F718F7190718F79D07190718F55
:102880007190698F79D1694E7190694E79D079D004
:102890007190694F71907190718F694F718F79D17B
:1028A00079D179907990610D7990718F718F694E9E
:1028B00079D079D0718F718F610E718F718F718F17
:1028C000698F79D079D0698F718F718F7A10698E05
:1028D000618D618C61CC728E8B916B0E5A8B630C07
:1028E000738E7BCF84307BCF843083D08431630D73
:1028F0007BD07BD08C72947384329CF494B38C72B2
:10290000738F6B4E630D734E9472AD34B575B575A0
:10291000C5F7BDB6BDB6BDB6BDF7C638DEFADEFB3F
:10292000D6BAD6B9CE78D6BAD6BAC638C5F7DEBAD0
:10293000CE38D679C5F7D678D678D678CE77BDB5E5
:10294000BDF6D6B9D6B9BDF68C7094B2AD75AD757D
:10295000A534B5B6BDF7B5B6B5B6BDF7B5B5B5B521
:10296000B5B5BDF6C5F7CE78CE78BDF6BDB6BDB669
:10297000C637D679CE38B5B6BDB6CE79B5B5C63878
:10298000DEBAEF3CE73BEF7CE73BE6FBEF7CEF7C1E
:10299000EF7CEF7CEF7CF77DE73CF7FEE73CDEFB6E
:1029A000E73CFFBFEF3DB5368BD272CF82D08B12A2
:1029B00093538B1293129353931393528B119392BD
:1029C00093929BD39B928B5193929BD39CF4210522
:1029D000084200010841084210421042104220C43F
:1029E00020832905310628C52084208420842906D7
:1029F000394728C5290628C528C530C52884414837
:102A000038C7490840C7594A598C61CC510A40C857
:102A1000598B48C9594B510B614C510B50CB614DEF
:102A200050CC590C614D614D698E590D614D590B5A
:102A3000698D698D614D610C694D71CF79CF718F51
:102A4000718F718F718F694E718F798F714F694E50
:102A500079D0694E7190614D698F71CF718F71D04E
:102A6000694F718F698F698E698F614E719079D0CE
:102A700079D1718F698F718F718F71D0694E718F1C
:102A80007190718F79D0694E718F79D079D0698EBC
:102A9000718F79D079D079D0694E71CF71CF821191
:102AA000718F718F79D07A118211614E79D0718FC7
:102AB000721061CD59CC7AD093D37B4F6B0D6B4D97
:102AC000738F843084307BCF84307BCF84306B4EE7
:102AD000738E8431A4F49CF49CB49CF49CB47B90DD
:102AE000843183D06B4D83D09472AD34BDB6BDB606
:102AF000B574C5F6B5B5C637DEFADEFAD6B9E73C29
:102B0000D6B9CE79D6B9CE79D6BAC5F7BDF6CE3814
:102B1000BDF6D6B9BDB6CE38D679D679C637BDB6EC
:102B2000D678D679CE78B5B59CF2AD74B5B5B5B6D4
:102B3000BDB7DEFBAD75C638B5B6C638C5F7B5B698
:102B4000BDF6BDB6D6B9CE78D6B9BDF6BDB6B5B56B
:102B5000B5B5B5B5AD3494B19CF2BDB6B5B6C63712
:102B6000E73BE6FBE73BE73BFFBEEF3BE73AEF7BAC
:102B7000F77CEF7CEF7CEF7CE73CF7BDDF3BEFBD04
:102B8000DF3CEF7DE6FCACF59C73624D83518B52CC
:102B90009352935393539B539B938B529352939281
:102BA0009BD39BD39BD393D293929BD3A53529459B
:102BB000084200000000108218C318821042290544
:102BC00020C42905310628C528852084310631070F
:102BD000314728C5310628C5288528C530C6414853
:102BE00041484908514A598B69CD618C514A510974
:102BF000618C594B594B618C618D594C594C614DCD
:102C0000698E594D590C614D590D614D614C590BEF
:102C1000718E698D698E614D614D718E8210718FDB
:102C2000718F694D79D0694E798F714E718F79D0DE
:102C3000714E718F694E79D0694E718F698F718F26
:102C400079D0614E79D0610D79D0698E694E718FDE
:102C500071D08211718F79D0614E71D0698E698E79
:102C6000718F698E821179D071CF718F821171CF7E
:102C7000718F718F71CF8211718F71CF698E7A11BF
:102C800071D07A1179D0698E7A1179D079D1698F22
:102C90007A516A0F620E7B1194338391734F630DE7
:102CA0006B4E7BD07B8F738F7BD06B4E8431734E9A
:102CB00084318431A535B5B79CB39CF494B383D0EB
:102CC0007B8F84318430A4F4BDF7BDB6C5F7B574ED
:102CD000C637BDB6CE38DEB9E6FBEF3CDEFBF77D8E
:102CE000CE79B5B6CE79C637CE38CE38C5F7CE3820
:102CF000BDB6DEBACE38D6B9D6B9D678CE37CE780C
:102D0000DEB9D678CE78BDF6AD74AD75AD74A534A8
:102D1000C638CE79BDF6CE79CE79C638C5F7BDB600
:102D2000B5B5BDF6CE38C637C637BDB6C5F7BDF6A4
:102D3000AD74A4F3AD349CB29CF29CF2AD75C63771
:102D4000DEBAEF3CDEBAEF3BFFFEEF7CE73BEF7B0A
:102D5000F7BCF7BDEF7CEFBDE77CF7FEEFBDDF3BD7
:102D6000EF7DEFBEEF3DB5778BD27B508B528B5210
:102D70008B529B939B949B93A39493529BD49BD3F2
:102D8000A3D49BD3A434A4349BD3A3D39CF41083A7
:102D9000084110830001000118C3290518C33146FA
:102DA00020842084208420842084208428C6310725
:102DB000314728C530C628C528C530C639074989D6
:102DC0003086514A514A6A0D514B48C9510A4088D0
:102DD000510A6A0D69CD618C614C618D618D614DC7
:102DE000614D618E48CB614D408A590C594C698DBB
:102DF000614C614C614D720F614D698E79D079D013
:102E0000718E718F718F79D079D0718F718F718F31
:102E10007990718F79D0718F718F71D0698F718F27
:102E2000698F718F71D0698F79D0718F71D0698FEF
:102E3000614E7190698F7A11694E79D0718F718F5F
:102E4000718F694E79D0718F79CF718F7A1071CF70
:102E500071CF698E718F8211718F79D0698E718F68
:102E600079D079D0718F718F718F79D08212698FFB
:102E7000618E725072506A8F8BD2734F6B0E6B4F94
:102E80006B4E738F738F734F7B8F6B4E7BCF7BCF6C
:102E900084319472A535AD35AD35A5359CB383D05D
:102EA0009CB37B8F94729CB2AD75BDB6BDB5D63860
:102EB000C5F6DEB9DEFAEF3CEF7CE73BE73BDEFA36
:102EC000CE79AD74C638B575B5B6B575AD75BDF707
:102ED000B5B6D679CE79D6B9CE78CE38CE78BDF61D
:102EE000C637D6B9C637A5339CF2AD34AD34A53458
:102EF000B5B6CE78AD74BDF6BDB6B5B5B5B6B5B59B
:102F0000C637B5B5CE78B575CE78BDB6B5B5BDB654
:102F1000AD349CF2B5759CF2AD349CB2B575BDF67E
:102F2000DEFAE6FBE73BDEFAFFBDE73BF7BDEF7CF1
:102F3000EF7CEFBDEF7DEF7DE73CFFFEDF3BEFBDBC
:102F4000EF7DEF7EE73DB5369C7372CE8B518B5291
:102F500093529B939B539B93A3D49B53ABD5A3D4E6
:102F6000A434A434AC35AC34A3D4AC35AD761082E3
:102F7000000018C318C418C42945294620C4314686
:102F800020C420C520842084208420842885310703
:102F9000398828C630C6310631063907390749490C
:102FA0004108494961CC598C514B48C9594B510A88
:102FB000514B8290618D594C510B720F7A50594D83
:102FC000594D48CB590C48CB590D594D71CE7A0FFC
:102FD000614D590B698D82507A0F71CF718E718F4F
:102FE0008211714E81D0714F821179D07190799098
:102FF0007990821179D07190694F821179D171D015
:1030000071D0718F821271D0821271D0821179D0F9
:1030100071D0718F718F825179D08A5279D07A10A4
:103020008211718F79D0718F821179D082117A10CB
:103030008211821182118211718F8A5271908A924B
:10304000694F79D082117A119293614E8253698FC0
:103050007A926A0F620E73107310734F6B0E843284
:10306000738F738F7B907BD083D07BD07BD06B4D65
:103070008C7194B2AD35BDF8B576BDF7AD35AD7593
:1030800094B2A534AD34AD75BDB6CE38D6B9E6FA36
:10309000F77CE6FAFFBDFFFEF7BDEF7CDEFAC63730
:1030A000BDF6B5B6A4F3AD749CF394B294B2A53456
:1030B000AD75BDB6CE38CE78D679D6B9CE37BDB5DA
:1030C000B5B5F7BDB5B59CF294B1B575B575B57527
:1030D000CE38D679CE78B575B575AD74B5B5CE3870
:1030E000D679CE78CE38C637D6B9C637AD34B5B571
:1030F000AD74AD34B5B59CF2BDB6BDB6C5F7D679E5
:10310000DEFAEF7CEF3CF7BDFFFDFFFEFFFEF7BDF3
:10311000F7BEFFFFFFFFF7FEE77DFFFFFFFFF7FFB3
:10312000EF7EF77EF73EB53793D27B1093529B9399
:10313000A3949B939B93A394ABD5A394ABD5A3D417
:10314000AC35B476B476A3D4A3D4B476BDF829450F
:1031500000000001108329463186210510421042EB
:10316000184328C52084184318032084310728C633
:1031700028C628C5394739073106310630C649897E
:1031800038C740C849094909408848CA40C948C9A0
:10319000594C594C514C4089510C618D69CE594D57
:1031A0003849510C3849510C510D618E698E698E28
:1031B000614C698E698E698E718E698E610D718F19
:1031C000718F81D1798F81D179D079D179D1714FB6
:1031D000714F714F79907990694F694F71907190EB
:1031E000694F694F7190718F79D1718F694E694FB5
:1031F00079D079D0694F79D0694E79D0714F718F7C
:10320000718F718F718F694E79D0694E79D0718FBE
:103210007990718F718F79D0610E79D0718F718FA4
:1032200079D0698F718F71D0694F698F614E72103B
:1032300069D061CE51CD5A0D7B51630E5ACD738F3B
:10324000630D738E734E738F7B90734E738E62CB50
:10325000738E8C71A535BDB7BDF7B576BDF7A4F4F7
:103260009CB2A4F3D6BAD6B9E6FBEF3BE73BFFBD71
:10327000F77CFFBDF7BDF7BDE73BD6B9CE78A4F329
:10328000A534738E8C307BCF8C717BCF7BCF843019
:1032900094B28430A534B575CE38D679BDF6B5B5BF
:1032A000D6B9D6B9D6B99CF29CF294B1A4F3AD3498
:1032B000B575C5F7E6FBD679BDB5B5B5AD74BDF648
:1032C000CE38BDF6C637B575C637B5B5A533A4F249
:1032D000A4F2A4F3A4F39CB2AD34B5B5B575BDF6B4
:1032E000D679D6B9EF3CF77CF77CFFBDF7BDEF7C14
:1032F000EF7DF7FEF7FFF7FEE73CF7BEEFBEFFFFFF
:10330000E73CEF3DE6FDACF593D283108B51935231
:103310009B52931293129B1393139B1393129B52E2
:103320009352A394A394931293129B539CF43186CB
:1033300010820000084118C31083080110421002D7
:10334000208441883907288520443907310730C750
:1033500041895A4C6ACE51CA39074148518A59CBE2
:1033600038C7284640C83087304738873046514AEA
:10337000514B514C594C720F71CF594D50CB488B1A
:10338000510C618E594D618E614D618E71CE698D8A
:1033900050CA8AD2590C590C610C79D0798F694E78
:1033A00079D0714F9253719079D1690E81D1921376
:1033B00079907990694E925379D071D0719079D18A
:1033C0008212694E7A11694F8A5279D07190719048
:1033D00079D08212694F79D1694E8A5279D0718F32
:1033E000714F79D18211718F81D1610D8A5382120F
:1033F00079D0694E71908212718F7190694E8A52A4
:1034000079D1718F718F79D08A52694E71D069CF1D
:103410007A516A0F620E628E6B0F7350630E528C7C
:103420005ACC84317B8F7B8F8C72734E84306B4E81
:103430008C719CB3AD75CE79CE79BDF7B576C638B3
:10344000AD74D679CE79CE78CE78DEBAF77CEF3B04
:10345000F77CFFBDF7BDEF3CE73BE73BC637BDF769
:1034600094B28C7083CF94B27B8E83CF84307B8E6A
:103470008C30630C8C71A4F3C5F7C637CE78DEFAB6
:10348000CE38C637BDF6AD747BCE842FA4F3B574A9
:10349000CE37B575F7BDE6FAD679D678CE78D67838
:1034A000CE78D6B9D6B9C5F7D678CE37AD749CB13B
:1034B00094B194B194B1A5339CB2A533C5F7CE793C
:1034C000CE78D678DEFAEF7CE6FAF7BDFFFFF7BEDE
:1034D000F7BEF7BEFFFEFFFFEFBDFFFFEFBDF7BE7C
:1034E000FFFFFFBFEEFDA4746A8D939293528B127F
:1034F00093129B129B5393128A919B5393129B534B
:103500008AD28AD29313931393138AD19CF4108393
:103510000000084200010000080110421042184358
:10352000100228842885390638C62044204418040F
:1035300030C638C7498938C638C6308630864949CA
:1035400028452004288538C730C620442885288689
:10355000414A2887518C618C614C48894049614DB2
:103560003849594C69CE618D590D590C614D614DE9
:10357000618D594C618D590B690D690D710E710E7C
:10358000714F81D1694F71D1718F714F710F8190DE
:103590008190714F718F694E71D0698F698F618F82
:1035A00071D171D1698F698F698F71D0718F718F6E
:1035B000694F79D07190694E7190694F7190719097
:1035C000718F698F719079D17190694F698F71D0C6
:1035D0007190694F698F821179D0694E718F718FA7
:1035E000718E718F718F614D718F718F698E614D89
:1035F00069CF6A4F59CD5A4D7310730F6B0E4A4AFB
:1036000062CC6B4E7B8F734E6B4D62CC630D630D42
:103610006B4D8C71A534B5B6CE78B5B5CE78A533E3
:10362000D678E6FACE78BDB6CE38D6B9DEB9E6FBA6
:10363000DEB9F77DE73BEF3CE73BD6B9C6379CF2F6
:10364000A533734D9471738D8C308C307B8E947157
:10365000734D6B4C734D83CF94B1BDF6CE78D6B914
:10366000CE78BDF6D6BAA533A5339CF2A4F39CB2AE
:10367000AD34AD34DEFAFFBEE6FAD6B8DEBADEB956
:10368000C637B574DEBAAD74CE37B5B5A533842F61
:10369000842F94B16B0C9CF394B2A5339CF3C63881
:1036A000CE79C638D6B9DEFAF7BDDEBAFFBEEF7CFA
:1036B000EF7DEF7DDEFBF7BDD6FAFFFEE73CEF7D49
:1036C000FFFFFFBFE6BCA4748B917A8F9312720E3A
:1036D00082908A918AD28AD269CE93137A509312B9
:1036E000720F8AD18AD28A919313590B94B218C35C
:1036F000000118C3104210421042100228C528C50C
:103700003906394741484148410730862045390844
:1037100030C6390738C649084908514959CB4108CC
:10372000518A308630C730C641474147394749CA78
:103730003148520C414A598B50C94888618D618D7E
:10374000598C598C8AD169CD614D614C614D698E1E
:10375000494B514C598C720F694D798E798F81D0BC
:103760009A93714F698F698F8A528A1279908191E9
:1037700081909252798F9AD4718F82527A117A11F4
:103780007A1269908A9371909AD4718F8A538211B8
:1037900082129293698F92D47190929471D08252D6
:1037A0008A5382528A537190929479D18A537A11B2
:1037B00082128A5282128A52718F929379D09252D7
:1037C00081D082118A5282119293694E92D371CF25
:1037D0007A516A0F620E7B1183928C336B0F7B9050
:1037E00062CD947283D07BCF8C316B4E630C5ACCFC
:1037F0008C7194B2BDF6DEFBE73BE73BD6B8CE78E2
:10380000D6B9F7BDE73BCE78D679E6FBF77CD6791B
:10381000E73BD679F77DEF3BC638B5B5AD75C5F753
:10382000AD34842F8C709CB283CF842F94719430EC
:1038300094717B8D9CB2734DA533B5B5C637CE78E8
:10384000DEFACE78D6B9D6BAAD74C5F7BDF7AD34C9
:10385000C5F7AD74FFBEF7BDF7BDE73AEF7CE73BB8
:10386000CE78D678DEB9F77DE6FBCE38AD74A4F31A
:103870009CB29CF29CB29CF29CB28C71BDF7CEB90A
:10388000D6B9DEFBD6BAF7BED6B9EF7CF7BEFFFEDF
:10389000E73BE73CFFFFF7FEFFFEFFFFFFBEFFFF3A
:1038A000FFFFF73DDE3BACB572CF8B118B129B5304
:1038B0009B5493138AD29B54931393138AD282D12D
:1038C0008B1393139313931393139B139CF31083F2
:1038D00021041042108318831042100210422084E9
:1038E0001803390728C5288530C63907518A59CBAE
:1038F00051CB49494949518A4908518A518A518ACB
:10390000204530C620442044100118434147394720
:103910004A0B4149414A308648C8510A514A598C9C
:10392000518B518B59CB728E59CC518B4089384871
:10393000494B284761CD594B698D698D798E798FB7
:10394000714E81D0698E8211698E714E7950795095
:1039500081D1794F798F694E694E694E698F69902F
:1039600071D17A1269907A11694F694E694E718FDF
:10397000718F718F79D0694F8211698F718F698FC3
:10398000694E7190718F79D0610D8211718F719034
:10399000714F718F79D0798F79D060CC79D0690EE1
:1039A000714E694E718F718F694E694E698F69CF03
:1039B000618E598D518C5A4D7B517B51A4F6730FFA
:1039C0007B906B0D730E734E83908C31630D6B4E39
:1039D0006B4D94B2BDF7DEFBEF7DE73BF7BED6B98A
:1039E000FFFED6BACE78AD75B5B6D679DEBAD67842
:1039F000AD34CE78C637D678BDF6A5339CB2947177
:103A000094B2734D8C3083CF8C308C30838E947114
:103A1000730DAD3362CB5ACA6B4C9CF2C637DEFADB
:103A2000F7BDDEFAF7BDDEFACE78CE78D679BDB630
:103A3000AD34D6799CB2D6B9DEFAE73BE6FBEF3B74
:103A4000F77DCE78D679E6FADEB9BDB6A5339CF21D
:103A50009CB28C70738D8C716B4D94B194B1ADB57B
:103A6000D6B9C638C637D6B9FFFED6B9F77DEF7CD2
:103A7000E73BFFFFFFFEFFFED6B9F7BDFFFFFFBE2E
:103A8000FFBFFFBFD5FA8B91835161CC8AD18250A1
:103A900092D27A507A508AD271CF9B54618E8AD258
:103AA000720F7A5082507A509313614CA534294595
:103AB000188210420801188331063987398828C5D1
:103AC00031073907414830C730C74149414A518B16
:103AD000518A728E6A4D51494949598B6A4D518AB2
:103AE000204518032844288439064147390641886F
:103AF000310741894149490861CB61CC514A59CCD0
:103B00008B5159CA514951496A4D598B510B40C982
:103B10003888490A598C7A0F69CD82508A91798EFA
:103B2000818F798F925279D079CF714E92128A1209
:103B3000794F81D1798FA2D481D071907190821107
:103B40008A93694F694F694F9293821192937A11C8
:103B50007A118A93718F8211694E8A937A119293A6
:103B600092938A529293610D8A52690D9A93718F42
:103B7000694E714F79D09252610D8A12694E9AD472
:103B800082128211821179D19AD5694F92D469D06B
:103B900082D37250620F72D07B11BD799C746ACE51
:103BA0006ACE94737B8F7B4F9C72734E9CF394B35D
:103BB00094B29CF3BDF7CE79EF7DEF7DCE79EF7DAA
:103BC000D6BAFFFFEF7DDEFBCE79CE79CE37D67841
:103BD000CE78DEB9F7BDDEFACE78C6379CF29CF31C
:103BE0009CF39CF3A4F39CB27BCF7B8E94718C30BE
:103BF0009CB262CBA4F38C30842F94B1BDF6FFFE4F
:103C0000EF7CF7BDE73BF7BDDEFAD6B9C637C5F6A0
:103C1000DEBACE38E6FBD679EF7CF7BDD6BAAD7505
:103C2000C5F7FFBEFFFFFFBEEF3CCE37B575A4F36F
:103C30009CB28C308C70734DA4F3842FB5B5D6BA7A
:103C4000CE38D6BAE73BEF7CCE78FFBEFFFEFFFE54
:103C5000FFFFFFFFF7BDFFFEFFFEFFFEFFBEFFBF42
:103C6000FFFFEEFDC578AC75728E8B52ABD59B1302
:103C700092D2A3549B149B1392D27A509B5482915C
:103C80008AD27A50829193138A91AB95A4F31882C9
:103C90002904104220C420C420843106184328C5BA
:103CA00018444189498A41893908288641092046B2
:103CB000518B59CC620C38C738C741084108620C97
:103CC000180338C72044204310002883390528846E
:103CD0004948308540C7388640C65148598A61CB2B
:103CE000598A618A38444085304438863847384894
:103CF000594C69CD618C614C594B718D79CE81CF16
:103D0000814E814E794D818F794E794E794F81D197
:103D1000794F794F710E710E8190690E714E714F0E
:103D2000714F81D1714F714E714E718F714F79D139
:103D300082117190718F694E694E694E79D0718F81
:103D4000690D718F718F81D060CC798F714E81D068
:103D500079D0714E718E798F8A11610D718F590DE5
:103D6000698F698F6990699071D08253614E618FBC
:103D7000514D514C494C51CC7B529C75A4B583910B
:103D8000730F6B0D7B4E7B4F730D6B0D734EA53414
:103D9000A4F3C638C639E73DEF7DDEFCFFFFDEBB8E
:103DA000F7BFCEBACE79C638D6BADEFACE78DEF90B
:103DB000C637F7BDDEB9D678B5B59CF28C717B8E6F
:103DC0009CF39CB29CF37B8F8C3083CF7B8E947161
:103DD000734D9CB262CB7BCE738DA533D6B9E73BD6
:103DE000F7BDC637D6B9C637CE78D6B9CE38CE38B5
:103DF000CE78FFBED679F77DE6FBD67AA534738EF2
:103E0000734DAD34DEBAD6B9D679DEBAD679C5F6F9
:103E10009CB183CF7B8E9471630B8C7094B1B5B5DC
:103E2000D6B9CE78DEFAD6B9CE38CE78FFBEDEFB74
:103E3000E73BEF7CEF7CFFFEF7BDFFFFE73CFFBFFA
:103E4000FFBFE6BCACB572CE8311724F931371CE37
:103E500092D28250821092D2698EAB96614D9B5461
:103E60007A508291829171CF92D2614C9CB220C4DF
:103E7000104129053146314631464188394841894A
:103E800049CA39084149498A414930C7288739090F
:103E900051CB8310728E59CB518A4108494928452C
:103EA000598A410741062042288230832842410531
:103EB00038C55989380448864085618A7A4D69CB6E
:103EC000590740446948484440444046510A698D76
:103ED000698D92D1714C929071CC820E820E89CFF5
:103EE000B292914EAA5191CFA21091D089D0814F18
:103EF0008990A253898FB2D4898F9A52794F798F42
:103F00008190798F925281D0A2D481D0925281D166
:103F100082118211714F9AD4718F9AD4718F8A1144
:103F200092528A118A51714E9AD3714E925279D01F
:103F300082108A117A108251610D929379D092D4B5
:103F40007A117A11825271D18293510D92D47210EA
:103F50008AD372506A0F83127B52B538A4B59C7312
:103F60008350A4B48BD1838F9431730D9471A4F3D7
:103F7000B5B6CE79D6BAD6BADEFCEF7EDEBBF77E1A
:103F8000D6BAEFBEDF3CE73DE73CD6BADEFAD6B89C
:103F9000CE37D678F77CE6FACE78BDF6A4F39CF25D
:103FA000947194B2AD3594728C31A4F4A4F49CB3A2
:103FB0009CB284309CB284309CF2A534B5F6C678AD
:103FC000D6B9D6B9CE77DEFACE78E73BEF7CE73BC1
:103FD000EF3CDEBAFFFFFFBEDEBBAD357B8F524A42
:103FE0005A8B94B2AD75FFBEDEBAC5F6BDB6C5F646
:103FF000BDB6AD349CB26B4C94719CF2C637D6B949
:10400000E73BE73BC5F6D6B9D6B9FFFEDEFAEF3C93
:10401000EF7DDEFBFFFEFFFFFFFEF7BDFFBEFFBF34
:10402000FFFFCDFA8B929BD3831193539B5492D372
:104030009B14A31492D39B149B1492D392D371CF4D
:104040007A508AD293138A92821092D2A4B320C457
:1040500020C33105394628C4208431062885498982
:1040600039483948288628862885204530C83909A6
:10407000498A498A4949410830C641073086308516
:104080005149514838C428422841388340C33842F6
:1040900040843003400440034804484458C7610842
:1040A0004804400258035803480358C7590A69CDC9
:1040B0008A4F798D89CE794B81CC81CD794C918D88
:1040C000994DA14E890C910C810B99CF894D790C9A
:1040D00099D0918F998F810C894D894E91CF814EC6
:1040E000794E89D0710D89D0710D818F798F81D0F2
:1040F000798F718F8211718F81D0718F79D0718F8B
:10410000718F79CF718E81D081CF81D079CF79CFE6
:1041100071CF71CF71CF71CF7A1071CF7A10698E54
:10412000698F71CF71D069D06990698F718F698FF4
:1041300069CF594D514C6A4F8B93ACB6ACB67B4F9F
:1041400094328390943194319431A4F39CB2D6B9D3
:10415000D6B9D679BDB6BDB7D6BACE7ACE7AD6BBE9
:10416000F77EE6FCD6BAD6BAD6BACE78CE78CE7777
:10417000A533D6B9CE77D6B9D6B9BDF68C70A533EE
:10418000A533A4F394729CB294318C3183D08C31DA
:104190007B4E9472738E6B4C94719CF29CF2B5B50D
:1041A000C637A533BDF6D6B8EF7CE73BD6B9E6FAFD
:1041B000DEB9D679E73CFFBFBDB784315A8B2946BB
:1041C00039874A4A7B8EBDF6E73CF77DD679BD76C6
:1041D000AD349CB294719CB2734D94B1AD34BDB604
:1041E000D6B9DEFAF77DB5B5D6B9CE38D6B9D6BAD6
:1041F000E73BDEFBE73BFFFED6BAFFFFEF3DFFBF2D
:10420000EEFDBD378B9283107AD0720E8AD3821066
:104210008A928A52825192927A1092D471CF8A9263
:104220007A508AD28A9179CF8A91698DA4B3314626
:104230002083310628C418431843310630C6390795
:1042400028C628852885288528863907410938C742
:1042500028854949728D620B410738C64107598943
:1042600082CD69C95146408248C3594450C3510464
:10427000380140024803690779886907508550452D
:1042800068C6580380C678C6898989CB8A8F92D13F
:10429000820E818C91CD898C898C9A4E9A0E998D43
:1042A000B1CFA90CB9CF990C914B914C998E998EA5
:1042B000914DAA0F994CA18D994D914D914D918E93
:1042C000898F89CF91D0818F9A51818F818F794E3B
:1042D00081D09252798F8211610D929392938A527A
:1042E0008A528A518210798F9252798F8A5179CF6E
:1042F00071CF71CF71CF821079CF92D3698E8251F5
:1043000082517A117A1071D0825271D0929371CF0A
:104310008251720F6A0E7AD18311ACB5ACF6C578B2
:10432000B4F5BD77BD76A4B3943183CFA4F2A4F2E3
:10433000C637B5B5BDF7CE38D67AEF3DD67AF7BEDB
:10434000EF7DEF7DDEFBDF3CE73CDEFBEF7BD6B8AD
:10435000E73BCE78D6B9CE78CE78D6B9E73BBDF676
:104360009CB29CB2AD34B5B6AD35947294729CB328
:104370008C31734D947194719CB28C70842F9CF22B
:10438000AD74C637D6B9EF7CEF7BF7BCE73BD6B947
:10439000F7BDCE387B8FA534B5B784314A09318754
:1043A00039C8528B39C7734DC638D6B9BDB6C5F7B3
:1043B000C5F7AD34C5F7A4F39471C5F6CE38D678F9
:1043C000D6B9D6B9D6B9CE78DEB9F77DE6FBE73CEB
:1043D000E73BDF3BEF7CDEFBEF7CE73CEF3DEF3E76
:1043E000EEFEB5377AD08B5283118AD282519293E6
:1043F0008A52929382518A528A9271CF8A938251C1
:104400008A9282517A108A9192929AD3AD3549C993
:104410004A09418828C5208420843106288430C573
:1044200020442885308530C630C638C65189284496
:1044300038C63084724B59C940C54906594769C9C5
:104440006988614750C360C37144694458C2484099
:1044500040004801584268C5714769065044588475
:104460006885790778C578C570C56907698A698ADA
:10447000798B7909918B788881098109918B910ACF
:10448000A0CAB14C9088990A88C9914A998C994BD5
:10449000A18C910AA18C90C9A98C910B910B810CD4
:1044A000894D814E70CB814E818F89CF818F794E1E
:1044B00081D0798F718E8211718E71CF79D079D040
:1044C00079D0718F71CF718F714E718E718E79D05D
:1044D00071CF698E718E71CF79CF71CE71CF71CF5F
:1044E00071CF79CF698E718F7A10718F718F79D07A
:1044F0007A10618D598C6A0E7AD09C34B4F6B4F679
:10450000B535BD76B53594728C3094719CF2AD336F
:10451000A5329CF2A534BDF7CE7AD6BACE79EF3D5E
:10452000EF7DE73CEF7CE77CE77CEF7CDEFAF7BCD5
:10453000DEFAEF7CDEFACE78CE79E73BEF3CDEFAAE
:10454000BDF7A534A4F4AD35A4F49CB394318C31FB
:10455000838F94717B8E947184307BCF83CF7BCE9D
:10456000A533D6B9D6B9D6B9EF7CEF7BEF7BE73B65
:10457000DEBAC5F741C7524A528B62CD318720C49B
:1045800039873987420942086B4D8C309471AD34BC
:10459000BDB6C5F7B575C5F7B574C5F7D679D67983
:1045A000CE38D679D6B9D6B9E6FADEB9D6B9D6B903
:1045B000E73BEF7CD6BAC678DEFBFFBFE6FCE6BD84
:1045C000D5FAA4756A4E6A4E8B12720F825182110F
:1045D0007A10718F8A52929371D08A527A108252D5
:1045E0007A1071CF79CF82108A9171CFBD7741C98E
:1045F00041C9418939473947310628C541484147B2
:104600003906498859CA518939073085518859C9AD
:104610004106494651875987514669C9720A6988D6
:1046200061467187714560C3710489C67984588178
:1046300050006083688470C47947794760C660C55C
:104640005884604389887105608458C5590761485A
:10465000714A898B910988C880C8894A998B990ABF
:10466000B14BB98CA94BA14A998A998A994A914A26
:10467000A18BA14BB1CDA10AA14B994B994C918D26
:10468000814D898E794D794D9210818F8A108A10D3
:1046900081CF8A5179CF8A5179D082517A10825153
:1046A00071D082118251718F8A52718F8251718FB4
:1046B000821082108A518A9171CF8251718E82103C
:1046C00079CF82108A5182109252718F9A9379CF4A
:1046D000825071CE724F82D18311ACB6ACB5BD7829
:1046E000CDF9C5B7B5359CF39CB2A4F39CB1AD74BC
:1046F000B5B59CF294B1AD74D67AE73CDEFBE73DEC
:10470000E73CEF7DF7BDF7BDF7BDFFFEF7BDFFFE50
:10471000E73BFFFEF7BDDEFBDEBAE6FBE73BE73C2F
:10472000DEBABDB6AD35ACF4A4F49CB39472947209
:104730009472A4F49431A4F394B2947194B18C71F2
:10474000AD74EF7CF7BCE73BEF7CF7BDE73BE6FAE7
:10475000D679AD7462CC2905314639C8314729462E
:104760003988524A3987528A4A085ACB7B8E9CB282
:10477000C5F7DE7AC5F7D639CE38B575C5F7D6791F
:10478000E6FBE73BDEFAE73BDEFAE73BDEFAE73B38
:10479000EF7CEF7DE73BDEFBEF3DFFFFFF7FE6BCFD
:1047A000D5FB8B926A4E7A906A0E92D37A118A5216
:1047B000821182518A52821182518211825271D0A9
:1047C00082527A107A10825179D08A51A4F528C683
:1047D000208528C629064188418828C630C6394721
:1047E00051CA5A0A5A0B4989390630C559C8620A52
:1047F0006A4A4105494640C4490561C871C96146D4
:10480000508350835842584170C2898579446080F2
:104810004800608370C470C479466905508461069D
:104820004843480260C46905484250C450C650C657
:1048300068C7688680879109994B998B914B990A33
:10484000A10AC1CD98C899499989A1CB998A998A19
:10485000A18BA9CCB20DA98B994BA18CA20E9A0E5B
:10486000818D81CE798E714D8A10798D81CF8210A4
:10487000821071CF7A107A107A51721069CF71D08C
:104880008293825171D0694E821179D0821079CF92
:1048900079D08A518A5171CF718E82108210821024
:1048A00081CF718E8210925281D0718E79D07A1020
:1048B00071CF720F6A0F6A4E7AD093D3A4B5B53711
:1048C000C5B9BDB7AD359CB39CB39CF394B29CF213
:1048D000B5B5A53494B29CF3AD75BDF8CE79E73C7F
:1048E000E73CEF7DEFBDEF7CEFBCFFFEF7BEFFFFC7
:1048F000EF7CF7BDEF7CE73CE73CD6BAD6BAEF3C9D
:10490000EF7DDEBAC5B7AD35A4F4A4F4ACF4A4B41D
:104910009C729CB38C309CB29CB29CF2A533AD745B
:10492000C637DEFAFFFEE73BEF7CE73BDEB9CE7829
:10493000BDB6A5339CF3290518841883108321057F
:1049400039874A4A4A4939C84A494A085A8A734EF5
:10495000A534DEBAD679BDB6BDB6A4F3AD74C5F73D
:10496000DEBAE73BE6FAE73BCE38E73BE73BFFFE44
:10497000F7BDEF7CEF7CDEFBE6FCFFBFEEFEE67CE6
:10498000A4757AD0724F724F82917A1071CF79D01C
:1049900092938A5279D079D079D079D07A1071CF28
:1049A000698E8251825171CF821079CFA4F631483D
:1049B0002907290731074189398828C6310749C99C
:1049C0006ACE628C51CA390728C6390649486A4BF3
:1049D000620A410530C42042284238C4514648C5C5
:1049E000404361057146714571448185794469038D
:1049F00060C471067947818889C9714861076989EE
:104A0000694850C559056146698869CA720B71CBFE
:104A1000718A71097047914C894B894B918D914CEA
:104A2000994BB1CD91099949A20B9A0B9A0C9A0C0A
:104A300099CCA1CCA9CCB20D998BA20EB2D1A290E7
:104A4000924F8A50820F7A0F821071CE79CF8251A5
:104A50007A107A1069CF7A5272116A106A107A51FC
:104A60007A517A517A10698F825171CF82118210F6
:104A70008A52825182518A518210929279CF821049
:104A800079CF7A10821182108210718E82117A1081
:104A900082526A0F61CD6A4F72D09434B538ACF649
:104AA000AD37BDB8AD769CF494F39D34ADB694F3B8
:104AB000AD759D349CF394B39CF4A535B5F7E73CF4
:104AC000F7BEEF7DE77CE73CEF7CF7BDF7BEEF7DFF
:104AD000E73CFFFFEF7DDEFBE73CE73CCE78D6BA54
:104AE000E6FBE73CDEBAC5F7B576B576C5B7C5B81F
:104AF000C5B7C5F8BD76BDB6BDB7BDF7C5F7D6B964
:104B0000D679D6B9E6FBEF7CEF7CDEFADEBACE389A
:104B1000BDB6C638DEFB6B4D39C8210521052946D7
:104B200029454A4A4A494A494A4942084A095A8B48
:104B3000738E9CB3A4F36B0D734D9471B5B5C5F72B
:104B4000D679DEBAE73BE73BCE78E73BF7BDFFFE21
:104B5000FFFEF7BDE73CE6FCEF3DFFBFEEFDCDBA43
:104B60008351728F724F7A508AD37A10718F82116B
:104B70008211825179D071CF8251698F8252698FAF
:104B800082527A107A1192D371CF8210B5374A0BC4
:104B9000314820C629073148314831074189418AC7
:104BA0005A4D5A4C49CA2907208520C64189520BC3
:104BB000418928C518431043104328C5390738C612
:104BC000304569CA7A0B7A0A61056104718771C838
:104BD000824B79CB7189718A714A718A698A618A3B
:104BE00069CB7A4C6A0B6A0A61CA59CA61CB69CC33
:104BF0008A8F9A9191CF9A1081CF8A1092519A51AF
:104C00009A10B2919A0EA24FAA8E920D9A8FA2D0AC
:104C10009A4E9A0D9A0DBAD1A24FAAD1A2D19B1247
:104C20009B12931393138AD2931382918AD38AD3BC
:104C300082928B147A9282D3725182D47AD37AD3AD
:104C400072517A5282528A928251821082518A52D1
:104C500082517A108251829182517A1071CF7A10EA
:104C60007A51825271D0698F7A517A117A11618F9B
:104C70006A106A10620F62506A908BD4A4B79CB617
:104C8000A4F7AD78AD379CF59CF49CF5B5F9A57605
:104C9000ADB894F48CB38CB39D35ADB7B5F8DF3DAA
:104CA000EFBEE77DE73CE77CEFBDEFBDE73CDEFC18
:104CB000E73CFFFFEF7EE73CEF7DE73CD6B9CE79DE
:104CC000D679E6FBEF3CDEBBCDF8C5F8CDF8D67A59
:104CD000DEBBDE7AC5F8BDB6BDB7C5F7DEBADEFA13
:104CE000CE78D6B9D679E6FBEF7CEF3BD6B9D6794C
:104CF000D679DEBAEF3DAD75738F39C82105210530
:104D00003187420931864A4931864208398741C88C
:104D10004A0941C8420829454A49A4F3CE38D6B9C0
:104D2000D6B9D6B9EF7CEF7CE73BEF7CFFFEEF3BDB
:104D3000F7BDF7BEE6FBEF7DFFFFFFBFD63A9C74E1
:104D40007AD06A4E724F720F614D7A1079D08251CB
:104D5000718F7A10825182118252614E7A1071D015
:104D60007A1169CF698E79D079D08211B53749CB64
:104D700020C61885310841CA524C5A8D524D41CB3C
:104D80004A4C5A8E5A8E39CA290820C741CB294924
:104D900039CB108510C610C618C7318A39CB41CB24
:104DA000418B6A4E6A0C61CB51075147720B724CB2
:104DB00082CF6A4D598B594A48C9614B6A0E6A4F76
:104DC000624E8B927B0F7B10520C49CC51CC5A0E09
:104DD0008B139314A35592D48AD482D382D49B5636
:104DE0009B14B3969291AB94AB52A352A353A3538B
:104DF000A312A2D1A2D1C394AB12B393A353A39491
:104E00009B949394A4378B13AC379355A3D7939665
:104E100093D78B968B568B968355939683148314D6
:104E200093558AD38292931482519B148A929B1435
:104E300082518AD28AD37A5182D372518B137251A2
:104E400082D37A936A117252725282D4725272521F
:104E50006A527AD372D36AD1731373528C35A538E0
:104E6000BDBAB579A537A537A5379CF6ADF9A5B874
:104E7000ADF995368CB48CB49D76B639C6BBDF3DA2
:104E8000DF3CDF3DEFBEEFBEE77CDF3CDEFCDEFC5F
:104E9000E73DEFBEE73DF7BFFFFFDEFBDEFADEFBDF
:104EA000E6FBE6FBEF3CEEFCDEBBDE7ADE7BEEFCF7
:104EB000E6BCDE7ABDB6B535BDB6CE38D6B9D67944
:104EC000D679D679D6B9DEFAFFBDEF7CDEBADEBA86
:104ED000DEFBCE79E6FCCE799CF34A4A18C4210465
:104EE00039C8294529452945210429452945294508
:104EF0003186210418C33145630CBDB6D679D6B9C5
:104F0000D6B9E73BFFFEE73BE73BE77BFFFEEF7CE5
:104F1000E73BEF3CEF7DFFBFFFFFF77FC5B993D3C2
:104F20007AD07A90724F720F69CF79D071CF7A10A0
:104F30007A1079D08211825179D071CF7A1171CFE4
:104F40007A1171D071CF7A1079D08251A4B63948D4
:104F500020C629074A0B5A8E62CF62CF4A4D4A4D6E
:104F60004A4D5ACF4A8E420C318A1909218B218C25
:104F7000194A218B194B114A2A0D320E3A0F31CDA5
:104F8000420F6B126290418B414A5A4D731073115C
:104F90006B115A905A5051CE494C59CE72D36AD2A5
:104FA00062D262D162D062D05AD0524F420F525177
:104FB000525162D372D58B9873565AD55A946B1648
:104FC0008B988316831483549BD5A3D69B959B956E
:104FD000ABD5ABD5AB94B3D5AB93ABD4A3D5A436FB
:104FE00093D693D5A4778B95A437939693D794387B
:104FF0008B978BD783568BD78BD793D78B969BD793
:1050000093959BD69B549B54A3549B548B138B1307
:10501000935493548B54835483138B558314835428
:105020007314835583557B15835672D483157AD4B4
:10503000835673146AD3735473547B948435B57B4D
:10504000CE3DBDFCB5BABDFBB5BAADB9B63AADFA09
:10505000ADFAA5B895779536ADF9C6BCD73EDF3D1C
:10506000CEFCDF3DEFBFE7BEDF3CD6FBE77EDEFDDB
:10507000DEFCF7BFEF7DF7BFF7BEEF7DE6FBEF7D10
:10508000F77DEF3CEF3CEF3DEEFCE6BCE6BBEEFD12
:10509000EEFCEEFCDE7AD639CE38DEBAD679E6FB07
:1050A000D6B9E6FBDEBAF77DFFBEF77DEF3CEF3CFD
:1050B000E73CD6BAEF7DCE799CF35ACB39C7298627
:1050C000210418C4294618C418C3084229452105DB
:1050D000294529463186630C8C70C637D6B9D679F6
:1050E000D6BAF7BDFFFEDF3BE73BE73BF7BDFFBDB1
:1050F000EF3CE73BFFBEFFFFEF3EE6BCC5788B927F
:105100007AD0724F69CF7A5182928251698F8251DF
:1051100082118A527A11718F8A5282517A51618E2C
:1051200072107A118251825171CF8211A4F53147E8
:1051300020C639895A4D6ACF6B506310298A424D77
:10514000428E428E320D428E3A4E218B198C118C3A
:10515000114C220F118D19CE220F22102A5129D065
:105160003A514A924251318D41CE424F4A8F5312A9
:1051700042D232513A5131D0398F4A115293425270
:105180004291531342904AD14A913A50321129D058
:10519000194E29D04A94531642952A132A13325491
:1051A0004AD54A9352D35B14631473557B957B5451
:1051B0009396AC38A3D69B9493949BD593D68BD5DA
:1051C00083D683D783D78C3773146B146B14631413
:1051D0006B556315739763157BD77B968C388BD78C
:1051E0009C379C3793959B549B9493139B959BD68C
:1051F0008B95839583957B547B547B557B967B96CF
:1052000073966B156B556B5562D463157B5673158E
:105210006B157B5673566B15739573957BD69CF9FE
:10522000B5BCB5FCBDFCB5FCADBBADBB9D7AAE3C21
:10523000B67DAE3CA5FAA5FABE7CCEFDD73ED73EE4
:10524000C6BBCEBCDF7ED73DD6FCD6FCDEFDDEFD88
:10525000DEFDF7BFE73DF7FFF7BFE77EE73DE73D40
:10526000E73DEF3DF7BEF7BEE73CDEBBEEFDF73DA9
:10527000EEFCF73EEF3CEF3CDEBADEBADEBAEEFB08
:10528000E6FBDEBAEF3CEF3CF7BEEF7DE73CE73CE8
:10529000DEBBDEBBEF3DAD35738E528B39C82104CA
:1052A00021041082210400010842210410C318C304
:1052B000108329454A499CF3B576CE38D6BADEFA32
:1052C000DEFAE73BE73BE77CEFBCDF3BE73BE73B56
:1052D000EF7CF77DEF3DF77EEF3DC5B89C348B93B7
:1052E000728F7A9182927A108251825171CF71CFEE
:1052F00082518211698F698F7A1182527210698F7F
:1053000072107A517A517A1071D07A11A4B4394757
:105310003946394739475A8D6B515AD0194A194B7A
:105320002A4F32902A8F2A4F2A4F224F11CE11CE68
:105330001A10225212111A9212120A111A5419D268
:105340003A9521D13211218F2A1032502A0E2A503B
:1053500022522294121209D111D122122A1221D1E1
:105360003AD43AD33AD322502A511A111211229325
:1053700012102A932A9322531A1212130A1212534A
:105380001A5209D022523B1432D3325242935294D1
:105390007B9793D98356947894788436843784386D
:1053A0007BD85B1563564AD442923A5132513292BD
:1053B000329232933A943AD532525B566355739691
:1053C0008C3793D6A4778B9493958B54A4378B55B5
:1053D00093D77B9573957C3763145AD4635763577F
:1053E0005B1642D4429342D4429342944A944A95E3
:1053F0004A5452D552D552D4631552D35B146B958F
:105400007C378CB99D3B9D7C8CFA747795BC7CF97C
:105410008D7B853A8D7A9DBB9DBA9579A5FAB63B71
:105420009DB9A5FAB63BCF3FC6FEC6BDD6FDD6BCDC
:10543000E77EF7BFEFBFF7FFE7BFE7BFD73EE77FE6
:10544000DEFDEF7EFFBFF7BFE77DEF7DF77EFFBF9D
:10545000EF3DE6FCF77EDEFBE6FBE6BBEF3CF77DCF
:10546000EF3CF77DEF3CF77DFFFFEFBEE73CEF7DC4
:10547000E73DDEFCCE396B0D5A8B3987314518C3B9
:105480001082210308410000084118C418C310C34A
:10549000108310C352CB9CF3C638D679E73BE73C68
:1054A000EF7DE73BD6B9E77CE73BEFBDD6FAE73BBC
:1054B000FFFFFFBEEF3DFFBFEEFDA4748B927B119B
:1054C0007A9082D19313825182518A5282518251B1
:1054D00071D071D07210698E7A1171CF82927A5028
:1054E000825171CF7A10825171CF8A93A4F428C46B
:1054F00030C428C428C5314841CC3A0E0089114C2B
:1055000019CE22901A4F1A4F22902AD13354125199
:1055100022931A531A9312520A521A941254229531
:105520001A1319D1199022111A1122522A9212100B
:10553000125402130A550A960A5412540A120A12F5
:105540001212229412111A92121212520A53129427
:1055500023140A1022D31A5222D422D5231623163A
:1055600012D312D30A511AD4125309D109903A9482
:1055700052D66317529474396C385BD76C38639782
:1055800042D53A9419D12A9411D0121011CF1A5140
:105590001A52121201D109D22295225332535315B5
:1055A00063556B547B968C377B5573146AD3735554
:1055B00063146396531542D34AD429D0321329D2A7
:1055C0002A131A1119D011CF118F22121150115014
:1055D00021D22A132A1232533253321242933211F9
:1055E0004AD44B144B144B543AD243133B133B5401
:1055F00032D332D332D24B9553D43B1143104310A4
:1056000053924B517CF885398D7A8D7A9DBAAE3B99
:10561000B63BC6FEBEBCBEFDBF3EBEFDBEFEA5FA8D
:10562000CEFEADB9CEBDC67BD73DD73DDF3DF7FF42
:10563000DEFCEF7EDEFCEF7EDEFCF77DF73DEF3C2F
:10564000F77DDEBAFFFFEF7DF7FFEFBEEF7DEFBE28
:10565000E73DE6FC6B0E39872906314620C321035E
:1056600021030840298518C329461083190410C452
:105670000842108242499CF3DEFBD6BADEFBE73CCF
:10568000E73CD6BACE79E77CE77CDF3BDEFAEFBDBC
:10569000F7BEF7BEE6FCFF7FC5B88B926A4E831259
:1056A0007A9082D18AD3721092D47A109B157A1193
:1056B00071CF71D071CF71CF7210618E72108291E3
:1056C0007A10618E698E71D0721071CFB4F54988ED
:1056D00028C431053907520C4A0E214C198D19CFB7
:1056E0002A921A502B133B544BD664B94C374C7842
:1056F0003B97335622D423142B552B5522D5121306
:10570000435732D42A9322922AD422D32AD423155F
:10571000021313190B190B180AD7029512D61B1670
:10572000231612D41B152356231512D41B162356E9
:105730002B9633D623533BD633966D7C7DFE54FA9D
:105740003C771B5413140AD41B5702541A952A96FB
:105750002A563AD83AD732D62B153B973B573316B1
:1057600022952AD622952B162B1612522B1433155E
:105770003B9823161AD623181A962B171A543295CB
:105780003AD54AD54AD442935B16425352D53A93FE
:105790003AD53B162AD422932A93329419D2225412
:1057A0001A121A521A511A512A921A1132D51A1370
:1057B0002254121312132AD62AD52A952A952A94EE
:1057C00032D52A93229233132AD322D2125123158F
:1057D00023151A9422D42B1433132B1133522AD1AC
:1057E0002AD133132AD33B9643D63B954C374C36BC
:1057F0004BD554354BD354344C344C344BD45C36A9
:105800005BD453936C3584F78DB8AE7BC73ECF7FA6
:10581000DFFFD77FE7BFCEFBDF7DF7FFF7BEE73CBB
:10582000DEBBF7BEFFBEFFFFF7BEFFFFFFFFF7FFC8
:10583000EF7DCE7983D13147398729052104294469
:1058400031862103294529452946214529462986AE
:1058500018C319046B4DAD75F7BED6BAF7BDDEFBA4
:10586000DEFBEF7DD6B9E77DCE79EFBDFFFEF7BE5B
:10587000FFFFFFBFFF7FE6BCACB66A8E7AD08B120B
:105880008B138B138AD39B559B1492D392D39B1467
:105890009B1492D37A517A518291720F8291720F36
:1058A00082917A517A5182517A108A93DE3A520962
:1058B00049C8310531073989318C29CE198D32D249
:1058C0001A502B123B945477753A85FC9EBF6D7B22
:1058D000653A4C3764F964F964F964F94BD7543785
:1058E00053D65C375C373B543B943B962B55231681
:1058F0000AD70B1A0B5B03190B590B1802961317D7
:105900001B1723572BD7447933972B56235533D660
:105910006DBD54F954B83BD4547785FD96BF8E7E47
:105920006DBB4CF81B5413151B5812D71AD81A9874
:10593000121609D51AD80A960A9602540A950253E5
:105940000A551296021323171AD52B163B966D3C57
:1059500054BB2B571B18131813180A560A140A1491
:1059600012131A1311D21192119132D61A131A135B
:105970000A130A540A530A531A940A112AD51A937D
:105980001A5112501A902AD12A9122521A9322D4D3
:1059900012531AD512940A5323170A541AD6021214
:1059A000129412930A521291020F12921B150A942A
:1059B00012D512D60A9412931AD20A4F1AD122D2B1
:1059C000125201D112540A540A940A9402110292FA
:1059D00001CF1AD212901AD012D00A4F12D201CF90
:1059E00022D309CE2AD1331143D34C3464B77DBAC4
:1059F0009E7DBF3FB6FDBEFDC6BCE77FEF7EDEFCF1
:105A0000E73DD6BBFFBEEF7DEF7DFFFEFFFFEF7DE5
:105A1000CE7AC639734F31871083314629451082BB
:105A20002103108121440841318708822105214545
:105A3000214542498430D6BACE79EF7DE73CD6BACB
:105A4000CE78D6BAD6B9DEFACEB9CEB9F7BEE73C33
:105A5000E6FBFF7FEEFDC57772CE728F6A4E724F06
:105A60007A907A919314829292D47A1192D48A92F3
:105A700092D38A928292829269CF9314720F829209
:105A8000829282917A51721071CF698FBD776ACDFF
:105A90004A0949C93147318931CC218C32913313BC
:105AA0003312228F5C768DFBB6FECFFFBF7FC7FF20
:105AB000AEFFBF7FB6FEAEFEAEFDAEBDB6BEB6BE9D
:105AC000BEFFB6BDBEFF963B6D3865396D7C4CBBE5
:105AD0000AD70319031A13DD139C0319135A131859
